:020000040800F2
:1000000030050020612F0008692F00086B2F0008C1
:100010006D2F00086F2F0008712F000800000000EE
:10002000000000000000000000000000732F000826
:10003000752F000800000000772F0008792F0008B6
:100040007B2F00087B2F00087B2F00087B2F0008E8
:100050007B2F00087B2F00087B2F00087B2F0008D8
:100060007B2F00087B2F00087B2F00087B2F0008C8
:100070007B2F00087B2F00087B2F00087B2F0008B8
:100080007B2F00087B2F00087B2F00087B2F0008A8
:100090007B2F00087B2F00087B2F00087B2F000898
:1000A0007B2F00087B2F00087B2F00087B2F000888
:1000B000A91100087B2F00087B2F00087B2F000868
:1000C0007B2F00087B2F00087B2F00087B2F000868
:1000D0007B2F00087B2F00087B2F00087B2F000858
:1000E0007B2F00087B2F00087B2F0008DFF80CD047
:1000F00003F0F8FB0048004701010008300500202C
:1001000000F02AF800F0E0FE00F0F9FE00F014FF25
:1001100000F02DFF00F048F900F06CFA4FF47A700F
:1001200000F046FF07480068074908600748006874
:100130000749086001F001F802E001200549086064
:10014000FBE7000058000020700000205C00002049
:10015000740000200000002000B589B001210420B7
:1001600001F088FF0121082001F084FF0121022015
:1001700001F08DFF4020ADF8040003208DF806004B
:1001800018208DF8070001A9824801F0BDFC8020ED
:10019000ADF8040003208DF8060018208DF8070044
:1001A00001A97C4801F0B0FC0120ADF80400032057
:1001B0008DF8060018208DF8070001A9764801F097
:1001C000A3FC0220ADF8040003208DF806001820DF
:1001D0008DF8070001A9704801F096FC1720ADF8D2
:1001E00018000020ADF81A00ADF81E0041F26F7043
:1001F000ADF81C0006A9694802F078F86020ADF857
:1002000008000120ADF80A000420ADF80C00002021
:10021000ADF80E00ADF810000820ADF81200400156
:10022000ADF814000020ADF8160002A95B4802F0FA
:100230009AF80821594802F0E5FC02A9574802F053
:10024000D4F80821554802F0E6FC02A9534802F010
:1002500019F90821514802F0EBFC02A94F4802F0BD
:100260005CF908214D4802F0ECFC01214B4802F0FA
:1002700099FC0121494802F095FB09B000BD10B579
:1002800004461021434801F0ECFC2021414801F0D4
:10029000E6FC204603F0D9F940493C31088010BD06
:1002A00010B5044620213B4801F0DBFC1021394801
:1002B00001F0D5FC204603F0C8F938493C310880EC
:1002C00010BD10B504464FF48071354801F0C9FCEB
:1002D0008021334801F0C3FC204603F0B6F92F49D2
:1002E0004031088010BD10B5044680212C4801F033
:1002F000B8FC4FF480712A4801F0B1FC204603F0AD
:10030000A4F926494031088010BD10B504461021DB
:10031000244801F0A6FC2021224801F0A0FC204640
:1003200003F093F91D493431088010BD10B504461F
:1003300020211C4801F095FC10211A4801F08FFC87
:10034000204603F082F915493431088010BD10B5FC
:1003500004460821134801F084FC0421114801F0EF
:100360007EFC204603F071F90C493831088010BD3D
:1003700010B5044604210B4801F073FC082109481C
:1003800001F06DFC204603F060F904493831088023
:1003900010BD000000080140000C014000040040B6
:1003A000001801400010014008B50121042001F0AF
:1003B00061FE3020ADF8000014208DF8030003200A
:1003C0008DF8020069468A4801F09EFB03218848A7
:1003D00001F045FC08BD08B52020ADF80000142050
:1003E0008DF8030003208DF802006946804801F073
:1003F0008BFB08BD08B52020ADF8000004208DF867
:10040000030069467A4801F07FFB08BD08B501206A
:10041000009002E00098401E009000980028F9D15A
:1004200008BD10B51021724801F01BFCFFF7EEFF6C
:1004300020216F4801F013FCFFF7E8FF10216C4802
:1004400001F00DFCFFF7E2FF2021694801F009FCF3
:10045000FFF7DCFF10BD10B51021654801F001FC6D
:10046000FFF7D4FF2021624801F0FBFBFFF7CEFF2E
:1004700010215F4801F0F3FBFFF7C8FF20215C4823
:1004800001F0EDFBFFF7C2FF10BD10B51021584879
:1004900001F0E7FBFFF7BAFF2021554801F0DFFB31
:1004A000FFF7A8FFFFF7B2FF1021514801F0D7FB7B
:1004B000FFF7ACFF20214E4801F0B7FB38B1FFF742
:1004C0008AFF10214A4801F0CCFB002010BD10210A
:1004D000474801F0C6FBFFF77EFFFFF797FF0120BB
:1004E000F4E770B5044600251BE01021404801F0F8
:1004F000B8FB14F0800F04D020213D4801F0AFFB81
:1005000003E020213A4801F0ACFB6006040EFFF73F
:100510007DFF1021364801F0A2FBFFF777FF681C32
:10052000C5B2082DE1DB1021314801F09AFBFFF73D
:10053000ACFF00B970BD00BFFCE770B50024FFF749
:1005400059FF002519E06006040E1021284801F02B
:1005500086FBFFF75BFF2021254801F066FB0128A1
:1005600001D144F00104FFF751FF1021204801F0B0
:1005700078FBFFF74BFF681CC5B2082DE3DB204674
:1005800070BD70B505460C46FFF74BFFD020FFF756
:10059000A8FF2846FFF7A5FF2046FFF7A2FFFFF7B9
:1005A0005AFF70BD70B50446FFF73BFFD020FFF740
:1005B00098FF2046FFF795FFFFF733FFD120FFF7A5
:1005C00090FFFFF7BAFF0546FFF75FFFFFF743FF16
:1005D000284670BD70B504462046FFF7E3FF054688
:1005E000611CC8B2FFF7DEFF064606EB052070BDB2
:1005F0000008014010B500216B20FFF7C2FF082161
:100600001920FFF7BEFF04211A20FFF7BAFF1821B7
:100610001B20FFF7B6FF10211C20FFF7B2FF10BD13
:1006200010B53B20FFF7D6FF044602F0EFFF154957
:1006300008603D20FFF7CEFF044602F0E7FF1249B5
:1006400008603F20FFF7C6FF044602F0DFFF0F49B6
:1006500008604320FFF7BEFF044602F0D7FF0C49B5
:1006600008604520FFF7B6FF044602F0CFFF0949B6
:1006700008604720FFF7AEFF044602F0C7FF0649B7
:10068000086010BD04000020080000200C000020BD
:100690001000002014000020180000202DE9F04177
:1006A00005460C46FE480168204602F0ABFD0746B1
:1006B000FC480168384602F0ABFD0646FA4801687E
:1006C000304602F04DFDF8490860F8484168F848A6
:1006D000006802F097FD0646F4488168304602F053
:1006E00091FDF4490860F148C06880F0004048601E
:1006F000EE48C06880F000408860EF480068C8603D
:100700000868E849096802F083FD0646E748016881
:10071000304602F025FDE5490860E6494868E149B0
:10072000096802F075FD0646E0484168304602F06F
:1007300017FDDE494860DF498868DA49096802F038
:1007400067FD0646D9488168304602F009FDD74961
:100750008860D849C868D349096802F059FD06463F
:10076000D248C168304602F0FBFCD049C860CE4890
:100770000168284602F046FDD0490860D04800785C
:1007800002F04DFF0646C9480168304602F040FDC0
:10079000CC490860CA48007802F041FF0646C348C9
:1007A0008168304602F034FDC7490860C4480078CB
:1007B00002F035FF0746C3480168384602F028FDBD
:1007C0000646C2480168304602F0CAFCC0490860CB
:1007D00008460168BB48006802F050FDBD4908604A
:1007E000BB480168B848006802F048FDBA49086093
:1007F000B4480068B9490860B148007802F00FFFBA
:100800000646AA484168304602F002FDB449086035
:10081000B2480168AF48006802F0FAFC0646A348F7
:100820000168304602F0F1FCA0490860AC4801685C
:10083000A848006802F0ECFC06469C484168304637
:1008400002F0E3FC99494860A4480168A2480068A6
:1008500002F0DEFC064695488168304602F0D5FC81
:10086000924988609E4801689B48006802F0D0FC6D
:1008700006468E48C168304602F0C7FC8B49C86006
:100880008E4801689348006802F0C2FC064686481C
:100890000168304602F064FC8349086087480168BB
:1008A0008D48006802F0B4FC06467D480168304679
:1008B00002F056FC7A49086008460168204602F0BA
:1008C000A1FC88490860BDE8F0812DE9F0410546AA
:1008D0000C4673480168204602F094FC07467148B4
:1008E0000168384602F094FC06467F4801683046AD
:1008F00002F036FC7C4908606C4841686C4800682E
:1009000002F080FC064669488168304602F07AFCB5
:10091000684908606548C06880F0004048606348E6
:10092000C06880F00040886063480068C86008685C
:100930005C49096802F06CFC06465C480168304678
:1009400002F00EFC594908605A494868554909683F
:1009500002F05EFC064655484168304602F000FC55
:1009600052494860534988684E49096802F050FC72
:1009700006464E488168304602F0F2FB4B498860DB
:100980004C49C8684749096802F042FC0646474896
:10099000C168304602F0E4FB4449C860524801682F
:1009A000284602F02FFC454908604548007802F0CF
:1009B00036FE06463D480168304602F029FC4149B2
:1009C00008603F48007802F02AFE064637488168F2
:1009D000304602F01DFC3C4908603948007802F0BE
:1009E0001EFE074637480168384602F011FC0646ED
:1009F00036480168304602F0B3FB354908600846C6
:100A000001683048006802F039FC3249086030481B
:100A100001682D48006802F031FC2F490860294820
:100A200000682E4908602648007802F0F8FD064666
:100A30001E484168304602F0EBFB29490860274810
:100A400001682448006802F0E3FB06461748016885
:100A5000304602F0DAFB15490860214801681D485C
:100A6000006802F0D5FB064610484168304602F0A7
:100A7000CCFB0E494860194801681748006802F02D
:100A8000C7FB064609488168304602F0BEFB0749AD
:100A90008860134801681048006802F0B9FB25E03F
:100AA0007800002028000020640000203000002092
:100AB0001C0000201C010020200000207C000020E1
:100AC0002C00002080000020840000202400002052
:100AD000880000208C00002090000020940000205E
:100AE0009800002050000020600000200646E148E9
:100AF000C168304602F089FBDE49C860DE48016803
:100B0000DE48006802F084FB0646DD480168304696
:100B100002F026FBDA490860D7480168D948006826
:100B200002F076FB0646D8480168304602F018FB12
:100B3000D549086008460168204602F063FBD349A6
:100B40000860BDE8F0812DE9FF5F3B20FFF742FD23
:100B5000054602F05BFDCE4908603D20FFF73AFDF7
:100B6000054602F053FDCB4908603F20FFF732FDF8
:100B7000054602F04BFDC84908604320FFF72AFDF7
:100B8000054602F043FDC14908604520FFF722FDFC
:100B9000054602F03BFDC14908604720FFF71AFDFA
:100BA000054602F033FDBE490860BE49B8480068FA
:100BB00002F0B6FD07D24FF08D41B548006802F053
:100BC0005DFB81460FE0B849B148006802F01AFBAE
:100BD00006464FF08D4102F051FB05464FF07E5125
:100BE00002F013FB8146AF49AA48006802F098FD65
:100BF00007D24FF08D41A748006802F03FFB8246C4
:100C00000FE0A949A348006802F0FCFA06464FF03D
:100C10008D4102F033FB05464FF07E5102F0F5FAAC
:100C20008246A0499C48006802F07AFD07D24FF046
:100C30008D419948006802F021FB04460AE09A4978
:100C40009548006802F0DEFA05464FF08D4102F04B
:100C500015FB04462146484602F010FB834602F08D
:100C600008FD074603F0CCF9054600228F4B02F041
:100C7000ECFB8F4A8F4BCDE9000102F058FCCDE927
:100C8000020102F031FD8C4908602146504602F015
:100C9000F5FA834602F0EDFC074603F0B1F905468C
:100CA0000022824B02F0D1FB814A824BCDE9000148
:100CB00002F03DFCCDE9020102F016FD7F4908601B
:100CC00078497348006802F02BFD03D27A48006827
:100CD0007949086073496E48006802F02BFD05D21F
:100CE0007548006880F00040734908606D496948A4
:100CF000006802F015FD03D2704800686F49086073
:100D000068496448006802F015FD05D26B48006828
:100D100080F000406949086062495F48006802F05D
:100D2000FFFC60495C48006802F004FD4FF08E4112
:100D30005648006802F0F4FC10D25448006802F0F3
:100D400098FC07464FF066325D4B02F0F0FB81F0F5
:100D50000041054602F0C8FC4C4908604FF08E4146
:100D60004A48006802F0E6FC12D24848016855483B
:100D700002F048FA834602F07CFC07464FF06632E8
:100D80004F4B02F0D4FB054602F0AEFC3F49086031
:100D90004FF08E414148006802F0C2FC10D23F483B
:100DA000006802F066FC05464FF06632444B02F0E4
:100DB000BEFB81F00041074602F096FC374908600F
:100DC0004FF08E413548006802F0B4FC12D233482F
:100DD00001683C4802F016FA834602F04AFC0746D6
:100DE0004FF06632364B02F0A2FB054602F07CFC67
:100DF0002A4908604FF08E412948006802F090FCB3
:100E000010D22748006802F034FC05464FF06632E5
:100E10002B4B02F08CFB81F00041074602F064FC92
:100E20001F4908604FF08E411D48006802F082FCA7
:100E300012D21B480168234802F0E4F9834602F00D
:100E400018FC05464FF066321D4B02F070FB07465A
:100E500002F04AFC124908600C4801681648006814
:100E6000FFF733FD0D48016814480068FFF716FCD2
:100E7000BDE8FF9F300000207C0000208C00002097
:100E80006000002090000020780000204C0000202E
:100E900040000020440000204800002050000020B6
:100EA0005400002000F8FF460000404700806640E4
:100EB0001F85EB51B81E0940580000205C0000203F
:100EC0006666304000FF7F4708B50121042001F02D
:100ED000D1F83020ADF8000003208DF8020010207A
:100EE0008DF8030069462F4800F00EFE10212D48B2
:100EF00000F0B5FE20212B4800F0B1FE08BD08B57A
:100F00000121402001F0B6F84FF4C070ADF80000A8
:100F100003208DF8020010208DF803006946224856
:100F200000F0F2FD8021204800F099FE4FF480711E
:100F30001D4800F094FE08BD08B50121102001F005
:100F400099F80C20ADF8000003208DF80200102065
:100F50008DF803006946154800F0D6FD04211348BA
:100F600000F07DFE0821114800F079FE08BD08B5AB
:100F70000121102001F07EF83020ADF800000320A0
:100F80008DF8020010208DF803006946074800F034
:100F9000BBFD1021054800F062FE2021034800F04F
:100FA0005EFE08BD0008014000180140001001402D
:100FB00070B50446002509E042F63C0600BF30004B
:100FC000A6F10106FBD1FFF7BEFD6D1CA542F3D3D0
:100FD00070BD00E0401E0028FCD170472DE9F84F9D
:100FE000064642480168304602F00FF904462146A1
:100FF000284602F0B5F80546284602F03AFB0746B7
:1010000000223B4B02F05CFB01D23A4D09E028463E
:1010100002F02FFB07460022374B02F03DFB00D2C7
:10102000364D4946204602F0EDF88246A14651462B
:101030003348006802F0ECF8294600903148006817
:1010400002F0E6F8804621462F48006802F0E0F8FA
:101050008346414602F084F80746009902F080F882
:10106000BDE8F88F2DE9F84F06462848016830465C
:1010700002F0CBF804462146284602F071F80546F6
:10108000284602F0F6FA07460022194B02F018FB38
:1010900001D2184D09E0284602F0EBFA074600227B
:1010A000154B02F0F9FA00D2144D4946204602F0E1
:1010B000A9F88246A14651461548006802F0A8F8F2
:1010C000294600901348006802F0A2F880462146A5
:1010D0001148006802F09CF88346414602F040F84F
:1010E0000746009902F03CF8BDE8F88F9C0000200C
:1010F0000018A54000C028450018A5C000C028C59C
:10110000AC000020A8000020A4000020A0000020C7
:10111000B8000020B4000020B000002010B501216C
:10112000880701F03FFC01221146900701F055FCB1
:101130000121880701F0FCFE10BD1FB50121084602
:1011400000F0A5FF1C208DF8000000208DF80100A4
:101150008DF8020001208DF80300684600F00BFCBA
:101160000820ADF804000020ADF80600ADF80A0034
:1011700040F28F10ADF8080001A94FF0804001F057
:10118000B5F8FFF7CBFF1FBD10B500214FF0804031
:1011900001F008FC00220121880701F01EFC01215A
:1011A000880701F0C5FE10BD10B50121880701F0C8
:1011B000C2FE002836D00121880701F0B9FEFFF7F2
:1011C000C2FC194801681948006802F01BF8184968
:1011D0000860184801681848006802F013F81749B9
:1011E00008601748007807281AD2DFE800F00407E3
:1011F0000A0D1013160000F05BF812E000F05FF823
:101200000FE000F0EEF80CE000F07CF909E000F0EF
:1012100022FA06E000F0D1FA03E000F07DFB00E0E6
:1012200000BF00BF10BD000070000020580000206B
:1012300068000020740000205C0000206C0000208A
:10124000BC00002070B505460C460021284602F07F
:1012500067FA08D285F000463046FFF732F80020E2
:10126000FFF753F80AE00021284602F063FA05D29E
:101270000020FFF726F82846FFF747F80021204610
:1012800002F04EFA08D284F000463046FFF75FF8CD
:101290000020FEF7F4FF0AE00021204602F04AFA9F
:1012A00005D20020FFF753F82046FEF7E8FF70BD97
:1012B00010B54FF07E510846FFF7C4FF10BD2DE971
:1012C000F04F85B0FE480490C820039000200290A3
:1012D00001900090FB480068401DFA4908600846EC
:1012E000006802F09CF90446F54901F0C7FF02903E
:1012F00002980190019802F0BCF9804602F092FF3A
:1013000004460D46039802F08FF9064622462B4606
:1013100002F09BF8824602F0E7F90090EA49009853
:101320000860EA48EA4908604002EA490860E7487C
:10133000E94908600020E9490860E448E849086094
:101340004002E8490860E148E7490860E74800686A
:10135000FFF744FEE6490860E6480068FFF782FEB2
:10136000E5490860E5480168E148006802F0E2F9F3
:1013700003D2E2480068DE490860E048006880F077
:101380000044DB480168204602F0D4F905D2DB486E
:10139000006880F00040D6490860D8480168D64807
:1013A000006802F0C7F903D2D4480068D249086047
:1013B000D248006880F00044CF480168204602F01F
:1013C000B9F905D2CD48006880F00040CA490860EC
:1013D000C9480168C6480068FFF734FF05B0BDE89A
:1013E000F08F2DE9FF5FB648039000200290019036
:1013F0000090C3480068401DC14908600846006865
:1014000002F00DF90446AE4901F038FF029002984F
:101410000190019802F02DF9804602F003FF044686
:101420000D46B848006802F0FFF8064622462B46F3
:1014300002F00BF8824602F057F900900020A24912
:1014400008604FF08140A2490860AF48A149086098
:101450009E48A1490860A149009808604FF081406A
:101460009F490860A8489F49086098489E490860BD
:101470009E480068FFF7B2FD9D4908609D480068DE
:10148000FFF7F0FD9C4908609C4801689848006897
:1014900002F050F903D299480068954908609748CE
:1014A000006880F0004492480168204602F042F94A
:1014B00005D29248006880F000408D4908608F484E
:1014C00001688D48006802F035F903D28B48006846
:1014D000894908608948006880F0004486480168AE
:1014E000204602F027F905D28448006880F00040C9
:1014F00081490860804801687D480068FFF7A2FEC6
:10150000BDE8FF9F2DE9F04F85B06D4804900020A5
:1015100003900290019000907C480068801C7B49F9
:1015200008600846006802F07AF80446644901F051
:10153000A5FE039003980290029802F09AF8824662
:1015400002F070FE06460F467148006802F06CF823
:10155000804632463B4601F078FF044602F0C4F86C
:101560000190029802F085F8064602F05BFE804684
:1015700089466848006802F057F8044642464B46E0
:1015800001F063FF824602F0AFF800904E490198E7
:1015900008604FF081404E4908605B484D49086043
:1015A0004A484D4908604D49009808604FF0814015
:1015B0004B49086054484B49086044484A49086010
:1015C0004A480068FFF70AFD494908604948006831
:1015D000FFF748FD484908604848016844480068EA
:1015E00002F0A8F803D24548006841490860434822
:1015F000006880F000443E480168204602F09AF8F6
:1016000005D23E48006880F00040394908603B48F8
:1016100001683948006802F08DF803D23748006845
:10162000354908603548006880F000443248016858
:10163000204602F07FF805D23048006880F0004074
:101640002D4908602C48016829480068FFF7FAFD19
:1016500005B0BDE8F08F70B52448006802F009F8C5
:10166000044600222C4B02F017F87DD22148006876
:1016700001F0FFFF04460022274B02F00DF873D261
:1016800000201149086025481149086000201149CF
:1016900008602348104908600020104908601F486E
:1016A0000F49086000200F4908601D480E49086076
:1016B0000E480068FFF792FC0D4908600D4831E0C4
:1016C0000000FA44D80000209C0000200000A04048
:1016D000A4000020A8000020AC000020A0000020F2
:1016E000B0000020B4000020B800002068000020F6
:1016F000E80000206C000020EC000020C400002066
:10170000DC000020C80000209A99D93FE0000020AA
:10171000CC000020D0000020008046400000A04106
:1017200000008C420068FFF79DFC7C4908607C4803
:1017300001687C48006801F0FDFF03D2784800682A
:10174000784908607648006880F000447548016870
:10175000204601F0EFFF05D27148006880F000409C
:10176000704908606E4800E01AE001686B48006844
:1017700001F0E0FF03D26A480068684908606848E1
:10178000006880F0004465480168204601F0D2FFFF
:101790000CD26348006880F000406049086005E0B2
:1017A0004FF07E505F4908605C4908605B48016803
:1017B0005C480068FFF746FD70BD2DE9F04F87B02B
:1017C00059480690002005900490039002905748D5
:1017D0000068801C554908600846006801F01FFF3A
:1017E0000446514901F04AFD05900598049004987B
:1017F00001F03FFF824602F015FD06460F464C48B9
:10180000006801F011FF804632463B4601F01DFEA4
:10181000044601F069FF0390049801F02AFF064690
:10182000444A454B01F06AFDCDE9000102F0FAFCA3
:1018300004460D463E48006801F0F6FE804622460A
:101840002B4601F002FE824601F04EFF02903B491A
:10185000039808604FF081403949086039483A4997
:1018600008603A483A4908603A49029808604FF0DF
:10187000814039490860334838490860334838495D
:10188000086038480068FFF7A9FB26490860364819
:101890000068FFF7E7FB21490860214801682148FB
:1018A000006801F047FF03D21D4800681D49086029
:1018B0001B48006880F000441A480168204601F087
:1018C00039FF05D21648006880F0004015490860CD
:1018D000134801681148006801F02CFF03D210483A
:1018E00000680E4908600E48006880F000440B480C
:1018F0000168204601F01EFF05D20948006880F00B
:101900000040064908600548016806480068FFF77E
:1019100099FC07B0BDE8F08F70470000EC00002094
:10192000C4000020E80000200000FA44E400002089
:10193000D40000206E861BF0F921F93F9C000020A6
:10194000A40000209A99D93FA80000200000A040E0
:10195000AC000020A0000020B0000020B400002057
:10196000B8000020680000206C00002031490143CD
:10197000314A1160704770B5002100230F22C478EE
:101980000CB32D4C246804F4E064C4F5E064210A2F
:10199000C1F10403CA40447804FA03F18478144086
:1019A00021430901254C0678A155047804F01F0550
:1019B0000124AC4005786D114FF0E02606EB85055B
:1019C000C5F8004109E0047804F01F050124AC408B
:1019D0001B4D0678761145F8264070BD194A0A401D
:1019E0000243154B1B1F1A60704739B1124A121D72
:1019F00012680243104B1B1D1A6006E00E4A121DAE
:101A0000126882430C4B1B1D1A607047042808D1D2
:101A10004FF0E021096941F004014FF0E02211612B
:101A200007E04FF0E021096921F004014FF0E022C6
:101A3000116170470000FA050CED00E000E400E0E1
:101A400080E100E080FFFF1F10B50446CA488442D1
:101A500008D10121042000F027FB0021042000F020
:101A600023FB46E0C548844208D10121082000F04C
:101A70001BFB0021082000F017FB3AE0C04884421D
:101A800008D10121102000F00FFB0021102000F0F0
:101A90000BFB2EE0BB48844208D10121202000F03E
:101AA00003FB0021202000F0FFFA22E0B648844228
:101AB00008D10121402000F0F7FA0021402000F079
:101AC000F3FA16E0B148844208D10121802000F0E9
:101AD000EBFA0021802000F0E7FA0AE0AC488442EB
:101AE00007D10121801500F0DFFA0021A01500F0D8
:101AF000DBFA10BD10B50121084600F0D5FA00212F
:101B0000012000F0D1FA10BD2DE9F0410246002578
:101B10000026002000230024002791F803C00CF0C9
:101B20000F0591F803C01CF0100F03D091F802C00C
:101B30004CEA050591F800C0BCF1000F31D01468E3
:101B400000202BE04FF0010C0CFA00F3B1F800C0BC
:101B50000CEA03069E4220D183004FF00F0C0CFAD2
:101B600003F7BC4305FA03FC4CEA040491F803C0F4
:101B7000BCF1280F06D14FF0010C0CFA00FCC2F8A2
:101B800014C00AE091F803C0BCF1480F05D14FF032
:101B9000010C0CFA00FCC2F810C0401C0828D1D37C
:101BA0001460B1F800C0BCF1FF0F34DD54680020B0
:101BB0002EE000F1080C4FF0010808FA0CF3B1F820
:101BC00000C00CEA03069E4221D183004FF00F0CA7
:101BD0000CFA03F7BC4305FA03FC4CEA040491F841
:101BE00003C0BCF1280F05D100F1080C08FA0CF86D
:101BF000C2F8148091F803C0BCF1480F07D100F17E
:101C0000080C4FF0010808FA0CF8C2F81080401CCC
:101C10000828CED35460BDE8F0814FF6FF710180F3
:101C2000022181700421C170704702460020936830
:101C30000B4201D0012000E0002070470146886877
:101C400080B2704702460020D3680B4201D00120C9
:101C500000E0002070470146C86880B2704701610B
:101C60007047416170470AB1016100E0416170470E
:101C7000C16070474FF480320A43826181618261A2
:101C800082698269704702460020424B18684FF60D
:101C90008073184040EA021008433E4B18607047BA
:101CA0003D49C8617047F0B50A4600230024002171
:101CB000002500F00046B6F1004F02D1354EF16923
:101CC00001E0344E7168C0F3034583B200F440165E
:101CD000B6F5401F08D121F070612E4E766826F0CF
:101CE00070662C4F7E6012E000F48016B6F5801FFF
:101CF00006D1032606FA05F4A14341F0706106E01F
:101D0000460D360103FA06F6B14341F0706122B187
:101D1000460D360103FA06F6314300F00046B6F1EF
:101D2000004F02D11B4EF16101E01A4E7160F0BD0F
:101D300030B500228B071C0F0F2303FA04F2154B5A
:101D400008338C1053F824309343124C08348D1010
:101D500044F8253023468C1053F824308C07240F88
:101D600000FA04F423430B4C08348D1044F825305A
:101D700030BD0A490860704700080140000C01406E
:101D8000001001400014014000180140001C0140F7
:101D9000002001400000014000002042DC00204201
:101DA000DD48006840F00100DB49086008464068F3
:101DB000DA490840D849486008460068D8490840D0
:101DC000D54908600846006820F48020086008466D
:101DD000406820F4FE0048604FF41F0088607047A0
:101DE000CD49096821F48031CB4A11601146096858
:101DF00021F480211160B0F5803F03D0B0F5802F31
:101E00000ED106E0C449096841F48031C24A11602C
:101E100007E0C149096841F4A021BF4A116000E010
:101E200000BF00BF704710B501460022002300200C
:101E30004A11012A02D1B84C236806E0022A02D1D5
:101E4000B54C236A01E0B44C636A01F01F0201241F
:101E500094401C4201D0012000E0002010BD38B5A4
:101E6000002000900024002500BF3120FFF7DBFF99
:101E700005460098401C00900098B0F5A06F01D076
:101E8000002DF2D03120FFF7CEFF08B1012400E091
:101E90000024204638BD014600209F4A106820F0EB
:101EA000F80040EAC100106070479E490860704722
:101EB00002460020984B586820F47C1042EA010347
:101EC0001843954B5860704796490866704701461D
:101ED0000020914A506820F003000843506070478A
:101EE0008D48406800F00C007047014600208A4A87
:101EF000506820F0F0000843506070470146002011
:101F0000854A506820F4E0600843506070470146FD
:101F10000020814A506820F4605040EAC1005060BF
:101F2000704729B17C4A527A02437B4B5A7204E0D3
:101F3000794A527A8243784B5A7270477A490860DC
:101F4000704701460020744A506820F4404008431E
:101F5000506070470021754A11706F4A82F8201056
:101F6000012802D0042808D103E001216F4A117032
:101F700004E005216D4A117000E000BF00BF70470A
:101F80006B49086070476449096A0143624A1162FB
:101F90007047674944390860704730B50021002216
:101FA000002400235C4D6D6805F00C0121B104296B
:101FB00005D0082923D105E05E4D056022E05D4D86
:101FC00005601FE0544D6D6805F47012524D6D6848
:101FD00005F48034022505EB92421CB9564D554359
:101FE00005600BE04C4D6D6815F4003F03D0524D79
:101FF0005543056002E04F4D5543056002E04D4DED
:10200000056000BF00BF444D6D6805F0F00109098F
:102010004A4D6B5C0568DD4045603F4D6D6805F4D9
:10202000E061090A454D6B5C4568DD4085603A4DCD
:102030006D6805F46051C90A404D6B5C4568DD4030
:10204000C560354D6D6805F44041890B3C4D6B5CB6
:10205000C568B5FBF3F5056130BD29B12E4A52695B
:1020600002432D4B5A6104E02B4A526982432A4BAA
:102070005A61704729B1284A92690243264B9A61F6
:1020800004E0254A92698243234B9A61704729B143
:10209000214AD2690243204BDA6104E01E4AD26928
:1020A00082431D4BDA61704729B11B4AD268024353
:1020B000194BDA6004E0184AD2688243164BDA60A2
:1020C000704729B1144A12690243134B1A6104E0A4
:1020D000114A12698243104B1A6170471449403902
:1020E000086070470F49C86470470B49C871704752
:1020F0000948406A40F080700749486270470146CD
:102100000020054A92680A4201D0012000E0002028
:102110007047014988727047001002400000FFF8C4
:10212000FFFFF6FE00004242D8004242201002406B
:102130008004424200127A0000093D00F0000020B5
:102140000001002010B50446FE48844208D1012158
:10215000C014FFF7A9FF0021E014FFF7A5FFC4E0BA
:10216000B4F1804F08D101210846FFF7AAFF0021F2
:102170000120FFF7A6FFB8E0F348844208D101210F
:102180000220FFF79EFF00210220FFF79AFFACE03C
:10219000EE48844208D101210420FFF792FF00217C
:1021A0000420FFF78EFFA0E0E948844208D1012116
:1021B0000820FFF786FF00210820FFF782FF94E048
:1021C000E448844208D101211020FFF77AFF002162
:1021D0001020FFF776FF88E0DF48844208D1012114
:1021E0002020FFF76EFF00212020FFF76AFF7CE030
:1021F000DA48844208D101214014FFF755FF00213D
:102200006014FFF751FF70E0D548844209D10121E5
:10221000C804FFF749FF00214FF40020FFF744FFF7
:1022200063E0D048844209D101210805FFF73CFF53
:1022300000214FF48010FFF737FF56E0CA48844270
:1022400009D101214805FFF72FFF00214FF40010AD
:10225000FFF72AFF49E0C548844208D10121402008
:10226000FFF72FFF00214020FFF72BFF3DE0C04884
:10227000844208D101218020FFF723FF0021802024
:10228000FFF71FFF31E0BB48844208D101218015D0
:10229000FFF717FF0021A015FFF713FF25E0B64851
:1022A000844209D101210804FFF7FEFE00214FF40A
:1022B0008030FFF7F9FE18E0B048844209D10121CF
:1022C0004804FFF7F1FE00214FF40030FFF7ECFE69
:1022D0000BE0AB48844208D101218804FFF7E4FEFB
:1022E00000214FF48020FFF7DFFE10BD002202889E
:1022F000944B98420ED0994B98420BD0B0F1804F3E
:1023000008D0914B984205D0904B984202D0904B08
:10231000984204D14FF68F731A404B881A438D4B65
:10232000984207D08C4B984204D04FF6FF431A4096
:10233000CB881A4302808B8883850B880385814B69
:1023400098420BD0854B984208D08B4B984205D0D1
:102350008A4B984202D08A4B984201D10B7A03866D
:1023600001238382704770B5002400220023058C6E
:102370004FF6FE7635400584028C8388048B4FF639
:102380008F752C40B51E2C400D882C43751E2A409D
:102390000D892A434D882A436A4DA8420BD06F4DC0
:1023A000A84208D0744DA84205D0744DA84202D06E
:1023B000734DA84213D14FF6F7752A404D892A4331
:1023C0004FF6FB752A408D882A434FF6FF652B4058
:1023D0004FF6FF552B408D892B43CD892B438380AE
:1023E0000483CD888586028470BD70B500240022E8
:1023F0000023058C4FF6EF7635400584028C8388E8
:10240000048B48F6FF752C404FF6FF452C400D8895
:102410004FF6FF7606EA05252C434FF6DF752A4076
:102420000D8906EA05152A434D8806EA05152A4353
:10243000444DA84202D0494DA8421DD14FF67F75A8
:102440002A404D894FF6FF7606EA05152A434FF6D6
:10245000BF752A408D8806EA05152A434FF6FF35D9
:102460002B404FF2FF752B408D8906EA85052B43E3
:10247000CD8906EA85052B4383800483CD880587B3
:10248000028470BD70B5002400220023058C4FF635
:10249000FF6635400584028C8388848B4FF68F75E8
:1024A0002C404FF6FC752C400D882C434FF6FF5501
:1024B0002A400D894FF6FF7606EA05252A434D8806
:1024C00006EA05252A431F4DA84202D0234DA84203
:1024D0001DD14FF2FF752A404D894FF6FF7606EA6F
:1024E00005252A434FF6FF352A408D8806EA052543
:1024F0002A434EF6FF752B404DF6FF752B408D8914
:1025000006EA05152B43CD8906EA05152B43838082
:102510008483CD888587028470BD70B50022002336
:102520000024058C4EF6FF7635400584038C8488A4
:10253000828B48F6FF752A404FF6FF452A400D88EA
:1025400020E00000002C0140000400400008004092
:10255000000C004000100040001400400034014016
:10256000004C014000500140005401400018004060
:10257000001C004000200040004001400044014099
:10258000004801404FF6FF7606EA05252A434DF63E
:10259000FF752B400D8906EA05352B434D8806EA69
:1025A00005352B43FA4DA84202D0FA4DA84208D176
:1025B0004BF6FF752C408D894FF6FF7606EA8515A0
:1025C0002C4384808283CD88A0F84050038470BD62
:1025D000828B4FF2FF331A408283828B4FF6FF7358
:1025E00003EA01231A4382837047F0B50C4615466F
:1025F000002200210026078C4EF6FF7C07EA0C071C
:102600000784828B018C4FF6FF7707EA043640F689
:10261000FF473A404FF6FF7707EA05273A434FF660
:10262000FF7707EA03373A43D94FB8420ED0D94F64
:10263000B8420BD0B0F1804F08D0D74FB84205D088
:10264000D64FB84202D0D64FB84206D14DF6FF77EA
:10265000394046F48057394305E047F6FF57394083
:1026600044F48057394382830184F0BD828B4FF656
:10267000F3731A408283828B0A4382837047F0B5DA
:102680000C461546002200210026078C4FF6FF6CF1
:1026900007EA0C070784828B018C4FF6FF7707EA65
:1026A00004264FF60C773A404FF6FF7707EA0317F8
:1026B0002F433A43B64FB8420ED0B64FB8420BD074
:1026C000B0F1804F08D0B44FB84205D0B34FB842F4
:1026D00002D0B34FB84206D14FF6FF57394046F407
:1026E0008077394305E04FF2FF57394044F4807753
:1026F000394382830184F0BD028B4FF2FF331A40CD
:102700000283028B4FF6FF7303EA01231A4302830D
:102710007047F0B50C461546002200210026078CB4
:102720004FF6EF7C07EA0C070784028B018C4FF60B
:10273000FF7707EA041640F6FF473A404FF6FF7767
:1027400007EA03373A434FF6FF7707EA05273A438C
:102750008F4FB8420ED08F4FB8420BD0B0F1804FA0
:1027600008D08D4FB84205D08C4FB84202D08C4F64
:10277000B84206D14FF6DF77394046F010073943AB
:1027800005E04FF65F77394044F010073943028384
:102790000184F0BD028B4FF6F3731A400283028B63
:1027A0000A4302837047F0B50C461546002200210B
:1027B000068C4FF6FE773E400684028B018C4FF666
:1027C0000C7632407E1C06EA03162E433243704ECE
:1027D000B0420ED06F4EB0420BD0B0F1804F08D057
:1027E0006D4EB04205D06D4EB04202D06C4EB0423C
:1027F00006D14FF6FD76314044F00106314305E045
:102800004FF6F576314044F00106314302830184EE
:10281000F0BD70B505460C465D4885420ED05D485A
:1028200085420BD0B5F1804F08D05B48854205D07A
:102830005A48854202D05A48854200D100E000BF84
:10284000208850B92389A28861882846FFF7ABFF0A
:10285000E1882846FFF79EFF25E0208804280AD15A
:102860002389A28861882846FFF753FFE18828461C
:10287000FFF742FF17E0208808280AD12389A288A1
:1028800061882846FFF7FBFEE1882846FFF7EEFE49
:1028900009E02389A28861882846FFF7A6FEE1881F
:1028A0002846FFF795FE70BD2DE9F04105460C4620
:1028B00000260127608808B9022600E00026A088CB
:1028C000012801D1022700E001272088A0B923892F
:1028D000A28861882846FFF766FFE1882846FFF74F
:1028E00059FF23893A4631462846FFF712FFE1880F
:1028F0002846FFF701FF13E02389A2886188284654
:10290000FFF707FFE1882846FFF7F6FE23893A46DE
:1029100031462846FFF747FFE1882846FFF73AFF90
:10292000BDE8F0810A884B881A438B881A43CB880C
:102930001A430B891A434B891A438B891A43A0F80F
:10294000442070474FF6FF71818000210180C180D3
:102950004180017270470021018041808180C180E7
:10296000018141818181C1817047002101804180C5
:10297000012181800021C1800181704700210180F7
:1029800041808180C1800181418181817047000047
:10299000002C0140003401400004004000080040C9
:1029A000000C004021B1028842F00102028004E0E4
:1029B00002884FF6FE731A400280704731B1B0F8BA
:1029C000442042F40042A0F8442005E0B0F844203E
:1029D000C2F30E02A0F8442070471AB183890B435A
:1029E000838102E083898B438381704781827047B2
:1029F00041EA0203A0F8483070471AB183890B43BB
:102A0000838102E083898B438381704701894FF67C
:102A1000F8721140018170470A46002101894FF682
:102A20008F73194011430181704730B504460D463C
:102A300029462046FFF7F0FF208940F0070020815B
:102A400030BD2DE9F04104460D4616461F46602D67
:102A500006D13B46012231462046FFF75AFE05E0EB
:102A60003B46012231462046FFF79DFE294620467F
:102A7000FFF7D2FF208940F007002081BDE8F081F8
:102A800030B50C4600210189C9B24FF6FF7505EA41
:102A90000325154325432943018130BD2DE9F0412C
:102AA00005460E4617469846002443463A463146A8
:102AB0002846FFF7E5FF2C894FF6F870044044F0F4
:102AC00007044FF68F70044044F070042C81BDE879
:102AD000F081F0B504460D4616461F463B46324689
:102AE00029462046FFF7CCFF208940F48040208112
:102AF000F0BD0185828270470A46002101884FF6A9
:102B00008F731940114301807047F0B50C4615468C
:102B10001E460021002200230189028B038C4FF600
:102B2000F877394021434FF6FC473A4040F201170D
:102B30003A434FF6DD773B404FF6FF7707EA06173B
:102B40002F433B43018102830384F0BD0A460021E9
:102B5000018B4FF68F7319401143018370470A466A
:102B60000021018B48F6FF7319404FF6FF7303EA0B
:102B700002231943018370470A460021818B4FF6D7
:102B80008F7319401143818370470A460021818B5E
:102B900048F6FF7319404FF6FF7303EA0223194307
:102BA0008183704721B1028842F08002028004E0F4
:102BB00002884FF67F731A400280704721B18288E5
:102BC00042F00402828004E082884FF6FB731A40D0
:102BD0008280704721B1828842F00802828004E03E
:102BE00082884FF6F7731A408280704721B182883D
:102BF00042F00102828004E082884FF6FE731A40A0
:102C0000828070470A460021018B4FF6F773194006
:102C10001143018370470A460021018B4FF2FF7375
:102C200019404FF6FF7303EA0223194301837047EB
:102C30000A460021818B4FF6F773194011438183B7
:102C400070470A460021818B4FF2FF7319404FF6FF
:102C5000FF7303EA02231943818370470A46002168
:102C6000018B4FF6FB7319401143018370470A46ED
:102C70000021018B4FF6FF3319404FF6FF7303EA33
:102C800002231943018370470A460021818B4FF6C6
:102C9000FB7319401143818370470A460021818BE1
:102CA0004FF6FF3319404FF6FF7303EA022319432F
:102CB000818370470A460021018B4FF67F731940CC
:102CC0001143018370470A460021018BC1F30E01B5
:102CD0004FF6FF7303EA02231943018370470A4644
:102CE0000021818B4FF67F73194011438183704718
:102CF0000A460021818BC1F30E014FF6FF7303EAF0
:102D000002231943818370470A460021018C4FF644
:102D1000FD7319401143018470470A460021018C5C
:102D20004FF6F77319401143018470470A4600219A
:102D3000018C4FF6DF7319404FF6FF7303EA02135D
:102D40001943018470470A460021018C4FF67F73B6
:102D500019404FF6FF7303EA0213194301847047C9
:102D60000A460021018C4FF6FF5319404FF6FF73BE
:102D700003EA02231943018470470A460021018CAB
:102D80004FF2FF7319404FF6FF7303EA0223194312
:102D9000018470470A460021018C4DF6FF731940EB
:102DA0004FF6FF7303EA023319430184704730B5CD
:102DB000002301248C40A3B2048C9C430484048C23
:102DC00002FA01F5ADB22C43048430BD30B50023C6
:102DD00004248C40A3B2048C9C430484048C02FA27
:102DE00001F5ADB22C43048430BD70B5034600201C
:102DF00000241846183001258D40ACB21D8CA54327
:102E00001D8409B1082909D100EB6100056825F08E
:102E1000700505600568154305600EE00D1FC5F3DC
:102E20004E052844056825F4E045056005684FF621
:102E3000FF7606EA02263543056070BD21B102889F
:102E400042F00202028004E002884FF6FD731A404D
:102E50000280704721B1028842F00402028004E03F
:102E600002884FF6FB731A400280704721B18288B6
:102E700042F08002828004E082884FF67F731A401D
:102E80008280704702884FF6F7731A4002800288EA
:102E90000A430280704782884FF68F731A408280FF
:102EA00082880A438280704702894FF6F8731A407D
:102EB000028102890A430281704702894FF67F73BB
:102EC0001A40028102890A43028170478184704757
:102ED0008185704781867047018770478187704779
:102EE000A0F84010704702884FF6FF431A40028056
:102EF00002880A43028070470146888E7047014667
:102F0000088F70470146888F70470146B1F840002E
:102F100070470146888C70470146088D704702460D
:102F20000020138A0B4201D0012000E000207047EE
:102F3000CA430282704730B50246002000230024B5
:102F4000158A05EA0103958905EA010413B10CB15C
:102F5000012000E0002030BDCA430282704700001B
:102F60000648804706480047FEE7FEE7FEE7FEE723
:102F7000FEE7FEE7FEE7FEE7FEE7FEE7613000085A
:102F8000ED0000080CB50020019000906B4800682F
:102F900040F480306949086000BF6848006800F468
:102FA000003000900198401C0190009818B90198D9
:102FB000B0F5A06FF1D16148006810F4003F02D075
:102FC0000120009001E0002000900098012842D1EB
:102FD0005B48006840F010005949086008460068E6
:102FE00020F0030008600846006840F00200086016
:102FF0005248406851494860084640684860084661
:10300000406840F4806048600846406820F47C10C6
:1030100048600846406840F4E81048600846006888
:1030200040F08070086000BF4448006810F0007FE6
:10303000FAD04248406820F0030040494860084602
:10304000406840F00200486000BF3C48406800F023
:103050000C000828F9D10CBD10B5FFF793FF10BD87
:1030600010B53648006840F0010034490860084651
:103070004068344908403149486008460068324990
:1030800008402E4908600846006820F48020086047
:103090000846406820F4FE0048604FF41F00886036
:1030A000FFF7DAFF4FF000602849086010BD10B547
:1030B000002100200022214B5B6803F00C0121B1AC
:1030C000042906D0082928D107E0214B214C236090
:1030D00027E01F4B1F4C236023E0184B5B6803F471
:1030E0007010164B5B6803F48032022303EB9040B0
:1030F00022B9194B4343174C23600DE00F4B5B681B
:1031000013F4003F04D0144B4343124C236003E0FC
:103110000F4B43430F4C236003E00D4B0D4C2360DA
:1031200000BF00BF054B5B68C3F303130B4CE15CAE
:10313000084B1B68CB40074C236010BD00100240B9
:10314000002002400000FFF8FFFFF6FE08ED00E05F
:1031500000127A000401002000093D00080100204F
:10316000F0B480EA0102D40F4200B2EB410F02D268
:103170000246084611464A0042D0C30DDDB2C1F3F3
:10318000C752AD1A202D35DAC1F3160141F4000201
:1031900004B15242C5F1200602FA06F12A41104458
:1031A000B3EBD05F23D0C4B1012DA0EBC35009DC39
:1031B000F0BC4FF0004202EAC35200F50000DBB25F
:1031C00000F0ECBA400000F1807000EBC350A0F1B9
:1031D000807040EAD170490009E0490841EAC071B5
:1031E000A0EBC35000F50000400800EBC350F0BC5A
:1031F00000F0CBBA6142012202EB4101001BF6E76D
:10320000F0BC704781F00041AAE780F00040A7E7DA
:1032100080EA010210B502F00043400026D04A00C7
:1032200023D04FEA106101EB1261C0F35600C2F3E4
:10323000560240F4000042F40002A0FB0220A1F17B
:103240007F014FEA0040140401D000F1010050EA70
:10325000124001D44000491EC2B20C0604EBD0104B
:10326000401C4008802A02D003E0002010BD20F05E
:103270000100002900DA0020184310BD30B480EAB4
:10328000010202F0004530F0004221F0004015D06C
:10329000A0B1C0F3C753C2F3C754C2F31601C0F3C1
:1032A0001600E41A41F4000140F400027D3491421A
:1032B00001D3641C00E04900002C02DA30BC00207D
:1032C00070474FF400000023914201D3891A034351
:1032D00040084FEA4101F7D151B1914202D14FF07C
:1032E000004105E002D24FF0010101E06FF0010161
:1032F00003EBC450284430BC00F047BA2DE9FE4F20
:10330000804681EA0300C00F0C46009021F0004186
:1033100023F00045B8EB0200A94105D24046214602
:1033200090461C460B46024623F00040104304D151
:103330004046214603B0BDE8F08F270DC7F30A00D1
:10334000C3F30A510290401A0190402866DAC3F391
:10335000130040F4801B0098924620B10023D2EB6A
:10336000030A63EB0B0B01985946C0F1400250462B
:1033700000F0EAF906460D4650465946019A00F01B
:10338000F2F910EB08006141002487EA115284EA47
:10339000E7731A433BD0009A3AB3019A012A4FEAE5
:1033A000075210DC001B61EB02014FF0004202EA01
:1033B0000752CDE90042001C41F5801132462B46F0
:1033C00000F026FAB6E7001B61EB0201001C41F594
:1033D000801300185B412018A2F5001747EB03018A
:1033E00040EAD570B6196D4111E06D084FEA360616
:1033F00045EAC0754FEA0752001B61EB0201001C51
:1034000041F5801149084FEA300000195141324618
:103410002B4603B0BDE8F04F00F0EDB90098012253
:1034200040000023D0EB020263EBE07300982146DA
:103430004FEAE074B8EB000061EB0401E9E783F0C8
:1034400000435BE781F0004158E72DE9FE4F81EA38
:10345000030404F0004421F0004100944FF0000BFD
:1034600023F0004350EA010402D052EA030404D1DD
:103470000020014603B0BDE8F08FC3F30A54C1F346
:103480000A552C44A4F2F3340194A0FB0254C1F376
:10349000130141F48011C3F3130343F4801301FBC0
:1034A000024400FB034E840A970A44EA815447EA27
:1034B0008357A4FB076802958D0A05FB07854FEA31
:1034C000932C04FB0C542705029D4FEA065847EA4B
:1034D0001637B5EB08056EEB070C870E920E47EA20
:1034E000811742EA8312A7FB0201B6EB0B0164EBE2
:1034F00000042B0D43EA0C335E1844EB1C50DA46F3
:103500005146E7FB0201C5F313044FEA0B3343EACC
:1035100014534FEA0432019C43EA0603A4F10C045D
:103520000294009CCDE900B400F072F9A2E72DE905
:10353000F04D81EA030404F0004B21F000451446ED
:103540004FF0000A23F0004150EA050220D054EA6F
:1035500001021DD0C5F30A570246C5F31303C1F398
:103560001300C1F30A5640F4801543F48013A7EB0F
:103570000608101BD64608F2FD3873EB050002D38F
:1035800008F1010801E092185B41B8F1000F03DA7D
:1035900000200146BDE8F08D00204FF48011064662
:1035A00084460EE0171B73EB050705D3121B63EB74
:1035B000050306434CEA010C49084FEA3000921813
:1035C0005B4150EA0107EDD152EA030012D082EAD2
:1035D000040083EA0501084303D100224FF00043B1
:1035E00008E0101BAB4102D20122002302E06FF081
:1035F000010253101AEB06004CEB085110EB0A00C5
:1036000041EB0B01BDE8F04D00F0F5B8C10F80EAC9
:10361000E0700844CA079623002100F0BFB8962343
:103620000022114600F0BAB80EB5C10F80EAE07072
:103630000844CA07002140F233438DE80E000A46D1
:103640000B4600F0E5F803B000BD20F00040C10DCE
:10365000C0F3160040F400007F2901DA0020704713
:10366000962903DCC1F19601C8407047963988401D
:10367000704700F0004230F000400AD0C10D01F563
:103680006071C0F3160042EA0151C20840071143BD
:10369000704700200146704730B5002904DB4FF029
:1036A0000044404264EB0101002B04DB4FF0004476
:1036B000524264EB03038B4208BF824230BD0000DC
:1036C00030B5002904DB4FF00044404264EB0101B7
:1036D000002B04DB4FF00044524264EB0303994299
:1036E00008BF904230BD000001F0004330B421F02B
:1036F000004150EA010206D00A0DA2F56072C1F342
:103700001301002A02DC30BC00207047440F44EA59
:10371000C104C100E01830BC00EBC25000F035B865
:10372000002801DBC0F10040002901DBC1F10041AC
:1037300081427047002801DBC0F10040002901DB15
:10374000C1F1004188427047202A04DB203A00FA88
:1037500002F1002070479140C2F1200320FA03F3E8
:10376000194390407047202A06DBCB17203A41FAD4
:1037700002F043EAE07306E041FA02F3D040C2F1FE
:10378000200291400843194670470029A8BF70479E
:10379000401C490008BF20F00100704710B4B0FA87
:1037A00080FC00FA0CF050EA010404BF10BC704722
:1037B00049B1CCF1200421FA04F411FA0CF118BF3C
:1037C000012121430843A3EB0C01CB1D0106000A94
:1037D000002BBEBF002010BC704700EBC35010444C
:1037E0000029A4BF10BC7047401C490008BF20F04E
:1037F000010010BC704710B5002B08DA401C41F1E5
:10380000000192185B411A4301D120F0010010BD64
:103810002DE9F04D92469B4611B1B1FA81F202E0DA
:10382000B0FA80F220329046FFF78EFF04460F4632
:1038300040EA0A0041EA0B0153465A46084303D1C5
:1038400020463946BDE8F08D114653EA010015D0F7
:10385000C8F14002504600F057F805460E46504663
:1038600059464246FFF770FF084301D0012000E0AF
:103870000020054346EAE0762C4337430A984FEA96
:103880004453A0EB08004FEAD4240A304FF0000262
:1038900044EA47544FEAD72502D500200146D1E734
:1038A000010510196941DDE9084500196941BDE8C4
:1038B000F04DA0E770B521F0004303430CD0C1F3F5
:1038C0000A550024D5EB040564EB0403D617AD1AA2
:1038D000B34102DB0020014670BD201841EB0251CC
:1038E00070BD0000064C074D06E0E06840F00103A3
:1038F00094E8070098471034AC42F6D3FCF7FAFB83
:1039000090440008B0440008202A04DB203A21FA41
:1039100002F00021704721FA02F3D040C2F12002E8
:1039200091400843194670470EB540F23341029169
:103930000021CDE900110A460B46FFF769FF03B0ED
:1039400000BD70B5C1F30A5201F000450024C1F377
:10395000130140F2FF3341F480119A4201DA002052
:1039600070BD40F233439A42A2F2334203DC52422A
:10397000FFF7CAFF00E090402C43F1D0404270BDF9
:10398000490050EAC12018BF04204A0D18BF40F07A
:10399000010040F2FF72B2EB515F08BF40F002003D
:1039A000012808BF052070472DE9F74F144696B04F
:1039B0000021C4E902111799089121F00045CA4974
:1039C0008D4206DC1799C4E9000119B00020BDE85A
:1039D000F08FC649DFF818A3A9423CDD0899C54E0F
:1039E0000029C54FC54A1799534619DDFFF727FD32
:1039F000554506D0C24AC34BFFF721FDC4E900017B
:103A00000AE04FF0D352BF4BFFF719FD32463B4659
:103A1000FFF715FDC4E9000119B00120BDE8F08FE2
:103A2000FFF76CFC554506D0B54AB64BFFF766FC70
:103A3000C4E900010AE04FF0D352B24BFFF75EFC3D
:103A400032463B46FFF75AFCC4E9000119B04FF07B
:103A5000FF30BDE8F08FAC49A942179978DB21F01F
:103A600000488346A94AAA4B4146FFF7EEFC0022D4
:103A7000A84BFFF743FCFFF764FF0990FFF7D4FD65
:103A800006460F469D4A5346FFF7DFFC5A4643461B
:103A9000FFF7D8FC80468A46994A9A4B3046394609
:103AA000FFF7D3FC2A0D01250B9242465346FFF740
:103AB000C9FC032DC4E9000139D00B98C1F30A51A8
:103AC000401A05EB45111139814230DA9248C3465C
:103AD000784400EB0510CDF81CA00C90D0E9002331
:103AE00030463946FFF7B1FCCDE9020102460B46EC
:103AF00058460799FFF7A3FC80468A4602460B46C4
:103B000058460799FFF79BFCDDE90223FFF797FC76
:103B100083460C9803913946D0E902233046FFF7DB
:103B200094FC5A46039BFFF78AFC6D1CBDE708987E
:103B30000028A2BF099819B0BDE8F08F616881F034
:103B400000416160099819B04042BDE8F08FFFE77D
:103B5000C1F3130141F480110E911799C1F30A5179
:103B6000A1F2F532511102F01F08C8F120021292A1
:103B700000220C920D92694A7A4402EB810101F114
:103B8000140C0DA95FF00607DCF80020DCF80450E7
:103B900002FA08F3129AD1F800A025FA02F21A43A9
:103BA0000E9BA2FB0356A2FB00329A4415449A4591
:103BB00034BF4FF0010B4FF0000B51F8043C05EB04
:103BC0000B0E7344954234BF012200221644BBF110
:103BD000000F02D0AB4202D903E0AB4201D2012276
:103BE00000E000223244C1F800A041E90223091F8D
:103BF000ACF1040C7F1EC7D10898DDE90A6500F11D
:103C00000050800F11900898099F8000FFF70CFD6D
:103C100080468A463846FFF787FE6FF01D02FFF7A1
:103C200049FE074630460591FFF77EFE6FF03D02E4
:103C3000FFF740FECDE903102846FFF775FE6FF051
:103C40005D02FFF737FE064602460B460191DDE9AD
:103C50000310FFF753FB3A46059BFFF74FFB424625
:103C60005346FFF74BFB00200D4683464246534622
:103C7000FFF7E5FB3A46059BFFF7E1FBDDE9033281
:103C8000FFF7DDFB3246019BFFF7DCFBDFF894809A
:103C9000234A4346FFF7D9FB06460F46224A234BE9
:103CA00058462946FFF7D1FB32463B46FFF726FB35
:103CB0000F4606464FF0A842434658462946FFF7AE
:103CC000C4FB32463B46FFF719FB179A12F0004F30
:103CD00004D0119A81F0004152421192C4E90001CE
:103CE000119819B0BDE8F08FFB21E93F7CD9024063
:103CF000FB21F93F7370032E8A19A33B0000405447
:103D00003163621A61B4D03DFB21394183C8C96D6A
:103D1000305FE43F0000E03FCC08000054080000A2
:103D2000182D4454FB21F93D3326A611460B113CB6
:103D30002DE9FF4D21F0004807460C46B8F1795FA8
:103D400008DAFFF7FEFD002801BF0020324904B069
:103D5000BDE8F08D3A46234610461946FFF775FB3D
:103D6000054602462D480E460B460621784400F0D3
:103D70005DF82A463346FFF768FBDDE902238246F9
:103D80008B4638462146FFF760FB04460F465246F5
:103D90005B4628463146FFF758FB22463B46FFF775
:103DA0004EFB07468A464FF0FF3228463146FFF762
:103DB00081FD1B4A90450ADA3A465346FFF73FFB1E
:103DC00004B00022BDE8F04D134BFFF73BBB154A92
:103DD0004245A8BFA8F500154FF00004B8BF124D2A
:103DE00022462B46FFF72BFB0646884622462B46EB
:103DF00000200949FFF723FB04460D463A46534687
:103E000030464146FFF71BFB04B022462B46BDE877
:103E1000F04DFFF717BB00000000F03F0006000068
:103E20003333D33F0000E93F0000D23F2DE9F0419A
:103E30004F1E00EBC7010446D1E9000115461E469E
:103E400037F006020DD02A463346FFF7FEFA7F1EF2
:103E500004EBC703D3E90023FFF750FA37F006025B
:103E6000F1D1022F25D0042F13D0062F18BFBDE8A3
:103E7000F0812A463346FFF7E8FAD4E90A23FFF730
:103E80003DFA2A463346FFF7E0FAD4E90823FFF764
:103E900035FA2A463346FFF7D8FAD4E90623FFF766
:103EA0002DFA2A463346FFF7D0FAD4E90423FFF768
:103EB00025FA2A463346FFF7C8FAD4E90223FFF76A
:103EC0001DFA2A463346FFF7C0FAD4E90023BDE8BD
:103ED000F041FFF713BA00002DE9FF4D054621F030
:103EE000004084B00C46B0F1795F0BDA2846FFF74A
:103EF00047FD042808BF00F065F8284608B02146B1
:103F0000BDE8F08D2A460B461046FFF79EFA06469E
:103F10000F462A462346FFF798FA804626488A46E7
:103F200032463B4605217844FFF780FF83461098D0
:103F3000029160B3214A224B40465146FFF785FA71
:103F4000CDE900015A4640465146029BFFF77DFAF3
:103F500082468846DDE906014FF0FF32FFF7AAFCF2
:103F600052464346FFF76BFA32463B46FFF76DFA7F
:103F7000DDE90623FFF763FADDE90023FFF75FFAC7
:103F800008B02A462346BDE8F04DFFF75BBA0B4662
:103F90005A4630463946FFF758FA084A084BFFF7A9
:103FA000ADF942465346FFF750FA08B02A46234679
:103FB000BDE8F04DFFF7A2B93E0500004955555543
:103FC0005555C5BF024A00201107FFF773BC00001A
:103FD00001FDFFFF02E008C8121F08C1002AFAD144
:103FE00070477047002001E001C1121F002AFBD179
:103FF0007047000001490860704700001801002068
:104000002DE9F84F04460D4621F000400091744917
:10401000814213DC7349884201DC08D13CB120465F
:104020002946BDE8F84F4FF00102FFF743BC6E4848
:10403000002DCCBF6D496E49BDE8F88F6D498142B6
:1040400011DD6D498142D8BF4FF0FF366DDD20464E
:104050002946FFF795FC042808BFFFF7B3FF204669
:104060002946BDE8F88F6549654F25F00045814236
:1040700033DD6449814219DD002632464FF080432A
:1040800020462946FFF73AF980468A460122204613
:104090002946FFF70FFC00223B46FFF7D0F94246C6
:1040A0005346FFF744FA04460D463EE0012600223F
:1040B000BA463B4620462946FFF720F980460F4680
:1040C0000022534620462946FFF7B9F942463B46AF
:1040D000FFF72DFA04460D4627E04B4981421BDDD0
:1040E000DFF8288102260022434620462946FFF7B2
:1040F000ACF900223B46FFF701F907468A46002249
:10410000434620462946FFF79AF93A465346FFF7B9
:104110000EFA04460D4608E0032622462B460020F0
:104120003B49FFF704FA04460D4622462B4610464B
:104130001946FFF78AF98B46824602460B46FFF77F
:1041400084F907460246334888460B4606217844E0
:10415000FFF76CFE52465B46FFF777F982462E4822
:104160008B463A46434605217844FFF75FFE3A46C0
:104170004346FFF76AF902460B46002E5046594661
:104180000CDAFFF7BBF822462B46FFF75EF901B0C9
:1041900022462B46BDE8F04FFFF754B9FFF7AEF8C3
:1041A00022462B46FFF751F91C4A7A4402EBC6031C
:1041B000D3E90023FFF743F922462B46FFF73FF9E7
:1041C000174A7A4402EBC603D3E90023FFF73AF912
:1041D000009A002AB8BF81F00041BDE8F88F0000C6
:1041E000000010440000F07F182D4454FB21F93FDB
:1041F000FB21F9BF0000DC3F0000203E0000F33F40
:104200000000F03F0000E63F008003400000F83F60
:104210000000F0BFEE010000AC0100004A01000008
:104220001201000000B5294B21F0004287B09A42EC
:1042300003DC00221346009233E0254B9A420DD155
:1042400068B94FF00100FFF7D5FE002207B0134612
:10425000104611465DF804EBFFF769B906DB07B0BD
:104260004FF001025DF804EBFFF724BB02AAFFF751
:104270009BFB10F003014FF001000DD0012914D079
:1042800002291AD00DF1080CBCE80F00FFF750FD11
:1042900007B081F0004100BD0DF1080C0090BCE8B2
:1042A0000F00FFF719FE07B000BD0DF1080CBCE8C8
:1042B0000F00FFF73DFD07B000BD0DF1080C0090A9
:1042C000BCE80F00FFF708FEE2E70000FB21E93F32
:1042D0000000F07F000000004FBB610567ACDD3FD0
:1042E000182D4454FB21E93F9BF681D20B73EF3F1D
:1042F000182D4454FB21F93FE2652F227F2B7A3C95
:10430000075C143326A6813CBDCBF07A8807703C4D
:10431000075C143326A6913CC4EB98999999C9BFC0
:10432000711623FEC671BCBF6D9A74AFF2B0B3BFF5
:104330009AFDDE522DDEADBF2F6C6A2C44B4A2BFB5
:104340000D5555555555D53FFF8300922449C23F21
:104350006E204CC5CD45B73F513DD0A0660DB13F55
:10436000EB0D76244B7BA93F11DA22E33AAD903F67
:104370004C5555555555A53F7751C1166CC156BF83
:104380009015CB19A001FA3EAD529C804F7E92BE93
:10439000C4B1B4BD9EEE213ED43888BEE9FAA8BDB2
:1043A00000004054FB21F93F3163621A61B4D03DF3
:1043B0000000601A61B4D03D7370032E8A19A33BCC
:1043C0000000002E8A19A33BC14920259A837B391E
:1043D00000000000000000006E83F9A22915444E81
:1043E000D15727FCC0DD34F5999562DB4190433C01
:1043F000AB6351FE61C5BBDE3A6E24B7E0D24D42DD
:10440000EA2E49061C92D1091CEB1DFE3EA729B1DC
:10441000F53582E88444BB2E26709CE9417E5FB46A
:1044200039D69139F43953838B5F849C3B28F9BD8D
:10443000FF97F81F0F9805DE8B112FEF1F6D0A5A9B
:10444000CF7E366DB709CB27663F464F2DEA5F9E7C
:10445000C7BA27757BF1E5EBF739073DEA92528A37
:10446000B15FFB6B085D8D1FA6F810111111813F24
:10447000D561C119A0012ABF7DFEB157E31DC73E1A
:10448000EB9C2B8AE6E55ABE7CD5CF5A3AD9E53D5E
:10449000B0440008000000201C010000D43F0008C8
:1044A000CC4500081C01002014040000E43F000873
:1044B00001000000000000000000000000000000FB
:1044C0000000000000000000000000006F12833AAE
:1044D000A69B443B0000003F0AD7233C010000009C
:1044E0000000803F00000000000000000000803F4E
:1044F00000000000000000000000000000000000BC
:1045000000000000000000000000000000000000AB
:10451000000000000000000000000000000000009B
:10452000000000000000000000000000000000008B
:10453000000000000000000000000000000000007B
:10454000000000000000000000000000000000006B
:10455000000000000000000000000000000000005B
:10456000000000000000000000000000000000004B
:104570000000F04100C02845000000006400000079
:10458000640000006E000000000000000000000059
:10459000000000000000000000000000000000001B
:1045A00000000000010203040102030406070809D9
:1045B0000204060800A24A040000000000000000F7
:0C45C000010203040607080900000000C7
:04000005080000ED02
:00000001FF
