:020000040800F2
:1000000070060020BD280008C5280008C728000881
:10001000C9280008CB280008CD28000800000000EF
:10002000000000000000000000000000CF280008D1
:10003000D128000800000000D3280008D5280008B7
:10004000D7280008D7280008D7280008D728000894
:10005000D7280008D7280008D7280008D728000884
:10006000D7280008D7280008D7280008D728000874
:10007000DD2D0008D7280008D7280008D728000859
:10008000D7280008D7280008D7280008D728000854
:10009000D7280008D7280008D7280008D728000844
:1000A000D7280008ED050008D7280008D728000841
:1000B000BD040008D7280008D7280008D728000862
:1000C000D7280008D7280008D7280008D728000814
:1000D000D7280008D7280008D7280008892C00084E
:1000E000D7280008D7280008D7280008DFF80CD048
:1000F00004F056FD004800471D010008700600206E
:1001000010B5002402E000F00BF9641CB4F5FA6F9E
:10011000F9DB2E4800682E49086010BD02F04EFC45
:1001200002F0E6FE03F006F800F066F800F032F99F
:1001300000F05EF900F025FA02F0C0FCFFF7E0FFE6
:1001400016E02449486804F0FAFA04B200231A467B
:100150001946204602F091FE00F0E2F81C480168C2
:100160001A48006804F0CCF81B49086000F061FAF6
:10017000E7E710B503F093F9184A1168154A1068BB
:1001800004F0BEF813490860144A5168114A5068D7
:1001900004F0B6F80F49486011480168114800683A
:1001A00004F0AEF80F4908600F4801680F48006876
:1001B00004F0A6F80D4908600D4801680D48006874
:1001C00004F09EF80B49086010BD000010000020EC
:1001D00004000020380200205000002044020020CB
:1001E00000010020F400002004010020F80000209D
:1001F00008010020FC00002000B587B00121480262
:1002000000F092FE0121082000F08EFE4FF4004025
:1002100000F0F1FD002002908DF80C0001208DF817
:100220000D004FF4602004900020059001208DF80F
:10023000180002A94C4802F018F80220ADF804009A
:1002400000208DF8070003208DF8060001A947481B
:1002500000F0B4FB052301220921434802F09DF878
:100260000121414802F02DF83F4802F04CF800BF50
:100270003D4802F04DF80028FAD13B4802F052F810
:1002800000BF394802F053F80028FAD1012136485E
:1002900002F057F807B000BD10B50121324802F056
:1002A00050F800BF0221304802F0BCF90028F9D014
:1002B0002D4802F0D9F8044604F02FFA10BD70B5AD
:1002C0002B4800682B4908602B48016829480068C2
:1002D00004F016F8064604F05FFA0446274A284B55
:1002E00004F06EFA0ED3234801682348006804F036
:1002F00007F8064604F050FA0446204A204B04F062
:100300005FFA04D21C4800681949086003E01948E4
:10031000006817490860174800681749086070BDF1
:100320002DE9F047104802F09FF8824604F0FAF9F0
:1003300006464FF06632134B04F005F904460022DE
:10034000114B04F072F9804604F04EFA0F49086030
:100350000F490E48006803F0D9FF05490860FFF710
:10036000AEFFBDE8F087000000240140000C014012
:100370001000002018000020140000209A9999997C
:100380009999A93F66660A400000B0400800002025
:1003900000008A4208B50121042000F0C5FD0220BA
:1003A000ADF8000003208DF8020010208DF8030046
:1003B00069460D4800F002FB02210B4800F0A9FB42
:1003C00008BD10B50948006804F0D2F94FF080412B
:1003D00088850648006803F0CFFF044604F0C8F99A
:1003E0004FF08041888610BD0008014020000020A9
:1003F00000B589B00121042000F096FD01210846D6
:1004000000F09FFD0120ADF8040003208DF80600E8
:1004100018208DF8070001A94C4800F0CFFA1C20E5
:100420008DF8000000208DF801008DF802000120F9
:100430008DF80300684600F0F8F94720ADF8180081
:100440000020ADF81A00ADF81E0040F2E730ADF81C
:100450001C0006A94FF0804000F0A2FE6020ADF81D
:1004600008000120ADF80A000420ADF80C000020BF
:10047000ADF80E00ADF810000820ADF812004001F4
:10048000ADF814000020ADF8160002A94FF080402E
:1004900000F0C3FE0821C80601F00EFB0122114640
:1004A000900701F0F4F90121880701F09BFC00217D
:1004B0004FF0804001F0D0F909B000BD70B50121C6
:1004C000880701F092FC00283FD00121880701F045
:1004D00089FC1F48006820B11E480068401C1D4967
:1004E00008601D48006820B11A480068401E19497C
:1004F00008601848006804F007F9054617480168C5
:10050000284603F000FF0446154904F089F90ED986
:100510001048006804F0F8F80546104801682846BD
:1005200003F0EEFE04460E4904F07AF904D80021E7
:100530004FF0804001F090F906480068A0F5807106
:100540008F3902D100200349086070BD00080140C6
:1005500038000020340000203C0000204C00002027
:100560000000A04010B501221146264801F08FF985
:100570000121244801F036FC0121224801F06CF9E8
:1005800010BD1FB50121C80200F0CEFC19208DF866
:10059000000000208DF8010001208DF802008DF888
:1005A0000300684600F041F94720ADF80400002040
:1005B000ADF80600ADF80A004CF24F30ADF8080077
:1005C00001A9104800F0ECFDFFF7CCFF1FBD10B5EE
:1005D00000210C4801F040F900220121094801F0F6
:1005E00056F90121074801F0FDFB10BD10B50121AE
:1005F000044801F0FAFB18B10121024801F0F2FBB6
:1006000010BD0000002C014010B50121880701F049
:1006100023F9FFF7D6FE6D486D49086010BD002034
:100620004FF080418886704700204FF080418886D7
:1006300070472DE9F04F93B0664865490860FFF7B1
:10064000C0FE6548006804F0A7F88046634A644B22
:1006500003F079FF06460022624B03F0E6FF0446F2
:1006600004F0C2F8604908600846006804F094F895
:10067000CDE90A015C48006804F08EF8824605F076
:1006800099FD80460022594B03F05AFF04460D465F
:100690005748006804F080F8064622462B4603F0CF
:1006A00052FFCDE904015048006804F075F8064691
:1006B00005F0D6FD04460D464D48006804F06CF880
:1006C00022462B46CDE9000103F03DFF80468946D6
:1006D0004848006804F060F8824642464B4603F002
:1006E0002CFFCDE90201DDE9042303F09EFFCDE9F3
:1006F000060105F08DFBCDE90801DDE90A2303F0D1
:100700001CFF0022374BCDE90C0103F01CFF334ADC
:10071000334BCDE90E0103F088FFCDE9100104F061
:1007200063F83549086008460168344803F0E8FD7D
:10073000334908600846006804F02EF80646314A3E
:10074000314B03F072FF044604F04EF82F49086065
:100750000846006803F0F3FF044603F0D5FF2B4979
:1007600008602B48006803F0CFFF04462748016863
:10077000204604F055F80DD20121880701F06CF8ED
:100780000221244800F0C7F9012023490860002015
:10079000224908601E48006803F0B6FF04461B4863
:1007A0000168204604F046F80DD20121880701F0C7
:1007B00053F80221174800F0ACF9012017490860EE
:1007C00000201549086013B0BDE8F08F001CAC454F
:1007D000200000200080BB445000002038E92F5446
:1007E000FB21094000806640400000200000F03FEF
:1007F0002C00002030000020440000200000B44203
:1008000048000020CDCCCCCCCCCCEC3F4C00002020
:100810003400002000080140380000203C00002087
:1008200031490143314A1160704770B500210023FE
:100830000F22C4780CB32D4C246804F4E064C4F592
:10084000E064210AC1F10403CA40447804FA03F1C8
:100850008478144021430901254C0678A155047879
:1008600004F01F050124AC4005786D114FF0E0261F
:1008700006EB8505C5F8004109E0047804F01F0582
:100880000124AC401B4D0678761145F8264070BD1A
:10089000194A0A400243154B1B1F1A60704739B1B1
:1008A000124A121D12680243104B1B1D1A6006E00B
:1008B0000E4A121D126882430C4B1B1D1A607047B2
:1008C000042808D14FF0E021096941F004014FF0FC
:1008D000E022116107E04FF0E021096921F00401F5
:1008E0004FF0E022116170470000FA050CED00E0C6
:1008F00000E400E080E100E080FFFF1F10B5044647
:10090000CA48844208D10121042000F027FB0021BD
:10091000042000F023FB46E0C548844208D10121B1
:10092000082000F01BFB0021082000F017FB3AE034
:10093000C048844208D10121102000F00FFB0021A3
:10094000102000F00BFB2EE0BB48844208D10121AF
:10095000202000F003FB0021202000F0FFFA22E01D
:10096000B648844208D10121402000F0F7FA002166
:10097000402000F0F3FA16E0B148844208D101218A
:10098000802000F0EBFA0021802000F0E7FA0AE076
:10099000AC48844207D10121801500F0DFFA002124
:1009A000A01500F0DBFA10BD10B50121084600F0DB
:1009B000D5FA0021012000F0D1FA10BD2DE9F04157
:1009C000024600250026002000230024002791F87D
:1009D00003C00CF00F0591F803C01CF0100F03D0FA
:1009E00091F802C04CEA050591F800C0BCF1000F77
:1009F00031D0146800202BE04FF0010C0CFA00F30A
:100A0000B1F800C00CEA03069E4220D183004FF0EB
:100A10000F0C0CFA03F7BC4305FA03FC4CEA040480
:100A200091F803C0BCF1280F06D14FF0010C0CFA6D
:100A300000FCC2F814C00AE091F803C0BCF1480FF2
:100A400005D14FF0010C0CFA00FCC2F810C0401C9C
:100A50000828D1D31460B1F800C0BCF1FF0F34DD19
:100A6000546800202EE000F1080C4FF0010808FA4D
:100A70000CF3B1F800C00CEA03069E4221D18300BA
:100A80004FF00F0C0CFA03F7BC4305FA03FC4CEAD9
:100A9000040491F803C0BCF1280F05D100F1080C43
:100AA00008FA0CF8C2F8148091F803C0BCF1480FA2
:100AB00007D100F1080C4FF0010808FA0CF8C2F851
:100AC0001080401C0828CED35460BDE8F0814FF65A
:100AD000FF710180022181700421C17070470246BC
:100AE000002093680B4201D0012000E000207047F5
:100AF0000146886880B2704702460020D3680B42E6
:100B000001D0012000E0002070470146C86880B293
:100B1000704701617047416170470AB1016100E0AF
:100B200041617047C16070474FF480320A4382616F
:100B30008161826182698269704702460020424B6E
:100B400018684FF68073184040EA021008433E4B85
:100B5000186070473D49C8617047F0B50A460023E8
:100B600000240021002500F00046B6F1004F02D11C
:100B7000354EF16901E0344E7168C0F3034583B22C
:100B800000F44016B6F5401F08D121F070612E4EDA
:100B9000766826F070662C4F7E6012E000F48016B6
:100BA000B6F5801F06D1032606FA05F4A14341F0ED
:100BB000706106E0460D360103FA06F6B14341F0D6
:100BC000706122B1460D360103FA06F6314300F09A
:100BD0000046B6F1004F02D11B4EF16101E01A4E02
:100BE0007160F0BD30B500228B071C0F0F2303FA94
:100BF00004F2154B08338C1053F824309343124CF5
:100C000008348D1044F8253023468C1053F82430D6
:100C10008C07240F00FA04F423430B4C08348D1086
:100C200044F8253030BD0A4908607047000801408B
:100C3000000C014000100140001401400018014068
:100C4000001C014000200140000001400000204243
:100C5000DC002042DD48006840F00100DB4908600C
:100C600008464068DA490840D849486008460068A4
:100C7000D8490840D54908600846006820F480201B
:100C800008600846406820F4FE0048604FF41F00EA
:100C900088607047CD49096821F48031CB4A1160E2
:100CA0001146096821F480211160B0F5803F03D01E
:100CB000B0F5802F0ED106E0C449096841F48031B7
:100CC000C24A116007E0C149096841F4A021BF4A46
:100CD000116000E000BF00BF704710B50146002260
:100CE000002300204A11012A02D1B84C236806E0F3
:100CF000022A02D1B54C236A01E0B44C636A01F0C8
:100D00001F02012494401C4201D0012000E0002079
:100D100010BD38B5002000900024002500BF312010
:100D2000FFF7DBFF05460098401C00900098B0F5E7
:100D3000A06F01D0002DF2D03120FFF7CEFF08B117
:100D4000012400E00024204638BD014600209F4ACF
:100D5000106820F0F80040EAC100106070479E491A
:100D60000860704702460020984B586820F47C10B9
:100D700042EA01031843954B58607047964908664C
:100D8000704701460020914A506820F00300084354
:100D9000506070478D48406800F00C007047014675
:100DA00000208A4A506820F0F000084350607047E5
:100DB00001460020854A506820F4E06008435060F6
:100DC000704701460020814A506820F4605040EA94
:100DD000C1005060704729B17C4A527A02437B4B74
:100DE0005A7204E0794A527A8243784B5A727047B9
:100DF0007A490860704701460020744A506820F420
:100E000040400843506070470021754A11706F4A96
:100E100082F82010012802D0042808D103E0012123
:100E20006F4A117004E005216D4A117000E000BFA7
:100E300000BF70476B49086070476449096A014305
:100E4000624A11627047674944390860704730B59B
:100E500000210022002400235C4D6D6805F00C0188
:100E600021B1042905D0082923D105E05E4D056094
:100E700022E05D4D05601FE0544D6D6805F4701271
:100E8000524D6D6805F48034022505EB92421CB981
:100E9000564D554305600BE04C4D6D6815F4003F11
:100EA00003D0524D5543056002E04F4D5543056058
:100EB00002E04D4D056000BF00BF444D6D6805F078
:100EC000F00109094A4D6B5C0568DD4045603F4D06
:100ED0006D6805F4E061090A454D6B5C4568DD40CD
:100EE00085603A4D6D6805F46051C90A404D6B5CF0
:100EF0004568DD40C560354D6D6805F44041890B9E
:100F00003C4D6B5CC568B5FBF3F5056130BD29B19F
:100F10002E4A526902432D4B5A6104E02B4A526912
:100F200082432A4B5A61704729B1284A9269024389
:100F3000264B9A6104E0254A92698243234B9A61C9
:100F4000704729B1214AD2690243204BDA6104E09B
:100F50001E4AD26982431D4BDA61704729B11B4A90
:100F6000D2680243194BDA6004E0184AD26882431F
:100F7000164BDA60704729B1144A12690243134BC9
:100F80001A6104E0114A12698243104B1A617047DA
:100F900014494039086070470F49C86470470B49CD
:100FA000C87170470948406A40F08070074948623C
:100FB000704701460020054A92680A4201D001208C
:100FC00000E000207047014988727047001002401D
:100FD0000000FFF8FFFFF6FE00004242D800424248
:100FE000201002408004424200127A0000093D00B5
:100FF000540000206400002010B50446FE488442DE
:1010000008D10121C014FFF7A9FF0021E014FFF768
:10101000A5FFC4E0B4F1804F08D101210846FFF7D5
:10102000AAFF00210120FFF7A6FFB8E0F3488442A1
:1010300008D101210220FFF79EFF00210220FFF7C7
:101040009AFFACE0EE48844208D101210420FFF76A
:1010500092FF00210420FFF78EFFA0E0E9488442C0
:1010600008D101210820FFF786FF00210820FFF7A3
:1010700082FF94E0E448844208D101211020FFF768
:101080007AFF00211020FFF776FF88E0DF488442D6
:1010900008D101212020FFF76EFF00212020FFF75B
:1010A0006AFF7CE0DA48844208D101214014FFF74E
:1010B00055FF00216014FFF751FF70E0D5488442CE
:1010C00009D10121C804FFF749FF00214FF4002096
:1010D000FFF744FF63E0D048844209D101210805AD
:1010E000FFF73CFF00214FF48010FFF737FF56E079
:1010F000CA48844209D101214805FFF72FFF00218A
:101100004FF40010FFF72AFF49E0C548844208D198
:1011100001214020FFF72FFF00214020FFF72BFF88
:101120003DE0C048844208D101218020FFF723FF21
:1011300000218020FFF71FFF31E0BB48844208D127
:1011400001218015FFF717FF0021A015FFF713FFFE
:1011500025E0B648844209D101210804FFF7FEFECC
:1011600000214FF48030FFF7F9FE18E0B0488442C8
:1011700009D101214804FFF7F1FE00214FF40030AE
:10118000FFF7ECFE0BE0AB48844208D10121880454
:10119000FFF7E4FE00214FF48020FFF7DFFE10BDD3
:1011A00000220288944B98420ED0994B98420BD063
:1011B000B0F1804F08D0914B984205D0904B9842A7
:1011C00002D0904B984204D14FF68F731A404B884F
:1011D0001A438D4B984207D08C4B984204D04FF65F
:1011E000FF431A40CB881A4302808B8883850B8883
:1011F0000385814B98420BD0854B984208D08B4B8E
:10120000984205D08A4B984202D08A4B984201D12D
:101210000B7A038601238382704770B50024002275
:101220000023058C4FF6FE7635400584028C8388BA
:10123000048B4FF68F752C40B51E2C400D882C4327
:10124000751E2A400D892A434D882A436A4DA842BB
:101250000BD06F4DA84208D0744DA84205D0744DF4
:10126000A84202D0734DA84213D14FF6F7752A4019
:101270004D892A434FF6FB752A408D882A434FF645
:10128000FF652B404FF6FF552B408D892B43CD89B1
:101290002B4383800483CD888586028470BD70B51E
:1012A000002400220023058C4FF6EF76354005849C
:1012B000028C8388048B48F6FF752C404FF6FF455F
:1012C0002C400D884FF6FF7606EA05252C434FF695
:1012D000DF752A400D8906EA05152A434D8806EA7E
:1012E00005152A43444DA84202D0494DA8421DD1BC
:1012F0004FF67F752A404D894FF6FF7606EA0515B1
:101300002A434FF6BF752A408D8806EA05152A4301
:101310004FF6FF352B404FF2FF752B408D8906EAC3
:1013200085052B43CD8906EA85052B4383800483FD
:10133000CD880587028470BD70B50024002200238B
:10134000058C4FF6FF6635400584028C8388848BBC
:101350004FF68F752C404FF6FC752C400D882C43B2
:101360004FF6FF552A400D894FF6FF7606EA052510
:101370002A434D8806EA05252A431F4DA84202D07C
:10138000234DA8421DD14FF2FF752A404D894FF6DB
:10139000FF7606EA05252A434FF6FF352A408D8859
:1013A00006EA05252A434EF6FF752B404DF6FF75DC
:1013B0002B408D8906EA05152B43CD8906EA0515D4
:1013C0002B4383808483CD888587028470BD70B56C
:1013D000002200230024058C4EF6FF76354005845C
:1013E000038C8488828B48F6FF752A404FF6FF45B0
:1013F0002A400D8820E00000002C0140000400403D
:1014000000080040000C00400010004000140040A4
:1014100000340140004C01400050014000540140A4
:1014200000180040001C0040002000400040014027
:1014300000440140004801404FF6FF7606EA0525CA
:101440002A434DF6FF752B400D8906EA05352B43DF
:101450004D8806EA05352B43FA4DA84202D0FA4DD5
:10146000A84208D14BF6FF752C408D894FF6FF76C8
:1014700006EA85152C4384808283CD88A0F84050ED
:10148000038470BD828B4FF2FF331A408283828BBC
:101490004FF6FF7303EA01231A4382837047F0B5C6
:1014A0000C461546002200210026078C4EF6FF7CD4
:1014B00007EA0C070784828B018C4FF6FF7707EA57
:1014C000043640F6FF473A404FF6FF7707EA052714
:1014D0003A434FF6FF7707EA03373A43D94FB8420A
:1014E0000ED0D94FB8420BD0B0F1804F08D0D74FB3
:1014F000B84205D0D64FB84202D0D64FB84206D136
:101500004DF6FF77394046F48057394305E047F6FA
:10151000FF57394044F48057394382830184F0BD3A
:10152000828B4FF6F3731A408283828B0A43828345
:101530007047F0B50C461546002200210026078CA6
:101540004FF6FF6C07EA0C070784828B018C4FF67D
:10155000FF7707EA04264FF60C773A404FF6FF77FD
:1015600007EA03172F433A43B64FB8420ED0B64F9F
:10157000B8420BD0B0F1804F08D0B44FB84205D07C
:10158000B34FB84202D0B34FB84206D14FF6FF571F
:10159000394046F48077394305E04FF2FF57394030
:1015A00044F48077394382830184F0BD028B4FF28B
:1015B000FF331A400283028B4FF6FF7303EA0123C5
:1015C0001A4302837047F0B50C46154600220021ED
:1015D0000026078C4FF6EF7C07EA0C070784028B86
:1015E000018C4FF6FF7707EA041640F6FF473A40B2
:1015F0004FF6FF7707EA03373A434FF6FF7707EADC
:1016000005273A438F4FB8420ED08F4FB8420BD0C8
:10161000B0F1804F08D08D4FB84205D08C4FB84202
:1016200002D08C4FB84206D14FF6DF77394046F0F2
:101630001007394305E04FF65F77394044F0100753
:10164000394302830184F0BD028B4FF6F3731A40D5
:101650000283028B0A4302837047F0B50C4615469D
:1016600000220021068C4FF6FE773E400684028B56
:10167000018C4FF60C7632407E1C06EA03162E4390
:101680003243704EB0420ED06F4EB0420BD0B0F12C
:10169000804F08D06D4EB04205D06D4EB04202D0A2
:1016A0006C4EB04206D14FF6FD76314044F0010653
:1016B000314305E04FF6F576314044F00106314301
:1016C00002830184F0BD70B505460C465D48854235
:1016D0000ED05D4885420BD0B5F1804F08D05B48F5
:1016E000854205D05A48854202D05A48854200D1E9
:1016F00000E000BF208850B92389A288618828466D
:10170000FFF7ABFFE1882846FFF79EFF25E0208822
:1017100004280AD12389A28861882846FFF753FF4D
:10172000E1882846FFF742FF17E0208808280AD101
:101730002389A28861882846FFF7FBFEE1882846B6
:10174000FFF7EEFE09E02389A28861882846FFF7AB
:10175000A6FEE1882846FFF795FE70BD2DE9F04111
:1017600005460C4600260127608808B9022600E0DD
:101770000026A088012801D1022700E00127208847
:10178000A0B92389A28861882846FFF766FFE1880F
:101790002846FFF759FF23893A4631462846FFF786
:1017A00012FFE1882846FFF701FF13E02389A28892
:1017B00061882846FFF707FFE1882846FFF7F6FE15
:1017C00023893A4631462846FFF747FFE1882846F5
:1017D000FFF73AFFBDE8F0810A884B881A438B88EF
:1017E0001A43CB881A430B891A434B891A438B89B6
:1017F0001A43A0F8442070474FF6FF718180002102
:101800000180C180418001727047002101804180C8
:101810008180C180018141818181C1817047002126
:1018200001804180012181800021C18001817047B8
:101830000021018041808180C180018141818181BD
:1018400070470000002C01400034014000040040BB
:1018500000080040000C004021B1028842F0010263
:10186000028004E002884FF6FE731A40028070473F
:1018700031B1B0F8442042F40042A0F8442005E021
:10188000B0F84420C2F30E02A0F8442070471AB109
:1018900083890B43838102E083898B438381704773
:1018A0008182704741EA0203A0F8483070471AB1BC
:1018B00083890B43838102E083898B438381704753
:1018C00001894FF6F8721140018170470A460021E4
:1018D00001894FF68F73194011430181704730B56C
:1018E00004460D4629462046FFF7F0FF208940F0C8
:1018F0000700208130BD2DE9F04104460D46164613
:101900001F46602D06D13B46012231462046FFF797
:101910005AFE05E03B46012231462046FFF79DFE78
:1019200029462046FFF7D2FF208940F0070020819A
:10193000BDE8F08130B50C4600210189C9B24FF6EF
:10194000FF7505EA0325154325432943018130BD71
:101950002DE9F04105460E461746984600244346B9
:101960003A4631462846FFF7E5FF2C894FF6F870D6
:10197000044044F007044FF68F70044044F07004B4
:101980002C81BDE8F081F0B504460D4616461F4691
:101990003B46324629462046FFF7CCFF208940F4DB
:1019A00080402081F0BD0185828270470A46002177
:1019B00001884FF68F731940114301807047F0B5CD
:1019C0000C4615461E460021002200230189028B89
:1019D000038C4FF6F877394021434FF6FC473A40E5
:1019E00040F201173A434FF6DD773B404FF6FF7761
:1019F00007EA06172F433B43018102830384F0BDAE
:101A00000A460021018B4FF68F7319401143018361
:101A100070470A460021018B48F6FF7319404FF6C4
:101A2000FF7303EA02231943018370470A4600212A
:101A3000818B4FF68F7319401143818370470A469B
:101A40000021818B48F6FF7319404FF6FF7303EABC
:101A5000022319438183704721B1028842F080023A
:101A6000028004E002884FF67F731A4002807047BC
:101A700021B1828842F00402828004E082884FF61D
:101A8000FB731A408280704721B1828842F00802BD
:101A9000828004E082884FF6F7731A408280704794
:101AA00021B1828842F00102828004E082884FF6F0
:101AB000FE731A40828070470A460021018B4FF660
:101AC000F77319401143018370470A460021018BC7
:101AD0004FF2FF7319404FF6FF7303EA02231943D5
:101AE000018370470A460021818B4FF6F773194036
:101AF0001143818370470A460021818B4FF2FF73A7
:101B000019404FF6FF7303EA02231943818370479C
:101B10000A460021018B4FF6FB73194011430183E4
:101B200070470A460021018B4FF6FF3319404FF6EC
:101B3000FF7303EA02231943018370470A46002119
:101B4000818B4FF6FB7319401143818370470A461E
:101B50000021818B4FF6FF3319404FF6FF7303EAE4
:101B600002231943818370470A460021018B4FF6F7
:101B70007F7319401143018370470A460021018B8E
:101B8000C1F30E014FF6FF7303EA022319430183E9
:101B900070470A460021818B4FF67F73194011432D
:101BA000818370470A460021818BC1F30E014FF6F5
:101BB000FF7303EA02231943818370470A46002119
:101BC000018C4FF6FD7319401143018470470A469A
:101BD0000021018C4FF6F7731940114301847047BF
:101BE0000A460021018C4FF6DF7319404FF6FF7350
:101BF00003EA02131943018470470A460021018C4D
:101C00004FF67F7319404FF6FF7303EA021319432F
:101C1000018470470A460021018C4FF6FF5319409A
:101C20004FF6FF7303EA02231943018470470A4603
:101C30000021018C4FF2FF7319404FF6FF7303EA46
:101C400002231943018470470A460021018C4DF696
:101C5000FF7319404FF6FF7303EA023319430184FF
:101C6000704730B5002301248C40A3B2048C9C4300
:101C70000484048C02FA01F5ADB22C43048430BD17
:101C800030B5002304248C40A3B2048C9C4304840C
:101C9000048C02FA01F5ADB22C43048430BD70B55A
:101CA0000346002000241846183001258D40ACB2B0
:101CB0001D8CA5431D8409B1082909D100EB6100E1
:101CC000056825F0700505600568154305600EE0A0
:101CD0000D1FC5F34E052844056825F4E045056051
:101CE00005684FF6FF7606EA02263543056070BDAB
:101CF00021B1028842F00202028004E002884FF61D
:101D0000FD731A400280704721B1028842F004023C
:101D1000028004E002884FF6FB731A40028070478D
:101D200021B1828842F08002828004E082884FF6EE
:101D30007F731A408280704702884FF6F7731A400B
:101D4000028002880A430280704782884FF68F73B0
:101D50001A40828082880A438280704702894FF647
:101D6000F8731A40028102890A430281704702898E
:101D70004FF67F731A40028102890A43028170473D
:101D800081847047818570478186704701877047DD
:101D900081877047A0F84010704702884FF6FF43D4
:101DA0001A40028002880A43028070470146888EEA
:101DB00070470146088F70470146888F704701467B
:101DC000B1F8400070470146888C70470146088D85
:101DD000704702460020138A0B4201D0012000E028
:101DE00000207047CA430282704730B50246002087
:101DF00000230024158A05EA0103958905EA0104F8
:101E000013B10CB1012000E0002030BDCA430282B2
:101E10007047000010B50446FB48844209D10121F7
:101E20008803FFF79BF800214FF48040FFF796F8F6
:101E300032E0F648844209D101214804FFF79BF8BB
:101E400000214FF40030FFF796F825E0F048844277
:101E500009D101218804FFF78EF800214FF480207A
:101E6000FFF789F818E0EB48844209D10121C80442
:101E7000FFF781F800214FF40020FFF77CF80BE01A
:101E8000E548844208D101210805FFF774F80021D4
:101E90004FF48010FFF76FF810BD2DE9F04786B0C2
:101EA00005460E460024A24600BFA1460027B08981
:101EB00000B100BF2F462C8A4CF6FF700440F0881A
:101EC00004432C82AC894EF6F3100440B08831896B
:101ED0000843718908430443AC81AC8A4FF6FF4044
:101EE0000440B0890443AC8201A8FEF7B0FFC648A5
:101EF000874202D1DDF810A001E0DDF80CA0A8892E
:101F000010F4004F08D00AEBCA0000EB0A10316849
:101F10004900B0FBF1F807E00AEBCA0000EB0A1039
:101F200031688900B0FBF1F86420B8FBF0F00401DF
:101F30002009642101FB1089A88910F4004F08D002
:101F4000322000EBC900B0FBF1F000F007000443C1
:101F500008E0322000EB09106421B0FBF1F000F042
:101F60000F0004432C8106B0BDE8F0874FF41651F2
:101F7000016000218180C18001810C21418100210B
:101F80008181704710B502460020108A4FF2FF038E
:101F900018400B884C8823438C882343CC882343E8
:101FA0001843108210BD0021018041808180C180D2
:101FB000704721B1828942F40052828104E0828913
:101FC0004DF6FF731A4082817047F0B50346002436
:101FD000002600250020A1F510676A3F00D100BF50
:101FE0001846C1F3421401F01F06012707FA06F54F
:101FF000012C01D10C3004E0022C01D1103000E0A2
:1020000014301AB107682F43076002E00768AF4336
:102010000760F0BD1AB1838A0B43838202E0838A92
:102020008B4383827047028A4FF6F0731A40028214
:10203000028A0A430282704782894FF2FF731A4074
:10204000828182890A438281704721B1828942F06C
:102050000202828104E082894FF6FD731A40828178
:102060007047028A4FF6DF731A400282028A0A43DF
:102070000282704721B1028A42F48042028204E067
:10208000028A4BF6FF731A4002827047C1F30802BE
:102090008280704701468888C0F3080070478189B4
:1020A00041F0010181817047028BD2B20283028B21
:1020B00042EA012202837047028B02F47F420283CC
:1020C000028B0A430283704721B1828A42F02002C8
:1020D000828204E0828A4FF6DF731A408282704760
:1020E00021B1828A42F01002828204E0828A4FF695
:1020F000EF731A408282704721B1828A42F008024F
:10210000828204E0828A4FF6F7731A408282704717
:1021100021B1828942F40042828103E08289C2F3C4
:102120000E028281704721B1828A42F4006282826B
:1021300004E0828A4FF2FF731A4082827047828ADB
:102140004FF6FB731A408282828A0A43828270476A
:1021500021B1828A42F00202828204E0828A4FF632
:10216000FD731A408282704702460020B1F5007F5D
:1021700000D100BF13880B4201D0012000E00020F5
:10218000704701F40072B2F5007F00D100BFCA436E
:102190000280704770B5024600240023002500200D
:1021A000A1F510666A3E00D100BFC1F3421501F0EF
:1021B0001F03012606FA03F3012D02D1968933404D
:1021C00006E0022D02D1168A334001E0968A3340A0
:1021D0000C12012606FA04F41688344013B10CB12F
:1021E000012000E0002070BD10B500220023A1F501
:1021F00010646A3C00D100BF0A1201249440A3B2CB
:10220000DC43048010BD0000003801400044004061
:1022100000480040004C00400050004010B504460B
:10222000FA48844208D101214015FEF797FE0021AB
:102230006015FEF793FE17E0F548844208D10121AE
:102240000015FEF78BFE00212015FEF787FE0BE040
:10225000F048844208D10121C803FEF77FFE002127
:102260004FF40040FEF77AFE10BD30B50246002064
:1022700000235068E84C20400D790C6844EA05249E
:10228000204350609068E54C2040D1E902542C4333
:102290004D7944EA450420439060D06A20F47000F0
:1022A0000C7C641EE4B2234340EA0350D06230BD8C
:1022B00000210160017141718160C16001210174DF
:1022C000704721B1826842F00102826003E08268B7
:1022D00022F001028260704721B1826842F480726C
:1022E000826003E0826822F480728260704710B5D9
:1022F0000023CBB21AB144681C43446002E0446836
:102300009C43446010BD816841F0080181607047C2
:10231000014600208A6812F0080F01D0012000E079
:1023200000207047816841F00401816070470146D8
:1023300000208A6812F0040F01D0012000E0002084
:10234000704721B1826842F4A002826003E0826893
:1023500022F4A00282607047014600208A6812F4CD
:10236000800F01D0012000E00020704710B50A4620
:1023700000210023416821F46041531E41EA4331AA
:10238000416010BD21B1426842F40062426003E046
:10239000426822F4006242607047F0B504460D4680
:1023A00000200021092D11DDE068A5F10A0606EBE9
:1023B0004607072606FA07F18843A5F10A0606EB49
:1023C000460603FA06F10843E0600CE0206905EBDD
:1023D0004507072606FA07F1884305EB450603FA89
:1023E00006F108432061072A0FDA606B561E06EBE0
:1023F00086071F2606FA07F18843561E06EB860657
:1024000005FA06F10843606322E00D2A0FDA206B1B
:10241000D61F06EB86071F2606FA07F18843D61F4C
:1024200006EB860605FA06F10843206310E0E06A31
:10243000A2F10D0606EB86071F2606FA07F1884370
:10244000A2F10D0606EB860605FA06F10843E062E6
:10245000F0BD21B1826842F48012826003E082689C
:1024600022F48012826070470146C86C80B27047C7
:1024700066484C300068704721B1426842F480627F
:10248000426003E0426822F480624260704721B1FA
:10249000426842F48052426003E0426822F4805273
:1024A000426070470A460021816821F4E0411143EF
:1024B0008160704721B1826842F40042826003E08B
:1024C000826822F400428260704721B1826842F43F
:1024D0000212826003E0826822F402128260704776
:1024E000014600208A6812F4001F01D0012000E09C
:1024F00000207047F0B50446154600200022002653
:10250000092911DDE068A1F10A0707EB470C07274D
:1025100007FA0CF29043A1F10A0707EB470703FA09
:1025200007F21043E0600CE0206901EB410C072743
:1025300007FA0CF2904301EB410703FA07F210434C
:102540002061A06BC0F30156EF1C06F1010CA7EB54
:102550000C0707EB870C1F2707FA0CF29043EF1CC0
:1025600006F1010CA7EB0C0707EB870701FA07F24E
:102570001043A063F0BD10B50A4600210023816B13
:1025800021F44011531E41EA0351816310BD08B587
:10259000002300930090009B0B440093009B1A6063
:1025A00008BD08B5024600200090009201F1280005
:1025B000009B184400900098006880B208BD0A464D
:1025C00000214168164B1940114341607047416238
:1025D000826270470A460021416821F01F011143C1
:1025E0004160704740B109490831096841F4000170
:1025F000064A0832116007E004490831096821F4ED
:102600000001024A083211607047000000240140B6
:1026100000280140003C0140FFFEF0FFFDF7F1FF04
:10262000FFFD3FFF0246002013680B4201D001204E
:1026300000E000207047CA430260704770B5024650
:102640000020002300240B125568CEB205EA0604D0
:1026500015681D4202D00CB1012000E0002070BDC1
:1026600000220A12D34303607047000001684FF64E
:10267000FE72114001600021016041608160C16013
:102680008C49884208D18B490839496841F00F01CB
:10269000884A083A51608AE086491431884208D154
:1026A00084490839496841F0F001824A083A51608A
:1026B0007DE080492831884208D17E49083949683F
:1026C00041F470617B4A083A516070E079493C31CD
:1026D000884208D177490839496841F47041754A00
:1026E000083A516063E073495031884208D171491A
:1026F0000839496841F470216E4A083A516056E041
:102700006C496431884208D16A490839496841F402
:102710007001684A083A516049E066497831884258
:1027200008D164490839496841F07061614A083A42
:1027300051603CE06049884206D1011F096841F0C0
:102740000F01021F116032E05B491431884208D149
:102750005949091F096841F0F001574A121F1160D9
:1027600025E055492831884208D15349091F096895
:1027700041F47061504A121F116018E04E493C311B
:10278000884208D14C49091F096841F470414A4AFE
:10279000121F11600BE048495031884207D1464969
:1027A000091F096841F47021434A121F11607047E4
:1027B00010B50022026847F6F0739A430C6A8B68E2
:1027C00023430C6923434C6923438C692343CC691D
:1027D00023434C6A23438C6A23431A430260CB6829
:1027E00043600B6883604B68C36010BD00210160CB
:1027F00041608160C160016141618161C1610162CB
:1028000041628162704721B1026842F001020260B8
:1028100004E002684FF6FE731A40026070471AB176
:1028200003680B43036002E003688B430360704757
:10283000416070470146486880B2704701460020F9
:10284000002211F0805F03D01B4B083B1A6802E0A6
:10285000184B083B1A680A4201D0012000E0002012
:10286000704710F0805F03D01349091F086002E031
:10287000104908394860704701460020002211F0D5
:10288000805F03D00C4B083B1A6802E0094B083B01
:102890001A680A4201D0012000E00020704710F0C1
:1028A000805F03D00449091F086002E0014908392C
:1028B000486070470800024008040240064880470C
:1028C00006480047FEE7FEE7FEE7FEE7FEE7FEE715
:1028D000FEE7FEE7FEE7FEE7BD290008ED00000881
:1028E0000CB50020019000906B48006840F48030E7
:1028F0006949086000BF6848006800F40030009033
:102900000198401C0190009818B90198B0F5A06F8B
:10291000F1D16148006810F4003F02D0012000901E
:1029200001E0002000900098012842D15B48006837
:1029300040F01000594908600846006820F0030084
:1029400008600846006840F002000860524840688D
:10295000514948600846406848600846406840F46D
:10296000806048600846406820F47C104860084653
:10297000406840F4E81048600846006840F0807005
:10298000086000BF4448006810F0007FFAD0424859
:10299000406820F00300404948600846406840F025
:1029A0000200486000BF3C48406800F00C00082866
:1029B000F9D10CBD10B5FFF793FF10BD10B5364827
:1029C000006840F001003449086008464068344916
:1029D00008403149486008460068324908402E499D
:1029E00008600846006820F48020086008464068B7
:1029F00020F4FE0048604FF41F008860FFF7DAFF04
:102A00004FF000602849086010BD10B5002100207B
:102A10000022214B5B6803F00C0121B1042906D090
:102A2000082928D107E0214B214C236027E01F4BC8
:102A30001F4C236023E0184B5B6803F47010164BA7
:102A40005B6803F48032022303EB904022B9194BF8
:102A50004343174C23600DE00F4B5B6813F4003FBA
:102A600004D0144B4343124C236003E00F4B434309
:102A70000F4C236003E00D4B0D4C236000BF00BFE3
:102A8000054B5B68C3F303130B4CE15C084B1B68FD
:102A9000CB40074C236010BD0010024000200240D4
:102AA0000000FFF8FFFFF6FE08ED00E000127A00DC
:102AB0006800002000093D006C00002000B591B0C6
:102AC00001210820FEF730FA01218804FEF739FAC7
:102AD00001210846FEF71BFA4FF48060ADF8400074
:102AE00018208DF8430003208DF8420010A93D48BE
:102AF000FDF764FF4FF40060ADF8400004208DF84E
:102B0000430010A93748FDF759FF3748FFF782F90E
:102B10004FF416500C900020ADF83C000C20ADF89E
:102B20003A000020ADF83800ADF83600ADF83400BA
:102B30000CA92D48FFF7B1F940F225512A48FFF7BB
:102B400020FB40F225512848FFF74EFB012240F2BE
:102B500025512548FFF739FA2448FFF787FD224819
:102B6000001D009022480190102002900020039048
:102B7000049080200590002006900790089009900E
:102B80000A9069461948FFF713FE012202211748EF
:102B9000FFF745FE012280211348FFF73BFA27206B
:102BA0008DF82C0003208DF82D0001208DF82E00CB
:102BB0008DF82F000BA8FDF738FE0C208DF82C00A7
:102BC00003208DF82D0004208DF82E0001208DF8B3
:102BD0002F000BA8FDF729FE01210348FFF7E9F9B3
:102BE00011B000BD000C0140004800401C00024034
:102BF00010010020002101604160704710B542685B
:102C0000521CC92392FBF3F403FB142203689A427B
:102C100000D110BD00F108024368D1544268521C33
:102C2000C92392FBF3F403FB1422426000BFF0E7D8
:102C300010B5D0E900239A4200D110BD00F108027E
:102C400003689A5C0A700268521CC92392FBF3F471
:102C500003FB1422026000BFEFE70146D1E9002028
:102C6000904204DD08790A78801AC0B27047D1E931
:102C70000020904206DAD1E90002801AC0F1C900B2
:102C8000C0B2F3E70020F1E710B540F225511E482D
:102C9000FFF780FA012835D140F225511A48FFF795
:102CA00070FA40F225511848FFF79EFA1648FFF7D0
:102CB000F1F916490870084600781549154A127846
:102CC000885414480078401C12490870084600785F
:102CD000062809D100200E4948710871C870887013
:102CE000487008700B49087008480078302802D1F5
:102CF00001200949087005480078312802D10120D7
:102D00000649087010BD0000004800408000002007
:102D1000180200207C00002081000020820000209A
:102D2000F8B506460F460024002500BF05E0315DDA
:102D30004048FFF763FF601CC4B2BC42F7DB3E486B
:102D4000FFF778FD00BB3B48FFF787FF0546322DB4
:102D500000DD3225002409E069463648FFF768FFA8
:102D60009DF8000035490855601CC4B2AC42F3DB45
:102D700000213148FFF747FD29462F48FFF758FD4E
:102D800001212D48FFF73FFDF8BD38B5002500248F
:102D90002848FFF762FF0446142C01DD142401E0EB
:102DA00004B938BD002509E069462248FFF740FF15
:102DB0009DF8000021494855681CC5B2A542F3DBC7
:102DC00000211D48FFF71FFD21461B48FFF730FD7E
:102DD00001211948FFF717FD00BFE2E710B52020D9
:102DE000FFF74AFD38B12020FFF73BFD2020FFF719
:102DF00056FDFFF7CAFF10BD0FB410B5A2B025A84D
:102E0000219001A8219A249901F01CFF84B200208E
:102E1000219000BF0748FFF720FFC0F13200A04219
:102E2000F8DDE1B201A8FFF77BFF22B010BC5DF82E
:102E300014FB0000440100201C000240100100208F
:102E400030B502460B464FF6FF70002112E0555C8C
:102E5000684000240AE010F0010F04D04AF2010596
:102E600085EA600000E04010651CECB2082CF2DB43
:102E70004D1CE9B29942EADB30BD2DE9FE4305461F
:102E80000E4617469846280A8DF80100E8B28DF8DC
:102E90000000300A8DF80300F0B28DF80200380A05
:102EA0008DF80500F8B28DF804004FEA18208DF86F
:102EB000070008F0FF008DF8060008216846FFF7BC
:102EC000BFFF04462046E11704EB11610912A4EB91
:102ED0000121C9B28DF80810E11704EB1161090A4C
:102EE0008DF809100A216846FFF71AFFBDE8FE8336
:102EF00008B501210420FEF717F83020ADF80000D6
:102F000014208DF8030003208DF8020069468848DC
:102F1000FDF754FD08BD08B52020ADF800001420D1
:102F20008DF8030003208DF8020069468048FDF704
:102F300045FD08BD08B52020ADF8000004208DF83F
:102F4000030069467A48FDF739FD08BD08B5012040
:102F5000009002E00098401E009000980028F9D1EF
:102F600008BD10B510217248FDF7D5FDFFF7EEFF43
:102F700020216F48FDF7CDFDFFF7E8FF10216C48D9
:102F8000FDF7C7FDFFF7E2FF20216948FDF7C3FD0C
:102F9000FFF7DCFF10BD10B510216548FDF7BBFD44
:102FA000FFF7D4FF20216248FDF7B5FDFFF7CEFF04
:102FB00010215F48FDF7ADFDFFF7C8FF20215C48F9
:102FC000FDF7A7FDFFF7C2FF10BD10B5102158484F
:102FD000FDF7A1FDFFF7BAFF20215548FDF799FD48
:102FE000FFF7A8FFFFF7B2FF10215148FDF791FD51
:102FF000FFF7ACFF20214E48FDF771FD38B1FFF718
:103000008AFF10214A48FDF786FD002010BD1021DF
:103010004748FDF780FDFFF77EFFFFF797FF012090
:10302000F4E770B5044600251BE010214048FDF789
:1030300072FD14F0800F04D020213D48FDF769FD9A
:1030400003E020213A48FDF766FD6006040EFFF715
:103050007DFF10213648FDF75CFDFFF777FF681C08
:10306000C5B2082DE1DB10213148FDF754FDFFF713
:10307000ACFF00B970BD00BFFCE770B50024FFF7DE
:1030800059FF002519E06006040E10212848FDF7BD
:1030900040FDFFF75BFF20212548FDF720FD0128BB
:1030A00001D144F00104FFF751FF10212048FDF742
:1030B00032FDFFF74BFF681CC5B2082DE3DB20464D
:1030C00070BD70B505460C46FFF74BFFD020FFF7EB
:1030D000A8FF2846FFF7A5FF2046FFF7A2FFFFF74E
:1030E0005AFF70BD70B50446FFF73BFFD020FFF7D5
:1030F00098FF2046FFF795FFFFF733FFD120FFF73A
:1031000090FFFFF7BAFF0546FFF75FFFFFF743FFAA
:10311000284670BD70B504462046FFF7E3FF05461C
:10312000611CC8B2FFF7DEFF064606EB052070BD46
:103130000008014010B500216B20FFF7C2FF0821F5
:103140001920FFF7BEFF04211A20FFF7BAFF18214C
:103150001B20FFF7B6FF10211C20FFF7B2FF10BDA8
:1031600010B53B20FFF7D6FF044601F0CDFA3B49EE
:1031700008603D20FFF7CEFF044601F0C5FA38494C
:1031800008603F20FFF7C6FF044601F0BDFA35494D
:1031900008604320FFF7BEFF044601F0B5FA32494C
:1031A00008604520FFF7B6FF044601F0ADFA2F494D
:1031B00008604720FFF7AEFF044601F0A5FA2C494E
:1031C000086010BD2DE9F04706460C4615462F460F
:1031D000A0462848006828490860414627480068FA
:1031E00001F03CF82649086039462548006801F09E
:1031F00035F8814649462248006801F0BDF821496A
:1032000008601D480168304601F07AF882461D4882
:103210000168504601F07AF881461748016848462F
:1032200001F01CF818490860164801684FF07E50FC
:1032300001F066F8814612480168484601F066F8D8
:1032400012490860084600680C4908600E4800688A
:10325000084908600C480068BDE8F0878400002039
:10326000880000208C0000209000002094000020A6
:1032700098000020B00000209C000020B400002036
:10328000A4000020AC000020A0000020A800002026
:103290002DE9F0410446204601F036FA0746FE4982
:1032A00001F034F80646FD4901F066F80546284667
:1032B000BDE8F0812DE9F0470446204601F024FAEC
:1032C000824601F069FA0746F54AF64B01F03BF9F0
:1032D000054601F089FA81464846BDE8F0872DE9A8
:1032E000F0410446204601F00FFA07464FF08041B6
:1032F00001F00CF80646E94901F03EF8054628467B
:10330000BDE8F0812DE9F04F89B081460D461446A5
:103310009A46DDF848B005FB05F104FB041001F006
:10332000F3F9074603F01AF80646304601F034FA7E
:10333000CDE90201484601F0E7F9019001F02CFACD
:103340000746DDE9022302F075FED74AD74BCDE9E7
:10335000040101F0F8F8CDE9060101F045FA06464E
:10336000CBF8006009FB09F104FB041001F0CCF973
:10337000074602F0F3FF0646304601F00DFACDE9AC
:103380000201284601F0C0F9019001F005FA074654
:10339000DDE9022302F04EFEC34AC44BCDE904012D
:1033A00001F0D1F8CDE9060101F01EFA0646CAF88F
:1033B000006009B0BDE8F08F2DE9FF5F06460F46BB
:1033C00090461C46002515E0C5F10200B84951F8A9
:1033D0002000C5F10301B64A42F82100C5F1020000
:1033E000B44951F82000C5F10301B24A42F8210066
:1033F000681CC5B2032DE7DBAD480660AD48076029
:10340000AB48C168AC4800F081FF0390A8488168D0
:10341000AA4800F07BFF0290A5484168A84800F048
:1034200075FF0190A2480168A64800F06FFF009068
:10343000019900F013FF8346029900F00FFF8246C6
:10344000039900F00BFF81469F4900F095FFC8F8F3
:1034500000009948E16800F059FF03909748A1687F
:1034600000F054FF02909648616800F04FFF019011
:103470009448216800F04AFF0090019900F0EEFEA8
:103480008346029900F0EAFE8246039900F0E6FEC8
:1034900081468D4900F070FF2060BDE8FF9F2DE957
:1034A000F843FFF75DFE4FF08E418848006801F059
:1034B000B7F910D28548006801F06EF906464FF062
:1034C0006632834B01F0B1F881F00041044601F00F
:1034D0008BF97E4908604FF08E417C48006801F00E
:1034E000A9F912D2794801687A4800F009FF8046AC
:1034F00001F052F906464FF06632754B01F095F82F
:10350000044601F071F9714908606F496F4800681D
:1035100001F090F905D970496C48006801F080F914
:1035200002D80020694908606848006801F007F97E
:1035300004B22046FFF7ACFE684908604FF08E41A8
:103540006748006801F06CF910D26548006801F026
:1035500023F906464FF066325D4B01F066F881F0C4
:103560000041044601F040F95D4908604FF08E418A
:103570005B48006801F05EF912D25948016855486D
:1035800000F0BEFE804601F007F906464FF06632B5
:103590004F4B01F04AF8044601F026F95049086003
:1035A00049494F48006801F045F905D94A494C4856
:1035B000006801F035F902D8002049490860484800
:1035C000006801F0BCF804B22046FFF761FE4549EF
:1035D00008604FF08E414448006801F021F910D294
:1035E0004148006801F0D8F806464FF06632384B83
:1035F00001F01BF881F00041044601F0F5F83A496A
:1036000008604FF08E413848006801F013F912D27B
:10361000354801682F4800F073FE804601F0BCF881
:1036200006464FF066322A4B00F0FFFF044601F0D9
:10363000DBF82D49086024492B48006801F0FAF8AE
:1036400005D925492848006801F0EAF802D8002089
:10365000254908602448006801F071F804B220464A
:10366000FFF716FE214908602148006801F067F85D
:1036700004B22048006801F062F805B21E480068F4
:1036800001F05DF806B21D481D4B22462946009008
:103690003046FFF737FE35E00000FA4400FEFF46F3
:1036A0002877442A3174513F775AF01ADCA54C40F0
:1036B00050020020600200200000A04000002041D5
:1036C0000000A041000082420000C842900000209B
:1036D0006666304000FF7F470000C8C2F40000204B
:1036E00094000020F800002098000020FC0000203A
:1036F0008C0000208800002084000020F0000020C2
:10370000EC000020FE480068FE494860FE48006862
:103710000860FE4A48684FF07E51FFF753FDF949B3
:103720004860FA4A08684FF07E51FFF74BFDF549B3
:103730000860BDE8F8830FB59DB0F54801680068E2
:1037400000F0E4FD1590F3480168F148006800F0CE
:10375000DDFD1490F0480168ED48006800F0D6FDEA
:103760001390EC480168006800F0D0FD1290EB481F
:103770000168E848006800F0C9FD1190E64801685A
:10378000006800F0C3FD1090E4480168E24800685A
:1037900000F0BCFD0F90E1480168006800F0B6FD44
:1037A0000E902299209800F0B1FD0C90239900F022
:1037B000ADFD00210D9001F033F801D121B000BD25
:1037C0002399084600F0A2FD08902299084600F0CF
:1037D0009DFD06902099084600F098FD05900699F9
:1037E00000F03CFD0790089900F038FD099000F0CA
:1037F000D3FFCDE90A0102F08BFDCDE90C0100F009
:10380000F3FF1C901C99209800F0B6FD20901C99A5
:10381000229800F0B1FD22901C99239800F0ACFD95
:1038200023901399119800F06BFD4FF080410D909B
:1038300000F06CFD1B900F99149800F00FFD4FF0F5
:1038400080410D9000F062FD1A901299159800F0D9
:1038500057FD0C90109900F053FD0D900E9900F05B
:10386000FDFC19901A99239800F050FD0D901999BC
:10387000229800F04BFD0C900D9900F041FD18903E
:103880001999209800F042FD0D901B99239800F0A3
:103890003DFD0C900D9900F033FD17901B99229877
:1038A00000F034FD0D901A99209800F02FFD0C9037
:1038B0000D9900F025FD16909949189800F026FD05
:1038C0000D90984801680D9800F0C8FC9549086073
:1038D0009349179800F01AFD0D90934801680D98D0
:1038E00000F0BCFC904908608D49169800F00EFD70
:1038F0000D908E4801680D9800F0B0FC8B4908606F
:103900008B48189900F002FD0C901D9900F0A6FC60
:103910000D90844801680D9800F0A0FC1D9084482B
:10392000179900F0F3FC0C901E9900F097FC0D9095
:103930007D4801680D9800F091FC1E9077481F9912
:10394000006800F0E3FC0B9073481E99006800F0DB
:10395000DDFC09906F48006880F0004007901D99D9
:1039600000F0D4FC0890099900F0CAFC0A900B9969
:1039700000F0C6FC65490C9000F0C8FC0D9064484E
:1039800001680D9800F06AFC6149086063481E995F
:10399000006800F0BBFC0B905F481F99006800F0C6
:1039A000B5FC09905A4801681D9800F0AFFC0890DA
:1039B000099900F053FC0A900B9900F0A1FC5349BF
:1039C0000C9000F0A3FC0D90524801680D9800F097
:1039D00045FC50490860514801681D9800F096FC6C
:1039E0000B904C481F99006800F090FC09904848E3
:1039F0001E99006800F08AFC0890099900F080FC8C
:103A00000A900B9900F02AFC40490C9000F07EFCD3
:103A10000D90414801680D9800F020FC3E49086077
:103A2000084601681D9800F071FC0B9039481E99FA
:103A3000006800F06BFC099035481F99006800F0A1
:103A400065FC0890099900F009FC0A900B9900F0B8
:103A500057FC2E490C9000F059FC0D902F4801683E
:103A60000D9800F0FBFB2D490860084601680068CE
:103A700000F04CFC089028480168006800F046FC03
:103A8000069024480168006800F040FC049020483B
:103A90000168006800F03AFC0390049900F0DEFB36
:103AA0000590069900F0DAFB0790089900F0D6FB24
:103AB000099000F071FECDE90A0102F029FCCDE980
:103AC0000C0100F091FE1C9011481C99006800F058
:103AD00053FC0F4908600F481C99006800F04CFC2B
:103AE0000C4908600C481C99006800F045FC0A4924
:103AF00008600A481C99006800F03EFC074919E07C
:103B0000F000002038020020EC0000206F12833A01
:103B1000B8000020BC000020C0000020C40000202D
:103B20006F12033CC8000020CC000020D000002011
:103B3000000020410860084601684FF0804000F016
:103B4000E5FB0190FE480168019800F0DFFB03905F
:103B5000FC4801684FF0404000F0D8FB0190F94864
:103B60000168019800F0D2FB0290039900F0C8FBB5
:103B70004FF07E51049000F071FB059000F00CFEB8
:103B8000CDE90801F04801684FF0804000F0BEFB2D
:103B90000290EB480168029800F0B8FB0490EB48F3
:103BA00001684FF0804000F0B1FB0290E5480168E9
:103BB000029800F0ABFB0390049900F04FFB0590D6
:103BC00000F0EAFDCDE90601DDE9082302F032FA52
:103BD0004FF06632DE4BCDE90A0100F0B4FCCDE9CE
:103BE0000C0100F001FEDB498860D74801684FF006
:103BF000804000F08BFB0490D2480168049800F0EC
:103C000085FB0690D14801684FF0404000F07EFBF4
:103C10000490CB480168049800F078FB0590069961
:103C200000F01CFB079000F0B7FDCDE9080101F0A2
:103C3000B1FF4FF06632C64BCDE90A0100F083FCBC
:103C4000CDE90C0100F0D0FDC2494860BD480168D3
:103C50004FF0804000F05AFB0190BA48016801988B
:103C600000F054FB0390B94801684FF0404000F069
:103C70004DFB0190B5480168019800F047FB0290A8
:103C8000039900F03DFB4FF07E51049000F0E6FAFE
:103C9000059000F081FDCDE90801AB4801684FF0C7
:103CA000804000F033FB0290A8480168029800F0C1
:103CB0002DFB0490A34801684FF0804000F026FBE4
:103CC00002909F480168029800F020FB039004993D
:103CD00000F0C4FA059000F05FFDCDE90601DDE9D2
:103CE000082302F0A7F94FF06632994BCDE90A019B
:103CF00000F029FCCDE90C0100F076FD9549086043
:103D000000BF5BE50FB597B09248006892490890F4
:103D100000F032FB099000F03FFDCDE90A0102F00E
:103D200049FACDE90C0100F05FFD15908948406823
:103D30008949089000F020FB099000F02DFDCDE9A5
:103D40000A0102F037FACDE90C0100F04DFD1490A4
:103D5000804880688049089000F00EFB099000F0D0
:103D60001BFDCDE90A0102F025FACDE90C0100F0B6
:103D70003BFD1390774800687749089000F0FCFA03
:103D8000099000F009FDCDE90A0102F069FACDE9D8
:103D90000C0100F029FD12906E4840686E490890B1
:103DA00000F0EAFA099000F0F7FCCDE90A0102F010
:103DB00057FACDE90C0100F017FD119065488068B5
:103DC0006549089000F0D8FA099000F0E5FCCDE9CB
:103DD0000A0102F045FACDE90C0100F005FD109052
:103DE000DDE9131000F092FA0F90DDE9101000F0F9
:103DF0008DFA0E900E99129800F088FA0D900F9996
:103E0000159800F083FA0C900D9900F027FA4E49AE
:103E100008600E99159800F079FA0D900F99129894
:103E200000F074FA0C900D9900F06AFA47490860A6
:103E30001499129800F06AFA0B90109900F066FA43
:103E40000D901199159800F061FA0B90139900F0FC
:103E50005DFA0C900D9900F001FA3A490860DDE92D
:103E6000111000F053FA0B90139900F04FFA0D90D7
:103E7000DDE9141000F04AFA0B90109900F046FAB0
:103E80000C900D9900F03CFA2D4908602C481999C6
:103E9000006800F03BFA0B902A481899006800F07F
:103EA00035FA09902948006880F00040079017997A
:103EB00000F02CFA0890099900F022FA0A900B9968
:103EC00000F01EFA25490C9000F020FA0D901E48D3
:103ED00001680D9800F0C2F91B490860184818994C
:103EE000006800F013FA0B9016481999006800F06A
:103EF0000DFA099014480168179800F007FA089025
:103F0000099900F0ABF90A900B9900F0F9F91349FF
:103F10000C9000F0FBF90D900C4801680D9800F032
:103F20009DF90A49086006480168179800F0EEF903
:103F30000B9006481999006800F0E8F909900FE025
:103F4000C4000020C0000020B8000020BC000020F9
:103F500066A64C40380200203333E5426F12833AA4
:103F6000B7481899006800F0D1F90890099900F055
:103F7000C7F90A900B9900F071F9B2490C9000F062
:103F8000C5F90D90B04801680D9800F067F9AE4989
:103F9000086008460168179800F0B8F90B90AB4824
:103FA0001899006800F0B2F90990A54819990068BD
:103FB00000F0ACF90890099900F050F90A900B99BB
:103FC00000F09EF99F490C9000F0A0F90D90A048D8
:103FD00001680D9800F042F99D49086008460168A3
:103FE000006800F093F9089097480168006800F0B5
:103FF0008DF9069095480168006800F087F90490F3
:104000008F480168006800F081F90390049900F07E
:1040100025F90590069900F021F90790089900F01C
:104020001DF9099000F0B8FBCDE90A0102F070F922
:10403000CDE90C0100F0D8FB169081481699006874
:1040400000F09AF97E49086080481699006800F0EF
:1040500093F97E4908607C481699006800F08CF955
:10406000794908607A481699006800F085F978491E
:104070000860084601684FF0804000F047F9019061
:1040800073480168019800F041F903906E48016897
:104090004FF0404000F03AF901906B4801680198F8
:1040A00000F034F90290039900F02AF94FF07E51A4
:1040B000049000F0D3F8059000F06EFBCDE9080104
:1040C0005F4801684FF0804000F020F9029060489E
:1040D0000168029800F01AF904905C4801684FF0FA
:1040E000804000F013F9029057480168029800F0F0
:1040F0000DF90390049900F0B1F8059000F04CFB25
:10410000CDE90601DDE9082301F094FF4FF06632A6
:10411000504BCDE90A0100F016FACDE90C0100F090
:1041200063FB4D498860464801684FF0804000F0CD
:10413000EDF8049044480168049800F0E7F8069010
:10414000424801684FF0404000F0E0F804904048D9
:104150000168049800F0DAF80590069900F07EF8FE
:10416000079000F019FBCDE9080101F013FD4FF0B5
:104170006632384BCDE90A0100F0E5F9CDE90C01D2
:1041800000F032FB344948602F4801684FF080400E
:1041900000F0BCF801902C480168019800F0B6F8D6
:1041A00003902A4801684FF0404000F0AFF80190BA
:1041B00026480168019800F0A9F80290039900F0E0
:1041C0009FF84FF07E51049000F048F8059000F001
:1041D000E3FACDE908011A4801684FF0804000F089
:1041E00095F8029019480168029800F08FF8049041
:1041F000154801684FF0804000F088F8029014489C
:104200000168029800F082F80390049900F026F803
:10421000059000F0C1FACDE90601DDE9082301F0BF
:1042200009FF4FF066320B4BCDE90A0100F08BF924
:10423000CDE90C0100F0D8FA074908601BB000BDB9
:10424000B80000206F12833AC0000020BC0000209C
:10425000C400002066A64C4038020020F0B480EA7A
:104260000102D40F4200B2EB410F02D202460846CF
:1042700011464A0042D0C30DDDB2C1F3C752AD1A98
:10428000202D35DAC1F3160141F4000204B1524287
:10429000C5F1200602FA06F12A411044B3EBD05FC3
:1042A00023D0C4B1012DA0EBC35009DCF0BC4FF00A
:1042B000004202EAC35200F50000DBB200F035BB59
:1042C000400000F1807000EBC350A0F1807040EA24
:1042D000D170490009E0490841EAC071A0EBC35020
:1042E00000F50000400800EBC350F0BC00F014BB28
:1042F0006142012202EB4101001BF6E7F0BC70476E
:1043000081F00041AAE780F00040A7E780EA0102BF
:1043100010B502F00043400026D04A0023D04FEAF7
:10432000106101EB1261C0F35600C2F3560240F473
:10433000000042F40002A0FB0220A1F17F014FEA3D
:104340000040140401D000F1010050EA124001D4F1
:104350004000491EC2B20C0604EBD010401C4008BD
:10436000802A02D003E0002010BD20F001000029C7
:1043700000DA0020184310BD30B480EA010202F0D8
:10438000004530F0004221F0004015D0A0B1C0F34C
:10439000C753C2F3C754C2F31601C0F31600E41AA0
:1043A00041F4000140F400027D34914201D3641CC9
:1043B00000E04900002C02DA30BC002070474FF4C6
:1043C00000000023914201D3891A034340084FEAB9
:1043D0004101F7D151B1914202D14FF0004105E0C6
:1043E00002D24FF0010101E06FF0010103EBC45074
:1043F000284430BC00F090BA2DE9FE4F804681EA97
:104400000300C00F0C46009021F0004123F000454E
:10441000B8EB0200A94105D24046214690461C4611
:104420000B46024623F00040104304D1404621468B
:1044300003B0BDE8F08F270DC7F30A00C3F30A519C
:104440000290401A0190402866DAC3F3130040F44A
:10445000801B0098924620B10023D2EB030A63EB45
:104460000B0B01985946C0F14002504600F033FA58
:1044700006460D4650465946019A00F03BFA10EBAD
:1044800008006141002487EA115284EAE7731A4365
:104490003BD0009A3AB3019A012A4FEA075210DC46
:1044A000001B61EB02014FF0004202EA0752CDE926
:1044B0000042001C41F5801132462B4600F09EFA66
:1044C000B6E7001B61EB0201001C41F580130018E8
:1044D0005B412018A2F5001747EB030140EAD570B5
:1044E000B6196D4111E06D084FEA360645EAC07510
:1044F0004FEA0752001B61EB0201001C41F58011DD
:1045000049084FEA30000019514132462B4603B0AA
:10451000BDE8F04F00F065BA00980122400000238A
:10452000D0EB020263EBE073009821464FEAE0749F
:10453000B8EB000061EB0401E9E783F000435BE7BF
:1045400081F0004158E72DE9FE4F81EA030404F0B1
:10455000004421F0004100944FF0000B23F0004391
:1045600050EA010402D052EA030404D100200146BB
:1045700003B0BDE8F08FC3F30A54C1F30A552C44CD
:10458000A4F2F3340194A0FB0254C1F3130141F4EB
:104590008011C3F3130343F4801301FB024400FBB7
:1045A000034E840A970A44EA815447EA8357A4FBDE
:1045B000076802958D0A05FB07854FEA932C04FBDB
:1045C0000C542705029D4FEA065847EA1637B5EB0B
:1045D00008056EEB070C870E920E47EA811742EA38
:1045E0008312A7FB0201B6EB0B0164EB00042B0D59
:1045F00043EA0C335E1844EB1C50DA465146E7FBA5
:104600000201C5F313044FEA0B3343EA14534FEA94
:104610000432019C43EA0603A4F10C040294009CBA
:10462000CDE900B400F0EAF9A2E72DE9F04D81EA06
:10463000030404F0004B21F0004514464FF0000A3B
:1046400023F0004150EA050220D054EA01021DD0B7
:10465000C5F30A570246C5F31303C1F31300C1F3B0
:104660000A5640F4801543F48013A7EB0608101B8C
:10467000D64608F2FD3873EB050002D308F10108B5
:1046800001E092185B41B8F1000F03DA0020014607
:10469000BDE8F08D00204FF48011064684460EE000
:1046A000171B73EB050705D3121B63EB05030643CA
:1046B0004CEA010C49084FEA300092185B4150EA7D
:1046C0000107EDD152EA030012D082EA040083EA26
:1046D0000501084303D100224FF0004308E0101BFE
:1046E000AB4102D20122002302E06FF0010253101D
:1046F0001AEB06004CEB085110EB0A0041EB0B01E2
:10470000BDE8F04D00F06DB9C10F80EAE0700844DB
:10471000CA079623002100F008B99623002211460B
:1047200000F003B90EB540F2334102910021CDE90A
:1047300000110A460B4600F061F903B000BD00F01D
:10474000004220F00040C10DC0F3160040F400000C
:104750007F2901DA00207047962903DCC1F1960118
:10476000C84001E096398840002AF4D040427047A2
:1047700020F00040C10DC0F3160040F400007F2976
:1047800001DA00207047962903DCC1F19601C84088
:10479000704796398840704700F0004230F0004082
:1047A0000AD0C10D01F56071C0F3160042EA015153
:1047B000C2084007114370470020014670470000BF
:1047C00030B5002904DB4FF00044404264EB0101A6
:1047D000002B04DB4FF00044524264EB0303994288
:1047E00008BF904230BD000001F0004330B421F01A
:1047F000004150EA010206D00A0DA2F56072C1F331
:104800001301002A02DC30BC00207047440F44EA48
:10481000C104C100E01830BC00EBC25000F07CB80D
:10482000002801DBC0F10040002901DBC1F100419B
:1048300081427047002801DBC0F10040002901DB04
:10484000C1F100418842704730B50B460146002057
:104850002022012409E021FA02F59D4205D303FA42
:1048600002F5491B04FA02F52844151EA2F10102C3
:10487000F1DC30BD2DE9F05F0546002092469B46F5
:1048800088460646814640241BE028464146474666
:10489000224600F097F953465A46C01A914110D368
:1048A00011461846224600F016F82D1A67EB01084B
:1048B0004F4622460120002100F00DF817EB0009B9
:1048C0004E41201EA4F10104DFDC484631462A4651
:1048D0004346BDE8F09F202A04DB203A00FA02F1AB
:1048E000002070479140C2F1200320FA03F31943DE
:1048F00090407047202A06DBCB17203A41FA02F09D
:1049000043EAE07306E041FA02F3D040C2F120022C
:1049100091400843194670470029A8BF7047401CC2
:10492000490008BF20F00100704710B4B0FA80FCC5
:1049300000FA0CF050EA010404BF10BC704749B102
:10494000CCF1200421FA04F411FA0CF118BF012172
:1049500021430843A3EB0C01CB1D0106000A002BE9
:10496000BEBF002010BC704700EBC35010440029AC
:10497000A4BF10BC7047401C490008BF20F00100D4
:1049800010BC7047F0B4002802DCF0BC0020704777
:10499000C0F3C751C0F3160040F40000CA0701D1AC
:1049A0004000491E3F2202EB6105002211464FF4F0
:1049B000000626FA01F31344D418844201D8001BE0
:1049C0001A464000491C1729F3DD5100814202D2EA
:1049D0004FF0FF3100E0002102EBC550F0BCFFF7C3
:1049E0009BBF10B5002B08DA401C41F10001921862
:1049F0005B411A4301D120F0010010BD2DE9F04DBB
:104A000092469B4611B1B1FA81F202E0B0FA80F20F
:104A100020329046FFF75FFF04460F4640EA0A0047
:104A200041EA0B0153465A46084303D12046394612
:104A3000BDE8F08D114653EA010015D0C8F14002DF
:104A4000504600F0BFF805460E46504659464246CD
:104A5000FFF741FF084301D0012000E0002005439B
:104A600046EAE0762C4337430A984FEA4453A0EBDA
:104A700008004FEAD4240A304FF0000244EA4754B9
:104A80004FEAD72502D500200146D1E701051019CC
:104A90006941DDE9084500196941BDE8F04DA0E72D
:104AA00070B521F0004303430CD0C1F30A55002434
:104AB000D5EB040564EB0403D617AD1AB34102DB52
:104AC0000020014670BD201841EB025170BD2DE958
:104AD000F04D00231A461B1A8A4103DB00200146D1
:104AE000BDE8F08DC1F30A52C1F3130141F4801502
:104AF0004FF0000BD10702D100186D41521E002764
:104B0000044640F2FF11384601EB620A3E468046F9
:104B1000024600204FF4801100F054F8C219714190
:104B2000BB1846EB0100B4EB030C75EB000C04D38F
:104B3000E41A65EB000517460E46241908F101003A
:104B40006D4180463428E3DDF91946EB0600091B68
:104B5000A84103D24FF0FF32134601E00022134672
:104B60001BEB070046EB0A51BDE8F04DFFF739BFDC
:104B7000C1F30A52C1F3130140F2FF3341F4801133
:104B80009A4202DA00200146704740F233439A42CB
:104B9000A2F2334202DC524200F014B8FFF79BBE8F
:104BA000064C074D06E0E06840F0010394E807007A
:104BB00098471034AC42F6D3FBF79CFA986500088E
:104BC000B8650008202A04DB203A21FA02F000210F
:104BD000704721FA02F3D040C2F12002914008430D
:104BE000194670470EB5C10F80EAE0700844CA0745
:104BF000002140F233438DE80E000A460B46FFF7D2
:104C0000FDFE03B000BD70B5C1F30A5201F00045CE
:104C10000024C1F3130140F2FF3341F480119A42A2
:104C200001DA002070BD40F233439A42A2F23342CF
:104C300003DC5242FFF7C6FF00E090402C43F1D066
:104C4000404270BD37B514460846064B6A462146B9
:104C500000F0F8FB04466946002000F096FF20466D
:104C60003EBD00008B5B0008490050EAC12018BF20
:104C700004204A0D18BF40F0010040F2FF72B2EB71
:104C8000515F08BF40F00200012808BF05207047AF
:104C90002DE9F74F144696B00021C4E90211179987
:104CA000089121F00045CA498D4206DC1799C4E9F4
:104CB000000119B00020BDE8F08FC649DFF818A345
:104CC000A9423CDD0899C54E0029C54FC54A179930
:104CD000534619DDFFF731FC554506D0C24AC34B98
:104CE000FFF72BFCC4E900010AE04FF0D352BF4BA1
:104CF000FFF723FC32463B46FFF71FFCC4E90001E7
:104D000019B00120BDE8F08FFFF776FB554506D0BE
:104D1000B54AB64BFFF770FBC4E900010AE04FF05B
:104D2000D352B24BFFF768FB32463B46FFF764FBBA
:104D3000C4E9000119B04FF0FF30BDE8F08FAC4975
:104D4000A942179978DB21F000488346A94AAA4B6B
:104D50004146FFF7F8FB0022A84BFFF74DFBFFF79A
:104D600052FF0990FFF73EFF06460F469D4A534605
:104D7000FFF7E9FB5A464346FFF7E2FB80468A46C7
:104D8000994A9A4B30463946FFF7DDFB2A0D01253B
:104D90000B9242465346FFF7D3FB032DC4E90001B3
:104DA00039D00B98C1F30A51401A05EB451111395E
:104DB000814230DA9248C346784400EB0510CDF8C2
:104DC0001CA00C90D0E9002330463946FFF7BBFB0E
:104DD000CDE9020102460B4658460799FFF7ADFBA5
:104DE00080468A4602460B4658460799FFF7A5FBC0
:104DF000DDE90223FFF7A1FB83460C9803913946B6
:104E0000D0E902233046FFF79EFB5A46039BFFF78B
:104E100094FB6D1CBDE708980028A2BF099819B043
:104E2000BDE8F08F616881F000416160099819B0B8
:104E30004042BDE8F08FFFE7C1F3130141F4801158
:104E40000E911799C1F30A51A1F2F532511102F0F6
:104E50001F08C8F12002129200220C920D92694A9A
:104E60007A4402EB810101F1140C0DA95FF00607F1
:104E7000DCF80020DCF8045002FA08F3129AD1F8AA
:104E800000A025FA02F21A430E9BA2FB0356A2FBD6
:104E900000329A4415449A4534BF4FF0010B4FF04D
:104EA000000B51F8043C05EB0B0E7344954234BFE4
:104EB000012200221644BBF1000F02D0AB4202D9FE
:104EC00003E0AB4201D2012200E000223244C1F8EB
:104ED00000A041E90223091FACF1040C7F1EC7D1D9
:104EE0000898DDE90A6500F10050800F11900898DC
:104EF000099F8000FFF776FE80468A463846FFF716
:104F000011FC6FF01D02FFF7CBFD074630460591FF
:104F1000FFF708FC6FF03D02FFF7C2FDCDE903107B
:104F20002846FFF7FFFB6FF05D02FFF7B9FD06466D
:104F300002460B460191DDE90310FFF75DFA3A46A0
:104F4000059BFFF759FA42465346FFF755FA0020F2
:104F50000D46834642465346FFF7EFFA3A46059B15
:104F6000FFF7EBFADDE90332FFF7E7FA3246019B80
:104F7000FFF7E6FADFF89480234A4346FFF7E3FAA7
:104F800006460F46224A234B58462946FFF7DBFACE
:104F900032463B46FFF730FA0F4606464FF0A8422E
:104FA000434658462946FFF7CEFA32463B46FFF7BE
:104FB00023FA179A12F0004F04D0119A81F00041A1
:104FC00052421192C4E90001119819B0BDE8F08F66
:104FD000FB21E93F7CD90240FB21F93F7370032E8E
:104FE0008A19A33B000040543163621A61B4D03D7A
:104FF000FB21394183C8C96D305FE43F0000E03FC9
:10500000EC16000074160000182D4454FB21F93DE5
:105010003326A611460B113C2DE9FF4D21F0004827
:1050200007460C46B8F1795F08DAFFF7ECFD002877
:1050300001BF0020324904B0BDE8F08D3A46234656
:1050400010461946FFF77FFA054602462D480E46E0
:105050000B460621784400F05DF82A463346FFF7F8
:1050600072FADDE9022382468B4638462146FFF775
:105070006AFA04460F4652465B4628463146FFF719
:1050800062FA22463B46FFF758FA07468A464FF037
:10509000FF3228463146FFF703FD1B4A90450ADAE6
:1050A0003A465346FFF749FA04B00022BDE8F04DF6
:1050B000134BFFF745BA154A4245A8BFA8F500159E
:1050C0004FF00004B8BF124D22462B46FFF735FAC9
:1050D0000646884622462B4600200949FFF72DFA4E
:1050E00004460D463A46534630464146FFF725FAF8
:1050F00004B022462B46BDE8F04DFFF721BA000070
:105100000000F03F181400003333D33F0000E93FA4
:105110000000D23F2DE9F0414F1E00EBC7010446CD
:10512000D1E9000115461E4637F006020DD02A4689
:105130003346FFF708FA7F1E04EBC703D3E90023C9
:10514000FFF75AF937F00602F1D1022F25D0042FCC
:1051500013D0062F18BFBDE8F0812A463346FFF76B
:10516000F2F9D4E90A23FFF747F92A463346FFF755
:10517000EAF9D4E90823FFF73FF92A463346FFF757
:10518000E2F9D4E90623FFF737F92A463346FFF759
:10519000DAF9D4E90423FFF72FF92A463346FFF75B
:1051A000D2F9D4E90223FFF727F92A463346FFF75D
:1051B000CAF9D4E90023BDE8F041FFF71DB90000AA
:1051C0002DE9FF4D054621F0004084B00C46B0F1BA
:1051D000795F0BDA2846FFF747FD042808BF00F087
:1051E00065F8284608B02146BDE8F08D2A460B46F2
:1051F0001046FFF7A8F906460F462A462346FFF752
:10520000A2F9804626488A4632463B460521784424
:10521000FFF780FF83461098029160B3214A224B2A
:1052200040465146FFF78FF9CDE900015A46404606
:105230005146029BFFF787F982468846DDE9060161
:105240004FF0FF32FFF72CFC52464346FFF775F94B
:1052500032463B46FFF777F9DDE90623FFF76DF9A4
:10526000DDE90023FFF769F908B02A462346BDE8C7
:10527000F04DFFF765B90B465A4630463946FFF701
:1052800062F9084A084BFFF7B7F842465346FFF762
:105290005AF908B02A462346BDE8F04DFFF7ACB8EE
:1052A0005E130000495555555555C5BF024A0020AB
:1052B0001107FFF7F5BB000001FDFFFF02E008C882
:1052C000121F08C1002AFAD170477047002001E080
:1052D00001C1121F002AFBD170470000014908607C
:1052E000704700000C0100202DE9FF5FDDE902207E
:1052F000010DDDF838B0024310D10F9801244CA203
:10530000012808D0002100980F9BC0E90021C0E9C6
:105310000243BDE8FF9F6FEA0B01F4E7A1F2FF3102
:1053200044F6105041430D140F9801280ED0A5EB00
:105330000B00401C4FF000043E4EDFF8FC90B0F133
:10534000000AA04605DACAF1000717E0CBF1000019
:10535000F0E7074612E0F80707D0224633464046FA
:105360004946FFF7F0F88046894622463346104604
:105370001946FFF7E8F804460E467F10002FEAD1E1
:10538000DDE90201BAF1000F42464B4602DAFFF7AF
:10539000DAF801E0FFF749F904460E460022274BF0
:1053A000FFF70EFA03D84FF0FF30014607E0002266
:1053B000234B20463146FFF71FF8FFF7D9FB102497
:1053C00009E0002C0ADB0A220023FFF753FA019BB5
:1053D00030321A55641E50EA0102F2D1641C019A5F
:1053E000C4F1110314440F9A012A09D00122084381
:1053F00001D15B450FDD4FF0000205F101050DE025
:10540000084303D1A3EB0B056D1E09E000204FF00C
:10541000110B0F9088E701DA00226D1E002A83D05D
:1054200000980F99C0E90231C0E9004571E700001A
:1054300030000000000024400000F03F0000F04376
:105440000000E03F2DE9FF4F95B09B468946064698
:10545000002512E2252878D10024761CF94A274637
:10546000012105943378203B01FA03F0104202D069
:105470000443761CF6E730782A2811D06FF02F030A
:105480003078A0F13002092A16D8059A44F00204B7
:1054900002EB820203EB42021044761C0590EFE718
:1054A00059F8042B0592002A03DA504244F40054C0
:1054B000059044F00204761C30782E2816D116F898
:1054C000010F44F004042A280DD06FF02F02307829
:1054D000A0F13003092B09D807EB870302EB430344
:1054E000C718761CF3E759F8047B761C30786C28D3
:1054F0000FD006DC4C2817D068280DD06A2814D1AC
:1055000004E0742810D07A280FD10DE044F4001480
:105510000AE044F4801401E044F4401472788242BA
:1055200002D1761C04F58014761C307866280BD0E6
:1055300013DC582877D009DC002875D04528F6D030
:105540004628F4D047281AD19FE118E0632835D0C7
:10555000642879D0652812D197E1702873D008DCCF
:105560006728F1D069286FD06E280DD06F2806D13A
:10557000B5E073282CD0752875D0782874D05A4699
:10558000179990476D1C76E1C4F30250022809D0A8
:1055900003280DD0D9F8001004280DD00D6009F1B2
:1055A000040968E1D9F80010EA17C1E90052F6E7EA
:1055B000D9F800100D80F2E70D70F0E719F8041B20
:1055C0008DF8001000208DF80100EA46012003E06C
:1055D00059F804AB4FF0FF3061074FF0000102D4DF
:1055E0000DE008F101018846B9420FDA8045F8DB89
:1055F0001AF808100029F4D108E008F101018846E2
:105600008142FADB1AF808100029F6D105985B46AA
:10561000A0EB080721463846179A00F09EFA284466
:1056200000EB080507E04DE02BE10DE01AF8010B57
:105630005A4617999047B8F10108F7D25B462146C0
:105640003846179A14E142E00A220092C4F302524B
:105650004FF0000A022A08D059F804CB032A4FEA77
:10566000EC710AD00DE029E02AE009F1070121F0F0
:105670000702F2E802C1914609E00FFA8CFC4FEAFA
:10568000EC71042A03D14FFA8CFC4FEAEC7100292B
:1056900007DA0A460021DCF1000C61EB02012D2241
:1056A00002E0220504D52B228DF80420012203E01C
:1056B000E20701D02022F7E7904653E00A2102E0FA
:1056C00010220DE010214FF0000A00910BE0102293
:1056D0004FF0000A44F004040827009203E0082277
:1056E0004FF0000A0092C4F30252022A05D059F882
:1056F00004CB0021032A08D009E009F1070121F0B9
:105700000702F2E802C1914605E01FFA8CFC042A68
:1057100001D10CF0FF0C4FF00008220722D57028B1
:1057200027D0009B83F0100353EA0A0309D15CEAF7
:10573000010206D030228DF804208DF805000222E7
:105740009046009B83F0080353EA0A030AD15CEAFF
:10575000010201D1620705D530228DF804204FF0F7
:1057600001087F1E582809D037A003900EA8029088
:1057700013E040228DF804200122E1E737A0F4E78E
:1057800053466046009AFFF775F884460398825C9A
:105790000298A0F10100029002705CEA0100EFD1D2
:1057A000029806A9A1EB000000F1200A600702D5CB
:1057B00024F4803400E00127574502DDA7EB0A00FE
:1057C00000E0002000EB0A01009005984144A0EBA6
:1057D00001000590E00306D45B462146179A059820
:1057E00000F0BBF90544002706E001A85A46C05D59
:1057F000179990476D1C7F1C4745F6DBE0030CD5DD
:105800005B462146179A059800F0A7F9054404E085
:1058100030205A46179990476D1C0099481E0090F9
:105820000029F5DC08E0029802995A460078491CE4
:105830000291179990476D1CBAF10001AAF1010A73
:10584000F1DC6BE109280100303132333435363771
:1058500038396162636465660000000030313233BC
:10586000343536373839414243444546000000005C
:1058700000F060F9054406F10106307800287FF455
:10588000E9AD19B02846BDE8F08F620700D40627BD
:1058900009F1070222F0070CFCE80223E14603F0BD
:1058A00000485FEA080C02D00FF27C2C0DE05FEAA2
:1058B000045C02D50FF2742C07E05FEAC47C02D0CE
:1058C0000FF26C2C01E0AFF2700C4FF0FF3823F0B8
:1058D0000043CDF850C065280CD006DC452809D01F
:1058E00046281DD047283ED13EE0662818D06728BC
:1058F00039D139E00021112F01DB112000E0781CA3
:10590000CDE9000106A90EA8FFF7EEFCDDE90F01C5
:105910000E9A03910021009207F1010A04914EE0D2
:105920004FF000400097CDE9011006A90EA8FFF73F
:10593000DBFCDDE90F0203920E9B11990022DDF8DA
:105940000CA00093049219B907F1010100EB010AC0
:10595000B7EB0A0004D4C0F1FF3007F1010A04904C
:10596000AAEB0700019046E0012F00DA0127002191
:10597000112F01DD112000E03846CDE9000106A914
:105980000EA8FFF7B1FCDDE90F010E9A039100218B
:1059900004910092BA4621070CD40399514500DACC
:1059A0008A46BAF1010F05DD009AAAF10101515CA6
:1059B000302908D0B84202DA10F1040F06DA0121CA
:1059C000CDE9011017E0AAF10101E9E7002805DCA3
:1059D000049901440491AAEB000102E0411C5145E5
:1059E00000DD8A460499A0EB010000F1010001905E
:1059F0004FF000400290200704D40198504501DB8D
:105A0000CDF8048000208DF84F0002980DF14F076B
:105A1000B0F1004F25D02B200E9002984FF00208D5
:105A200000280CDA404202902D200E9007E00A2157
:105A30000298FEF709FF3031029007F8011DB8F116
:105A40000001A8F10108F2DC02980028EFD1791ECC
:105A50000E980870307800F0200040F0450007F8FC
:105A6000020D12A8A0EB070000F1070814980078B7
:105A700000B1012000EB0A01019801EBE0710598EB
:105A80004144A0EB0100A0F101000590E00306D421
:105A90005B462146179A059800F05FF80544149874
:105AA000007820B15A461799904705F10105E003A7
:105AB00023D55B462146179A059800F04EF8054419
:105AC0001BE00498002807DBDDE90301884203DDC1
:105AD0000098405C179901E0179930205A4690478A
