:020000040800F2
:1000000038F800204501000895050008970500080C
:100010009B0500089F050008A305000800000000DC
:10002000000000000000000000000000A70500081C
:10003000A905000800000000AB05000865050008E0
:100040005F0100085F0100085F0100085F01000810
:100050005F0100085F0100085F0100085F01000800
:100060005F0100085F0100085F0100085F010008F0
:100070005F0100085F0100085F0100085F010008E0
:100080005F0100085F0100085F0100085F010008D0
:100090005F0100085F0100085F0100085F010008C0
:1000A0005F010008410700085F0100085F010008C8
:1000B0005F0100085F0100085F0100085F010008A0
:1000C0005F0100085F0100085F0100085F01000890
:1000D0005F010008A50400085F0100085F01000837
:1000E0005F0100085F0100085F0100085F01000870
:1000F0005F0100085F0100085F0100085F01000860
:100100005F0100085F010008930700085F01000815
:100110005F0100085F0100085F0100085F0100083F
:100120005F0100085F0100085F0100085F0100082F
:10013000DFF80CD005F07EFA00480047C90100083E
:1001400038F800200648804706480047FEE7FEE7EB
:10015000FEE7FEE7FEE7FEE7FEE7FEE7FEE7FEE777
:100160005D3E00083101000810B500F0ADF902F065
:100170003DF800F00FFC04F06FFC04F07AFC03F093
:1001800000FF03F00AFF04F0E2FB472142F20F7088
:1001900000F07AFA472141F2873000F0A3FA00F02C
:1001A0007CF824A1284800F0FAF802F03FF802F0A9
:1001B00045F900F09DFE0121244803F003FB0121D5
:1001C000234803F0FFFA10BDFFF7CEFF31E02148CE
:1001D0000078012802D1204908702AE01F480078E1
:1001E000012803D102201C49087022E01C48007835
:1001F000012803D10320184908701AE01948007833
:10020000012803D104201449087012E01648007830
:10021000012803D10520104908700AE0134800782E
:10022000012803D106200C49087002E000200A4989
:100230000870CCE720CFB5CDB3C6F4B6AFB3C9B91B
:10024000A6210D0A0000000000380140000C00400B
:10025000002C0140110000200600002012000020A8
:1002600013000020140000201500002016000020BC
:1002700008B54FF4C06000F099F925208DF8000012
:1002800002208DF8010001208DF8020000208DF879
:100290000300684600F08FF908BD00B585B0012164
:1002A00044F2040002F0F2FBFFF7E2FF4FF40070AB
:1002B000ADF8100018208DF8130003208DF81200FF
:1002C00004A97F4802F02CF94FF48060ADF81000CB
:1002D00004208DF8130004A9794802F021F94FF4A5
:1002E000E13000900020ADF80400ADF80600ADF854
:1002F0000800ADF80C000C20ADF80A006946714802
:1003000002F06FFC01216F4802F0F7FC002240F27E
:1003100025516C4802F0FDFC05B000BD70B50446E7
:100320000D46E1B2674802F055FD00BF4021654827
:1003300002F0BEFD0128F9D1204670BDF0B503469C
:100340000D461646002729460A2E03D000200870C5
:100350002846F0BD33B9302001F8010B00200870A9
:100360002846F6E7002B03DA2D2001F8010B5B424B
:1003700042F210720DE093FBF2F404B937B104F1CC
:10038000300001F8010B04FB123301270A2092FB15
:10039000F0F2002AEFDC002008702846D9E70FB4FD
:1003A00070B586B006460CA8019073E00B980078F3
:1003B0005C281CD10B98401C0B9000786E2809D04B
:1003C00072280FD10D21304602F004FD0B98401C1D
:1003D0000B900BE00A21304602F0FCFC0B98401C0D
:1003E0000B9003E00B98401C0B9000BF4BE00B9868
:1003F0000078252840D10B98401C0B900078642889
:1004000018D0732833D1019810C801900BE02178DF
:10041000304602F0DFFC00BF4021304602F048FDCC
:100420000028F9D0641C20780028F0D10B98401CDB
:100430000B9020E0019820C801900A2202A92846CA
:10044000FFF77CFF02AC0BE02178304602F0C2FCE3
:1004500000BF4021304602F02BFD0028F9D0641C7B
:1004600020780028F0D10B98401C0B9003E00B98EB
:10047000401C0B9000BF06E00B9810F8011B0B907E
:10048000304602F0A7FC00BF4021304602F010FDCC
:100490000028F9D00B980078002887D106B070BCEE
:1004A0005DF814FB10B540F22551064802F016FD28
:1004B000012804D140F22551024802F006FD10BD8A
:1004C000000801400038014030B52D4800682D4A31
:1004D000B0FBF2F1B1F1807F01D301201DE021F0EA
:1004E0007F40401E4FF0E022506150170F2200283D
:1004F00007DA13071D0E244B00F00F04241F1D55AF
:1005000003E013071C0E214B1C5400BF00204FF0CA
:10051000E022906107201061002008B100BFFEE7D3
:100520004FF0E020006920F001004FF0E021086169
:1005300030BD174908604FF0E021096941F0010121
:100540004FF0E022116100BF114909680029FBD179
:10055000704700B503464FF47A7103FB01F0FFF7D3
:10056000E8FF00BD0A48006820B109480068401E45
:1005700007490860704700E0401E0028FCD1704722
:10058000EC00002040420F0018ED00E000E400E025
:1005900000000020704700BFFEE700BFFEE700BF7D
:1005A000FEE700BFFEE770477047704731490143DF
:1005B000314A1160704770B5002100230F22C478C2
:1005C0000CB32D4C246804F4E064C4F5E064210A03
:1005D000C1F10403CA40447804FA03F1847814405A
:1005E00021430901254C0678A155047804F01F0524
:1005F0000124AC4005786D114FF0E02606EB85052F
:10060000C5F8004109E0047804F01F050124AC405E
:100610001B4D0678761145F8264070BD194A0A40F0
:100620000243154B1B1F1A60704739B1124A121D45
:1006300012680243104B1B1D1A6006E00E4A121D81
:10064000126882430C4B1B1D1A607047042808D1A6
:100650004FF0E021096941F004014FF0E0221161FF
:1006600007E04FF0E021096921F004014FF0E0229A
:10067000116170470000FA050CED00E000E400E0B5
:1006800080E100E080FFFF1F7FB504460D46012199
:10069000C80202F0FBF9ADF804500020ADF80600E6
:1006A000ADF80840ADF80A008DF80C0001A9A44887
:1006B00002F02CFD0121A24803F04AFB0122114661
:1006C0009F4803F09AF819208DF8000002208DF859
:1006D00001008DF8020001208DF803006846FFF745
:1006E0006AFF7FBD7FB504460D460121082002F058
:1006F000DAF9ADF804500020ADF80600ADF8084076
:10070000ADF80A008DF80C0001A98E4802F0FEFC3D
:1007100001218C4803F01CFB01221146894803F09B
:100720006CF832208DF8000000208DF801008DF863
:10073000020001208DF803006846FFF73CFF7FBDF3
:100740002DE9FC4180480088401C7F49088008460C
:1007500000880A2190FBF1F201FB120098B97B4955
:10076000486804F066FD04460D467849086804F0C0
:1007700060FD064632460B4675A0CDE9004504F003
:1007800079FF00F017F901216D4803F0F5FABDE893
:10079000FC812DE9F04F87B00024A146A246A34674
:1007A0000020069008206E4908600121654803F08A
:1007B000D2FA01287ED100BF48E000F0D2FC694A9D
:1007C0009168106804F002FB019004F032FDCDE95D
:1007D000020106F063F8644A644BCDE9040104F0B9
:1007E000DCFB0746624A634B04F0D1FB054604F08C
:1007F0005BFD81465B4A9168506804F0E7FA01901E
:1008000004F017FD054606F049F80746564A574BCF
:1008100004F0C3FB4FF03332574BCDE9020104F033
:10082000B6FBCDE9040104F03FFD8246494653483A
:10083000006804F03DFA514908605146504800688C
:1008400004F036FA4E490860601CC4B2032CB4DBD5
:100850004A48006804F0EDFC05460022494B04F0CC
:100860000EFC074604F020FD81464548006804F070
:10087000E0FC05460022434B04F001FC074604F06F
:1008800013FD824600203D4908603D490860354817
:100890000169484601F090F82C4908603148C06869
:1008A00080F000452946504601F0D6F927494860B6
:1008B000084600E03CE0006833494860234840684F
:1008C00032494860304A9168506804F043FA2E4932
:1008D00088620846406888602C4A9168506804F035
:1008E00039FA2A49886208464068886028480078B2
:1008F000072817D2DFE800F01604070A0D101300CE
:1009000003F092FB0FE003F02BFC0CE003F0C4FCBF
:1009100009E003F0EFFD06E003F066FE03E003F0FC
:1009200025FF00E000BF00BF0121064803F024FAC4
:1009300008200B49091D086007B0BDE8F08F0000D2
:10094000002C0140000C0040040000202401002085
:100950002520322E3166202520322E31660D0A00E8
:10096000101801405001002012143FC6DCA54C4075
:100970009A9999999999D93F3333D33F0800002028
:100980000C0000200000084068030020A80300209D
:100990000600002008B50121042002F077F8F020BD
:1009A000ADF8000048208DF803006946FD4801F0CD
:1009B000B7FD08BD2DE9F0411021FA4801F041FED4
:1009C00000287CD1F8480078022806D003282ED0D1
:1009D000052856D0062873D180E0F448006804F05A
:1009E00028FC06460022F24B04F030FA044604F0DC
:1009F0005BFCEE4908600846006804F01AFC0446F7
:100A00000022EC4B04F03CFC02D8EB48E7490860BC
:100A1000E648006804F00DFC044622460B46E7A1B8
:100A2000EF4804F037FEEE4801F0F2FC81E0ED48BB
:100A3000006804F0FEFB06460022EB4B04F006FAC9
:100A4000044604F031FCE74908600846006804F0F9
:100A5000F0FB04460022E54B04F012FC02D8E44807
:100A6000E0490860DF48006804F0E3FB04462246E2
:100A70000B46E0A1DA4804F00DFED94801F0C8FCAD
:100A800057E0CA48006804F0D4FB06460022C84B71
:100A900004F0DCF9044604F007FCC4490860084689
:100AA000006804F0C6FB04460022C24B04F0E8FBD9
:100AB00002D8C148BD490860BC48006801E039E07F
:100AC00036E004F0B6FB044622460B46D2A1C448E9
:100AD00004F0E0FDC24801F09BFC2AE0B348006846
:100AE00004F0A7FB06460022B14B04F0AFF9044620
:100AF00004F0DAFBAD4908600846006804F099FB91
:100B000004460022AB4B04F0BBFB02D8AA48A7491D
:100B10000860A648006804F08CFB044622460B4699
:100B2000BDA1AF4804F0B6FDAD4801F071FC00E096
:100B300000BF00BF20219B4801F083FD00287CD12D
:100B400099480078022806D003282ED0052856D0D0
:100B5000062873D180E09548006804F06AFB0646D9
:100B60000022934B04F013FA044604F09DFB8F49D6
:100B700008600846006804F05CFB04460022AF4BA6
:100B800004F06AFB02D8AE488849086087480068CC
:100B900004F04FFB044622460B4688A1904804F01F
:100BA00079FD8F4801F034FC81E08E48006804F044
:100BB00040FB064600228C4B04F0E9F9044604F0A1
:100BC00073FB884908600846006804F032FB04465D
:100BD0000022134604F040FB02D80020814908603F
:100BE0008048006804F025FB044622460B4681A19C
:100BF0007B4804F04FFD7A4801F00AFC57E06B484F
:100C0000006804F016FB06460022694B04F0BFF9A9
:100C1000044604F049FB654908600846006804F092
:100C200008FB04460022854B04F016FB02D88448DA
:100C30005E4908605D48006801E039E036E004F094
:100C4000F8FA044622460B4673A1654804F022FDDB
:100C5000634801F0DDFB2AE05448006804F0E9FA3B
:100C600006460022524B04F092F9044604F01CFBA5
:100C70004E4908600846006804F0DBFA044600228A
:100C80006E4B04F0E9FA02D86D48484908604748BD
:100C9000006804F0CEFA044622460B465EA1504896
:100CA00004F0F8FC4E4801F0B3FB00E000BF00BFC9
:100CB00040213C4801F0C5FC00285ED13A4800784C
:100CC000072858D2DFE800F057040F1A25304C00EF
:100CD00001205C4908705CA1414804F0DBFC4048FD
:100CE00001F096FB48E001205E49087056A13C489F
:100CF00004F0D0FC3A4801F08BFB3DE001205A495A
:100D0000087051A1364804F0C5FC354801F080FB5D
:100D100032E00120554908704BA1314804F0BAFC7B
:100D20002F4801F075FB27E0012051490870514818
:100D3000007808B9012000E000204E4908700846FC
:100D40000078012804D14CA1254804F0A3FC03E05D
:100D500051A1234804F09EFC214801F059FB0BE00F
:100D600001205549087038A11D4804F093FC1C4827
:100D700001F04EFB00E000BF00BF8021094801F0F8
:100D800060FC68B908480078401C074908700846AC
:100D90000078062801DD00200870034802788DE005
:100DA00093E0000000080140100000200001002036
:100DB000000014400080414000000C424453313692
:100DC00028362C36302C27C9E8D6C3B3A4B6C83A87
:100DD000252E316620272C3130290D0A0000000015
:100DE00068010020040100200000244000806640CB
:100DF000000034434453313628362C38302C27C970
:100E0000E8D6C3BDC7B6C83A252E316620272C3197
:100E100030290D0A000000004453313628362C31A9
:100E200030302C27C9E8D6C3B0EBBEB63A252E31F8
:100E30006620272C3130290D0A00000000002E40CA
:100E400000007041110000204453313628362C3107
:100E500032302C27BFAACABC21272C3130290D0AD9
:100E600000000000120000201300002014000020E9
:100E700015000020080100204453313628362C315B
:100E800032302C27CBB3CAB1D5EBD0FDD7AA21275E
:100E90002C3130290D0A00004453313628362C31CC
:100EA00032302C27C4E6CAB1D5EBD0FDD7AA212712
:100EB0002C3130290D0A00001600002004A10B4837
:100EC00004F0E8FB094801F0A3FABDE8F081000056
:100ED0004453313628362C34302C27B5DA2564CEED
:100EE000CA272C3130290D0A0000000068010020BB
:100EF00010B54023A84A8021104601F007F80022CF
:100F00006B21D02001F00DF907221921D02001F02A
:100F100008F905221A21D02001F003F900221B2133
:100F2000D02001F0FEF801221C21D02001F0F9F8B8
:100F300010BD2DE9F0410024002500263B21D020E2
:100F400001F001F905463C21D02001F0FCF80646ED
:100F500046EA052004B2204604F000F907464FF0A7
:100F60008D4103F033FFBDE8F0812DE9F04100240D
:100F7000002500263D21D02001F0E5F805463E2160
:100F8000D02001F0E0F8064646EA052004B22046EB
:100F900004F0E4F807464FF08D4103F017FFBDE879
:100FA000F0812DE9F0410024002500263F21D020CA
:100FB00001F0C9F805464021D02001F0C4F80646EA
:100FC00046EA052004B2204604F0C8F807464FF070
:100FD0008D4103F0FBFEBDE8F0812DE9F0410024D6
:100FE000002500264321D02001F0ADF8054643211D
:100FF000D02001F0A8F8064646EA052004B22046B3
:1010000004F0ACF80746654903F0E0FEBDE8F08166
:101010002DE9F0410024002500264521D02001F0D3
:1010200092F805464521D02001F08DF8064646EAA3
:10103000052004B2204604F091F80746574903F012
:10104000C5FEBDE8F0812DE9F04100240025002611
:101050004721D02001F077F805464721D02001F044
:1010600072F8064646EA052004B2204604F076F8F7
:1010700007464A4903F0AAFEBDE8F0812DE9FC5F6E
:101080004FF0000AFFF755FF8346FFF78AFF0190F4
:101090005846019903F09AFE009004F0CAF8804681
:1010A00005F0FCFB06463E4A3E4B03F076FF044645
:1010B00004F0FAF882465046BDE8FC9F2DE9FC5F3B
:1010C0004FF0000AFFF76DFF8346FFF74EFF0190D8
:1010D0005946019803F07AFE009004F0AAF8804681
:1010E00005F0DCFB06462E4A2E4B03F056FF044665
:1010F00004F0DAF882465046BDE8FC9F2DE9FC5F1B
:101100004FF0000AFFF74DFF8346FFF72EFF0190D7
:101110005946019803F05AFE009004F08AF8804680
:1011200005F0BCFB06461E4A1E4B03F036FF044684
:1011300004F0BAF882465046BDE8FC9F70B5002422
:10114000002500264121D02000F0FDFF0546422168
:10115000D02000F0F8FF064646EA052004B22046FB
:1011600070BD10B5FFF7E5FE0F490860FFF7FDFE03
:101170000D494860FFF715FF0B498860FFF72DFF09
:101180000949C860FFF744FF07490861FFF75BFFA3
:101190000549486110BD0000000C014000000343F8
:1011A00012143FC6DCA54C40500100202DE9F04F41
:1011B00087B004460D4628684FF0804103F006FED4
:1011C000804668684FF0804103F000FE8146A868C1
:1011D0004FF0804103F0FAFD8246404605F008FFDB
:1011E0000690404605F0ECFD0590484605F000FFEE
:1011F0000490484605F0E4FD0390504605F0F8FEE3
:101200000290504605F0DCFD01900499029803F02D
:10121000A7FD8346069903F0A3FD064603990198AE
:1012200003F09EFD8346059903F09AFD074631467B
:1012300003F03EFD20600499029803F091FD83467F
:10124000059903F08DFD06460399019803F088FD8A
:101250008346069903F084FD0746314603F07AFD84
:101260006060DDE9020103F07BFD8346069903F02F
:1012700077FD06460499019803F072FD83460599AF
:1012800003F06EFD0746314603F012FDA06004999D
:10129000019803F065FD8346069903F061FD06465B
:1012A000DDE9020103F05CFD8346059903F058FD7A
:1012B0000746314603F04EFDE06007B0BDE8F08F11
:1012C0002DE9F04F85B004460D46E168E06803F073
:1012D00047FD0390A168A06803F042FD0290616899
:1012E000606803F03DFD01902168206803F038FD3F
:1012F0000090019903F0DCFC8346029903F02AFD7B
:101300008246039903F026FD0646A168606803F053
:1013100027FD8346E168206803F022FD59460390CB
:1013200003F0C6FC82464FF0804103F019FD0746EA
:10133000A168206803F014FD8346E168606803F04B
:101340000FFD5946039003F005FD82464FF08041A2
:1013500003F006FD8046E168A06803F001FD8346C6
:101360006168206803F0FCFC5946039003F0A0FC80
:1013700082464FF0804103F0F3FC8146E168E0686B
:1013800003F0EEFC0390A168A06803F0E9FC029072
:101390006168606803F0E4FC01902168206803F054
:1013A000DFFC0090019903F0D5FC8346029903F01D
:1013B000D1FC8246039903F07BFC0490404605F083
:1013C000D9F980F0004028604846049905F078FB80
:1013D00068603146384605F073FBA86005B0BDE88B
:1013E000F08F2DE9FC5F04460025E168E06803F01A
:1013F000B7FC0190A168A06803F0B2FC8246616866
:10140000606803F0ADFC00902168206803F0A8FC40
:101410008346009903F04CFC8146514603F048FC9A
:101420008046019903F044FC074605F0A7FE0646F6
:1014300031464FF07E5003F0C9FC0546206829462E
:1014400003F08EFC20606068294603F089FC606030
:10145000A068294603F084FCA060E068294603F0F8
:101460007FFCE060BDE8FC9F0FB42DE9FF47044618
:101470001499109803F074FC074613990F9803F021
:101480006FFC804612990E9803F06AFC8146119910
:101490000D9803F065FC8246494603F05BFC064666
:1014A000414603F057FC0546394603F053FC0090D3
:1014B0001399109803F054FC074614990F9803F001
:1014C0004FFC804611990E9803F04AFC8146129910
:1014D0000D9803F045FC8246494603F0E9FB0646B9
:1014E000414603F0E5FB0546394603F033FC019025
:1014F0001299109803F034FC074611990F9803F0E5
:101500002FFC804614990E9803F02AFC814613990B
:101510000D9803F025FC8246494603F01BFC064665
:10152000414603F0C5FB0546394603F0C1FB029076
:101530001199109803F014FC074612990F9803F0C4
:101540000FFC804613990E9803F00AFC814614990B
:101550000D9803F005FC8246494603F0A9FB0646B8
:10156000414603F0F7FB0546394603F0A1FB039023
:101570006846FFF736FF0098206001986060029887
:10158000A0600398E060BDE8FF075DF814FB2DE95B
:10159000FF4F83B0044615461E46E068314603F00F
:1015A000DFFB0290A068294603F0DAFB0190606837
:1015B00080F0004B5846049903F0D2FB8246019913
:1015C00003F0C8FB8146029903F0C4FB80461099E2
:1015D00003F0C6FB0746216803F06AFB2060A068A1
:1015E000314603F0BDFB0290E068294603F0B8FBEA
:1015F00082462068049903F0B3FB8346514603F00A
:10160000A9FB8146029903F053FB8046109903F031
:10161000A7FB0746616803F04BFB606060683146DA
:1016200003F09EFB02902068294603F099FB824656
:10163000E068049903F094FB8346514603F038FBBD
:101640008146029903F086FB0746109903F088FB58
:101650008046A16803F02CFBA0602068314603F0AF
:101660007FFB02906068294603F07AFB0190A06836
:1016700080F0004B5846049903F072FB82460199B2
:1016800003F016FB8146029903F012FB8046109985
:1016900003F066FB0746E16803F00AFBE06007B071
:1016A000BDE8F08F4FF07E520260002242608260FF
:1016B000C2600A604A608A6070472DE9F04F8FB0BF
:1016C000FE4A9168106803F04BFB8246FB4AD168E2
:1016D000506803F045FB8346514603F03BFB8146CF
:1016E0004FF0804103F03CFB0690F44AD1689068CB
:1016F00003F036FB8246F14A5168106803F030FB74
:101700008346514603F0D4FA81464FF0804103F0FE
:1017100027FB0590E94AD168D06803F021FBE74A2E
:1017200003909168906803F01BFBE44A02905168B3
:10173000506803F015FB8346E04A1168106803F017
:101740000FFB5946019003F005FB8246029903F016
:1017500001FB8146039903F0ABFA0490D84A9168E3
:10176000906803F0FDFAD64A03905168506803F080
:10177000F7FAD34A02901168106803F0F1FA019069
:10178000029903F095FA8346039903F091FA824691
:1017900005F0F4FC814649464FF07E5003F016FBFD
:1017A0000E90C74908680E9903F0DAFA0A90C44906
:1017B00048680E9903F0D4FA0990C14988680E99D7
:1017C00003F0CEFA089006980D9005980C900498B6
:1017D0000B900C99089803F0C3FA81460B9909986D
:1017E00003F0BEFA8246494603F0B4FA0546DDE945
:1017F0000A0103F0B5FA81460D99089803F0B0FA92
:101800008246494603F0A6FA06460D99099803F068
:10181000A7FA81460C990A9803F0A2FA8246494633
:1018200003F098FA0746A749284603F099FA81463B
:10183000A5480168484603F03BFAA3490860A1495E
:10184000304603F08DFA8146A0480168484603F00F
:101850002FFA9E4908609B49384603F081FA814679
:101860009B480168484603F023FA99490860944967
:10187000C868984903F074FA079091490869954936
:1018800003F06EFA80468E494869924903F068FA7F
:1018900004462946904803F063FA8246079903F00C
:1018A00007FA814688480168484603F001FA079024
:1018B0003146894803F054FA8246414603F0F8F96C
:1018C000814682480168484603F0F2F9804639466D
:1018D000814803F045FA8246214603F0E9F9814642
:1018E0007B480168484603F0E3F904467B482346F9
:1018F0004246009071480799FFF749FE6F48FFF78D
:1019000070FD77496D48FFF7DBFC7549086875493C
:1019100003F026FA724908604868724903F020FA19
:101920006F49486088686F4903F01AFA81466E492A
:1019300003F0BEF96A4988606C49204603F010FA4A
:1019400081466B480168484603F0B2F9684908606F
:1019500063488168674803F003FA81466448016878
:10196000654803F0FDF98246494603F0A1F9604954
:10197000086062495E48006803F0BCFC07D25F491A
:101980005B48006803F0E6F95549886011E00021E2
:101990005748006803F0A4FC07D25849544800682F
:1019A00003F086F94E49886003E0514800684C49CD
:1019B00088600FB0BDE8F08F2DE9F04105460C4678
:1019C0004F480168204603F0C5F907464D480168B5
:1019D000384603F0C5F906464B480168304603F027
:1019E00067F94949086008460168284603F0B2F9DA
:1019F00046490860464841684648006803F0AAF92D
:101A0000064643488168304603F0A4F9424908601D
:101A10003F48C06880F0004048603D48C06880F0A2
:101A2000004088603D480068C8600868354909681A
:101A300003F096F9064636480168304603F038F957
:101A400033490860344948682E49096803F088F929
:101A500006462F484168304603F02AF92C49486071
:101A60002D4988682749096803F07AF9064628480D
:101A70008168304603F01CF9254988602649C8680A
:101A80002049096803F06CF906462148C1683046D0
:101A900003F00EF91E49C8602148007803F067FB87
:101AA00006461B480168304603F05AF91D49086094
:101AB0001B48007803F05BFB064635E01800002069
:101AC000500100200AD7A33C2C0000203000002049
:101AD0003400002035FA8E3C000070410AD7233BC9
:101AE00024010020E12E6542000034430AD7A33BC5
:101AF00028000020CDCCCC3D6666663F0000B44394
:101B000040000020540000203C0000204400002041
:101B10007800002048000020300100204C00002008
:101B2000580000205C000020D8488168304603F04F
:101B300017F9D7490860D748007803F018FB074623
:101B4000D5480168384603F00BF90646D3480168CA
:101B5000304603F0ADF8D249086008460168CE4827
:101B6000006803F033F9CF490860CD480168C848E0
:101B7000006803F02BF9CC490860C7480068CB49DE
:101B80000860C448007803F0F2FA0646BF4841688E
:101B9000304603F0E5F8C6490860C4480168C1480A
:101BA000006803F0DDF80646B8480168304603F0E7
:101BB000D4F8B6490860BE480168BA48006803F026
:101BC000CFF80646B1484168304603F0C6F8AF4941
:101BD0004860B6480168B448006803F0C1F806469A
:101BE000AA488168304603F0B8F8A8498860B04830
:101BF0000168AD48006803F0B3F80646A348C16821
:101C0000304603F0AAF8A149C860AA480168A5486F
:101C1000006803F0A5F80646A7480168304603F0BF
:101C200047F8A5490860A34801689F48006803F089
:101C300097F80646A1480168304603F039F89F49F5
:101C4000086008460168204603F084F89C49086053
:101C500099480068BDE8F0812DE9F04105460C4641
:101C600098480168204603F075F8074696480168D1
:101C7000384603F075F8064694480168304603F08C
:101C800017F89249086008460168284603F062F890
:101C90008F4908608F4841688F48006803F05AF800
:101CA00006468C488168304603F054F88B4908603A
:101CB0008848C06880F0004048608648C06880F06E
:101CC0000040886086480068C86008687E490968E6
:101CD00003F046F806467F480168304602F0E8FF08
:101CE0007C4908607D4948687749096803F038F8FD
:101CF000064678484168304602F0DAFF7549486088
:101D0000764988687049096803F02AF806467148E0
:101D10008168304602F0CCFF6E4988606F49C86820
:101D20006949096803F01CF806466A48C1683046EC
:101D300002F0BEFF6749C8606A48007803F017FAEE
:101D4000064664480168304603F00AF866490860B0
:101D50006448007803F00BFA06465E488168304616
:101D600002F0FEFF614908605E48007803F0FFF969
:101D700007465D480168384602F0F2FF06465C48B7
:101D80000168304602F094FF5A490860084601682D
:101D90005548006803F01AF857490860554801682B
:101DA0005248006803F012F8544908604E48006831
:101DB000534908604B48007803F0D9F90646454876
:101DC0004168304602F0CCFF4E4908604C4801683B
:101DD0004948006802F0C4FF06463E4801683046A4
:101DE00002F0BBFF3B490860464801684248006872
:101DF00002F0B6FF064637484168304602F0ADFFB4
:101E0000344948603E4801683C48006802F0A8FF39
:101E1000064630488168304602F09FFF2D498860B1
:101E2000384801683548006802F09AFF064629489C
:101E3000C168304602F091FF2649C8602448016815
:101E40002D48006802F08CFF0646204801683046A5
:101E500002F02EFF1D4908601D48016827480068F0
:101E600002F07EFF064617480168304602F020FF68
:101E70001449086008460168204602F06BFF2249B9
:101E8000086012480068BDE8F0810000780000207A
:101E900060000020580000205C000020500000205E
:101EA00064000020680000206C000020700000200A
:101EB00074000020440000203C000020400000206E
:101EC0003800002090000020A40000208C0000209A
:101ED00094000020C800002098000020400100204D
:101EE0009C000020A8000020AC000020B0000020D2
:101EF000A0000020B4000020B8000020BC0000209A
:101F0000C0000020C400002088000020F8B504466E
:101F10000D4616461F460121082000F0B7FD80201F
:101F2000ADF8000014208DF8030003208DF80200A6
:101F30006946A74800F0F4FA4020ADF800001020F0
:101F40008DF8030003208DF802006946A04800F0D8
:101F5000E7FA80219E4800F08EFB40219C4800F06B
:101F60008AFBF8BD002000BF0100A0F10102D0B241
:101F7000FAD1704710B58021954800F07CFBFFF73F
:101F8000F1FF4021924800F076FBFFF7EBFF90480D
:101F90000830006810F0800F01D1012010BD8021B1
:101FA0008B4800F06AFBFFF7DDFF4021884800F016
:101FB00064FBFFF7D7FF86480830006800F0800018
:101FC000012801D10220E9E70020E7E710B58021D0
:101FD0007F4800F052FBFFF7C5FF40217C4800F02E
:101FE0004AFBFFF7BFFF8021794800F044FBFFF771
:101FF000B9FF10BD10B58021754800F03EFBFFF71A
:10200000B1FF4021724800F036FBFFF7ABFF4021E3
:102010006F4800F032FBFFF7A5FF10BD10B580211F
:102020006B4800F028FBFFF79DFF4021684800F057
:1020300022FBFFF797FF4021654800F01EFBFFF7EA
:1020400091FF10BD70B504464021614800F015FBBA
:1020500000251DE014F0800F04D080215C4800F0C2
:102060000AFB03E080215A4800F007FB6006040EDB
:10207000FFF778FF4021564800F0FDFAFFF772FFA6
:102080004021534800F0F9FAFFF76CFF681CC5B215
:10209000082DDFDB80214E4800F0EDFAFFF762FFEC
:1020A00040214B4800F0E7FAFFF75CFF4848083052
:1020B000006810F0800F05D04021454800F0DDFA9F
:1020C000002070BD4021424800F0D7FA0120F8E717
:1020D00070B5002480213E4800F0CDFA40213C48F4
:1020E00000F0CBFA00BF002517E04021384800F08F
:1020F000C2FAFFF737FF6006040E35480830006863
:1021000010F0800F01D044F001044021304800F06D
:10211000B4FAFFF727FF681CC5B2082DE5DB20469F
:1021200070BD70B506460C461546FFF723FF3046D6
:10213000FFF788FF2046FFF785FF2846FFF782FF5D
:10214000FFF744FF70BD70B504460D46FFF712FF60
:102150002046FFF777FF2846FFF774FFFFF70AFFD7
:10216000611CC8B2FFF76EFFFFF7B2FF0646FFF72C
:1021700055FFFFF72BFF304670BD01460022154882
:10218000814201D1042221E01248814201D104227E
:102190001CE00F48814201D1082217E00E4881421D
:1021A00001D1102212E00D48814201D120220DE020
:1021B0000B48814201D1402208E00A48814201D106
:1021C000802203E00848814200D1821590B2704716
:1021D000000C0140000801400010014000140140C3
:1021E00000180140001C01400020014008B50121F9
:1021F000402000F04BFC4FF46270ADF8000010205E
:102200008DF8030003208DF802006946064800F0AF
:1022100087F94FF48070044910310860400008606D
:102220008020086008BD00000018014000B585B09E
:102230000121480400F037FC0121212000F026FC98
:102240000121082000F03BFA2020ADF810001820F2
:102250008DF8130003208DF8120004A97C4800F0CB
:102260005FF90820ADF8100004208DF8130004A9D0
:10227000774800F055F94FF4E13000900020ADF8B8
:102280000400ADF80600ADF80800ADF80C000C2015
:10229000ADF80A0069466F4800F0A3FC01216D48C3
:1022A00000F02BFD05B000BDF0B503460D46164607
:1022B000002729460A2E03D0002008702846F0BDCA
:1022C00033B9302001F8010B002008702846F6E7EA
:1022D000002B03DA2D2001F8010B5B4242F2107251
:1022E0000DE093FBF2F404B937B104F1300001F8CA
:1022F000010B04FB123301270A2092FBF0F2002AA3
:10230000EFDC002008702846D9E70FB470B586B01E
:1023100006460CA8019073E00B9800785C281CD14D
:102320000B98401C0B9000786E2809D072280FD1B2
:102330000D21304600F04EFD0B98401C0B900BE039
:102340000A21304600F046FD0B98401C0B9003E03C
:102350000B98401C0B9000BF4BE00B980078252891
:1023600040D10B98401C0B900078642818D073283B
:1023700033D1019810C801900BE02178304600F06D
:1023800029FD00BF4021304600F092FD0028F9D021
:10239000641C20780028F0D10B98401C0B9020E0A2
:1023A000019820C801900A2202A92846FFF77CFF65
:1023B00002AC0BE02178304600F00CFD00BF40215C
:1023C000304600F075FD0028F9D0641C2078002804
:1023D000F0D10B98401C0B9003E00B98401C0B9025
:1023E00000BF06E00B9810F8011B0B90304600F080
:1023F000F1FC00BF4021304600F05AFD0028F9D022
:102400000B980078002887D106B070BC5DF814FBEB
:1024100070B50446002510E0605D68B1615D0D484F
:1024200000F0D8FC00BF80210A4800F041FD0028E0
:10243000F9D0681CC5B200E070BDEDE710B50649E3
:10244000064803F027F90548FFF7E2FF10BD00003A
:102450000014014000440040A871000868010020F9
:1024600010B50446CA48844208D10121042000F076
:1024700027FB0021042000F023FB46E0C5488442EE
:1024800008D10121082000F01BFB0021082000F0EA
:1024900017FB3AE0C048844208D10121102000F027
:1024A0000FFB0021102000F00BFB2EE0BB48844204
:1024B00008D10121202000F003FB0021202000F0A2
:1024C000FFFA22E0B648844208D10121402000F002
:1024D000F7FA0021402000F0F3FA16E0B1488442F8
:1024E00008D10121802000F0EBFA0021802000F0CB
:1024F000E7FA0AE0AC48844207D10121801500F0D8
:10250000DFFA0021A01500F0DBFA10BD10B50121A3
:10251000084600F0D5FA0021012000F0D1FA10BDE4
:102520002DE9F0410246002500260020002300246A
:10253000002791F803C00CF00F0591F803C01CF0C0
:10254000100F03D091F802C04CEA050591F800C0C5
:10255000BCF1000F31D0146800202BE04FF0010CCB
:102560000CFA00F3B1F800C00CEA03069E4220D139
:1025700083004FF00F0C0CFA03F7BC4305FA03FC81
:102580004CEA040491F803C0BCF1280F06D14FF0C7
:10259000010C0CFA00FCC2F814C00AE091F803C068
:1025A000BCF1480F05D14FF0010C0CFA00FCC2F849
:1025B00010C0401C0828D1D31460B1F800C0BCF191
:1025C000FF0F34DD546800202EE000F1080C4FF0BE
:1025D000010808FA0CF3B1F800C00CEA03069E42A9
:1025E00021D183004FF00F0C0CFA03F7BC4305FA1E
:1025F00003FC4CEA040491F803C0BCF1280F05D198
:1026000000F1080C08FA0CF8C2F8148091F803C025
:10261000BCF1480F07D100F1080C4FF0010808FA8F
:102620000CF8C2F81080401C0828CED35460BDE8D6
:10263000F0814FF6FF710180022181700421C17089
:1026400070470246002093680B4201D0012000E051
:10265000002070470146886880B27047024600201B
:10266000D3680B4201D0012000E0002070470146F2
:10267000C86880B2704701617047416170470AB114
:10268000016100E041617047C16070474FF48032E2
:102690000A43826181618261826982697047024670
:1026A0000020424B18684FF68073184040EA021031
:1026B00008433E4B186070473D49C8617047F0B50C
:1026C0000A46002300240021002500F00046B6F150
:1026D000004F02D1354EF16901E0344E7168C0F30C
:1026E000034583B200F44016B6F5401F08D121F02F
:1026F00070612E4E766826F070662C4F7E6012E078
:1027000000F48016B6F5801F06D1032606FA05F4FC
:10271000A14341F0706106E0460D360103FA06F66A
:10272000B14341F0706122B1460D360103FA06F65D
:10273000314300F00046B6F1004F02D11B4EF1616B
:1027400001E01A4E7160F0BD30B500228B071C0FFE
:102750000F2303FA04F2154B08338C1053F824307E
:102760009343124C08348D1044F8253023468C10C6
:1027700053F824308C07240F00FA04F423430B4C45
:1027800008348D1044F8253030BD0A490860704780
:1027900000080140000C01400010014000140140FD
:1027A00000180140001C01400020014000000140D1
:1027B00000002042DC002042DD48006840F00100BB
:1027C000DB49086008464068DA490840D849486053
:1027D00008460068D8490840D5490860084600689E
:1027E00020F4802008600846406820F4FE0048601D
:1027F0004FF41F0088607047CD49096821F480318B
:10280000CB4A11601146096821F480211160B0F5AE
:10281000803F03D0B0F5802F0ED106E0C44909688F
:1028200041F48031C24A116007E0C149096841F4AE
:10283000A021BF4A116000E000BF00BF704710B583
:1028400001460022002300204A11012A02D1B84C7F
:10285000236806E0022A02D1B54C236A01E0B44C99
:10286000636A01F01F02012494401C4201D0012040
:1028700000E0002010BD38B50020009000240025A5
:1028800000BF3120FFF7DBFF05460098401C009099
:102890000098B0F5A06F01D0002DF2D03120FFF7E5
:1028A000CEFF08B1012400E00024204638BD0146D7
:1028B00000209F4A106820F0F80040EAC100106034
:1028C00070479E490860704702460020984B586840
:1028D00020F47C1042EA01031843954B586070477E
:1028E00096490866704701460020914A506820F0DA
:1028F00003000843506070478D48406800F00C00AA
:102900007047014600208A4A506820F0F0000843D2
:102910005060704701460020854A506820F4E0600E
:1029200008435060704701460020814A506820F4F7
:10293000605040EAC1005060704729B17C4A527A29
:1029400002437B4B5A7204E0794A527A8243784BB5
:102950005A7270477A490860704701460020744AED
:10296000506820F440400843506070470021754A89
:1029700011706F4A82F82010012802D0042808D173
:1029800003E001216F4A117004E005216D4A1170C6
:1029900000E000BF00BF70476B49086070476449A2
:1029A000096A0143624A1162704767494439086005
:1029B000704730B500210022002400235C4D6D6873
:1029C00005F00C0121B1042905D0082923D105E027
:1029D0005E4D056022E05D4D05601FE0544D6D6861
:1029E00005F47012524D6D6805F48034022505EB34
:1029F00092421CB9564D554305600BE04C4D6D6835
:102A000015F4003F03D0524D5543056002E04F4D91
:102A10005543056002E04D4D056000BF00BF444DC9
:102A20006D6805F0F00109094A4D6B5C0568DD40F1
:102A300045603F4D6D6805F4E061090A454D6B5CEA
:102A40004568DD4085603A4D6D6805F46051C90AFE
:102A5000404D6B5C4568DD40C560354D6D6805F4E3
:102A60004041890B3C4D6B5CC568B5FBF3F50561D6
:102A700030BD29B12E4A526902432D4B5A6104E000
:102A80002B4A526982432A4B5A61704729B1284A1E
:102A900092690243264B9A6104E0254A9269824377
:102AA000234B9A61704729B1214AD2690243204BD6
:102AB000DA6104E01E4AD26982431D4BDA61704735
:102AC00029B11B4AD2680243194BDA6004E0184A64
:102AD000D2688243164BDA60704729B1144A1269F2
:102AE0000243134B1A6104E0114A12698243104BEE
:102AF0001A61704714494039086070470F49C8642B
:102B000070470B49C87170470948406A40F08070AF
:102B100007494862704701460020054A92680A4208
:102B200001D0012000E00020704701498872704701
:102B3000001002400000FFF8FFFFF6FE00004242D6
:102B4000D8004242201002408004424200127A0023
:102B500000093D00D8000020E800002010B5044620
:102B6000FB48844209D101218803FFF7A9FF002116
:102B70004FF48040FFF7A4FF32E0F648844209D1C9
:102B800001214804FFF7A9FF00214FF40030FFF7AF
:102B9000A4FF25E0F048844209D101218804FFF711
:102BA0009CFF00214FF48020FFF797FF18E0EB48CF
:102BB000844209D10121C804FFF78FFF00214FF49F
:102BC0000020FFF78AFF0BE0E548844208D101218D
:102BD0000805FFF782FF00214FF48010FFF77DFF0B
:102BE00010BD2DE9F04786B005460E460024A246EA
:102BF00000BFA1460027B08900B100BF2F462C8A34
:102C00004CF6FF700440F08804432C82AC894EF6E9
:102C1000F3100440B08831890843718908430443A4
:102C2000AC81AC8A4FF6FF400440B0890443AC82CB
:102C300001A8FFF7BEFEC648874202D1DDF810A00A
:102C400001E0DDF80CA0A88910F4004F08D00AEBD1
:102C5000CA0000EB0A1031684900B0FBF1F807E048
:102C60000AEBCA0000EB0A1031688900B0FBF1F8EA
:102C70006420B8FBF0F004012009642101FB1089F5
:102C8000A88910F4004F08D0322000EBC900B0FB37
:102C9000F1F000F00700044308E0322000EB0910D7
:102CA0006421B0FBF1F000F00F0004432C8106B06A
:102CB000BDE8F0874FF41651016000218180C1808A
:102CC00001810C21418100218181704710B50246AC
:102CD0000020108A4FF2FF0318400B884C882343D2
:102CE0008C882343CC8823431843108210BD0021D5
:102CF000018041808180C180704721B1828942F486
:102D00000052828104E082894DF6FF731A4082816D
:102D10007047F0B503460024002600250020A1F5E9
:102D200010676A3F00D100BF1846C1F3421401F09A
:102D30001F06012707FA06F5012C01D10C3004E02B
:102D4000022C01D1103000E014301AB107682F4373
:102D5000076002E00768AF430760F0BD1AB1838ADD
:102D60000B43838202E0838A8B4383827047028A0B
:102D70004FF6F0731A400282028A0A4302827047B9
:102D800082894FF2FF731A40828182890A438281CD
:102D9000704721B1828942F00202828104E0828977
:102DA0004FF6FD731A4082817047028A4FF6DF7337
:102DB0001A400282028A0A430282704721B1028AC3
:102DC00042F48042028204E0028A4BF6FF731A400A
:102DD00002827047C1F308028280704701468888EA
:102DE000C0F308007047818941F00101818170477B
:102DF000028BD2B20283028B42EA01220283704725
:102E0000028B02F47F420283028B0A4302837047E3
:102E100021B1828A42F02002828204E0828A4FF647
:102E2000DF731A408282704721B1828A42F0100219
:102E3000828204E0828A4FF6EF731A4082827047E2
:102E400021B1828A42F00802828204E0828A4FF62F
:102E5000F7731A408282704721B1828942F400429E
:102E6000828103E08289C2F30E028281704721B120
:102E7000828A42F40062828204E0828A4FF2FF7307
:102E80001A4082827047828A4FF6FB731A40828210
:102E9000828A0A438282704721B1828A42F002020A
:102EA000828204E0828A4FF6FD731A408282704764
:102EB00002460020B1F5007F00D100BF13880B420D
:102EC00001D0012000E00020704701F40072B2F54B
:102ED000007F00D100BFCA430280704770B5024630
:102EE0000024002300250020A1F510666A3E00D1D1
:102EF00000BFC1F3421501F01F03012606FA03F3D8
:102F0000012D02D19689334006E0022D02D1168AA6
:102F1000334001E0968A33400C12012606FA04F48D
:102F20001688344013B10CB1012000E0002070BDC0
:102F300010B500220023A1F510646A3C00D100BF47
:102F40000A1201249440A3B2DC43048010BD0000A7
:102F5000003801400044004000480040004C004060
:102F60000050004010B50446FE48844208D10121BB
:102F7000C014FFF7A5FD0021E014FFF7A1FDC4E098
:102F8000B4F1804F08D101210846FFF7A6FD0021CA
:102F90000120FFF7A2FDB8E0F348844208D10121E7
:102FA0000220FFF79AFD00210220FFF796FDACE01A
:102FB000EE48844208D101210420FFF78EFD002154
:102FC0000420FFF78AFDA0E0E948844208D10121EE
:102FD0000820FFF782FD00210820FFF77EFD94E026
:102FE000E448844208D101211020FFF776FD00213A
:102FF0001020FFF772FD88E0DF48844208D10121EC
:103000002020FFF76AFD00212020FFF766FD7CE00D
:10301000DA48844208D101214014FFF751FD002114
:103020006014FFF74DFD70E0D548844209D10121BD
:10303000C804FFF745FD00214FF40020FFF740FDD5
:1030400063E0D048844209D101210805FFF738FD2B
:1030500000214FF48010FFF733FD56E0CA48844248
:1030600009D101214805FFF72BFD00214FF4001085
:10307000FFF726FD49E0C548844208D101214020E0
:10308000FFF72BFD00214020FFF727FD3DE0C04862
:10309000844208D101218020FFF71FFD00218020FC
:1030A000FFF71BFD31E0BB48844208D101218015A8
:1030B000FFF713FD0021A015FFF70FFD25E0B6482F
:1030C000844209D101210804FFF7FAFC00214FF4E2
:1030D0008030FFF7F5FC18E0B048844209D10121A7
:1030E0004804FFF7EDFC00214FF40030FFF7E8FC47
:1030F0000BE0AB48844208D101218804FFF7E0FCD3
:1031000000214FF48020FFF7DBFC10BD0022028875
:10311000944B98420ED0994B98420BD0B0F1804F0F
:1031200008D0914B984205D0904B984202D0904BDA
:10313000984204D14FF68F731A404B881A438D4B37
:10314000984207D08C4B984204D04FF6FF431A4068
:10315000CB881A4302808B8883850B880385814B3B
:1031600098420BD0854B984208D08B4B984205D0A3
:103170008A4B984202D08A4B984201D10B7A03863F
:1031800001238382704770B5002400220023058C40
:103190004FF6FE7635400584028C8388048B4FF60B
:1031A0008F752C40B51E2C400D882C43751E2A406F
:1031B0000D892A434D882A436A4DA8420BD06F4D92
:1031C000A84208D0744DA84205D0744DA84202D040
:1031D000734DA84213D14FF6F7752A404D892A4303
:1031E0004FF6FB752A408D882A434FF6FF652B402A
:1031F0004FF6FF552B408D892B43CD892B43838080
:103200000483CD888586028470BD70B500240022B9
:103210000023058C4FF6EF7635400584028C8388B9
:10322000048B48F6FF752C404FF6FF452C400D8867
:103230004FF6FF7606EA05252C434FF6DF752A4048
:103240000D8906EA05152A434D8806EA05152A4325
:10325000444DA84202D0494DA8421DD14FF67F757A
:103260002A404D894FF6FF7606EA05152A434FF6A8
:10327000BF752A408D8806EA05152A434FF6FF35AB
:103280002B404FF2FF752B408D8906EA85052B43B5
:10329000CD8906EA85052B4383800483CD88058785
:1032A000028470BD70B5002400220023058C4FF607
:1032B000FF6635400584028C8388848B4FF68F75BA
:1032C0002C404FF6FC752C400D882C434FF6FF55D3
:1032D0002A400D894FF6FF7606EA05252A434D88D8
:1032E00006EA05252A431F4DA84202D0234DA842D5
:1032F0001DD14FF2FF752A404D894FF6FF7606EA41
:1033000005252A434FF6FF352A408D8806EA052514
:103310002A434EF6FF752B404DF6FF752B408D89E5
:1033200006EA05152B43CD8906EA05152B43838054
:103330008483CD888587028470BD70B50022002308
:103340000024058C4EF6FF7635400584038C848876
:10335000828B48F6FF752A404FF6FF452A400D88BC
:1033600020E00000002C0140000400400008004064
:10337000000C0040001000400014004000340140E8
:10338000004C014000500140005401400018004032
:10339000001C00400020004000400140004401406B
:1033A000004801404FF6FF7606EA05252A434DF610
:1033B000FF752B400D8906EA05352B434D8806EA3B
:1033C00005352B43FA4DA84202D0FA4DA84208D148
:1033D0004BF6FF752C408D894FF6FF7606EA851572
:1033E0002C4384808283CD88A0F84050038470BD34
:1033F000828B4FF2FF331A408283828B4FF6FF732A
:1034000003EA01231A4382837047F0B50C46154640
:10341000002200210026078C4EF6FF7C07EA0C07ED
:103420000784828B018C4FF6FF7707EA043640F65B
:10343000FF473A404FF6FF7707EA05273A434FF632
:10344000FF7707EA03373A43D94FB8420ED0D94F36
:10345000B8420BD0B0F1804F08D0D74FB84205D05A
:10346000D64FB84202D0D64FB84206D14DF6FF77BC
:10347000394046F48057394305E047F6FF57394055
:1034800044F48057394382830184F0BD828B4FF628
:10349000F3731A408283828B0A4382837047F0B5AC
:1034A0000C461546002200210026078C4FF6FF6CC3
:1034B00007EA0C070784828B018C4FF6FF7707EA37
:1034C00004264FF60C773A404FF6FF7707EA0317CA
:1034D0002F433A43B64FB8420ED0B64FB8420BD046
:1034E000B0F1804F08D0B44FB84205D0B34FB842C6
:1034F00002D0B34FB84206D14FF6FF57394046F4D9
:103500008077394305E04FF2FF57394044F4807724
:10351000394382830184F0BD028B4FF2FF331A409E
:103520000283028B4FF6FF7303EA01231A430283DF
:103530007047F0B50C461546002200210026078C86
:103540004FF6EF7C07EA0C070784028B018C4FF6DD
:10355000FF7707EA041640F6FF473A404FF6FF7739
:1035600007EA03373A434FF6FF7707EA05273A435E
:103570008F4FB8420ED08F4FB8420BD0B0F1804F72
:1035800008D08D4FB84205D08C4FB84202D08C4F36
:10359000B84206D14FF6DF77394046F0100739437D
:1035A00005E04FF65F77394044F010073943028356
:1035B0000184F0BD028B4FF6F3731A400283028B35
:1035C0000A4302837047F0B50C46154600220021DD
:1035D000068C4FF6FE773E400684028B018C4FF638
:1035E0000C7632407E1C06EA03162E433243704EA0
:1035F000B0420ED06F4EB0420BD0B0F1804F08D029
:103600006D4EB04205D06D4EB04202D06C4EB0420D
:1036100006D14FF6FD76314044F00106314305E016
:103620004FF6F576314044F00106314302830184C0
:10363000F0BD70B505460C465D4885420ED05D482C
:1036400085420BD0B5F1804F08D05B48854205D04C
:103650005A48854202D05A48854200D100E000BF56
:10366000208850B92389A28861882846FFF7ABFFDC
:10367000E1882846FFF79EFF25E0208804280AD12C
:103680002389A28861882846FFF753FFE1882846EE
:10369000FFF742FF17E0208808280AD12389A28873
:1036A00061882846FFF7FBFEE1882846FFF7EEFE1B
:1036B00009E02389A28861882846FFF7A6FEE188F1
:1036C0002846FFF795FE70BD2DE9F04105460C46F2
:1036D00000260127608808B9022600E00026A0889D
:1036E000012801D1022700E001272088A0B9238901
:1036F000A28861882846FFF766FFE1882846FFF721
:1037000059FF23893A4631462846FFF712FFE188E0
:103710002846FFF701FF13E02389A2886188284625
:10372000FFF707FFE1882846FFF7F6FE23893A46B0
:1037300031462846FFF747FFE1882846FFF73AFF62
:10374000BDE8F0810A884B881A438B881A43CB88DE
:103750001A430B891A434B891A438B891A43A0F8E1
:10376000442070474FF6FF71818000210180C180A5
:103770004180017270470021018041808180C180B9
:10378000018141818181C181704700210180418097
:10379000012181800021C1800181704700210180C9
:1037A00041808180C1800181418181817047000019
:1037B000002C01400034014000040040000800409B
:1037C000000C004021B1028842F00102028004E0B6
:1037D00002884FF6FE731A400280704731B1B0F88C
:1037E000442042F40042A0F8442005E0B0F8442010
:1037F000C2F30E02A0F8442070471AB183890B432C
:10380000838102E083898B43838170478182704783
:1038100041EA0203A0F8483070471AB183890B438C
:10382000838102E083898B438381704701894FF64E
:10383000F8721140018170470A46002101894FF654
:103840008F73194011430181704730B504460D460E
:1038500029462046FFF7F0FF208940F0070020812D
:1038600030BD2DE9F04104460D4616461F46602D39
:1038700006D13B46012231462046FFF75AFE05E0BD
:103880003B46012231462046FFF79DFE2946204651
:10389000FFF7D2FF208940F007002081BDE8F081CA
:1038A00030B50C4600210189C9B24FF6FF7505EA13
:1038B0000325154325432943018130BD2DE9F041FE
:1038C00005460E4617469846002443463A4631467A
:1038D0002846FFF7E5FF2C894FF6F870044044F0C6
:1038E00007044FF68F70044044F070042C81BDE84B
:1038F000F081F0B504460D4616461F463B4632465B
:1039000029462046FFF7CCFF208940F480402081E3
:10391000F0BD0185828270470A46002101884FF67A
:103920008F731940114301807047F0B50C4615465E
:103930001E460021002200230189028B038C4FF6D2
:10394000F877394021434FF6FC473A4040F20117DF
:103950003A434FF6DD773B404FF6FF7707EA06170D
:103960002F433B43018102830384F0BD0A460021BB
:10397000018B4FF68F7319401143018370470A463C
:103980000021018B48F6FF7319404FF6FF7303EADD
:1039900002231943018370470A460021818B4FF6A9
:1039A0008F7319401143818370470A460021818B30
:1039B00048F6FF7319404FF6FF7303EA02231943D9
:1039C0008183704721B1028842F08002028004E0C6
:1039D00002884FF67F731A400280704721B18288B7
:1039E00042F00402828004E082884FF6FB731A40A2
:1039F0008280704721B1828842F00802828004E010
:103A000082884FF6F7731A408280704721B182880E
:103A100042F00102828004E082884FF6FE731A4071
:103A2000828070470A460021018B4FF6F7731940D8
:103A30001143018370470A460021018B4FF2FF7347
:103A400019404FF6FF7303EA0223194301837047BD
:103A50000A460021818B4FF6F77319401143818389
:103A600070470A460021818B4FF2FF7319404FF6D1
:103A7000FF7303EA02231943818370470A4600213A
:103A8000018B4FF6FB7319401143018370470A46BF
:103A90000021018B4FF6FF3319404FF6FF7303EA05
:103AA00002231943018370470A460021818B4FF698
:103AB000FB7319401143818370470A460021818BB3
:103AC0004FF6FF3319404FF6FF7303EA0223194301
:103AD000818370470A460021018B4FF67F7319409E
:103AE0001143018370470A460021018BC1F30E0187
:103AF0004FF6FF7303EA02231943018370470A4616
:103B00000021818B4FF67F731940114381837047E9
:103B10000A460021818BC1F30E014FF6FF7303EAC1
:103B200002231943818370470A460021018C4FF616
:103B3000FD7319401143018470470A460021018C2E
:103B40004FF6F77319401143018470470A4600216C
:103B5000018C4FF6DF7319404FF6FF7303EA02132F
:103B60001943018470470A460021018C4FF67F7388
:103B700019404FF6FF7303EA02131943018470479B
:103B80000A460021018C4FF6FF5319404FF6FF7390
:103B900003EA02231943018470470A460021018C7D
:103BA0004FF2FF7319404FF6FF7303EA02231943E4
:103BB000018470470A460021018C4DF6FF731940BD
:103BC0004FF6FF7303EA023319430184704730B59F
:103BD000002301248C40A3B2048C9C430484048CF5
:103BE00002FA01F5ADB22C43048430BD30B5002398
:103BF00004248C40A3B2048C9C430484048C02FAF9
:103C000001F5ADB22C43048430BD70B503460020ED
:103C100000241846183001258D40ACB21D8CA543F8
:103C20001D8409B1082909D100EB6100056825F060
:103C3000700505600568154305600EE00D1FC5F3AE
:103C40004E052844056825F4E045056005684FF6F3
:103C5000FF7606EA02263543056070BD21B1028871
:103C600042F00202028004E002884FF6FD731A401F
:103C70000280704721B1028842F00402028004E011
:103C800002884FF6FB731A400280704721B1828888
:103C900042F08002828004E082884FF67F731A40EF
:103CA0008280704702884FF6F7731A4002800288BC
:103CB0000A430280704782884FF68F731A408280D1
:103CC00082880A438280704702894FF6F8731A404F
:103CD000028102890A430281704702894FF67F738D
:103CE0001A40028102890A43028170478184704729
:103CF000818570478186704701877047818770474B
:103D0000A0F84010704702884FF6FF431A40028027
:103D100002880A43028070470146888E7047014638
:103D2000088F70470146888F70470146B1F8400000
:103D300070470146888C70470146088D70470246DF
:103D40000020138A0B4201D0012000E000207047C0
:103D5000CA430282704730B5024600200023002487
:103D6000158A05EA0103958905EA010413B10CB12E
:103D7000012000E0002030BDCA43028270470000ED
:103D80000CB50020019000906B48006840F4803032
:103D90006949086000BF6848006800F4003000907E
:103DA0000198401C0190009818B90198B0F5A06FD7
:103DB000F1D16148006810F4003F02D0012000906A
:103DC00001E0002000900098012842D15B48006883
:103DD00040F01000594908600846006820F00300D0
:103DE00008600846006840F00200086052484068D9
:103DF000514948600846406848600846406840F4B9
:103E0000806048600846406820F47C10486008469E
:103E1000406840F4E81048600846006840F0807050
:103E2000086000BF4448006810F0007FFAD04248A4
:103E3000406820F00300404948600846406840F070
:103E40000200486000BF3C48406800F00C000828B1
:103E5000F9D10CBD10B5FFF793FF10BD10B5364872
:103E6000006840F001003449086008464068344961
:103E700008403149486008460068324908402E49E8
:103E800008600846006820F4802008600846406802
:103E900020F4FE0048604FF41F008860FFF7DAFF4F
:103EA0004FF000602849086010BD10B500210020C7
:103EB0000022214B5B6803F00C0121B1042906D0DC
:103EC000082928D107E0214B214C236027E01F4B14
:103ED0001F4C236023E0184B5B6803F47010164BF3
:103EE0005B6803F48032022303EB904022B9194B44
:103EF0004343174C23600DE00F4B5B6813F4003F06
:103F000004D0144B4343124C236003E00F4B434354
:103F10000F4C236003E00D4B0D4C236000BF00BF2E
:103F2000054B5B68C3F303130B4CE15C084B1B6848
:103F3000CB40074C236010BD00100240002002401F
:103F40000000FFF8FFFFF6FE08ED00E000127A0027
:103F5000EC00002000093D00F0000020012080F36B
:103F6000138800BF00BFFE48006800F4E060FD4910
:103F70000843001DFA490860BFF3408F00BF00BF2F
:103F8000FEE70020F84948608860C8600861F7488B
:103F9000086000208862C86270470020F4494860C9
:103FA0008860C8600861F148086000208862C862C3
:103FB0007047704770B504460D46002C06DDA0B270
:103FC00000F0EBFCA0B200F033FD11E0002C0FDAA2
:103FD000261E01DB314600E0714288B200F0ECFCA5
:103FE000261E01DB314600E0714288B200F011FD6F
:103FF000002D06DDA8B200F0B2FCA8B200F0FAFC79
:1040000011E0002D0FDA2E1E01DB314600E0714277
:1040100088B200F0B3FC2E1E01DB314600E0714295
:1040200088B200F0D8FC70BD2DE9F04F85B0D148C2
:10403000049000200390029001900090CE48006808
:10404000401DCD4908600846006801F090F804461C
:10405000C84900F0BBFE0190019801F0EAF806465D
:10406000C64AC74B00F099FF044601F01DF90090C5
:10407000C449C548006800F0A9FE824601F0D9F89D
:10408000804602F00BFC06464FF04042BF4B00F06A
:1040900084FF044601F008F90290009801F0C9F885
:1040A000804602F04DFF04460D46029801F0C1F82B
:1040B000064622462B4600F070FF824601F0F4F8D7
:1040C0000390002000F0E2FCB14800F0E5FCB148AC
:1040D00000F0E8FCB04800F0EBFC039800F0D9FCDD
:1040E000AB4800F0DCFCAB4800F0DFFCAA4800F075
:1040F000E2FC9D49486800F0E1FC9B49C8629C498C
:10410000486800F04BFD9A49C8629748C06AB0F50C
:10411000166F03DD4FF416609349C8629248C06A77
:1041200010F5166F02DA9D488F49C8629048C06A40
:10413000B0F5166F03DD4FF416608D49C8628C48E8
:10414000C06A10F5166F02DA94488949C862884A35
:10415000D16A854AD06AFFF72DFF05B0BDE8F08F20
:104160002DE9F04F85B08348049000200390029021
:10417000019000908A480068401D894908600846FF
:10418000006800F0F4FF04467A4900F01FFE019039
:10419000019801F04EF80646784A794B00F0FDFE92
:1041A000044601F081F8009076497748006800F0F5
:1041B0000DFE824601F03DF8804602F06FFB064698
:1041C0004FF04042714B00F0E8FE044601F06CF8FD
:1041D0000290009801F02DF8804602F0B1FE0446EE
:1041E0000D46029801F025F8064622462B4600F0BF
:1041F000D4FE824601F058F80390039800F046FC84
:10420000634800F049FC634800F04CFC624800F051
:104210004FFC002000F03DFC5D4800F040FC5D4894
:1042200000F043FC5C4800F046FC4F49486800F051
:1042300045FC4D49C8624E49486800F0AFFC4C4906
:10424000C8624948C06AB0F5166F03DD4FF41660C6
:104250004549C8624448C06A10F5166F02DA4F48F3
:104260004149C8624248C06AB0F5166F03DD4FF499
:1042700016603F49C8623E48C06A10F5166F02DA00
:1042800046483B49C8623A4AD16A374AD06AFFF782
:1042900091FE05B0BDE8F08F2DE9F04F9FB0354895
:1042A0001D904C223F490AA800F0F0FC0020099024
:1042B00008900790069005900490039002903A4968
:1042C0003A48006800F082FD044600F07FFF049049
:1042D00037480068401D364908600846006800F00D
:1042E00046FF0446234900F071FD0390039800F057
:1042F000A0FF0646214A224B00F04FFE044600F084
:10430000D3FF02901F492048006800F05FFD8246FD
:1043100000F08FFF804602F0C1FA06464FF040429F
:104320001A4B00F03AFE044600F0BEFF05901F480D
:10433000006800F07EFF1F4A1F4BCDE9000100F02E
:104340002CFE064602F0E6FC04460D46059800F0F9
:1043500070FF804622462B4600F01FFE82462DE06D
:104360000CED00E00000FA0568030020CDCCCC3D48
:10437000A80300200040B0440C0100206E861BF012
:10438000F92119400000B04200010020DCA54C409A
:1043900000007042713D4A3F00004844A0F6FFFF14
:1043A00010010020FC7100080000204104010020E1
:1043B00014010020514CDE0033DF913F00F074FF08
:1043C0000790EB48006800F034FF0646E94AEA4BE4
:1043D00000F0E3FD804602F0B3FD04460D4605986B
:1043E00000F027FF22462B46CDE9000100F0D5FD65
:1043F000824600F059FF0690029800F01AFF8046AE
:1044000002F09EFD82468B46079800F012FF06469A
:1044100052465B4600F0C1FD044600F045FF09909E
:104420000AAA049852F82010029800F041FC01906A
:1044300000F0FFFE064602F083FD04460D46069896
:1044400000F0F7FE804622462B4600F0A6FD82468D
:1044500000F02AFF0890099800F018FBC74800F008
:104460001BFBC74800F01EFBC64800F021FB089864
:1044700000F00FFBC14800F012FBC14800F015FB33
:10448000C04800F018FBC049486800F017FBBE495F
:10449000C862BE49486800F081FBBC49C862BA489E
:1044A000C06AB0F5166F03DD4FF41660B649C862F6
:1044B000B548C06A10F5166F02DAB548B249C8624D
:1044C000B248C06AB0F5166F03DD4FF41660AF490D
:1044D000C862AE48C06A10F5166F02DAAC48AB4944
:1044E000C862AA4AD16AA84AD06AFFF763FD1FB022
:1044F000BDE8F08F2DE9F041A349486800F04DFE7A
:10450000071E01DB394600E07942084600F034FE20
:10451000054600229F4B00F09FFE58D29B494868F9
:1045200000F03BFE041E01DB214600E0614208462C
:1045300000F022FE05460022964B00F08DFE46D28A
:10454000002000F0A3FA944800F0A6FA002000F042
:10455000A9FA924800F0ACFA002000F09AFA8E48CE
:1045600000F09DFA002000F0A0FA8C4800F0A3FAB9
:104570008549486800F0A2FA8349C86283494868BF
:1045800000F00CFB8149C8627F48C06AB0F5166F25
:1045900003DD4FF416607C49C8627B48C06A10F5A1
:1045A000166F02DA7A487849C8627848C06AB0F56E
:1045B000166F03DD4FF416607449C8627348C06A11
:1045C00010F5166F08DA72487049C86204E00020DE
:1045D0006D49C8626D49C8626C4AD16A6A4AD06A3C
:1045E000FFF7E8FCBDE8F0812DE9F04F89B06C4899
:1045F0000890002007900690059004900390029088
:1046000068480068401D674908600846006800F077
:10461000AEFD0446624900F0D9FB0390039800F018
:1046200008FE0646604A614B00F0B7FC044600F005
:104630003BFE02905E495F48006800F0C7FB82467F
:1046400000F0F7FD804602F029F906464FF040429F
:10465000594B00F0A2FC044600F026FE0590574896
:10466000007810B95648049005E0544800780128B5
:1046700001D154480490029800F0DBFD824602F01C
:104680005FFC80468946059800F0D3FD0646424609
:104690004B4600F082FC044600F006FE07900499A9
:1046A000029800F005FB019000F0C3FD804602F087
:1046B00047FC04460D46059800F0BBFD0646224621
:1046C0002B4600F06AFC824600F0EEFD069007984B
:1046D00000F0DCF9294800F0DFF9294800F0E2F9A0
:1046E000284800F0E5F9069800F0D3F9234800F0D7
:1046F000D6F9234800F0D9F9224800F0DCF9224924
:10470000486800F0DBF92049C8622049486800F099
:1047100045FA1E49C8621C48C06AB0F5166F03DD31
:104720004FF416601849C8621748C06A10F5166F32
:1047300002DA17481449C8621448C06AB0F5166F07
:1047400003DD4FF416601149C8621048C06A10F5C5
:10475000166F02DA0E480D49C8620C4AD16A0A4A3D
:10476000D06AFFF727FC09B0BDE8F08F7047000062
:1047700004010020514CDE0033DF913F0000704205
:10478000713D4A3F0000484468030020A803002010
:10479000A0F6FFFF008046400000AA420000FA4455
:1047A0000040B044180100206E861BF0F92119402A
:1047B0000000B04200010020DCA54C4008010020B0
:1047C000D80FC93FE2CB964008B501210846FEF755
:1047D0006AF901210420FEF759F90F20ADF8000015
:1047E00018208DF8030003208DF8020069469848D0
:1047F000FDF796FE08BD00B587B001210846FEF71B
:1048000052F90020ADF81000ADF8120040F6B830B3
:10481000ADF814000020ADF8160004A94FF0804058
:10482000FEF774FC7020ADF800000120ADF8020026
:104830000220ADF808000020ADF8060069464FF0F0
:104840008040FEF7A0FC7020ADF800000120ADF81C
:1048500002000220ADF808000020ADF8060069460D
:104860004FF08040FEF7D1FC7020ADF80000012031
:10487000ADF802000220ADF808000020ADF80600F7
:1048800069464FF08040FEF70DFD7020ADF8000046
:104890000120ADF802000220ADF808000020ADF8BC
:1048A000060069464FF08040FEF747FD0821C80624
:1048B000FFF7B8F80821C806FFF7BDF80821C806B9
:1048C000FFF7C6F80821C806FFF7CBF800214FF024
:1048D0008040FFF70FFA00214FF08040FFF70CFAFD
:1048E00000214FF08040FFF709FA00214FF080408F
:1048F000FFF706FA01218807FEF764FF07B000BD45
:1049000008B501212020FEF7C1F84FF47F40ADF833
:10491000000010208DF8030003208DF80200694686
:104920004C48FDF7FDFD4FF480404A4910310860C6
:1049300040000860401108608010086000010860B5
:1049400040000860801008608010086008BD10B545
:10495000FFF73AFFFFF74FFFFFF7D2FF10BD10B58B
:1049600004464FF480403B49143108608010091F11
:10497000086021468004FFF7BFF910BD10B504465A
:104980004FF480403349103108608010091D0860E1
:1049900021468004FFF7B0F910BD10B504464FF46E
:1049A00000402C49143108608010091F086021461E
:1049B0004004FFF7A3F910BD10B504464FF40040C2
:1049C0002449103108608010091D08602146400408
:1049D000FFF794F910BD10B504464FF480601D49EF
:1049E000103108604000091D08602146C004FFF72F
:1049F00087F910BD10B504464FF480601549143195
:104A000008604000091F08602146C004FFF778F9DC
:104A100010BD10B504464FF480700E491031086087
:104A20004000091D086021464005FFF763F910BDED
:104A300010B504464FF480700649143108604000F8
:104A4000091F086021464005FFF754F910BD00001A
:104A5000000801400014014000208849C861086234
:104A600008614861886108600021844A9160D160D2
:104A7000704700208249C861086208614861886106
:104A8000086000217E4A9160D16070477B490860D0
:104A900070477B49086070477849086170477849DA
:104AA00008617047754948617047754948617047AA
:104AB0007249886170477249886170472DE9F04FEB
:104AC00089B083466D480168584600F046F9824631
:104AD000504600F0AEFB04466848D0E90263324617
:104AE000204600F0B3F9654AC2E9020110460022EF
:104AF000644BD0E90241204600F0C2FB05D2002100
:104B000060485E4AC2E902100DE05C49D1E9024109
:104B100000225D4B204600F09FFB04D200215A4842
:104B2000564AC2E902105548C169504600F012F9D0
:104B300008905248C0F81CA001468869089900F006
:104B40000FF9064600F075FBCDE906014B494869AF
:104B500000F06FFBCDE900014848D0E9026332461E
:104B6000009800F01AFACDE9040144490869514659
:104B700000F0F6F8064600F05CFBCDE90201DDE945
:104B8000042300F063F90446DDE9062300F05EF932
:104B9000804600F02FFB09B0BDE8F08F2DE9F04F03
:104BA00089B0834636480168584600F0D6F88246F8
:104BB000504600F03EFB04463148D0E902633246DD
:104BC000204600F043F92E4AC2E9020110460022B5
:104BD0002C4BD0E90241204600F052FB05D20021C7
:104BE0002848274AC2E902100DE02549D1E90241CF
:104BF0000022254B204600F02FFB04D20021224842
:104C00001F4AC2E902101E48C169504600F0A2F8CE
:104C100008901B48C0F81CA001468869089900F05C
:104C20009FF8064600F005FBCDE9060114494869E6
:104C300000F0FFFACDE900011148D0E902633246E5
:104C4000009800F0AAF9CDE904010D490869514620
:104C500000F086F8064600F0ECFACDE90201DDE945
:104C6000042300F0F3F80446DDE9062300F0EEF833
:104C7000804600F0BFFA09B0BDE8F08FE8030020DD
:104C80001004002000F8A14000F8A1C040EA010390
:104C90009B0703D009E008C9121F08C0042AFAD2F2
:104CA00003E011F8013B00F8013B521EF9D27047B6
:104CB000F0B480EA0102D40F4200B2EB410F02D2FD
:104CC0000246084611464A0042D0C30DDDB2C1F388
:104CD000C752AD1A202D35DAC1F3160141F4000296
:104CE00004B15242C5F1200602FA06F12A411044ED
:104CF000B3EBD05F23D0C4B1012DA0EBC35009DCCE
:104D0000F0BC4FF0004202EAC35200F50000DBB2F3
:104D100000F07BBB400000F1807000EBC350A0F1BD
:104D2000807040EAD170490009E0490841EAC07149
:104D3000A0EBC35000F50000400800EBC350F0BCEE
:104D400000F05ABB6142012202EB4101001BF6E771
:104D5000F0BC704781F00041AAE780F00040A7E76F
:104D600080EA010210B502F00043400026D04A005C
:104D700023D04FEA106101EB1261C0F35600C2F379
:104D8000560240F4000042F40002A0FB0220A1F110
:104D90007F014FEA0040140401D000F1010050EA05
:104DA000124001D44000491EC2B20C0604EBD010E0
:104DB000401C4008802A02D003E0002010BD20F0F3
:104DC0000100002900DA0020184310BD30B480EA49
:104DD000010202F0004530F0004221F0004015D001
:104DE000A0B1C0F3C753C2F3C754C2F31601C0F356
:104DF0001600E41A41F4000140F400027D349142AF
:104E000001D3641C00E04900002C02DA30BC002011
:104E100070474FF400000023914201D3891A0343E5
:104E200040084FEA4101F7D151B1914202D14FF010
:104E3000004105E002D24FF0010101E06FF00101F5
:104E400003EBC450284430BC00F0D6BA2DE9FE4F25
:104E5000804681EA0300C00F0C46009021F000411B
:104E600023F00045B8EB0200A94105D24046214697
:104E700090461C460B46024623F00040104304D1E6
:104E80004046214603B0BDE8F08F270DC7F30A0066
:104E9000C3F30A510290401A0190402866DAC3F326
:104EA000130040F4801B0098924620B10023D2EBFF
:104EB000030A63EB0B0B01985946C0F140025046C0
:104EC00000F069FA06460D4650465946019A00F030
:104ED00081FA10EB08006141002487EA115284EA4C
:104EE000E7731A433BD0009A3AB3019A012A4FEA7A
:104EF000075210DC001B61EB02014FF0004202EA96
:104F00000752CDE90042001C41F5801132462B4684
:104F100000F00EFBB6E7001B61EB0201001C41F53F
:104F2000801300185B412018A2F5001747EB03011E
:104F300040EAD570B6196D4111E06D084FEA3606AA
:104F400045EAC0754FEA0752001B61EB0201001CE5
:104F500041F5801149084FEA3000001951413246AD
:104F60002B4603B0BDE8F04F00F0D5BA00980122FF
:104F700040000023D0EB020263EBE073009821466F
:104F80004FEAE074B8EB000061EB0401E9E783F05D
:104F900000435BE781F0004158E72DE9FE4F81EACD
:104FA000030404F0004421F0004100944FF0000B92
:104FB00023F0004350EA010402D052EA030404D172
:104FC0000020014603B0BDE8F08FC3F30A54C1F3DB
:104FD0000A552C44A4F2F3340194A0FB0254C1F30B
:104FE000130141F48011C3F3130343F4801301FB55
:104FF000024400FB034E840A970A44EA815447EABC
:105000008357A4FB076802958D0A05FB07854FEAC5
:10501000932C04FB0C542705029D4FEA065847EADF
:105020001637B5EB08056EEB070C870E920E47EAB4
:10503000811742EA8312A7FB0201B6EB0B0164EB76
:1050400000042B0D43EA0C335E1844EB1C50DA4687
:105050005146E7FB0201C5F313044FEA0B3343EA61
:1050600014534FEA0432019C43EA0603A4F10C04F2
:105070000294009CCDE900B400F05AFAA2E72DE9B1
:10508000F04D81EA030404F0004B21F00045144682
:105090004FF0000A23F0004150EA050220D054EA04
:1050A00001021DD0C5F30A570246C5F31303C1F32D
:1050B0001300C1F30A5640F4801543F48013A7EBA4
:1050C0000608101BD64608F2FD3873EB050002D324
:1050D00008F1010801E092185B41B8F1000F03DA12
:1050E00000200146BDE8F08D00204FF480110646F7
:1050F00084460EE0171B73EB050705D3121B63EB09
:10510000050306434CEA010C49084FEA30009218A7
:105110005B4150EA0107EDD152EA030012D082EA66
:10512000040083EA0501084303D100224FF0004345
:1051300008E0101BAB4102D20122002302E06FF015
:10514000010253101AEB06004CEB085110EB0A0059
:1051500041EB0B01BDE8F04D00F0DDB9C10F80EA75
:10516000E0700844CA079623002100F04EB9962348
:105170000022114600F049B90EB5C10F80EAE07077
:105180000844CA07002140F233438DE80E000A4666
:105190000B4600F0CDF903B000BD00F0004220F056
:1051A0000040C10DC0F3160040F400007F2901DA71
:1051B00000207047962903DCC1F19601C84001E048
:1051C00096398840002AF4D04042704720F00040D1
:1051D000C10DC0F3160040F400007F2901DA002061
:1051E0007047962903DCC1F19601C8407047963993
:1051F0008840704770B5C1F30A5201F000450024A1
:10520000C1F3130140F2FF3341F480119A4201DAF5
:10521000002070BD40F233439A42A2F2334203DCD5
:10522000524200F0C7F800E090402C43F1D04042D9
:1052300070BD00F0004230F000400AD0C10D01F511
:105240006071C0F3160042EA0151C20840071143E1
:10525000704700200146704730B5002904DB4FF04D
:105260000044404264EB0101002B04DB4FF000449A
:10527000524264EB03038B4208BF824230BD000000
:1052800030B5002904DB4FF00044404264EB0101DB
:10529000002B04DB4FF00044524264EB03039942BD
:1052A00008BF904230BD000001F0004330B421F04F
:1052B000004150EA010206D00A0DA2F56072C1F366
:1052C0001301002A02DC30BC00207047440F44EA7E
:1052D000C104C100E01830BC00EBC25000F08CB833
:1052E000002801DBC0F10040002901DBC1F10041D1
:1052F00081427047002801DBC0F10040002901DB3A
:10530000C1F100418842704730B50B46014600208C
:105310002022012409E021FA02F59D4205D303FA77
:1053200002F5491B04FA02F52844151EA2F10102F8
:10533000F1DC30BD2DE9F05F0546002092469B462A
:1053400088460646814640241BE02846414647469B
:10535000224600F02FF853465A46C01A914110D306
:1053600011461846224600F016F82D1A67EB010880
:105370004F4622460120002100F00DF817EB0009EE
:105380004E41201EA4F10104DFDC484631462A4686
:105390004346BDE8F09F202A04DB203A00FA02F1E0
:1053A000002070479140C2F1200320FA03F3194313
:1053B00090407047202A04DB203A21FA02F00021B5
:1053C000704721FA02F3D040C2F120029140084315
:1053D00019467047202A06DBCB17203A41FA02F023
:1053E00043EAE07306E041FA02F3D040C2F1200242
:1053F00091400843194670470029A8BF7047401CD8
:10540000490008BF20F00100704710B4B0FA80FCDA
:1054100000FA0CF050EA010404BF10BC704749B117
:10542000CCF1200421FA04F411FA0CF118BF012187
:1054300021430843A3EB0C01CB1D0106000A002BFE
:10544000BEBF002010BC704700EBC35010440029C1
:10545000A4BF10BC7047401C490008BF20F00100E9
:1054600010BC7047420005D0C0F3C752524291426F
:1054700001DC0020704700EBC1507047F0B40028F9
:1054800002DCF0BC00207047C0F3C751C0F3160027
:1054900040F40000CA0701D14000491E3F2202EB40
:1054A0006105002211464FF4000626FA01F3134469
:1054B000D418844201D8001B1A464000491C172901
:1054C000F3DD5100814202D24FF0FF3100E00021B4
:1054D00002EBC550F0BCFFF78FBF10B541000CD0F8
:1054E000C0F3C751962908DC7E2909DC06DB41029E
:1054F00004D000F0004040F07E5010BD002010BDF0
:10550000C1F19604C4F1200100FA01F1E040FFF777
:1055100073FFA04010BD10B5002B08DA401C41F10C
:10552000000192185B411A4301D120F0010010BD27
:105530002DE9F04D92469B4611B1B1FA81F202E09D
:10554000B0FA80F220329046FFF725FF04460F465E
:1055500040EA0A0041EA0B0153465A46084303D188
:1055600020463946BDE8F08D114653EA010015D0BA
:10557000C8F140025046FFF71DFF05460E46504653
:1055800059464246FFF707FF084301D0012000E0DB
:105590000020054346EAE0762C4337430A984FEA59
:1055A0004453A0EB08004FEAD4240A304FF0000225
:1055B00044EA47544FEAD72502D500200146D1E7F7
:1055C000010510196941DDE9084500196941BDE887
:1055D000F04DA0E770B521F0004303430CD0C1F3B8
:1055E0000A550024D5EB040564EB0403D617AD1A65
:1055F000B34102DB0020014670BD201841EB02518F
:1056000070BDC1F30A52C1F3130140F2FF3341F4FC
:1056100080119A4202DA00200146704740F233437B
:105620009A42A2F2334202DC5242FFF7C3BEFFF7B6
:10563000B2BE0000064C074D06E0E06840F00103F2
:1056400094E8070098471034AC42F6D3FAF774FD9B
:1056500020740008407400080EB540F233410291F6
:105660000021CDE900110A460B46FFF761FF03B0A8
:1056700000BD00000FB4054B10B503A9044A029801
:1056800000F0D0FC10BC5DF814FB00001D03000806
:105690001C0100200FB4084B10B504A902AA0398FE
:1056A00000F0C0FC044602A9002001F05EF820468C
:1056B00010BC5DF814FB00006B670008490050EA5D
:1056C000C12018BF04204A0D18BF40F0010040F26D
:1056D000FF72B2EB515F08BF40F00200012808BF23
:1056E000052070474100080218BF04200A0E18BFA9
:1056F00040F001004FF07F4232EA010108BF40F064
:105700000200012808BF0520704700002DE9F74F6F
:10571000144696B00021C4E902111799089121F0AE
:105720000045CA498D4206DC1799C4E9000119B049
:105730000020BDE8F08FC649DFF818A3A9423CDD80
:105740000899C54E0029C54FC54A1799534619DD1A
:10575000FFF71DFC554506D0C24AC34BFFF717FCA7
:10576000C4E900010AE04FF0D352BF4BFFF70FFC32
:1057700032463B46FFF70BFCC4E9000119B001209B
:10578000BDE8F08FFFF762FB554506D0B54AB64B32
:10579000FFF75CFBC4E900010AE04FF0D352B24BC3
:1057A000FFF754FB32463B46FFF750FBC4E90001CC
:1057B00019B04FF0FF30BDE8F08FAC49A9421799FE
:1057C00078DB21F000488346A94AAA4B4146FFF7FF
:1057D000E4FB0022A84BFFF739FBFFF70BFD099014
:1057E000FFF7CAFC06460F469D4A5346FFF7D5FB16
:1057F0005A464346FFF7CEFB80468A46994A9A4B63
:1058000030463946FFF7C9FB2A0D01250B92424667
:105810005346FFF7BFFB032DC4E9000139D00B98B5
:10582000C1F30A51401A05EB45111139814230DAB2
:105830009248C346784400EB0510CDF81CA00C90AC
:10584000D0E9002330463946FFF7A7FBCDE9020136
:1058500002460B4658460799FFF799FB80468A4651
:1058600002460B4658460799FFF791FBDDE90223F4
:10587000FFF78DFB83460C9803913946D0E902234C
:105880003046FFF78AFB5A46039BFFF780FB6D1CEF
:10589000BDE708980028A2BF099819B0BDE8F08FAD
:1058A000616881F000416160099819B04042BDE82B
:1058B000F08FFFE7C1F3130141F480110E911799A6
:1058C000C1F30A51A1F2F532511102F01F08C8F1DB
:1058D0002002129200220C920D92694A7A4402EB45
:1058E000810101F1140C0DA95FF00607DCF800201E
:1058F000DCF8045002FA08F3129AD1F800A025FA55
:1059000002F21A430E9BA2FB0356A2FB00329A44FA
:1059100015449A4534BF4FF0010B4FF0000B51F87E
:10592000043C05EB0B0E7344954234BF0122002268
:105930001644BBF1000F02D0AB4202D903E0AB42E8
:1059400001D2012200E000223244C1F800A041E966
:105950000223091FACF1040C7F1EC7D10898DDE9B2
:105960000A6500F10050800F11900898099F80008F
:10597000FFF702FC80468A463846FFF76DFE6FF05F
:105980001D02FFF727FE074630460591FFF764FE2C
:105990006FF03D02FFF71EFECDE903102846FFF72A
:1059A0005BFE6FF05D02FFF715FE064602460B46F2
:1059B0000191DDE90310FFF749FA3A46059BFFF72D
:1059C00045FA42465346FFF741FA00200D4683460A
:1059D00042465346FFF7DBFA3A46059BFFF7D7FAF4
:1059E000DDE90332FFF7D3FA3246019BFFF7D2FA23
:1059F000DFF89480234A4346FFF7CFFA06460F4666
:105A0000224A234B58462946FFF7C7FA32463B46FF
:105A1000FFF71CFA0F4606464FF0A8424346584689
:105A20002946FFF7BAFA32463B46FFF70FFA179AB4
:105A300012F0004F04D0119A81F0004152421192AD
:105A4000C4E90001119819B0BDE8F08FFB21E93FCE
:105A50007CD90240FB21F93F7370032E8A19A33BC6
:105A6000000040543163621A61B4D03DFB213941DA
:105A700083C8C96D305FE43F0000E03FD81A0000E2
:105A8000601A0000182D4454FB21F93D3326A6115D
:105A9000460B113C2DE9FF4D21F0004807460C460E
:105AA000B8F1795F08DAFFF7A5FB002801BF0020F5
:105AB000324904B0BDE8F08D3A46234610461946F7
:105AC000FFF76BFA054602462D480E460B460621A7
:105AD000784400F05DF82A463346FFF75EFADDE9C8
