:020000040800F2
:1000000040080020BD1A0008D9120008DB120008C1
:10001000DF120008E3120008E712000800000000E9
:10002000000000000000000000000000EB120008CB
:10003000ED12000800000000EF120008F1120008A5
:10004000D71A0008D71A0008D71A0008D71A0008CC
:10005000D71A0008D71A0008D71A00081B11000881
:10006000491100089D110008FD110008D71A000869
:10007000D71A0008D71A0008D71A0008D71A00089C
:10008000D71A0008D71A0008D71A0008D71A00088C
:10009000D71A0008D71A0008D71A0008D71A00087C
:1000A000D71A0008D71A0008D71A0008D71A00086C
:1000B0004D0B0008D71A0008D71A0008D71A0008F5
:1000C000D71A0008D71A0008D71A0008D71A00084C
:1000D000D71A0008453E0008D71A0008D71A0008AA
:1000E000D71A0008D71A0008D71A0008D71A00082C
:1000F000D71A0008D71A0008D71A0008D71A00081C
:10010000D71A0008D71A0008D71A0008D71A00080B
:10011000D71A0008D71A0008D71A0008D71A0008FB
:10012000D71A0008D71A0008D71A0008D71A0008EB
:1001300000F002F800F03AF80AA090E8000C8244BF
:100140008344AAF10107DA4501D100F02FF8AFF29C
:10015000090EBAE80F0013F0010F18BFFB1A43F0A5
:1001600001031847944A0000B44A0000103A24BF23
:1001700078C878C1FAD8520724BF30C830C144BF0C
:1001800004680C607047000000230024002500264E
:10019000103A28BF78C1FBD8520728BF30C148BFEA
:1001A0000B6070471FB51FBD10B510BD03F0D0FE2A
:1001B0001146FFF7F7FF00F00FFB03F001FF03B458
:1001C000FFF7F2FF03BC03F0E3FD0000F0B5DDE94B
:1001D0000554002929DA49422D26FE4F3E54642653
:1001E00091FBF6F63036F7B2DFF8E8C3461C0CF8A0
:1001F0000670642691FBF6F706FB17160A2796FB96
:10020000F7F63036F7B2861C0CF806700A2691FB1A
:10021000F6F706FB17163036F7B2C61C0CF8067058
:100220002027061D0CF8067027E02B26E94F3E54C8
:10023000642691FBF6F63036F7B2DFF898C3461C19
:100240000CF80670642691FBF6F706FB17160A27D2
:1002500096FBF7F63036F7B2861C0CF806700A26C5
:1002600091FBF6F706FB17163036F7B2C61C0CF8F2
:1002700006702027061D0CF80670002A4BDA524241
:100280002D27DFF850C3461D0CF8067042F2107699
:1002900092FBF6F63036F7B2861D0CF8067042F285
:1002A000107692FBF6F706FB17264FF47A7796FB4B
:1002B000F7F63036F7B2C61D0CF806704FF47A76B2
:1002C00092FBF6F706FB1726642796FBF7F6303607
:1002D000F7B200F108060CF80670642692FBF6F7F8
:1002E00006FB17260A2796FBF7F63036F7B200F121
:1002F00009060CF806700A2692FBF6F706FB17268D
:100300003036F7B200F10A060CF806702027761C8A
:100310000CF8067049E02B27DFF8B8C2461D0CF830
:10032000067042F2107692FBF6F63036F7B2861D72
:100330000CF8067042F2107692FBF6F706FB1726D1
:100340004FF47A7796FBF7F63036F7B2C61D0CF805
:1003500006704FF47A7692FBF6F706FB17266427B1
:1003600096FBF7F63036F7B200F108060CF8067087
:10037000642692FBF6F706FB17260A2796FBF7F68C
:100380003036F7B200F109060CF806700A2692FB27
:10039000F6F706FB17263036F7B200F10A060CF81E
:1003A00006702027761C0CF80670002B2EDA5B42B4
:1003B0002D27DFF820C200F10C060CF80670642629
:1003C00093FBF6F63036F7B200F10D060CF8067026
:1003D000642693FBF6F706FB17360A2796FBF7F61B
:1003E0003036F7B200F10E060CF806700A2693FBC1
:1003F000F6F706FB17363036F7B200F10F060CF8A9
:1004000006702027761C0CF806702CE02B27DFF8EE
:10041000C4C100F10C060CF80670642693FBF6F6D6
:100420003036F7B200F10D060CF80670642693FB27
:10043000F6F706FB17360A2796FBF7F63036F7B2C3
:1004400000F10E060CF806700A2693FBF6F706FB81
:1004500017363036F7B200F10F060CF80670202779
:10046000761C0CF80670002D3EDA6D422D27DFF861
:1004700064C100F111060CF806704FF47A7695FB12
:10048000F6F63036F7B200F112060CF806704FF4AB
:100490007A7695FBF6F706FB1756642796FBF7F678
:1004A0003036F7B200F113060CF80670642695FB9F
:1004B000F6F706FB17560A2796FBF7F63036F7B223
:1004C00000F114060CF806700A2695FBF6F706FBF9
:1004D00017563036F7B200F115060CF806702027D3
:1004E000761C0CF806703CE02B27DFF8E8C000F122
:1004F00011060CF806704FF47A7695FBF6F6303656
:10050000F7B200F112060CF806704FF47A7695FBFC
:10051000F6F706FB1756642796FBF7F63036F7B268
:1005200000F113060CF80670642695FBF6F706FB3F
:1005300017560A2796FBF7F63036F7B200F1140685
:100540000CF806700A2695FBF6F706FB17563036B0
:10055000F7B200F115060CF806702027761C0CF88F
:100560000670002C7EDA64422D27DFF868C000F1A7
:1005700017060CF80670184E94FBF6F63036F7B2F4
:1005800000F118060CF80670134E94FBF6F706FB04
:100590001746124F96FBF7F63036F7B200F1190600
:1005A0000CF806700D4E94FBF6F706FB17460C4F41
:1005B00096FBF7F63036F7B200F11A060CF8067023
:1005C000074E94FBF6F706FB1746064F96FBF7F629
:1005D000303609E0F000002000E1F5058096980033
:1005E00040420F00A0860100F7B200F11B060CF894
:1005F0000670F94E94FBF6F706FB174642F21077A9
:1006000096FBF7F63036F7B200F11C060CF80670D0
:1006100042F2107694FBF6F706FB17464FF47A7712
:1006200096FBF7F63036F7B200F11D060CF80670AF
:100630004FF47A7694FBF6F706FB1746642796FB91
:10064000F7F63036F7B200F11E060CF80670642695
:1006500094FBF6F706FB17460A2796FBF7F63036AB
:10066000F7B200E013E000F11F060CF806700A264E
:1006700094FBF6F706FB17463036F7B200F120067A
:100680000CF806702027761C0CF8067084E02B27E7
:10069000DFF848C300F117060CF80670D04E94FB43
:1006A000F6F63036F7B200F118060CF80670CC4EAC
:1006B00094FBF6F706FB1746CA4F96FBF7F6303663
:1006C000F7B200F119060CF80670C64E94FBF6F767
:1006D00006FB1746C44F96FBF7F63036F7B200F12B
:1006E0001A060CF80670C04E94FBF6F706FB174688
:1006F000B94F96FBF7F63036F7B200F11B060CF84F
:100700000670B54E94FBF6F706FB174642F21077DB
:1007100096FBF7F63036F7B200F11C060CF80670BF
:1007200042F2107694FBF6F706FB17464FF47A7701
:1007300096FBF7F63036F7B200F11D060CF806709E
:100740004FF47A7694FBF6F706FB1746642796FB80
:10075000F7F63036F7B200F11E060CF80670642684
:1007600094FBF6F706FB17460A2796FBF7F630369A
:10077000F7B200F11F060CF806700A2694FBF6F794
:1007800006FB17463036F7B200F120060CF806706B
:100790002027761C0CF806700A27DFF840C200F10B
:1007A00022060CF80670F0BD10B50446A1B28F48C1
:1007B00003F036F810218E4801F0F9FE10BD10B597
:1007C0000446C4F57A7081B2884803F029F81021F4
:1007D000874801F0EAFE10BD1CB503F06BFA03F088
:1007E000D1FA4FF4E13003F0E1FA82A003F072FB9A
:1007F00001F038F900F06CFE01F03DF800F008FF60
:1008000001F040F801F020F900F016FF00F082FF3F
:100810007FA003F05FFB85A003F05CFB0122802139
:100820008A4803F043F90121084602F0D6F841F264
:10083000BA31874802F0F0FF87E18548243000880C
:10084000A0F59850BA388349086008460068824984
:10085000096841F2883202FB0100804908607C4847
:100860002430008842F2427188420ADB41F2BA30F9
:1008700077492431088078480068401C7649086030
:100880000EE0734824300088322809DC41F2BA3087
:100890006F492431088070480068401E6E49086026
:1008A0006F48006803F070FE04460D466D490988E4
:1008B000A1F5006003F068FC80466B4A6B4B03F0C7
:1008C0007BFC064622462B4603F0B6FB824603F02D
:1008D00081FB67490A780978491C654B197065499D
:1008E00041F82200184600780A2802D10020194653
:1008F00008700020604908700FE05E485E4A127878
:1009000050F822105D48006803F06AFE5B490860F9
:1009100059480078401C58490870574800780A2800
:10092000EBDB57480078042807D056495348006845
:1009300003F0C4FE544908600FE05448006803F017
:100940009BFF04464F494D48006803F0B7FE05463B
:10095000214603F045FE4C490860002047490860E5
:100960004748007820B92021214801F020FEC9E045
:100970004348007801282DD120211D4801F015FEA3
:1009800043480068062824D2DFE800F003080D126F
:10099000171C4FF44870FFF707FF1AE04FF461701F
:1009A000FFF70DFF15E040F2B630FFF7FDFE10E057
:1009B00040F2B630FFF703FF0BE04FF44870FFF74B
:1009C000F3FE06E00020FFF7EFFE00202C49087040
:1009D00000BF97E05EE00000A0860100F00000206C
:1009E00000E1F5058096980040420F0000040040A9
:1009F000001001402A2A2A2A2A2A2A2A2A2A2A2AAE
:100A00002A2A2A2A2A2A2A2A2A2A2A0D0A00000001
:100A100031313131313131313131313131313131C6
:100A200031313131313131310D0A0000333333335B
:100A30003333333333333333333333333333333386
:100A4000333333333333330D0A00000000380140B1
:100A500000080040740000204800002078000020BA
:100A600018000020A6000020AA8251499D80B63FB0
:100A70004C000020C80000204D000020580000203D
:100A800038000020000020415C00002014000020FD
:100A900050000020FE480078032833D12021FD4873
:100AA00001F083FDFC48006830B1012809D002281C
:100AB0000CD0032825D10DE04FF44870FFF774FEE9
:100AC0001FE04FF46170FFF77AFE1AE0B420FFF7E1
:100AD0006BFE16E00020FFF767FEF049F048006863
:100AE00003F0E2FF09D2EF49ED48006803F0DCFEB5
:100AF00003D20620E649087002E00020E4490870AD
:100B000000BF00BFE348C06880F40040E149C8600E
:100B1000E548006803F094FE0446E148006803F0ED
:100B20008FFE0546E1480068E14909682346CDE9A2
:100B30000010E048294602680020FFF747FBD5482F
:100B4000C06880F40040D349C86076E62DE9F041E2
:100B50000121880702F095FE00287DD0D648007854
:100B6000401ED549087008460078002875DC022030
:100B70000870C7480078022870D1D0480168C8487A
:100B8000006803F0C3FFC8490860C5480068CB4946
:100B90000860CB480068CB490968401AC44908601E
:100BA000C7480068C7490860C0480068C04909686C
:100BB0000844BE4908600846006803F05DFE04462C
:100BC000C1480168204603F06FFF05D2BE480068A7
:100BD00003F036FEB5490860BB48006880F0004469
:100BE000B248006803F048FE0546214603F05CFE6B
:100BF00008D2B548006880F00044204603F020FE8B
:100C0000AA490860A948006803F036FE0746AF48C5
:100C10000168384603F07CFE0546A548006840425E
:100C200003F02AFE0746AA480168384603F070FE22
:100C30000646294603F06AFF044603F001FEA54973
:100C40000860A54801689848006803F061FE054601
:100C5000A2480168924802E05DE291E14CE0006840
:100C600003F056FE0646294603F0BAFC044603F09C
:100C7000E7FD9B49086008460068964909680844F2
:100C8000984908600846006800280CDA08460068A1
:100C900010F57A7F01DC9448086092480068404271
:100CA000FFF782FD0CE08F480068B0F57A7F03DB28
:100CB0004FF47A708B4908608A480068FFF77FFD1F
:100CC0008A497748006803F0EFFE05D988497448DF
:100CD000006803F0E9FD0FD820216E4801F067FCA1
:100CE0000020FFF76CFD0020694908707D4908600D
:100CF00080490860804908606548007806287DD1F1
:100D00006E4801686648006803F000FF66490860A5
:100D1000634800686949086069480068694909686A
:100D2000401A6349086066480068664908605F4881
:100D300000685F49096808445C4908600846006823
:100D400003F09AFD044660480168204603F0ACFEBB
:100D500005D25D48006803F073FD544908605A48A5
:100D6000006880F000445148006803F085FD0546A6
:100D7000214603F099FD08D25348006880F00044F2
:100D8000204603F05DFD494908604848006803F0CB
:100D900073FD07464D480168384603F0B9FD054626
:100DA00043480068404203F067FD07464848016831
:100DB000384603F0ADFD0646294603F0A7FE04467B
:100DC00003F03EFD43490860434801683648006827
:100DD00003F09EFD0646414801683148006803F073
:100DE00097FD0546314603F0FBFB044603F028FD62
:100DF0003B49086008460068364900E03DE0096864
:100E00000844384908600846006800280CDA08469B
:100E1000006810F57A7F01DC3348086031480068CB
:100E20004042FFF7C1FC0CE02E480068B0F57A7F25
:100E300003DB4FF47A702B4908602A480068FFF7FB
:100E4000BEFC2A491648006803F02EFE05D9284941
:100E50001348006803F028FD0FD820210D4801F049
:100E6000A6FB0020FFF7ABFC0020094908701D49D4
:100E70000860204908602049086005480078042877
:100E80007ED10E4801680648006803F03FFE35E059
:100E900038000020001001405000002000000CC26B
:100EA0005C00002000000C42600000204000002098
:100EB0007C00002074000020280000206400002036
:100EC000780000203C0000202000002010000020BE
:100ED0000C0000206C000020040000200000002016
:100EE000700000202400002018FCFFFF00003442A6
:100EF000000034C26800002044000020D849086087
:100F0000D8480068D8490860D8480068D8490968B6
:100F1000401AD8490860D5480068D5490860D648C5
:100F20000068D44909680844D34908600846006845
:100F300003F0A2FC0446D1480168204603F0B4FD4A
:100F400005D2CE48006803F07BFCCB490860CB4853
:100F5000006880F00044C848006803F08DFC054636
:100F6000214603F0A1FC08D2C448006880F0004488
:100F7000204603F065FCC0490860BF48006800E0F7
:100F800073E003F079FC0746BD480168384603F07A
:100F9000BFFC0546B7480068404203F06DFC0746B9
:100FA000B8480168384603F0B3FC0646294603F00A
:100FB000ADFD044603F044FCB3490860B348016842
:100FC000A748006803F0A4FC0546B1480168A5489D
:100FD000006803F09DFC0646294603F001FB044629
:100FE00003F02EFCAB49086008460068A649096872
:100FF0000844A94908600846006800280CDA084639
:10100000006810F57A7F01DCA4480860A2480068F7
:101010004042FFF7C9FB0CE09F480068B0F57A7FBB
:1010200003DB4FF47A709C4908609B480068FFF727
:10103000C6FB9B498B48006803F036FD05D99949EA
:101040008848006803F030FC0FD82021964801F052
:10105000AEFA0020FFF7B3FB0020944908708E49D8
:101060000860934908609349086090480078012817
:101070001AD191480068401E8F49086008460068F0
:10108000002811DC8D48006805280DDA4FF4FA704D
:1010900008608A480068401C884908600846006863
:1010A000052801DB052008608048007803281AD154
:1010B00081480068401E8049086008460068002892
:1010C00011DC7E48006803280DDA4FF4FA700860DE
:1010D0007A480068401C794908600846006803287F
:1010E00001DB032008607148007804280FD17448A0
:1010F0000068401E7249086008460068002806DC47
:10110000002008606F4908600220684908700121CA
:10111000880702F0C7FBBDE8F08110B50A2002F095
:1011200005FE0221684801F026FA012808D15F492E
:1011300008704FF4FA706049086000205F49086049
:10114000022001F01EF910BD10B50A2002F0EEFDDC
:1011500004215D4801F00FFAE0B95C484C49086091
:101160004FF07F5049490860594846490860800758
:101170004349086057484149086000203D490860DC
:1011800002204A4908702021474801F00EFA002049
:1011900039490860042001F0F4F810BD10B50A20A8
:1011A00002F0C4FD0821484801F0E5F910BB4748AA
:1011B000374908604FF07F5034490860444831494E
:1011C000086080072E49086042482C4908600020CA
:1011D000284908602021344801F0E7F90320334909
:1011E00008704FF4FA7034490860002033490860F1
:1011F00021490860082001F0C4F810BD10B50A208C
:1012000002F094FD1021304801F0B5F918BB2F48C9
:101210001F4908604FF07F501C4908602C4819494D
:1012200008608007164908602A48144908600020B1
:101230001049086004201D49087020211A4801F057
:10124000B4F900200C49086040F6AC501C49086015
:1012500003201C490860102001F093F810BD000025
:10126000600000205C000020640000207800002066
:101270003C0000207C0000204000002020000020D6
:10128000100000200C0000206C0000200400002052
:1012900000000020700000202400002018FCFFFF48
:1012A00000003442000034C2001001403800002029
:1012B00068000020440000202C0000205000002086
:1012C00030000020140000200018014000002043DE
:1012D000CDCC4C3E00004843704700BFFEE700BF46
:1012E000FEE700BFFEE700BFFEE7704770477047AC
:1012F000704700000CB50020019000906B4800681A
:1013000040F480306949086000BF6848006800F414
:10131000003000900198401C0190009818B9019885
:10132000B0F5A06FF1D16148006810F4003F02D021
:101330000120009001E0002000900098012842D197
:101340005B48006840F01000594908600846006892
:1013500020F0030008600846006840F002000860C2
:10136000524840685149486008464068486008460D
:10137000406840F4806048600846406820F47C1073
:1013800048600846406840F4E81048600846006835
:1013900040F08070086000BF4448006810F0007F93
:1013A000FAD04248406820F00300404948600846AF
:1013B000406840F00200486000BF3C48406800F0D0
:1013C0000C000828F9D10CBD10B5FFF793FF10BD34
:1013D00010B53648006840F00100344908600846FE
:1013E000406834490840314948600846006832493D
:1013F00008402E4908600846006820F480200860F4
:101400000846406820F4FE0048604FF41F008860E2
:10141000FFF7DAFF4FF000602849086010BD10B5F3
:10142000002100200022214B5B6803F00C0121B158
:10143000042906D0082928D107E0214B214C23603C
:1014400027E01F4B1F4C236023E0184B5B6803F41D
:101450007010164B5B6803F48032022303EB90405C
:1014600022B9194B4343174C23600DE00F4B5B68C7
:1014700013F4003F04D0144B4343124C236003E0A9
:101480000F4B43430F4C236003E00D4B0D4C236087
:1014900000BF00BF054B5B68C3F303130B4CE15C5B
:1014A000084B1B68CB40074C236010BD0010024066
:1014B000002002400000FFF8FFFFF6FE08ED00E00C
:1014C00000127A008000002000093D008400002006
:1014D00008B50121102001F073FA48F23000ADF890
:1014E000000010208DF8030003208DF802006946EB
:1014F000084800F0AFFF4FF40041064801F055F8EE
:101500001021044801F051F82021024801F04DF863
:1015100008BD00000010014008B50121022001F0C3
:101520005CFA01210C2001F04BFAC020ADF800005C
:1015300018208DF8030003208DF802006946374813
:1015400000F088FF0320ADF800006946344800F041
:1015500081FF08BD00B587B040F2E730ADF8140058
:101560004720ADF810000020ADF81600ADF81200CD
:1015700004A92C4801F060FB6020ADF800000120B8
:10158000ADF8020028480088ADF806000020ADF84C
:1015900008006946234801F08CFB0821214801F02E
:1015A000D7FF0120ADF8020020480088ADF8060002
:1015B00069461C4801F0BFFB08211A4801F0D1FF21
:1015C0000120ADF802001A480088ADF8060069460F
:1015D000144801F0FDFB0821124801F0CFFF012063
:1015E000ADF8020013480088ADF8060069460D48C2
:1015F00001F039FC08210B4801F0C9FF012109481D
:1016000001F076FF0121074801F072FE07B000BD2E
:1016100010B5FFF781FFFFF79DFF10BD00080140E7
:10162000000C0140000400409C0000209E000020AF
:10163000A0000020A200002008B50121402001F0F8
:10164000BFF91E20ADF8000048208DF80300694660
:10165000684800F0FFFE08BD10B5044614B1012033
:101660006549087064480078002837D01021614827
:1016700000F081FF78B108215E4800F07CFF50B196
:1016800004215C4800F077FF28B10221594800F09E
:1016900072FF012822D10A2002F048FB002056499F
:1016A00008701021534800F066FF08B9012010BDF2
:1016B0000821504800F05FFF08B90220F7E7042135
:1016C0004C4800F058FF08B90320F0E702214948D0
:1016D00000F051FF01281BD10420E8E71021454804
:1016E00000F049FF012813D10821424800F043FFD0
:1016F00001280DD104213F4800F03DFF012807D10A
:1017000002213C4800F037FF10B901203A49087027
:101710000020CCE70EB5FFF78FFF0121084601F04E
:101720004FF90221042000F0A9FF042001900020BD
:101730008DF808000C208DF8090001208DF80A00B2
:1017400001A800F0A7FD0321042000F097FF082066
:10175000019001A800F09EFD0421084600F08EFFD4
:101760001020019001A800F095FD0121042000F057
:1017700085FF0220019001A800F08CFD07208DF864
:10178000000002208DF8010003208DF802000120E6
:101790008DF80300684600F0B6F908208DF80000C7
:1017A00002208DF801008DF8020001208DF8030061
:1017B000684600F0A8F909208DF8000002208DF895
:1017C000010001208DF802008DF80300684600F04A
:1017D0009AF90A208DF8000002208DF801000020FF
:1017E0008DF8020001208DF80300684600F08BF9A7
:1017F0000EBD000000180140A400002008B54FF401
:10180000E06000F07BF91C208DF8000000208DF8CE
:10181000010003208DF8020001208DF803006846C6
:1018200000F071F908BD0EB50121084601F0D5F8A8
:101830004FF47A70ADF804004720ADF800000020A6
:10184000ADF80600ADF8020069464FF0804001F0A7
:10185000F3F90121880702F011F8012211469007DF
:1018600001F061FD0121880701F042FD0021012006
:1018700001F0B3F80EBD10B5FFF7C0FFFFF7D3FFBF
:1018800010BD000000B589B00121042001F0A5F8C9
:101890000121092001F094F81E208DF8100000208D
:1018A0008DF811008DF8120001208DF8130004A8A6
:1018B00000F029F9C020ADF8200004208DF82300A5
:1018C00003208DF8220008A91E4800F0C3FD42F64F
:1018D000F820ADF818000020ADF81400ADF81A009B
:1018E000ADF8160005A9184801F0A6F90020ADF8DA
:1018F0000400ADF806000120ADF808000020ADF8A6
:101900000A000620ADF80C0001A90F4801F027FCE1
:1019100000231A4603210C4801F09DFD01210A48CD
:1019200001F0ACFF01221146074801F0FCFC41F236
:101930007C51054801F070FF0121034801F0D8FCFB
:1019400009B000BD000C01400008004008B50121AD
:10195000084601F028F801214FF4047001F030F836
:101960000120ADF8000000208DF8030069463948D9
:1019700000F070FD08BD00B591B0374800F054FB91
:1019800036480690364807900020089001200990BC
:1019900000200A900B904FF480700C9080000D9006
:1019A00020200E9000020F900020109006A92A48D7
:1019B00000F0DCFB0121284800F003FC002001902E
:1019C0008DF8080001208DF809004FF46020039085
:1019D0000020049001208DF8140001A91F484C3804
:1019E00000F021F94FF4404000F051FF052301229F
:1019F0000A211A484C3800F0AEF9012117484C383A
:101A000000F048F9012115484C3800F038F9134826
:101A10004C3800F056F900BF10484C3800F056F929
:101A20000028F9D10D484C3800F05AF900BF0B4896
:101A30004C3800F05AF90028F9D1012107484C38F8
:101A400000F05DF911B000BD10B5FFF77FFFFFF7A3
:101A500092FF10BD00100140080002404C240140DC
:101A6000A600002000B58BB00121084600F09BFFC6
:101A70000F4800900F4801901020029023200390FF
:101A800000200490802005900020069007902020E0
:101A90000890C001099000200A906946064800F0AD
:101AA00065FB0121044800F08CFB0BB000BD000079
:101AB00004380140F00000204400024009488047FB
:101AC00009480047FEE7FEE7FEE7FEE7FEE7FEE720
:101AD000FEE7FEE7FEE7FEE704480549054A064B38
:101AE00070470000D11300083101000840020020B7
:101AF00040080020400400204004002031490143F8
:101B0000314A1160704770B5002100230F22C4785C
:101B10000CB32D4C246804F4E064C4F5E064210A9D
:101B2000C1F10403CA40447804FA03F184781440F4
:101B300021430901254C0678A155047804F01F05BE
:101B40000124AC4005786D114FF0E02606EB8505C9
:101B5000C5F8004109E0047804F01F050124AC40F9
:101B60001B4D0678761145F8264070BD194A0A408B
:101B70000243154B1B1F1A60704739B1124A121DE0
:101B800012680243104B1B1D1A6006E00E4A121D1C
:101B9000126882430C4B1B1D1A607047042808D141
:101BA0004FF0E021096941F004014FF0E02211619A
:101BB00007E04FF0E021096921F004014FF0E02235
:101BC000116170470000FA050CED00E000E400E050
:101BD00080E100E080FFFF1F10B50446FA48844210
:101BE00008D10121401500F005FF0021601500F02B
:101BF00001FF17E0F548844208D10121001500F0EB
:101C0000F9FE0021201500F0F5FE0BE0F0488442BB
:101C100008D10121C80300F0EDFE00214FF400407F
:101C200000F0E8FE10BD30B50246002000235068E9
:101C3000E84C20400D790C6844EA052420435060AC
:101C40009068E54C2040D1E902542C434D7944EA98
:101C5000450420439060D06A20F470000C7C641E20
:101C6000E4B2234340EA0350D06230BD002101605A
:101C7000017141718160C16001210174704721B11E
:101C8000826842F00102826003E0826822F0010271
:101C90008260704721B1826842F48072826003E002
:101CA000826822F480728260704710B50023CBB244
:101CB0001AB144681C43446002E044689C43446099
:101CC00010BD816841F00801816070470146002025
:101CD0008A6812F0080F01D0012000E00020704750
:101CE000816841F0040181607047014600208A68E4
:101CF00012F0040F01D0012000E00020704721B154
:101D0000826842F4A002826003E0826822F4A002AA
:101D100082607047014600208A6812F4800F01D06B
:101D2000012000E00020704710B50A460021002382
:101D3000416821F46041531E41EA4331416010BDC6
:101D400021B1426842F40062426003E0426822F43A
:101D5000006242607047F0B504460D460020002145
:101D6000092D11DDE068A5F10A0606EB46070726F6
:101D700006FA07F18843A5F10A0606EB460603FAC0
:101D800006F10843E0600CE0206905EB45070726F3
:101D900006FA07F1884305EB450603FA06F1084306
:101DA0002061072A0FDA606B561E06EB86071F2696
:101DB00006FA07F18843561E06EB860605FA06F179
:101DC0000843606322E00D2A0FDA206BD61F06EB72
:101DD00086071F2606FA07F18843D61F06EB8606FC
:101DE00005FA06F10843206310E0E06AA2F10D064F
:101DF00006EB86071F2606FA07F18843A2F10D06B7
:101E000006EB860605FA06F10843E062F0BD21B153
:101E1000826842F48012826003E0826822F48012B9
:101E2000826070470146C86C80B2704766484C308B
:101E30000068704721B1426842F48062426003E06A
:101E4000426822F480624260704721B1426842F4E5
:101E50008052426003E0426822F480524260704740
:101E60000A460021816821F4E041114381607047F6
:101E700021B1826842F40042826003E0826822F469
:101E800000428260704721B1826842F4021282608F
:101E900003E0826822F4021282607047014600204B
:101EA0008A6812F4001F01D0012000E00020704772
:101EB000F0B504461546002000220026092911DD50
:101EC000E068A1F10A0707EB470C072707FA0CF2B5
:101ED0009043A1F10A0707EB470703FA07F2104303
:101EE000E0600CE0206901EB410C072707FA0CF2D7
:101EF000904301EB410703FA07F210432061A06B06
:101F0000C0F30156EF1C06F1010CA7EB0C0707EB21
:101F1000870C1F2707FA0CF29043EF1C06F1010C07
:101F2000A7EB0C0707EB870701FA07F21043A06342
:101F3000F0BD10B50A4600210023816B21F4401149
:101F4000531E41EA0351816310BD08B5002300937D
:101F50000090009B0B440093009B1A6008BD08B5DD
:101F6000024600200090009201F12800009B1844D6
:101F700000900098006880B208BD0A4600214168C0
:101F8000164B1940114341607047416282627047AD
:101F90000A460021416821F01F011143416070474A
:101FA00040B109490831096841F40001064A083284
:101FB000116007E004490831096821F40001024A70
:101FC00008321160704700000024014000280140E1
:101FD000003C0140FFFEF0FFFDF7F1FFFFFD3FFF7A
:101FE0000246002013680B4201D0012000E00020CF
:101FF0007047CA430260704770B502460020002354
:1020000000240B125568CEB205EA060415681D427D
:1020100002D00CB1012000E0002070BD00220A12A5
:10202000D34303607047000001684FF6FE72114011
:1020300001600021016041608160C1608C4988427B
:1020400008D18B490839496841F00F01884A083A9C
:1020500051608AE086491431884208D184490839A0
:10206000496841F0F001824A083A51607DE08049B8
:102070002831884208D17E490839496841F47061A5
:102080007B4A083A516070E079493C31884208D176
:1020900077490839496841F47041754A083A5160F6
:1020A00063E073495031884208D171490839496861
:1020B00041F470216E4A083A516056E06C4964312F
:1020C000884208D16A490839496841F47001684A70
:1020D000083A516049E066497831884208D164493C
:1020E0000839496841F07061614A083A51603CE042
:1020F0006049884206D1011F096841F00F01021FA3
:10210000116032E05B491431884208D15949091FF6
:10211000096841F0F001574A121F116025E0554946
:102120002831884208D15349091F096841F4706178
:10213000504A121F116018E04E493C31884208D1C4
:102140004C49091F096841F470414A4A121F116045
:102150000BE048495031884207D14649091F0968B8
:1021600041F47021434A121F1160704710B50022DC
:10217000026847F6F0739A430C6A8B6823430C6934
:1021800023434C6923438C692343CC6923434C6A22
:1021900023438C6A23431A430260CB6843600B6875
:1021A00083604B68C36010BD0021016041608160A5
:1021B000C160016141618161C1610162416281620D
:1021C000704721B1026842F00102026004E0026837
:1021D0004FF6FE731A40026070471AB103680B4352
:1021E000036002E003688B430360704741607047FF
:1021F0000146486880B2704701460020002211F075
:10220000805F03D01B4B083B1A6802E0184B083B69
:102210001A680A4201D0012000E00020704710F047
:10222000805F03D01349091F086002E01049083994
:102230004860704701460020002211F0805F03D003
:102240000C4B083B1A6802E0094B083B1A680A422B
:1022500001D0012000E00020704710F0805F03D023
:102260000449091F086002E00149083948607047C5
:102270000800024008040240002044490860091D8B
:102280000860091D0860091D086041483F49143174
:102290000860704700213D498279002A3AD00A46F9
:1022A000126803689A430B461A600A1D1268036895
:1022B0009A430B1D1A60027911440A6803681A4395
:1022C0000A60324A0832126803689A432F4B083377
:1022D0001A601A1D126803689A432C4B0C331A605B
:1022E0004279102A0ED11A1F126803681A43274B2D
:1022F00008331A601A1D126803681A43234B0C3303
:102300001A600DE02149427911440A6803681A43B2
:102310000A6005E0027911440A6803689A430A607A
:1023200070470021016001710C2141710021817110
:1023300070471649103109680143144A1032116080
:10234000704701460020114A143212680A4201D037
:10235000012000E0002070470C49143108607047EC
:10236000014600200022094B1B6803EA0102074BCB
:1023700014331B680B4202D00AB1012000E0002098
:1023800070470249143108607047000000040140A2
:10239000FFFF0F0010B50446CA48844208D101214E
:1023A000042000F027FB0021042000F023FB46E07E
:1023B000C548844208D10121082000F01BFB002100
:1023C000082000F017FB3AE0C048844208D1012100
:1023D000102000F00FFB0021102000F00BFB2EE07E
:1023E000BB48844208D10121202000F003FB0021DA
:1023F000202000F0FFFA22E0B648844208D10121F3
:10240000402000F0F7FA0021402000F0F3FA16E037
:10241000B148844208D10121802000F0EBFA00216C
:10242000802000F0E7FA0AE0AC48844207D101219D
:10243000801500F0DFFA0021A01500F0DBFA10BDD6
:1024400010B50121084600F0D5FA0021012000F066
:10245000D1FA10BD2DE9F0410246002500260020EA
:1024600000230024002791F803C00CF00F0591F819
:1024700003C01CF0100F03D091F802C04CEA050510
:1024800091F800C0BCF1000F31D0146800202BE09F
:102490004FF0010C0CFA00F3B1F800C00CEA03068F
:1024A0009E4220D183004FF00F0C0CFA03F7BC437F
:1024B00005FA03FC4CEA040491F803C0BCF1280FB0
:1024C00006D14FF0010C0CFA00FCC2F814C00AE06F
:1024D00091F803C0BCF1480F05D14FF0010C0CFA84
:1024E00000FCC2F810C0401C0828D1D31460B1F819
:1024F00000C0BCF1FF0F34DD546800202EE000F175
:10250000080C4FF0010808FA0CF3B1F800C00CEA0F
:1025100003069E4221D183004FF00F0C0CFA03F703
:10252000BC4305FA03FC4CEA040491F803C0BCF177
:10253000280F05D100F1080C08FA0CF8C2F8148035
:1025400091F803C0BCF1480F07D100F1080C4FF01F
:10255000010808FA0CF8C2F81080401C0828CED3F5
:102560005460BDE8F0814FF6FF7101800221817057
:102570000421C17070470246002093680B4201D0CD
:10258000012000E0002070470146886880B2704753
:1025900002460020D3680B4201D0012000E0002059
:1025A00070470146C86880B2704701617047416159
:1025B00070470AB1016100E041617047C160704736
:1025C0004FF480320A43826181618261826982694B
:1025D000704702460020424B18684FF6807318403F
:1025E00040EA021008433E4B186070473D49C861FD
:1025F0007047F0B50A46002300240021002500F0B2
:102600000046B6F1004F02D1354EF16901E0344E7B
:102610007168C0F3034583B200F44016B6F5401F5D
:1026200008D121F070612E4E766826F070662C4F2E
:102630007E6012E000F48016B6F5801F06D10326F6
:1026400006FA05F4A14341F0706106E0460D36013B
:1026500003FA06F6B14341F0706122B1460D36012E
:1026600003FA06F6314300F00046B6F1004F02D1FE
:102670001B4EF16101E01A4E7160F0BD30B50022D1
:102680008B071C0F0F2303FA04F2154B08338C1031
:1026900053F824309343124C08348D1044F82530FD
:1026A00023468C1053F824308C07240F00FA04F4CE
:1026B00023430B4C08348D1044F8253030BD0A49B3
:1026C0000860704700080140000C01400010014004
:1026D0000014014000180140001C0140002001408E
:1026E0000000014000002042DC002042DD4800687C
:1026F00040F00100DB49086008464068DA490840BC
:10270000D849486008460068D8490840D54908605B
:102710000846006820F4802008600846406820F4DD
:10272000FE0048604FF41F0088607047CD4909687B
:1027300021F48031CB4A11601146096821F48021CF
:102740001160B0F5803F03D0B0F5802F0ED106E0C8
:10275000C449096841F48031C24A116007E0C149A7
:10276000096841F4A021BF4A116000E000BF00BF2A
:10277000704710B501460022002300204A11012AAB
:1027800002D1B84C236806E0022A02D1B54C236A74
:1027900001E0B44C636A01F01F02012494401C4222
:1027A00001D0012000E0002010BD38B500200090CD
:1027B0000024002500BF3120FFF7DBFF054600980D
:1027C000401C00900098B0F5A06F01D0002DF2D011
:1027D0003120FFF7CEFF08B1012400E0002420469D
:1027E00038BD014600209F4A106820F0F80040EAFA
:1027F000C100106070479E49086070470246002083
:10280000984B586820F47C1042EA01031843954B1A
:102810005860704796490866704701460020914A03
:10282000506820F003000843506070478D484068AE
:1028300000F00C007047014600208A4A506820F0E2
:10284000F00008435060704701460020854A5068F8
:1028500020F4E06008435060704701460020814A40
:10286000506820F4605040EAC1005060704729B1C0
:102870007C4A527A02437B4B5A7204E0794A527A7C
:102880008243784B5A7270477A4908607047014614
:102890000020744A506820F440400843506070475C
:1028A0000021754A11706F4A82F82010012802D069
:1028B000042808D103E001216F4A117004E00521CA
:1028C0006D4A117000E000BF00BF70476B4908609F
:1028D00070476449096A0143624A11627047674957
:1028E00044390860704730B50021002200240023DD
:1028F0005C4D6D6805F00C0121B1042905D0082953
:1029000023D105E05E4D056022E05D4D05601FE0CE
:10291000544D6D6805F47012524D6D6805F48034A5
:10292000022505EB92421CB9564D554305600BE05C
:102930004C4D6D6815F4003F03D0524D5543056072
:1029400002E04F4D5543056002E04D4D056000BF6C
:1029500000BF444D6D6805F0F00109094A4D6B5CFC
:102960000568DD4045603F4D6D6805F4E061090A8A
:10297000454D6B5C4568DD4085603A4D6D6805F4FA
:102980006051C90A404D6B5C4568DD40C560354DFE
:102990006D6805F44041890B3C4D6B5CC568B5FB27
:1029A000F3F5056130BD29B12E4A526902432D4B22
:1029B0005A6104E02B4A526982432A4B5A6170479C
:1029C00029B1284A92690243264B9A6104E0254ABC
:1029D00092698243234B9A61704729B1214AD26997
:1029E0000243204BDA6104E01E4AD26982431D4B48
:1029F000DA61704729B11B4AD2680243194BDA6089
:102A000004E0184AD2688243164BDA60704729B155
:102A1000144A12690243134B1A6104E0114A126905
:102A20008243104B1A61704714494039086070475F
:102A30000F49C86470470B49C87170470948406A1C
:102A400040F0807007494862704701460020054AFF
:102A500092680A4201D0012000E00020704701493D
:102A600088727047001002400000FFF8FFFFF6FE7A
:102A700000004242D80042422010024080044242FC
:102A800000127A0000093D00A8000020B8000020D4
:102A900010B50446FE48844208D10121C014FFF756
:102AA000A9FF0021E014FFF7A5FFC4E0B4F1804FB7
:102AB00008D101210846FFF7AAFF00210120FFF7F6
:102AC000A6FFB8E0F348844208D101210220FFF7B5
:102AD0009EFF00210220FFF79AFFACE0EE488442FF
:102AE00008D101210420FFF792FF00210420FFF705
:102AF0008EFFA0E0E948844208D101210820FFF7B9
:102B000086FF00210820FFF782FF94E0E44884421A
:102B100008D101211020FFF77AFF00211020FFF7D4
:102B200076FF88E0DF48844208D101212020FFF7AA
:102B30006EFF00212020FFF76AFF7CE0DA48844224
:102B400008D101214014FFF755FF00216014FFF761
:102B500051FF70E0D548844209D10121C804FFF734
:102B600049FF00214FF40020FFF744FF63E0D04805
:102B7000844209D101210805FFF73CFF00214FF4F1
:102B80008010FFF737FF56E0CA48844209D101217F
:102B90004805FFF72FFF00214FF40010FFF72AFF31
:102BA00049E0C548844208D101214020FFF72FFFAA
:102BB00000214020FFF72BFF3DE0C048844208D1B0
:102BC00001218020FFF723FF00218020FFF71FFF56
:102BD00031E0BB48844208D101218015FFF717FF7F
:102BE0000021A015FFF713FF25E0B648844209D164
:102BF00001210804FFF7FEFE00214FF48030FFF7AB
:102C0000F9FE18E0B048844209D101214804FFF7D9
:102C1000F1FE00214FF40030FFF7ECFE0BE0AB4873
:102C2000844208D101218804FFF7E4FE00214FF41B
:102C30008020FFF7DFFE10BD00220288944B9842EF
:102C40000ED0994B98420BD0B0F1804F08D0914BE9
:102C5000984205D0904B984202D0904B984204D1B4
:102C60004FF68F731A404B881A438D4B984207D00A
:102C70008C4B984204D04FF6FF431A40CB881A433E
:102C800002808B8883850B880385814B98420BD00B
:102C9000854B984208D08B4B984205D08A4B98427E
:102CA00002D08A4B984201D10B7A0386012383829A
:102CB000704770B5002400220023058C4FF6FE7685
:102CC00035400584028C8388048B4FF68F752C4029
:102CD000B51E2C400D882C43751E2A400D892A43B1
:102CE0004D882A436A4DA8420BD06F4DA84208D0A8
:102CF000744DA84205D0744DA84202D0734DA8422D
:102D000013D14FF6F7752A404D892A434FF6FB75CC
:102D10002A408D882A434FF6FF652B404FF6FF551A
:102D20002B408D892B43CD892B4383800483CD8811
:102D30008586028470BD70B5002400220023058CB6
:102D40004FF6EF7635400584028C8388048B48F675
:102D5000FF752C404FF6FF452C400D884FF6FF764F
:102D600006EA05252C434FF6DF752A400D8906EA51
:102D700005152A434D8806EA05152A43444DA84205
:102D800002D0494DA8421DD14FF67F752A404D898A
:102D90004FF6FF7606EA05152A434FF6BF752A401F
:102DA0008D8806EA05152A434FF6FF352B404FF272
:102DB000FF752B408D8906EA85052B43CD8906EAF0
:102DC00085052B4383800483CD880587028470BDED
:102DD00070B5002400220023058C4FF6FF663540B5
:102DE0000584028C8388848B4FF68F752C404FF6B8
:102DF000FC752C400D882C434FF6FF552A400D8959
:102E00004FF6FF7606EA05252A434D8806EA052592
:102E10002A431F4DA84202D0234DA8421DD14FF294
:102E2000FF752A404D894FF6FF7606EA05252A43AD
:102E30004FF6FF352A408D8806EA05252A434EF6CF
:102E4000FF752B404DF6FF752B408D8906EA051561
:102E50002B43CD8906EA05152B4383808483CD88D7
:102E60008587028470BD70B5002200230024058C84
:102E70004EF6FF7635400584038C8488828B48F6B5
:102E8000FF752A404FF6FF452A400D8820E00000DC
:102E9000002C01400004004000080040000C0040ED
:102EA000001000400014004000340140004C01407C
:102EB000005001400054014000180040001C004038
:102EC0000020004000400140004401400048014013
:102ED0004FF6FF7606EA05252A434DF6FF752B408F
:102EE0000D8906EA05352B434D8806EA05352B4347
:102EF000FA4DA84202D0FA4DA84208D14BF6FF7510
:102F00002C408D894FF6FF7606EA85152C43848088
:102F10008283CD88A0F84050038470BD828B4FF22D
:102F2000FF331A408283828B4FF6FF7303EA01233B
:102F30001A4382837047F0B50C46154600220021E3
:102F40000026078C4EF6FF7C07EA0C070784828B6D
:102F5000018C4FF6FF7707EA043640F6FF473A4008
:102F60004FF6FF7707EA05273A434FF6FF7707EA60
:102F700003373A43D94FB8420ED0D94FB8420BD09D
:102F8000B0F1804F08D0D74FB84205D0D64FB842E5
:102F900002D0D64FB84206D14DF6FF77394046F4FD
:102FA0008057394305E047F6FF57394044F48057CE
:102FB000394382830184F0BD828B4FF6F3731A404C
:102FC0008283828B0A4382837047F0B50C46154694
:102FD000002200210026078C4FF6FF6C07EA0C0741
:102FE0000784828B018C4FF6FF7707EA04264FF6A1
:102FF0000C773A404FF6FF7707EA03172F433A431F
:10300000B64FB8420ED0B64FB8420BD0B0F1804F99
:1030100008D0B44FB84205D0B34FB84202D0B34F36
:10302000B84206D14FF6FF57394046F4807739430E
:1030300005E04FF2FF57394044F4807739438283EB
:103040000184F0BD028B4FF2FF331A400283028BE2
:103050004FF6FF7303EA01231A4302837047F0B56A
:103060000C461546002200210026078C4FF6EF7C07
:1030700007EA0C070784028B018C4FF6FF7707EAFB
:10308000041640F6FF473A404FF6FF7707EA03374A
:103090003A434FF6FF7707EA05273A438F4FB84286
:1030A0000ED08F4FB8420BD0B0F1804F08D08D4F6B
:1030B000B84205D08C4FB84202D08C4FB84206D1EE
:1030C0004FF6DF77394046F01007394305E04FF6F9
:1030D0005F77394044F01007394302830184F0BD23
:1030E000028B4FF6F3731A400283028B0A4302836A
:1030F0007047F0B50C46154600220021068C4FF6AD
:10310000FE773E400684028B018C4FF60C763240EF
:103110007E1C06EA03162E433243704EB0420ED098
:103120006F4EB0420BD0B0F1804F08D06D4EB04220
:1031300005D06D4EB04202D06C4EB04206D14FF673
:10314000FD76314044F00106314305E04FF6F57657
:10315000314044F00106314302830184F0BD70B573
:1031600005460C465D4885420ED05D4885420BD031
:10317000B5F1804F08D05B48854205D05A4885425A
:1031800002D05A48854200D100E000BF208850B9E3
:103190002389A28861882846FFF7ABFFE18828468B
:1031A000FFF79EFF25E0208804280AD12389A28802
:1031B00061882846FFF753FFE1882846FFF742FF62
:1031C00017E0208808280AD12389A2886188284628
:1031D000FFF7FBFEE1882846FFF7EEFE09E02389B2
:1031E000A28861882846FFF7A6FEE1882846FFF7F7
:1031F00095FE70BD2DE9F04105460C4600260127DD
:10320000608808B9022600E00026A088012801D1C4
:10321000022700E001272088A0B92389A2886188BD
:103220002846FFF766FFE1882846FFF759FF238904
:103230003A4631462846FFF712FFE1882846FFF755
:1032400001FF13E02389A28861882846FFF707FF62
:10325000E1882846FFF7F6FE23893A46314628469C
:10326000FFF747FFE1882846FFF73AFFBDE8F08106
:103270000A884B881A438B881A43CB881A430B89D8
:103280001A434B891A438B891A43A0F8442070478C
:103290004FF6FF71818000210180C1804180017261
:1032A00070470021018041808180C180018141817E
:1032B0008181C1817047002101804180012181808D
:1032C0000021C180018170470021018041808180FF
:1032D000C18001814181818170470000002C014043
:1032E000003401400004004000080040000C004091
:1032F00021B1028842F00102028004E002884FF608
:10330000FE731A400280704731B1B0F8442042F495
:103310000042A0F8442005E0B0F84420C2F30E02B9
:10332000A0F8442070471AB183890B43838102E0DF
:1033300083898B43838170478182704741EA02030E
:10334000A0F8483070471AB183890B43838102E0AB
:1033500083898B438381704701894FF6F87211404E
:10336000018170470A46002101894FF68F73194089
:1033700011430181704730B504460D462946204669
:10338000FFF7F0FF208940F00700208130BD2DE9D4
:10339000F04104460D4616461F46602D06D13B46B9
:1033A000012231462046FFF75AFE05E03B46012246
:1033B00031462046FFF79DFE29462046FFF7D2FF03
:1033C000208940F007002081BDE8F08130B50C462F
:1033D00000210189C9B24FF6FF7505EA032515439F
:1033E00025432943018130BD2DE9F04105460E46B4
:1033F00017469846002443463A4631462846FFF78A
:10340000E5FF2C894FF6F870044044F007044FF6AE
:103410008F70044044F070042C81BDE8F081F0B559
:1034200004460D4616461F463B4632462946204670
:10343000FFF7CCFF208940F480402081F0BD01855A
:10344000828270470A46002101884FF68F73194027
:10345000114301807047F0B50C4615461E46002109
:10346000002200230189028B038C4FF6F877394044
:1034700021434FF6FC473A4040F201173A434FF6DA
:10348000DD773B404FF6FF7707EA06172F433B43B4
:10349000018102830384F0BD0A460021018B4FF6AF
:1034A0008F7319401143018370470A460021018B35
:1034B00048F6FF7319404FF6FF7303EA02231943DE
:1034C000018370470A460021818B4FF68F731940A4
:1034D0001143818370470A460021818B48F6FF73B0
:1034E00019404FF6FF7303EA0223194381837047A3
:1034F00021B1028842F08002028004E002884FF687
:103500007F731A400280704721B1828842F0040222
:10351000828004E082884FF6FB731A4082807047F5
:1035200021B1828842F00802828004E082884FF64E
:10353000F7731A408280704721B1828842F00102FD
:10354000828004E082884FF6FE731A4082807047C2
:103550000A460021018B4FF6F7731940114301838E
:1035600070470A460021018B4FF2FF7319404FF656
:10357000FF7303EA02231943018370470A460021BF
:10358000818B4FF6F77319401143818370470A46C8
:103590000021818B4FF2FF7319404FF6FF7303EA4E
:1035A00002231943818370470A460021018B4FF69D
:1035B000FB7319401143018370470A460021018BB8
:1035C0004FF6FF3319404FF6FF7303EA0223194306
:1035D000018370470A460021818B4FF6FB73194027
:1035E0001143818370470A460021818B4FF6FF33D8
:1035F00019404FF6FF7303EA022319438183704792
:103600000A460021018B4FF67F7319401143018355
:1036100070470A460021018BC1F30E014FF6FF737C
:1036200003EA02231943018370470A460021818B74
:103630004FF67F7319401143818370470A4600217A
:10364000818BC1F30E014FF6FF7303EA0223194386
:10365000818370470A460021018C4FF6FD731940A3
:103660001143018470470A460021018C4FF6F7731D
:1036700019401143018470470A460021018C4FF61E
:10368000DF7319404FF6FF7303EA021319430184F5
:1036900070470A460021018C4FF67F7319404FF6A0
:1036A000FF7303EA02131943018470470A4600219D
:1036B000018C4FF6FF5319404FF6FF7303EA0223C4
:1036C0001943018470470A460021018C4FF2FF73B1
:1036D00019404FF6FF7303EA022319430184704730
:1036E0000A460021018C4DF6FF7319404FF6FF7317
:1036F00003EA023319430184704730B500230124E3
:103700008C40A3B2048C9C430484048C02FA01F51F
:10371000ADB22C43048430BD30B5002304248C406A
:10372000A3B2048C9C430484048C02FA01F5ADB26C
:103730002C43048430BD70B5034600200024184695
:10374000183001258D40ACB21D8CA5431D8409B1F4
:10375000082909D100EB6100056825F070050560B6
:103760000568154305600EE00D1FC5F34E0528449E
:10377000056825F4E045056005684FF6FF7606EA22
:1037800002263543056070BD21B1028842F0020275
:10379000028004E002884FF6FD731A4002807047F1
:1037A00021B1028842F00402028004E002884FF650
:1037B000FB731A400280704721B1828842F0800278
:1037C000828004E082884FF67F731A4082807047BF
:1037D00002884FF6F7731A40028002880A4302807B
:1037E000704782884FF68F731A40828082880A431E
:1037F0008280704702894FF6F8731A40028102896D
:103800000A430281704702894FF67F731A40028192
:1038100002890A430281704781847047818570471D
:10382000818670470187704781877047A0F84010F4
:10383000704702884FF6FF431A40028002880A430D
:10384000028070470146888E70470146088F704796
:103850000146888F70470146B1F840007047014625
:10386000888C70470146088D704702460020138AF5
:103870000B4201D0012000E000207047CA430282C1
:10388000704730B50246002000230024158A05EA5F
:103890000103958905EA010413B10CB1012000E090
:1038A000002030BDCA4302827047000010B50446B4
:1038B000FB48844209D101218803FFF79BF80021CE
:1038C0004FF48040FFF796F832E0F648844209D181
:1038D00001214804FFF79BF800214FF40030FFF767
:1038E00096F825E0F048844209D101218804FFF7C9
:1038F0008EF800214FF48020FFF789F818E0EB489C
:10390000844209D10121C804FFF781F800214FF456
:103910000020FFF77CF80BE0E548844208D1012144
:103920000805FFF774F800214FF48010FFF76FF8D7
:1039300010BD2DE9F04786B005460E460024A2468C
:1039400000BFA1460027B08900B100BF2F462C8AD6
:103950004CF6FF700440F08804432C82AC894EF68C
:10396000F3100440B0883189084371890843044347
:10397000AC81AC8A4FF6FF400440B0890443AC826E
:1039800001A8FEF7B0FFC648874202D1DDF810A0BB
:1039900001E0DDF80CA0A88910F4004F08D00AEB74
:1039A000CA0000EB0A1031684900B0FBF1F807E0EB
:1039B0000AEBCA0000EB0A1031688900B0FBF1F88D
:1039C0006420B8FBF0F004012009642101FB108998
:1039D000A88910F4004F08D0322000EBC900B0FBDA
:1039E000F1F000F00700044308E0322000EB09107A
:1039F0006421B0FBF1F000F00F0004432C8106B00D
:103A0000BDE8F0874FF41651016000218180C1802C
:103A100001810C21418100218181704710B502464E
:103A20000020108A4FF2FF0318400B884C88234374
:103A30008C882343CC8823431843108210BD002177
:103A4000018041808180C180704721B1828942F428
:103A50000052828104E082894DF6FF731A40828110
:103A60007047F0B503460024002600250020A1F58C
:103A700010676A3F00D100BF1846C1F3421401F03D
:103A80001F06012707FA06F5012C01D10C3004E0CE
:103A9000022C01D1103000E014301AB107682F4316
:103AA000076002E00768AF430760F0BD1AB1838A80
:103AB0000B43838202E0838A8B4383827047028AAE
:103AC0004FF6F0731A400282028A0A43028270475C
:103AD00082894FF2FF731A40828182890A43828170
:103AE000704721B1828942F00202828104E082891A
:103AF0004FF6FD731A4082817047028A4FF6DF73DA
:103B00001A400282028A0A430282704721B1028A65
:103B100042F48042028204E0028A4BF6FF731A40AC
:103B200002827047C1F3080282807047014688888C
:103B3000C0F308007047818941F00101818170471D
:103B4000028BD2B20283028B42EA012202837047C7
:103B5000028B02F47F420283028B0A430283704786
:103B600021B1828A42F02002828204E0828A4FF6EA
:103B7000DF731A408282704721B1828A42F01002BC
:103B8000828204E0828A4FF6EF731A408282704785
:103B900021B1828A42F00802828204E0828A4FF6D2
:103BA000F7731A408282704721B1828942F4004241
:103BB000828103E08289C2F30E028281704721B1C3
:103BC000828A42F40062828204E0828A4FF2FF73AA
:103BD0001A4082827047828A4FF6FB731A408282B3
:103BE000828A0A438282704721B1828A42F00202AD
:103BF000828204E0828A4FF6FD731A408282704707
:103C000002460020B1F5007F00D100BF13880B42AF
:103C100001D0012000E00020704701F40072B2F5ED
:103C2000007F00D100BFCA430280704770B50246D2
:103C30000024002300250020A1F510666A3E00D173
:103C400000BFC1F3421501F01F03012606FA03F37A
:103C5000012D02D19689334006E0022D02D1168A49
:103C6000334001E0968A33400C12012606FA04F430
:103C70001688344013B10CB1012000E0002070BD63
:103C800010B500220023A1F510646A3C00D100BFEA
:103C90000A1201249440A3B2DC43048010BD00004A
:103CA000003801400044004000480040004C004003
:103CB0000050004010B56FF00400FDF76FFF2D4875
:103CC00000682D49B0FBF1F02C49087008460078D7
:103CD00000EB4001C1EBC0104FF6FF7101EAC000DC
:103CE0002749088010BD0146244A12784A434FF004
:103CF000E0235A6100229A611A46126942F00102D9
:103D00001A6100BF4FF0E022106910F0010F02D0DD
:103D100010F4803FF6D04FF0E022126922F0010249
:103D20004FF0E0231A6100229A6170470146144A5D
:103D300012884A434FF0E0235A6100229A611A46E2
:103D4000126942F001021A6100BF4FF0E0221069CF
:103D500010F0010F02D010F4803FF6D04FF0E022B7
:103D6000126922F001024FF0E0231A6100229A61E9
:103D7000704700008000002000127A00BC00002084
:103D8000BE00002010B54FF4A060FDF7B7FE10BDD7
:103D9000014600BF704700BF494A128812F0400F29
:103DA000FAD0C2B2464B1B1D1A80704710B586B0C0
:103DB0000446012144F20400FEF702FE4FF40070B5
:103DC000ADF8140003208DF8160018208DF81700A8
:103DD00005A93C48FEF73EFB4FF48060ADF81400A7
:103DE00004208DF8170005A93648FEF733FB25207F
:103DF0008DF8000003208DF801008DF802000120ED
:103E00008DF803006846FDF77EFE01940020ADF8B2
:103E10000800ADF80A00ADF80C00ADF810000C2059
:103E2000ADF80E0001A92648FFF783FD012240F2FC
:103E300025512348FFF715FE01212148FFF705FE14
:103E400006B010BD10B540F225511D48FFF7EEFE3B
:103E500010B31B48FFF76AFEC4B21B48008810F479
:103E6000004F2BD11848008810F4804F0CD00A2C3A
:103E700003D000201449088020E01348008840F453
:103E800000401149088019E00D2C06D10E48008829
:103E900040F480400C49088010E00B480088C0F3D3
:103EA0000D000A490C5408480088401C0649088047
:103EB00008460088C72801DD0020088010BD0000EA
:103EC0000038014000080140C0000020130100201C
:103ED000704700000FB4044910B503AA029800F01F
:103EE00009F810BC5DF814FBC4000020704770474F
:103EF00070477047074B70B50D467B4400F011F8D2
:103F00000446284600F020F810B14FF0FF3070BD95
:103F1000204670BD99FEFFFF01694A1C02610878C6
:103F2000704700B58FB0CDE90131002105910549F9
:103F30007944CDE903101146684600F02EF80FB021
:103F400000BD0000E5FFFFFF007B00F08000704730
:103F5000754600F03BF8AE4605006946534620F032
:103F60000700854618B020B5FDF7B6FDBDE8204036
:103F70004FF000064FF000074FF000084FF0000B25
:103F800021F00701AC46ACE8C009ACE8C009ACE8D8
:103F9000C009ACE8C0098D4670472DE9F0410646DE
:103FA0000024D6E90170F568804602E04146B84732
:103FB000641C3046A8470028F8D12046BDE8F081AF
:103FC0000446AFF300802046FCF7F9F8004870473C
:103FD000DC01002021F00042A2F16052B2F5801F06
:103FE00001F0004328BFD2F17F6C0BD95FEA001CBF
:103FF00043EAC20242EB507018BF704728BF20F05E
:1040000001007047B2F5801FBCBF184670474FEAE9
:10401000410C1CF5001F02D2084600F040BD70B5EF
:1040200000F074F900000089FFF7F6BF4FF0004080
:10403000A0F580007047000010B591EA030F48BF5B
:1040400083F0004300F1BE81841A71EB030C05D2AA
:10405000121943EB0C03001B61EB0C01DFF824E1A8
:104060004FEA1154A4EB135C1EEA430F18BF9EEAFB
:10407000445F73D023EA0E03DCF1200E21EA0451E1
:1040800043F4801332D322FA0CFE10EB0E0023FA15
:104090000CFE41EB0E01CCF1200E03FA0EFE10EBEC
:1040A0000E0051F10001B1F5801FCCF1200E32D28B
:1040B00001EB045112FA0EF2BDE8104058BF7047F0
:1040C000401C38BF5FEA420218BF7047002814BF87
:1040D00020F0010041F100014FEA410313F5001FF8
:1040E00038BF7047A1F1C04100F05EB9012A43EB2F
:1040F0000302ACF1200CDCF11F0E32BF4FF0000EBA
:1041000023FA0CF310EB030041EB0451B4EB115F05
:10411000D0D0A1EB045101F5801149085FEA3000CD
:1041200001EB04510ED350F1000038BF12FA0EFE1D
:1041300008D1BDE81040C9E7401C38BF5FEA420221
:10414000CAD1C3E7BDE810404FEA410313F5001F91
:1041500038BF7047A1F1C04100F026B99EEA445F24
:1041600008D011EA5E0FBDE8104004BF01F0004125
:1041700000207047BDE8104070B500F0C7F800BFE0
:1041800064FBBE3E0000E0FF10F0004248BF40422A
:10419000B0FA80F310FA03F10AD0C3F11D0303F55E
:1041A00080634FEA415002EB035202EBD12170478A
:1041B0004FF0000070470000DFF848C170B51CEAFE
:1041C000111E1EBF1CEA13159EEA0C0F95EA0C0F78
:1041D00000F06F8081EA030423EA4C134EEAD47E98
:1041E00021EA4C1141F4801143F48013AE44A1FB49
:1041F000024CA0FB0365AEF17F7E361955EB0C0532
:10420000A1FB034C4CF10003A0FB021C16EB0C06B7
:10421000654153F10003094218BF46F0010613F44B
:10422000007F0BD14FEA03314FEA0530340341EAF6
:10423000155140EA16506FF003020AE04FEAC3211D
:104240004FEAC520F40241EA555140EA56506FF05A
:10425000020202EB2E4201EB025585EACE710AD032
:104260005FEA440C18BF24F0004450F1000041F113
:10427000000120EAD47040F2FE7C624500D270BD9D
:10428000A84214BF4FF080444FF04044002E08BFB6
:104290000024BEF1806FA8BFA1F1C041BDE870400D
:1042A00080F282804FF0000001F1C04101F0004136
:1042B00070479EEA0C0F0CEA131518BF95EA0C0F15
:1042C00006D04FF0000081EA030E0EF0004170BDF1
:1042D00000F01CF88900013E00F007B800F009B8B2
:1042E0004FEA430C5FEA5C5C08D081EA030100F00E
:1042F0005BB84FEA410C5FEA5C5CF6D14FF000001E
:10430000014970470000FF070000F87F0EF1020E20
:104310002EF0030E5EF8046B364205D4012A43EBFF
:10432000030515F5001F12D8012841EB010C1CF5FF
:10433000001F0CD80ED14FEAD17C15F5001F0CEBF5
:104340004C0C0CF1020C08BF4CEBD37C04E04FF09A
:10435000080C01E04FEAD37C0CEB4C0526FA05F67D
:1043600006F00706B6F1040C06D20EEB860CBDE88B
:1043700070404CF0010C6047DFE80CF0090B0202C2
:104380004FF000414FF00000A1F5002170BD19462B
:104390001046012851EB010418BFD4F5001484BF66
:1043A000002001F0004170BD0808A0F500114FEA9F
:1043B0003101704710B591EA030F48BF83F0004305
:1043C0003FF542AE841A71EB030C07D212198CF040
:1043D000004C43EB0C03001B61EB0C01DFF8A4E184
:1043E0004FEA1154A4EB135C1EEA430F18BF9EEA78
:1043F000445F00F0B08023EA6E03524221EA045188
:10440000C3EB6E0338BF5B1EDCF1200E25D322FA0E
:104410000CFE10EB0E0043FA0CFE41EB0E01CCF14A
:10442000200E03FA0EFE10EB0E0051F10001CCF14C
:10443000200E29D412FA0EF201EB0451BDE810400F
:1044400058BF7047401C1CBFB2F1004F7047002896
:104450000CBF491C20F00100704712EB020E43EB29
:10446000030218BF4FF0010E4EEA4202ACF1200CDD
:10447000DCF11E0E54D943FA0CFE10EB0E0051F184
:10448000FF31CCF11E0ED5D50EF1010E12FA0EFE43
:10449000404141EB010101EB445C5FEA5C5C10D9F7
:1044A00010EBDE7001EB045138BFBEF1004FBDE8E8
:1044B000104018BF704700280CBF491C20F00100B5
:1044C000704730D24FEAD42C11F5001124F4006467
:1044D0001BD0B1FA81F20B3AA41AA41ED2F1200328
:1044E000914030FA03F31943904001EBCC71002C5A
:1044F00001EB0451BDE81040A8BF704701F1C04175
:104500004FF0000001F000417047B0FA80F310FA5C
:1045100003F100D110BDE41A173C4805C90AE4E7CD
:1045200001EB045110BD491001EB0451BDE81040EE
:104530004FEA300002E04FF0000170474A0008BF28
:104540000042F8D0B2F5001F28BF704701F00041CB
:104550004FF0000070479EEA445F07D011EA5E0FFB
:10456000BDE8104004BF002100207047BDE81040A6
:1045700070B5FFF7CBFE00BF40DFF63E83F0004191
:10458000104670470000E0FF43004FEAD30C4FEAAB
:104590003C0C43401FBF40070CF1605113F0FE4F2D
:1045A00070471CF0006F03D100200CF000417047F1
:1045B0000CF0004343EA507010B540EACC0000F024
:1045C00028FA00BF000000924FEA0001FFF7ECBE9E
:1045D0004FF000414FF00000A1F5002170470000AE
:1045E00090EA010F48BF81F0004100F19682421A23
:1045F0003CBF801A89184FEAD0524FF07F4C1CEA1A
:10460000410FA2EBD15318BF9CEA026F00F03B8030
:104610004FF0004C4CEA00204CEA012121FA03FC47
:1046200010EB0C0C1ED202F1FF325FEA1C2040EBB3
:10463000C25038BF70471CF07F0F4FEA400C18BFC4
:10464000BCF17F4F38BF7047C3F12003994008BFCA
:1046500020F00100BCF17F4F38BF7047A0F1C0408F
:1046600000F01DBA4FEA3C00000A40EBC25028BFE0
:104670001CF0FF0F4FEA400CE6D018BFBCF17F4F93
:1046800038BF7047EAE79CEA026F05D010EA5C0F7A
:1046900008BF00F00040704710B500F0BAF900BF45
:1046A00064FBBE3E401058BFC0F14040491058BFA7
:1046B000C1F140418142EFF3008070474FF47F0C1D
:1046C0001CEAD0121EBF1CEAD11392EA0C0F93EA27
:1046D0000C0F00F0858090EA010F48BF42F4807211
:1046E00040F4000C41F400002CF07F4120F07F40AA
:1046F00000B58142A2EB03020FF2081CACEB504E56
:10470000C0F100009EF800E04FEA4E0E00FB0EFCE8
:1047100038BF49004FEA2C1C02F5FA020CFB0EF3DD
:104720004FEACE1E4FEA112C4FEAC1210EEB635E19
:1047300042EB22420EFB0CFC4FEA1C5300FB031120
:104740004FEA112C4FEA01310EFB0CFC4FEADC4C16
:1047500000FB0C11C14228BF09184CEB03335DF874
:1047600004EB10EB410143EBC250B2F57C0F38BFB4
:10477000704729D512F0F00F1CBF00F1C04000F0C7
:1047800000407047008182838485868788898B8C6E
:104790008D8E8F919293959697999A9C9D9FA0A2AA
:1047A000A3A5A7A8AAACAEB0B2B3B5B7B9BCBEC0FA
:1047B000C2C5C7C9CCCED1D4D7D9DCDFE2E6E9EC9B
:1047C000F0F3F7FAFE0000004FEA400C0CF1807C99
:1047D000BCF17E4F28BF7047B0F1C04000F05FB918
:1047E00090EA010F0CEAD11348BF42F4807262458F
:1047F00038BF634507D213F47F0F16D080EA01005B
:1048000000F00040704710B500F003F9097EFC3E4F
:1048100000F005B880EA010000F00040704780EA2F
:10482000010000F0004000F03AB912F47F0F04BF1D
:104830000248704780EA010000F031B90000C07FF3
:1048400041000B0ED3F19E0208D950F400034FEA49
:10485000032323FA02F048BF4042704710B500F02E
:10486000D8F800BF49922480002070476FF00042C2
:1048700082EA20007047000010F0004148BF40422B
:10488000B0FA80F310FA03F2C3F19D030BD051EAA2
:10489000C35101EB1220530638BF704700F10100ED
:1048A00008BF20F00100704750EA010C00F11380AE
:1048B0001CF5000F58BFBCF5000F01D488427047AB
:1048C00007D710F5000F58BF11F5000F15D4884217
:1048D0007047894270471CF5000F04D5BCF5000FE6
:1048E000F7D5814270474FF0807C1CEB400F38BFFA
:1048F0001CEB410F01D28142704710B500F089F8DE
:10490000922449004FF000504FF08051FFF7CABE8B
:104910004FF47F0C1CEAD0121EBF1CEAD11392EA9E
:104920000C0F93EA0C0F00F0478090EA010F48BF8C
:1049300042F480724FF0004C4CEA00204CEA012116
:1049400002EB0302A0FB0113A2F50002002918BF2D
:1049500043F001035B0028BF4FEA330342EB2242DE
:104960005FEA132C4CEBC2502EBFBCEB436FB2F589
:104970007C0F70474FEA036CBCF1004F08BF20F07A
:104980000100B2F57C0F38BF70470BD582F0FF02F3
:1049900012F5803FC8BF704700F1C040D8BF00F09B
:1049A0000040704700F5000C5FEA4C0C48BF7047B0
:1049B000B0F1C04000F073B890EA010F0CEAD113D7
:1049C00048BF42F48072624538BF634504D280EA32
:1049D000010000F00040704710B500F01AF800BF69
:1049E0008900013E00F007B800F009B85FEA410C09
:1049F0005FEA1C6C08D080EA010000F050B85FEA62
:104A0000400C5FEA1C6CF6D14FF00040A0F580002E
:104A100070470EF1020E2EF0030E5EF8044B244296
:104A200004D44FEA4102B2F17F4F11D84FEA40035C
:104A3000B3F17F4F0CD80ED14FEAD07CB2F17F4F4B
:104A40000CEB4C0C0CF1020C08BF4CEBD17C04E0DD
:104A50004FF0080C01E04FEAD17C0CEB4C0324FA38
:104A600003F404F00704B4F1040C06D20EEB840C3A
:104A7000BDE810404CF0010C6047DFE80CF007087F
:104A800002024FF00040A0F5800010BD0846420031
:104A900018BFD2F1807288BF00F0004010BDFF2126
:104AA00041EAD050C005704751EA000C00F1138074
:104AB0001CF5000F58BFBCF5000F01D481427047B0
:104AC00007D711F5000F58BF10F5000F15D481421C
:104AD0007047894270471CF5000F04D5BCF5000FE4
:104AE000F7D5884270474FF0807C1CEB410F38BFF0
:104AF0001CEB400F01D28842704780EA010081EA36
:104B0000000180EA0100FFF7F8BE000090EA010F03
:104B100048BF81F000413FF56AAD421A04D882F0E7
:104B20000042A0EB020011444FEAD0524FF07F4CFC
:104B30001CEA410FA2EBD15318BF9CEA026F4AD086
:104B40004FF0004C4CEA00204CEA012121FA03FC12
:104B5000B0EB0C0C0FD412F0FE0F36D05FEA4C0015
:104B60001DD5001240EBC25038BF70471CF03F0FFC
:104B700018BF70470BE0A2F101025FEA1C2040EB76
:104B8000C25038BF70471CF07F0F18BF7047C3F189
:104B90002003994014BF401E20F001007047800898
:104BA0004FEA122308BF7047B0FA80FCA2EB0C0258
:104BB000CCF1280C60FA0CF093EA122F04BF00EB42
:104BC000C25070474FEAC3707047130A5FEADC10A7
:104BD00008BF7047F6E79CEA026F04D010EA5C0F4A
:104BE00008BF0020704710B5FFF713FF40DFF63E07
:104BF00081F0004070470000184C000800000020C1
:104C0000C80000006C010008E04C0008C80000204B
:104C10007807000088010008000020430000A04041
:104C20009A99993F00000000000000000000000079
:104C30000000000000007A4400401C460000000014
:104C400002000000F4010000000000000A00000063
:104C50000000000000000000000000000000000054
:104C60000000000000000000000000000000000044
:104C70000000000000000000000000000000000034
:104C80000000000000000000000000000000000024
:104C9000000000000000000000A24A040000000024
:104CA00000000000010203040607080900000000DC
:104CB000000000006400C800F401200301000000AF
:104CC00000000000010203040102030406070809B2
:104CD00002040608000000000000000000000000C0
:0400000508000131BD
:00000001FF
