:020000040800F2
:10000000D808002045010008C7280008010B000897
:10001000772300082D030008193F000800000000A6
:10002000000000000000000000000000693000082F
:100030008504000800000000F12A0008C131000812
:100040005F0100085F0100085F0100085F01000810
:100050005F0100085F010008AD050008F105000818
:1000600039060008810600085F0100085F010008EA
:100070005F0100085F0100085F0100085F010008E0
:100080005F0100085F0100085F0100085F010008D0
:100090005F0100085F0100085F0100085F010008C0
:1000A0005F0100085F0100085F01000815320008C9
:1000B0005F010008E13200085F0100085F010008ED
:1000C0005F0100085F0100085F0100085F01000890
:1000D0005F0100085F0100085F010008ED3C0008B7
:1000E0005F0100085F0100085F0100085F01000870
:1000F0005F0100085F0100085F0100085F01000860
:100100005F0100085F010008A53300085F010008D7
:100110005F0100085F0100085F0100085F0100083F
:100120005F0100085F0100085F0100085F0100082F
:10013000DFF80CD000F040F80048004725410008E7
:10014000D80800200648804706480047FEE7FEE73B
:10015000FEE7FEE7FEE7FEE7FEE7FEE7FEE7FEE777
:10016000C53100083101000840EA01039B0703D0B4
:1001700009E008C9121F08C0042AFAD203E011F8E6
:10018000013B00F8013B521EF9D2704730B50B46D7
:10019000014600202022012409E021FA02F59D42B7
:1001A00005D303FA02F5491B04FA02F52844151E8B
:1001B000A2F10102F1DC30BD064C074D06E0E0681B
:1001C00040F0010394E8070098471034AC42F6D39E
:1001D000FFF7B2FF3C5600085C56000870B501EB13
:1001E000020410F8015B15F0070301D110F8013B80
:1001F0002A1106D110F8012B03E010F8016B01F869
:10020000016B5B1EF9D12B0705D40023521E0FD4BE
:1002100001F8013BFAE710F8013B02F10202A1EB01
:10022000030303E013F8015B01F8015B521EF9D5EB
:10023000A142D6D3002070BD7047704770470000C0
:1002400038B51F24E5022B460AA25021082000944D
:1002500000F028FC2B460DA264210820009400F039
:1002600021FC2B460FA278210820009400F01AFCF4
:1002700038BD0000202057656C636F6D6520546F9A
:100280002041524D42555320200000006874747084
:100290003A2F2F7777772E41726D4275732E636FE9
:1002A0006D00000032303130303632322D4C414E4C
:1002B0002053616D706C65002DE9F8430026154DE3
:1002C0004FF01F084FF47849012700BF02F012FDDC
:1002D00004464B4610A264210820CDF8008000F0AF
:1002E000E1FB03F019FC022C04D0012C0CD0032CF0
:1002F0000CD000E0AF800E2EE8D3002000F01EFCF2
:10030000BDE8F84300F0E2B8AF80F6E70020A8802F
:10031000F3E70000F00000202020204175746F46B4
:10032000756E63204F4B202020000000FEE7000088
:100330000C498A79521CD3B200228B71012B02D056
:10034000022B04D101E0086401E08A714864D1E91C
:100350001003984202D00120C87100E0CA71C87928
:1003600070470000400000200C498A79521CD3B22B
:1003700000228B71012B02D0022B04D101E0086313
:1003800001E08A714863D1E90C03984202D0012050
:10039000C87100E0CA71C87970470000A000002051
:1003A0000C490A7A521CD3B200220B72012B02D0E4
:1003B000022B04D101E0886401E00A72C864D1E92B
:1003C0001203984202D00120487200E04A72487A33
:1003D00070470000400000200C490A7A521CD3B23A
:1003E00000220B72012B02D0022B04D101E08863A2
:1003F00001E00A72C863D1E90E03984202D00120DD
:10040000487200E04A72487A70470000A00000205D
:100410000C498A7A521CD3B200228B72012B02D073
:10042000022B04D101E0086501E08A724865D1E938
:100430001403984202D00120C87200E0CA72C87A40
:1004400070470000400000200C498A7A521CD3B249
:1004500000228B72012B02D0022B04D101E0086430
:1004600001E08A724864D1E91003984202D0012069
:10047000C87200E0CA72C87A70470000A00000206D
:100480007047704770473EB56424B2FBF4F303F144
:10049000300504FB13230A24B3FBF4F28DF8045057
:1004A00002F1300504FB12328DF8055030328DF820
:1004B000062000228DF807204FF6FF7200924FF4BD
:1004C000784301AA00F0EEFA3EBD00002DE9F843A2
:1004D00000250826284600F031FB194C1F2000900B
:1004E000606A4FF6FF773B4602683146608800F04D
:1004F000D9FA4FF0180846460DE04068009700EB27
:1005000005101F2302683146608800F0CBFA6D1C8D
:100510001036ADB2B6B2606A017AA942EDD8416830
:1005200020784FF61F0201EB0011E16100920A688A
:1005300008EB00113B46608800F0B4FABDE8F88390
:10054000F8000020F8B5184C4FF6FF761825606AC1
:100550001F234168207801EB0011E16100960A68D1
:1005600005EB0011608800F09DFA616A20780A7A34
:10057000521E824201DC002000E0401C20704968CD
:10058000C0B201EB00114FF61F02E16100920A6850
:1005900005EB00113346608800F084FA0249627866
:1005A000183120788854F8BDF800002010B50120DB
:1005B00000F0B0F8002816D00B49886889688207D7
:1005C0000A484FEAC1710BD511B90188491E01E0F3
:1005D0000188491C0180BDE81040012000F074B87A
:1005E0000029F5D0F1E710BD0010014054000020B3
:1005F00010B5022000F08EF8002817D00C4988684A
:100600008968C2070B484FEA81710CD0002902DAD1
:100610000188491E01E00188491C0180BDE81040A5
:10062000022000F051B80029F5DBF1E710BD000011
:10063000001001405400002010B5042000F06AF8BA
:10064000002817D00C498868896802070B484FEAD0
:1006500041710CD5002902DB0188491E01E00188A7
:10066000491C0180BDE81040042000F02DB800298D
:10067000F5DAF1E710BD0000001001405200002043
:1006800010B5082000F046F8002817D00C498868FB
:10069000896842070B484FEA01710CD5002902DA3C
:1006A0000188491E01E00188491C0180BDE8104015
:1006B000082000F009B80029F5DBF1E710BD0000C3
:1006C00000100140520000200149086070470000FE
:1006D000140401401CB50021022000F049F9012159
:1006E000022000F045F90221084600F041F90321FB
:1006F000022000F03DF90F20009000208DF804004A
:1007000010208DF8050001208DF80600684600F0E5
:1007100011F81CBD064A014600201268044B0A402D
:1007200014331B680B4202D0002A00D0012070470E
:100730000004014030B51A498379026853B30B684D
:1007400093430B600A1D13680468A3431360027986
:100750000A441368046823431360114A083213687B
:100760000468A3431360131D1C680568AC431C6038
:100770004479102C05D021440A68006802430A60BD
:1007800030BD116804682143116019680068014395
:10079000196030BD0079084401689143016030BDA3
:1007A00000040140704770474FF0204202EB800088
:1007B0000029016802D041F0010101E0014A114025
:1007C00001607047FEFF0F0030B5D0E90112114300
:1007D000D0E903231A431143426903681143826934
:1007E0001143C2691143026A1143426A1143826A8A
:1007F0001143C26A1143026B11434FF0204242F889
:1008000023108168082906D1016802EB81010B6879
:1008100043F040030B60416BD1E9003443EA041319
:100820008C688D89240244EA054423430C8A43EAF8
:1008300004530C7D896943EA04630B43016802EBAE
:1008400081014B60C16AB1F5804F07D000686FF03D
:10085000704102EB8000C0F8041130BD816B00686C
:10086000D1E9003443EA04138C680D8A240244EA77
:10087000055423430C7D896943EA046302EB80003D
:100880000B43C0F8043130BD704700002DE9F84F2C
:100890003020ADF800004FF010088DF803804FF0C5
:1008A00002098DF8029069462E4800F075F84FF461
:1008B0000070ADF800001824DFF8ACB08DF80340EC
:1008C00003258DF802506946584600F065F84FF44C
:1008D0008067ADF8007004268DF8036069465846BD
:1008E00000F05AF8ADF80070DFF880A08DF80340F2
:1008F0008DF802506946504600F04EF87002ADF88F
:1009000000008DF803606946504600F045F80F2757
:10091000ADF800708DF803408DF8025069465846D6
:1009200000F03AF8B801ADF800008DF803408DF8FA
:1009300002506946504600F02FF8ADF800608DF87F
:1009400003808DF802906946504600F025F8ADF816
:1009500000708DF803606946024800F01DF8BDE89C
:10096000F88F00000010014000080140000C014019
:1009700010B58A0721F003040649130F21440F2202
:100980008C689A4094438C608A68984002438A60DD
:1009900010BD000000000140F0B5CA78002502F04B
:1009A0000F03D20601D58A7813430C784FF00F0E4F
:1009B0000122ECB1D0F800400F8802FA05F637406A
:1009C000B74211D14FEA850C0EFA0CF724EA07075B
:1009D00003FA0CF43C43CF78282F02D0482F02D0E2
:1009E00002E0466100E006616D1C082DE4D304605E
:1009F0000C88FF2C1ED944685FF0000606F108073A
:100A000002FA07F50F882F40AF420FD14FEA860C4C
:100A10000EFA0CF7BC4303FA0CF73C43CF78282FAF
:100A200000D14561CF78482F00D10561761C082E92
:100A3000E4D34460F0BD0000F0B5144C002801DAA6
:100A4000E36900E06368420D120185B2C0F301570B
:100A50009540C0F30346032F05D0C2020AD50322F6
:100A6000B240934307E023F07062636823F0706341
:100A7000636002E0AB4343F0706201B12A43002897
:100A800001DAE261F0BD6260F0BD000000000140EB
:100A90000246002092680A4200D00120704701619E
:100AA000704700002DE9F8439946DDF8207016469E
:100AB0000D4604464FF49C7816F8012B4B46294608
:100AC0002046009702F052F8444502D20834A4B2FE
:100AD00007E0E02D4FF0000402D21035ADB200E087
:100AE000002530780028E7D1BDE8F883034A02EBFF
:100AF0000111A1F500711022FFF736BB6E4D000801
:100B0000FEE77047704710B502F0F4F8062814D2DB
:100B1000DFE800F0130F0F03070BBDE8104002F0F1
:100B20003DBABDE8104003F0C5B9BDE81040FFF77D
:100B300009BDBDE8104002F099BA10BD70B5054678
:100B40001B48002400780A2811D00B280FD0002160
:100B5000084601F0A5FB4FF0C0412220088015484F
:100B60004FF496310580641C8C42FBD370BD00218C
:100B7000022001F0D9FB0021032001F0D5FB002168
:100B8000042001F0D1FBEF21052001F0CDFB002175
:100B9000062001F0C9FB0021072001F0C5FB01215F
:100BA000082001F0C1FB3F21092001F0BDFBD2E785
:100BB000EC0000200000026070B596B00F250F9584
:100BC00000241095CDE911541020CDE90240139472
:100BD00004940002CDE908401494159407940FAED4
:100BE00000940194CDE90C4606940A940594684655
:100BF0000B94FFF7E9FD0A20CDE90F50CDE9110470
:100C00001394149468460E961594FFF7DDFD0121A8
:100C10000020FFF7C9FD16B070BD00002DE9F84FA8
:100C20004CF63370ADF800004FF003088DF80280E9
:100C300018208DF803006946FE48FFF7ADFE4FF619
:100C40008070ADF800006946FB48FFF7A5FE8020E4
:100C5000ADF800006946F748FFF79EFEFFF7ACFFCE
:100C60004FF0C042F54900201080F54B18884880AD
:100C7000A0F513474FF4807440F2272940F207751E
:100C800040F23F164FF4887B253F01D0FF1E7CD1F8
:100C9000012008701021E72001F046FB012100200F
:100CA00001F042FB2146012001F03EFB4FF4E061E0
:100CB000022001F039FB41F23001032001F034FB46
:100CC0000021042001F030FB40F20721082001F050
:100CD0002BFB0021092001F027FB00210A2001F055
:100CE00023FB01210C2001F01FFB00210D2001F04E
:100CF0001BFB00210F2001F017FB0021102001F049
:100D000013FB0721112001F00FFB0021122001F03D
:100D10000BFB0021132001F007FB322003F0C8F980
:100D200041F29051102001F0FFFA4946112001F0E4
:100D3000FBFA322003F0BCF99C21122001F0F4FAF6
:100D4000322003F0B5F94FF4C851132001F0ECFA4A
:100D50002321292001F0E8FA0E212B2001F0E4FAEA
:100D6000322003F0A5F90021202001F0DDFA002156
:100D7000212001F0D9FA322003F09AF9072130201E
:100D800001F0D2FA2946312000E082E001F0CCFAED
:100D90000621322001F0C8FA40F20471352001F03A
:100DA000C3FA41F60471362001F0BEFA042137205F
:100DB00001F0BAFA0021382001F0B6FA40F20671CB
:100DC000392001F0B1FA40F201713C2001F0ACFA97
:100DD0000F213D2001F0A8FA322003F069F900212B
:100DE000502001F0A1FAEF21512001F09DFA0021DD
:100DF000522001F099FA3146532001F095FA4FF450
:100E00002741602001F090FA0121612001F08CFA65
:100E100000216A2001F088FA0021802001F084FA84
:100E20000021812001F080FA0021822001F07CFA6B
:100E30000021832001F078FA0021842001F074FA67
:100E40000021852001F070FA1021902001F06CFA49
:100E50000021922001F068FA0321932001F064FA46
:100E60005946952001F060FA0021972001F05CFAC4
:100E70000021982001F058FA40F23311072001F0C8
:100E800053FA0021202001F04FFA0021212001F027
:100E9000FFB9A0F51347203F7ED0B0F5134FFBD02C
:100EA000A0F5134C4FF40177BCF1310C75D181F8EA
:100EB000008041F21401E72001F036FA21460120BA
:100EC00001F032FA391F022001F02EFA41F230010E
:100ED000032001F029FAB91E082001F025FA0021AB
:100EE000092001F021FA00210A2001F01DFA002159
:100EF0000C2001F019FA00210D2001F015FA002153
:100F00000F2001F011FA0021102001F00DFA072145
:100F1000112001F009FA0021122001F005FA002148
:100F2000132001F001FAC82003F0C2F841F29061E9
:100F3000102001F0F9F94946112001F0F5F93220AD
:100F400003F0B6F80C21122001F0EEF9322003F084
:100F5000AFF84FF40061132001F0E6F911212920C8
:100F600001F0E2F90B212B2001F0DEF9322003F031
:100F70009FF80021202001F0D7F90021212001F065
:100F8000D3F90021302001F0CFF94FF483742146CA
:100F9000312001F0C9F901E07AE01EE100213220A0
:100FA00001F0C2F93946352001F0BEF941F20A617B
:100FB000362001F0B9F92946372001F0B5F921466C
:100FC000382001F0B1F92946392001F0ADF940F29D
:100FD00002413C2001F0A8F940F60F413D2001F00C
:100FE000A3F90021502001F09FF9EF21512001F0D9
:100FF0009BF90021522001F097F93146532001F06E
:1010000093F94FF41C51602001F08EF90121612009
:1010100001F08AF900216A2001F086F90021802080
:1010200001F082F90021812001F07EF90021822067
:1010300008E000000014014000180140EC0000200E
:101040000000026001F070F90021832001F06CF9CA
:101050000021842001F068F90021852001F064F965
:101060001021902001F060F94FF4C061922001F04E
:101070005BF92121072001F057F9322003F018F81D
:101080006121072001F050F9322003F011F8FAE352
:1010900000200870014601F047F92146012001F0C7
:1010A00043F94FF4E061022001F03EF941F21801EA
:1010B000032001F039F90021042001F035F940F254
:1010C0000221082001F030F90021092001F02CF95B
:1010D00000210A2001F028F901210C2001F024F957
:1010E00000210D2001F020F900210F2001F01CF952
:1010F000642002F0DDFF40F20111072001F014F935
:10110000642002F0D5FF4FF48651102001F00CF955
:101110000721112001F008F95C465946122001F020
:1011200003F94FF43061132001F0FEF8002129206B
:1011300001F0FAF844F210012B2001F0F5F800213B
:10114000502001F0F1F8EF21512001F0EDF80021DD
:10115000522001F0E9F83146532001F0E5F84FF450
:101160001C51602001F0E0F80121612001F0DCF861
:1011700000216A2001F0D8F80021802001F0D4F885
:101180000021812001F0D0F80021822001F0CCF86C
:101190000021832001F0C8F80021842001F0C4F868
:1011A0000021852001F0C0F81021902001F0BCF84A
:1011B0000021922001F0B8F80121932001F0B4F849
:1011C0002146952001F0B0F80021972001F0ACF8FD
:1011D00000219820FEE3072059E6A0F5194C40F2C3
:1011E0000558BCF1190C7DD10D200870062128206E
:1011F00001F09AF80121002001F096F8002110205A
:1012000001F092F847F2EF21012001F08DF84FF440
:10121000C061022001F088F846F63821032001F071
:1012200083F846F67401112001F07EF800210F20AA
:1012300001F07AF845F208310B2001F075F803212E
:101240000C2001F071F80A210D2001F06DF84FF427
:1012500038510E2001F068F8BE211E2001F064F81C
:101260004FF40041252001F05FF84FF4F0412620B3
:1012700001F05AF87821272001F056F800214E207D
:1012800001F052F800214F2001F04EF840F6D9014C
:10129000122001F049F80021302001F045F84FF408
:1012A0008271312001F040F82146322001F03CF8F3
:1012B00040F205342146332001F036F8414634200F
:1012C00001F032F82146352001F02EF8294636206B
:1012D00001F02AF8611F372001F026F84FF49051F1
:1012E0003A2000E008E001F01FF84FF400613B20D5
:1012F00001F01AF833216EE7A0F5A85CBCF1050CEB
:1013000001D040457ED1092008700021072001F05E
:101310000BF8322002F0CCFE4FF48E71122001F057
:1013200003F80121A42000F0FFFF0F21082000F0A6
:10133000FBFF08210A2000F0F7FF08210D2000F034
:10134000F3FF2946302000F0EFFF0721312000F0A5
:10135000EBFF40F20361322000F0E6FF4FF4E0675C
:101360003946332000F0E0FF40F20221342000F043
:10137000DBFF0221352000F0D7FF41F60F71362048
:1013800000F0D2FF2946372000F0CEFF00213820A0
:1013900000F0CAFF0021392000F0C6FF29463A209C
:1013A00000F0C2FF00213B2000F0BEFF07213C20DF
:1013B00000F0BAFF00213D2000F0B6FF322002F01D
:1013C00077FE0121072000F0AFFF0121172000F078
:1013D000ABFF322002F06CFE4FF4BD51102000F044
:1013E000A3FF40F21721112000F09EFF4FF48F71F0
:1013F000122000F099FF4FF47061132000F094FF69
:10140000002100E089E02A2000F08EFF0A21292037
:1014100000F08AFF4FF49F71122000F085FF002139
:10142000502000F081FFEF21512000F07DFF0021CE
:10143000522000F079FF3146532000F075FF4FF441
:101440001C51602000F070FF0121612000F06CFF52
:1014500000216A2000F068FF0021802000F064FF76
:101460000021812000F060FF0021822000F05CFF5D
:101470000021832000F058FF0021842000F054FF59
:101480000021852000F050FF1321902000F04CFF38
:101490004FF44071922000F047FF0521932000F0A7
:1014A00043FF0021952000F03FFF0021972000F02E
:1014B0003BFF0021982000F037FF2146012000F07B
:1014C00033FF3946022000F02FFF41F230010320A4
:1014D00000F02AFF0021042000F026FF00210C204C
:1014E00000F022FF00210F2000F01EFF002120202D
:1014F00000F01AFF0021212000F016FF2121072013
:1015000000F012FFC82002F0D3FD6121072000F097
:101510000BFFC82002F0CCFDA0E2A0F5094C40F280
:10152000025940F2023ABCF1890C7CD105200870C6
:101530000121002000F0F8FE322002F0B9FD4AF649
:10154000A401032000F0F0FE322002F0B1FD0021E2
:101550000C2000F0E9FE322002F0AAFD40F60C015A
:101560000D2000F0E1FE322002F0A2FD4FF42C51DC
:101570000E2000F0D9FE322002F09AFDB0211E208C
:1015800000F0D2FE322002F093FD42F63F310120FE
:1015900000F0CAFE322002F08BFD4FF4C061022041
:1015A00000F0C2FE322002F083FD0021102000F086
:1015B000BBFE322002F07CFD46F27001112000F0EB
:1015C000B3FE322002F074FD0021052000F0ACFED5
:1015D000322002F06DFD0021062000F0A5FE322031
:1015E00002F066FD4EF61C71162000F09DFE3220C2
:1015F00002F05EFD0321172000F096FE322002F07B
:1016000057FD40F23311072000F08EFE322002F029
:101610004FFD00210B2000F087FE322002F048FD34
:1016200000210F2000E0AAE000F07EFE322002F050
:101630003FFD0021412000F077FE322002F038FD0E
:101640000021422000F070FE322002F031FD002126
:10165000482000F069FE322002F02AFD3146492080
:1016600000F062FE322002F023FD00214A2000F04B
:101670005BFE322002F01CFD00214B2000F054FEE6
:10168000322002F015FD4FF46F41442000F04CFE73
:10169000322002F00DFD0021452000F045FE3220F1
:1016A00002F006FD3146462000F03EFE322002F0F8
:1016B000FFFC2946302000F037FE322002F0F8FC13
:1016C0003946312000F030FE322002F0F1FC39467C
:1016D000322000F029FE322002F0EAFC4C46494656
:1016E000332000F021FE322002F0E2FC40F20751EC
:1016F000342000F019FE322002F0DAFC39463520A1
:1017000000F012FE322002F0D3FC3946362000F001
:101710000BFE322002F0CCFC2146372000F004FE04
:10172000322002F0C5FC544651463A2000F0FCFD40
:10173000322002F0BDFC21463B2000F0F5FD3220B6
:1017400002F0B6FC0021232000F0EEFD322002F072
:10175000AFFC0021242000F0E7FD322002F0A8FCBD
:101760004FF40041252000F0DFFD322002F0A0FC04
:1017700000214F2000F0D8FD00214E202CE5A0F5DF
:10178000094CBCF1990C7DD1042008700621282059
:1017900000F0CAFD0121002000F0C6FD4AF6A46158
:1017A000032000F0C1FD04210C2000F0BDFD0C2140
:1017B0000D2000F0B9FD4FF420510E2000F0B4FDD3
:1017C000B5211E2000F0B0FD43F63F31012000F0AE
:1017D000ABFD4FF4C061022000F0A6FD00211020F7
:1017E00000F0A2FD46F63001112000F09DFD002121
:1017F000052000F099FD0021062000F095FD4EF631
:101800001C71162000F090FD3321072000F08CFDA4
:1018100000210B2000F088FD00210F2000F084FD46
:101820000021412000F080FD0021422000F07CFDDD
:101830000021482000F078FD3146492000F074FD79
:1018400000214A2000F070FD00214B2000F06CFDCB
:101850004FF46F41442000F067FD0021452000F067
:1018600063FD3146462000F05FFD00214E2000F070
:101870005BFD00214F2000F057FD2946302000F08D
:1018800053FD01E042E0FEE240F20221312000F08F
:101890004BFD3946322000F047FD4C464946332087
:1018A00000F042FD40F20751342000F03DFD394682
:1018B000352000F039FD3946362000F035FD21464F
:1018C000372000F031FD544651463A2000F02CFDFF
:1018D00021463B2000F028FD0021232000F024FDBC
:1018E0000021242000F020FD4FF40041252000F0CD
:1018F0001BFD4FF4E041262000F016FD4BF2EB01FA
:10190000202000F011FD7C21272065E4A0F5A847E8
:10191000083F7CD1082008702146012000F004FD1A
:101920004FF4E061022000F0FFFC41F2300103209F
:1019300000F0FAFC0021042000F0F6FC40F2072140
:10194000082000F0F1FC0021092000F0EDFC00214E
:101950000A2000F0E9FC00210C2000F0E5FC002149
:101960000D2000F0E1FC00210F2000F0DDFC322012
:1019700002F09EFB40F20111072000F0D5FC32205E
:1019800002F096FB41F2B061102000F0CDFC012185
:10199000112000F0C9FC0121172000F0C5FC4FF414
:1019A0009C71122000F0C0FC4FF40061132000F085
:1019B000BBFC0921292000F0B7FC09212A2000F0F6
:1019C000B3FC0021A42000F0AFFC0021502000F067
:1019D000ABFC00E040E0EF21512000F0A5FC00212D
:1019E000522000F0A1FC3146532000F09DFC4FF442
:1019F0001C51602000F098FC0321612000F094FC51
:101A000000216A2000F090FC0021802000E028E006
:101A100000F08AFC0021812000F086FC0021822059
:101A200000F082FC0021832000F07EFC0021842055
:101A300000F07AFC0021852000F076FC1321902034
:101A400000F072FC0021922000F06EFC0321932034
:101A500000F06AFC5946952000F066FC40F27311D4
:101A600049E4A0F58A47313F7ED107200870012163
:101A7000002000F059FC4FF4C561102000F054FC28
:101A80000621122000F050FC40F63221132000F015
:101A90004BFC4021112000F047FC5021152000F0A4
:101AA00043FC1621122000F03FFC322002F000FB24
:101AB00045F26061102000F037FC322002F0F8FAA5
:101AC00042F64E21132000F02FFC2146012000F0A9
:101AD0002BFC4FF44071022000F026FC41F2300153
:101AE000032000F021FC40F20221082000F01CFC41
:101AF00000210A2000F018FC0021302000F014FC26
:101B000040F20241312000F00FFC4FF4837132208B
:101B100000F00AFC4FF4E061332000F005FC4FF4C4
:101B20008271342000F000FC40F20131352000F0D9
:101B3000FBFB2946362000F0F7FB40F20531372049
:101B400000F0F2FB4FF40271382000F0EDFB40F69C
:101B50000B71392000F0E8FB322002F0A9FA0221D3
:101B6000412000F0E1FB00E028E04FF41C51602030
:101B700000F0DAFB0121612000F0D6FB40F21911E0
:101B8000902000F0D1FB4FF48571922000F0CCFB47
:101B90000421932000F0C8FB2146A02000F0C4FBE4
:101BA000322002F085FA40F23311072000F0BCFB2E
:101BB000322002F07DFA0021A02069E3A0F58A47D7
:101BC000353F7CD10C2008703021152000F0ACFB93
:101BD00010219A2000F0A8FB2021112000F0A4FB86
:101BE00043F22841102000F09FFB0221122000F058
:101BF0009BFB41F23801132000F096FB282002F0F5
:101C000057FA1221084600F08FFB282002F050FA04
:101C100043F22041102000F087FB43F245011320DE
:101C200000F082FB462002F043FA0021302000F051
:101C30007BFB40F20241312000F076FB40F207319D
:101C4000322000F071FB4FF44171332000F06CFB47
:101C50000421342000F068FB40F20141352000F0FF
:101C600063FB2946362000F05FFB40F20531372048
:101C700000F05AFB4FF4C2652946382000F054FBAF
:101C80002946392000F050FB2146012000F04CFB92
:101C90004FF44071022000F047FB41F23001032075
:101CA00000F042FB40F60801082000F03DFB08214F
:101CB0000A2000F039FB4FF41C51602000E02AE0BC
:101CC00000F032FB0121612000F02EFB4FF49F71E8
:101CD000902000F029FB2146922000F025FB2146B0
:101CE000932000F021FB4FF44051A02000F01CFB9A
:101CF0001021A32000F018FB0121072000F014FBA5
:101D00002121072000F010FB2321072000F00CFB0D
:101D100033210720B5E047287ED0A0F5EE47833F6A
:101D20007BD1062008700121FF2000F0FDFA082178
:101D3000F32000F0F9FA2146012000F0F5FA4FF403
:101D4000E061022000F0F0FA41F23001032000F0DF
:101D5000EBFA5146082000F0E7FA40F2072108208C
:101D600000F0E2FA0021092000F0DEFA00210A204A
:101D700000F0DAFA0021102000F0D6FA0521112037
:101D800000F0D2FA0021122000F0CEFA0021132038
:101D900000F0CAFA322002F08BF941F2B021102093
:101DA00000F0C2FA322002F083F90721112000F07E
:101DB000BBFA322002F07CF98B21122000F0B4FA39
:101DC000322002F075F94FF4B851132000F0ACFA4C
:101DD000322002F06DF92221292000F0A5FA00211D
:101DE000302000F0A1FA2946312000F09DFA41464A
:101DF000322000F099FA40F20711352000F094FAF1
:101E00000821362000F090FA0021372000F08CFAEB
:101E100040F20224214601E038E017E1382000F0CA
:101E200083FA4FF48371392000F07EFA21463C207A
:101E300000F07AFA4FF481613D2000F075FA32200B
:101E400002F036F90021502000F06EFAEF21512007
:101E500000F06AFA0021522000F066FA3146532061
:101E600000F062FA4FF42741602000F05DFA012192
:101E7000612000F059FA3321902000F055FA0B212F
:101E80002B2000F051FA40F23311E9E50A200870E6
:101E90000021EA2000F048FA2021EB2000F044FA6B
:101EA0000C21EC2000F040FAC421ED2000F03CFAB7
:101EB0004021E82000F038FA3821E92000F034FA17
:101EC0000121F12000F030FA1021F22000F02CFA6C
:101ED000A321272000F028FA0121402000F024FA55
:101EE0000021412000F020FA0021422000F01CFADD
:101EF0001021432000F018FA0E21442000F014FABB
:101F00002421452000F010FA0421462000F00CFAAC
:101F10005021472000F008FA0221482000F004FA7E
:101F20001321492000F000FA19214A2000F0FCF9A1
:101F300019214B2000F0F8F916214C2000F0F4F99B
:101F40001B21502000F0F0F93121512000F0ECF974
:101F50002F21522000F0E8F93F21532000F0E4F94E
:101F60003F21542000F0E0F93E21552000F0DCF93B
:101F70002F21562000F0D8F97B21572000F0D4F90A
:101F80000921582000F0D0F90621592000F0CCF9A1
:101F900006215A2000F0C8F90C215B2000F0C4F99A
:101FA0001D215C2000F0C0F9CC215D2000F0BCF9BF
:101FB00018211B2000F0B8F901211A2000F0B4F913
:101FC0001521242000F0B0F95021252000F0ACF9B3
:101FD0008B21232000F0A8F93621182000F0A4F965
:101FE0000121192000F0A0F90021012000F09CF946
:101FF00088211F2000F098F9322002F059F8802142
:102000001F2000F091F9322002F052F890211F2099
:1020100000F08AF9322002F04BF8D0211F2000F0A6
:1020200083F9322002F044F80521172000F07CF9F2
:102030000021362000F078F93821282000F074F9CA
:10204000322002F035F83C21282021E16720108061
:102050001888488047287DD10B200870082142202D
:1020600000F062F9B421462000F05EF943214720D8
:1020700000F05AF91321482000F056F94721492071
:1020800000F052F914214A2000F04EF936214B207D
:1020900000F04AF903214C2000F046F946214D207A
:1020A00000F042F905214E2000F03EF910214F20AA
:1020B00000F03AF90821502000F036F90A215120A9
:1020C00000F032F90021022000F02EF90021032057
:1020D00000F02AF90021042000F026F9EF21052064
:1020E00000F022F90021062000F01EF9002107204F
:1020F00000F01AF90121082000F016F93F2109200B
:1021000000F012F90A2001F0D3FF0621012000F0AF
:102110000BF9C821162000F007F99521232000F0C3
:1021200003F99521242000F0FFF8FF21252000F07D
:10213000FBF80221272000F0F7F80221282000F008
:10214000F3F80221292000F0EFF802212A2000F004
:10215000EBF800E09EE002212C2000F0E5F80221DF
:102160002D2000F0E1F801213A2000F0DDF80121F6
:102170003B2000F0D9F8F0213C2000F0D5F80021F8
:102180003D2000F0D1F8142001F092FF38213520D5
:1021900000F0CAF87821362000F0C6F838213E2039
:1021A00000F0C2F80F21402000F0BEF8F0214120DD
:1021B00000F0BAF80021382000F0B6F849211920C3
:1021C00000F0B2F80A21932000F0AEF80A2001F0E6
:1021D0006FFF2021084600F0A7F803211D2000F022
:1021E000A3F800211E2000F09FF809211F2000F015
:1021F0009BF85321442000F097F81021452000F06F
:1022000093F80A2001F054FF04211C2000F08CF800
:10221000142001F04DFF8021432000F085F80520B7
:1022200001F046FF0A211B2000F07EF8282001F073
:102230003FFF12211B2000F077F8282001F038FF23
:102240007F21902000F070F80421262000F06CF827
:10225000282001F02DFF2421262000F065F82C21F4
:10226000262000F061F8282001F022FF08217020CC
:1022700000F05AF83C21262000F056F802215720A1
:1022800000F052F80021552000F04EF800215720B0
:1022900000F04AF8BDE8F84F322001F009BF000015
:1022A00070B5A0F23F10404285B216480C46007847
:1022B000001F0A2806D2DFE800F00B0B0505050514
:1022C00011110523202000F02FF82946212013E0CA
:1022D0004E2000F029F829464F200DE0210A022067
:1022E00000F022F82146032000F01EF8290A0620FB
:1022F00000F01AF829460720BDE8704000F014B835
:1023000070BD0000EC00002010B51446B0F5A07FB1
:1023100009D2F02907D2FFF7C3FF2146BDE81040DC
:10232000222000F001B810BD4FF0C04210800148DB
:10233000018070470000026000B901200A490423AF
:102340000A8E521C92B20A86824201D1074808E0E6
:10235000B2EB400F06D100200886054908700348FB
:10236000001D0360704700000A000020100C0140AF
:10237000000000207047FEE70549064AA1F1B800B9
:102380004162437842F823109039C16170470000E0
:10239000B0010020C404002070B5114C01260025B6
:1023A000E08A38B184F80150D4E90C10884205D194
:1023B000A56370BD667000F0D5F9F5E707DDA0EB09
:1023C0000100A06360780028F3D0667170BDA1EBB6
:1023D0000000A06360780028F8D0657170BD00002F
:1023E0004000002070B5114C01260025E08938B16D
:1023F00084F80150D4E90810884205D1A56270BD67
:10240000667000F0E5F9F5E707DDA0EB0100A062DA
:1024100060780028F3D0667170BDA1EB0000A06267
:1024200060780028F8D0657170BD0000A000002021
:10243000F0B52F482F4D01460022B1F91C10D0E90C
:102440000C674FF0804405F20243BE4201D1C68AB8
:1024500016B3028435F81150A586A5F2DC556D42FD
:10246000258733F81130A387A3F2DC535B42A4F82D
:1024700040301F4B85784FF40074DB6A012D2BD060
:10248000083909B202715B1E8183C362002900DC36
:102490008483C16A0163F0BDC26382630222027059
:1024A000028C642A15D935F811209508A586A2F268
:1024B000DC525242C2F38F02228733F811108A088D
:1024C000A287A1F2DC514942C1F38F01A4F8401068
:1024D000DFE7521C0284DCE70125083109B20571EF
:1024E0005B1C8183C362A142D3DB8283D1E70000FE
:1024F000400000206A4500082DE9F0433148334D83
:1025000001462E1DD0E9088C371D2F4C304B002280
:10251000B1F9141007F10409E04504D1B0F80EC078
:10252000BCF1000F23D0028334F811402C80A4F2B8
:10253000DC546442348033F811303B80A3F2DC5326
:102540005B42A9F800301F4B85784FF40074DB69BB
:10255000012D2CD0083909B202715B1E8182C36142
:10256000002900DC8482C1690162BDE8F083C26297
:10257000826202220270028B642A15D934F811207B
:1025800094082C80A2F2DC525242C2F38F023280B5
:1025900033F811108A083A80A1F2DC514942C1F3A4
:1025A0008F02A9F80020DEE7521C0283DBE7012539
:1025B000083109B205715B1C8182C361A142D2DB83
:1025C0008282D0E7A00000206A450008340800405D
:1025D0006C49000870B52E4CA06BFDF719FF012562
:1025E00050B1608B4142E06B00EB0112A16B8A425B
:1025F00002DA814200DC2570E18A264A607932F8ED
:102600001110E183A0704FF6FF70401A2249088034
:10261000A06BC11700EB11700011FDF7C1FE00287F
:1026200013D0E078002220B101280ED1E08A48B909
:102630002CE0A16B002909DDE08AB1EB001F05DC6D
:10264000002802D0401EE082227070BD608BB1EB8A
:10265000001F08DDE36B424203EB02128A4202DBF9
:102660000220207070BDE26B434202EB03138B42E9
:1026700008DA914206DCE18A8142F3D2491CE18208
:10268000257070BD9142FCDDE57070BDE27070BDDB
:1026900040000020664100080E00002070B52E4C5E
:1026A000A06AFDF7D1FE012550B1608A4142E06A7F
:1026B00000EB0112A16A8A4202DA814200DC257035
:1026C000E189264A607932F81110E182A0704FF654
:1026D000FF70401A22490880A06AC11700EB1170F0
:1026E0000011FDF779FE002813D0E078002220B118
:1026F00001280ED1E08948B92CE0A16A002909DD42
:10270000E089B1EB001F05DC002802D0401EE0810B
:10271000227070BD608AB1EB001F08DDE36A42429F
:1027200003EB02128A4202DB0220207070BDE26AD3
:10273000434202EB03138B4208DA914206DCE18943
:102740008142F3D2491CE181257070BD9142FCDDCC
:10275000E57070BDE27070BDA00000206641000809
:1027600010000020F0B5194801250446D0E90C13EB
:102770002279647800268B4206DD5F1AC763012A3E
:1027800013D0C57004B145718B4205DAC91AC16313
:102790006AB1C57004B14671C16B802909DCCA17E2
:1027A00001EB9261C1F38F110CE0C670EAE7C670CD
:1027B000F0E7028BB1EB421F06DACA1701EBD261D8
:1027C000C1F34F114183F0BD4283F0BD40000020B2
:1027D000F0B5194801250446D0E908132279647838
:1027E00000268B4206DD5F1AC762012A13D0C5702E
:1027F00004B145718B4205DAC91AC1626AB1C5706C
:1028000004B14671C16A802909DCCA1701EB9261E3
:10281000C1F38F110CE0C670EAE7C670F0E7028AD8
:10282000B1EB421F06DACA1701EBD261C1F34F11B7
:102830004182F0BD4282F0BDA000002070B50A4C7C
:10284000227B5043627B0001B0FBF2F04518284622
:10285000A565FDF76DFD002804D06563BDE87040F7
:10286000FFF780BF70BD00004000002010B5FFF7EB
:10287000DFFDFFF791FDBDE81040FFF7ABBE0000A4
:1028800070B50B4C227B5043627B0001B0FBF2F031
:10289000451805F580652846A564FDF765FD002807
:1028A00004D06562BDE87040FFF792BF70BD0000C4
:1028B000A000002010B5FFF71FFEFFF793FDBDE855
:1028C0001040FFF7EBBE7047F8B500214FF00060F5
:1028D00000F0C0F84FF4A06000F0B2F800258DF8C9
:1028E00000508DF80150684600F078F806208DF809
:1028F00000008DF8015001248DF802408DF803404E
:10290000684600F06BF807208DF800008DF8015044
:102910008DF802408DF80340684600F05FF808200B
:102920008DF800008DF801508DF802408DF80340BD
:10293000684600F053F809208DF800008DF801502A
:102940008DF802408DF80340684600F047F88DF896
:1029500000408DF801508DF802508DF80340684614
:1029600000F03CF81B208DF800008DF801408DF838
:1029700002508DF80340684600F030F81D208DF8B5
:10298000000002268DF801608DF80250684600F0C4
:1029900025F832208DF800008DF801608DF8025086
:1029A000684600F01BF825208DF8000003208DF804
:1029B00001008DF802608DF80340684600F00EF8C3
:1029C00027208DF800008DF801508DF802608DF8F9
:1029D0000340684600F002F8F8BD0000F0B50F2192
:1029E000C478027801234FF0E026DCB1124C246851
:1029F000457804F4E064C4F5E064240AC4F10407F3
:102A0000E1408478BD400C402C4321010B4C115512
:102A1000007800F01F018B40400906EB8000C0F8F1
:102A20000031F0BD02F01F008340500906EB80002A
:102A3000C0F88031F0BD00000CED00E000E400E0E3
:102A40000249084302490860704700000000FA0587
:102A50000CED00E0024A114001430248016070475A
:102A600080FFFF1F08ED00E0F8B51F20C3020090B3
:102A7000002518A264210820FEF714F8FF261B4C3D
:102A800000F038F9042808D0052809D003280DD013
:102A9000022809D0012809D009E02078401C01E073
:102AA0002078401E207002E0267000E00F250021F3
:102AB0002078FFF7C3FE22781421B420FDF7E3FC51
:102AC0000E2DDDD30020FEF739F8BDE8F840FDF704
:102AD000FDBC0000202020202050616E46756E63F2
:102AE000204F4B202020202000000000F00000207C
:102AF00070470000F8B51F20C3020090002514A203
:102B000064210820FDF7CEFF174CFF2600F0F2F8F5
:102B1000042810D0052811D0032813D0022814D07F
:102B2000012801D00E2DF1D30020FEF707F8BDE8F3
:102B3000F840FDF7CBBCA078401C01E0A078401E17
:102B4000A070EFE70020A070EEE7A670EAE70000B3
:102B500020202053656E6441646472657373205352
:102B60004554202000000000F00000202DE9FF5F08
:102B7000894680469B4611466846FDF7B7FF00250B
:102B80004FEA0D0A00241AF8057009EB050600BF8C
:102B9000C4F1070027FA00F0C00708EB0400B1B247
:102BA00080B201D05A4600E00E9AFFF7ADFB641CDC
:102BB000A4B2082CECD36D1CADB2102DE2D3BDE84D
:102BC000FF9F0000044A0029516901D0014300E041
:102BD000814351617047000000100240044A0029FF
:102BE000D16901D0014300E08143D1617047000009
:102BF00000100240044A0029916901D0014300E01D
:102C000081439161704700000010024010B501211E
:102C10000802FFF7D7FF01210448FFF7DFFFBDE8F7
:102C20001040012147F67D00FFF7E4BF0F000400CC
:102C300030B520494A6812F00C031F4A03D0042B18
:102C400001D0082B22D002604A680F231B4C03EAF4
:102C50001212A35C0268DA4042604B68072505EA5D
:102C60001323E35C22FA03F383604B6805EAD32362
:102C7000E35C22FA03F2C2604968032303EA91315C
:102C8000231F595CB2FBF1F1016130BD4A684B680A
:102C900002F470124FF0020413F4803F04EB9242EE
:102CA00002D04B689B0301D5054B00E0024B5A4311
:102CB000C9E700000010024000127A009C040020C6
:102CC00000093D00034800880249091F098840EABD
:102CD000014070471C2800400548818E491C89B27C
:102CE0008186022903D100218186FDF70CBF704740
:102CF0000A0000202DE9F041454CDFF81881012140
:102D0000E088401CE0804046FDF7C2FE01264FF4FB
:102D100096770025D8B3E580A581A0880221401CC4
:102D2000A0804046FDF7B4FE90B3A580E5812089E0
:102D30000421401C20814046FDF7AAFE48B32581AE
:102D4000258260890821401C60814046FDF7A0FE75
:102D500078B365816582012144464046FDF798FEBF
:102D6000002812D002212046FDF792FE00280CD048
:102D700004212046FDF78CFE002806D008212046BD
:102D8000FDF786FE002800D00020BDE8F08101E0BC
:102D900010E01EE0E088012805D0A18929B11C2897
:102DA00003D9E580B9E70320EFE7B842B5D9A6819A
:102DB000B3E71DE0A088012805D0E18929B11C28CE
:102DC00003D9A580B3E70220DFE7B842AFD9E68197
:102DD000ADE72089012805D0218A29B11C2803D913
:102DE0002581AEE70420D0E7B842AAD92682A8E719
:102DF0006089012805D0618A29B11C2803D9658121
:102E0000A9E70520C1E7B842A5D96682A3E700007B
:102E1000F800002000180140F8B51F20C302009000
:102E200000240DA264210820FDF73CFE4FF4086544
:102E30004FF47F46FFF75EFF032801D0012800D141
:102E40000F2433460BA2B42112200095FDF72AFE71
:102E50000E2CEFD3F8BD00002020444D58205265C1
:102E6000636569766546756E6320534554204F4B04
:102E700000000000444D583531323A002DE9F04150
:102E8000012600254FF4E647324C3AE0401EE0654B
:102E90000520208348F28030C4E90C50012001F065
:102EA00015F9E06D6421B0FBF1F201FB120098B955
:102EB000B4F91210B4F92200884201DAA67300E0D6
:102EC000A5736184A07B20B9607C40F00100607430
:102ED000E76221A001F022F8B4F91400B4F924103B
:102EE000814201DAE67300E0E573A084E07B28B953
:102EF000607C40F0020060741E480760607C03281C
:102F000011D0207C082802D2E06D0028BED1227C9E
:102F100019A0E16D01F002F8207C092812D0607C34
:102F2000C10703D006E009202074F0E7A26A42F04E
:102F30000802A26240082146C00703D1886A40F017
:102F40001000A0624FF4AF70208365636582BDE816
:102F5000F081000040000020436F756E7465725070
:102F6000616E456E636F6465722D2D3E25640D0A9A
:102F700000000000BC0000203D3D3D3E48616C6CFF
:102F80004F757454696D652D3E25645F5F496E64AD
:102F900065782D3E2564200D0A00000010B50E4C0A
:102FA000E06980688047607808B9012060700B494B
:102FB000C0B201EB8001084A51F8041C616218326A
:102FC0004968E16100211154401E2170C0B2607057
:102FD000BDE81040FDF77ABAF8000020C4040020D4
:102FE000F8B5B020ADF8000003251C4F8DF8025055
:102FF00010248DF8034069463846FDF7CDFC40208B
:10300000ADF8000048268DF8036069463846FDF7A4
:10301000C3FCE002ADF800008DF802508DF80340CB
:1030200069463846FDF7B8FC2820ADF800008DF859
:1030300002500B4D8DF8034069462846FDF7ACFC65
:10304000ADF800408DF8036069462846FDF7A4FC02
:1030500001210448FDF7F0FCF8BD00000008014024
:10306000000C0140000230007047000010B50C4C0D
:10307000E0692062C06870B1002121706062406820
:10308000E061FDF723FA6078064A401CC0B2607028
:10309000616A42F82010206A4068BDE8104000478D
:1030A000F8000020C4040020F8B5002404211148D1
:1030B000FDF7F5FC4FF4784000901F230EA2642129
:1030C0000820FDF7EFFC4FF408654FF47F4600BF82
:1030D000FFF710FE032801D0012800D10F2433464A
:1030E0000BA2B42112200095FDF7DCFC0E2CEFD3CF
:1030F000F8BD0000000C01402020444D58205365CD
:103100006E6446756E6320534554204F4B2020005B
:10311000444D583531323A000CB500212648019112
:103120000091026842F4803202604FF4A0630268AA
:1031300002F400320092019A521C0192009A12B9D4
:10314000019A9A42F3D10268920333D5012100918A
:103150001A490A6842F010020A600A6822F0030263
:103160000A600A6842F002020A60416841604168F0
:103170004160416841F480614160416821F47C1103
:103180004160416841F4E8114160016841F080719B
:10319000016001688901FCD5416821F003014160AB
:1031A000416841F0020141604168C1F38101022997
:1031B000FAD10CBD00910CBD00100240002002406D
:1031C000704700000F4810B5016841F0010101602F
:1031D00041680D4A1140416001680C4A114001608C
:1031E000016821F480210160416821F4FE01416001
:1031F0004FF41F018160FFF78FFF05494FF000601A
:10320000086010BD001002400000FFF8FFFFF6FE4E
:1032100008ED00E070B52C4D0221284600F0FDFAC3
:103220002A4C80B10221284600F02BF9284600F0F4
:10323000EBFA274960800988084481B22846BDE836
:10324000704000F012BC0421284600F0E6FA80B17C
:103250000421284600F015F9284600F0D7FA1D4948
:1032600060800988084481B22846BDE8704000F0BB
:10327000FEBB0821284600F0D0FA90B1082128466C
:1032800000F0FFF8FFF7F2FA284600F0C1FA124901
:1032900060800988084481B22846BDE8704000F08B
:1032A000E8BB1021284600F0ECF8FFF703FB2846A6
:1032B00000F0B0FA094960800988084481B22846C4
:1032C000BDE8704000F0D7BB002C0140000000209A
:1032D0000A0000200C0000200E000020100000203A
:1032E00070B52A4D0221284600F097FA284C80B18B
:1032F0000221284600F0C5F8284600F085FA254945
:1033000060800988084481B22846BDE8704000F01A
:10331000ACBB0421284600F080FA80B10421284685
:1033200000F0AFF8284600F071FA1B496080098868
:10333000084481B22846BDE8704000F098BB0821DF
:10334000284600F06AFA80B10821284600F099F872
:10335000284600F05DFA114960800988084481B26E
:103360002846BDE8704000F084BB1021284600F0DC
:1033700088F8284600F04EFA094960800988084418
:1033800081B22846BDE8704000F075BB00040040E3
:103390000000002012000020140000201600002071
:1033A0001800002070B52A4D0221284600F035FA99
:1033B000284C80B10221284600F063F8284600F02E
:1033C00023FA254960800988084481B22846BDE86F
:1033D000704000F04ABB0421284600F01EFA80B17C
:1033E0000421284600F04DF8284600F00FFA1B494A
:1033F00060800988084481B22846BDE8704000F02A
:1034000036BB0821284600F008FA80B1082128467A
:1034100000F037F8284600F0FBF911496080098870
:10342000084481B22846BDE8704000F022BB10215C
:10343000284600F026F8284600F0ECF9094960809B
:103440000988084481B22846BDE8704000F013BBEB
:10345000000C0040000000201A0000201C0000208A
:103460001E000020200000200029018802D041F029
:10347000800101E021F0800101807047C943018291
:103480007047C943018270470029018802D041F08A
:10349000010101E021F00101018070472DE9F043B5
:1034A00087B000244FF6FF774FF02308DFF84493EE
:1034B000ADF81470ADF81080ADF81240ADF81640BC
:1034C0008DF8184004A9484600F0D8FACA4DADF866
:1034D00000400126ADF802602888ADF80600ADF87E
:1034E00008406946484600F0ADF96888ADF8060026
:1034F0006946484600F0ECF9A888ADF80600694630
:10350000484600F02FFAE888ADF8060069464846BC
:1035100000F06CFA01214846FFF7A6FF012148465A
:10352000FFF7B2FF01214846FFF7A8FF01221E2145
:10353000484600F07EF9DFF8C492ADF81470ADF89B
:103540001080ADF81640ADF8124004A9484600F0CE
:1035500095FA01222321484600F084FAADF8004094
:10356000ADF802602889ADF80600ADF8084069465C
:10357000484600F067F90021484600F0A3F9688941
:10358000ADF806006946484600F0A2F90021484619
:1035900000F0DEF9A889ADF806006946484600F05B
:1035A000E1F90021484600F01BFAE889ADF8060071
:1035B0006946484600F01AFA0021484600F048FAE9
:1035C00001214846FFF750FF01214846FFF75CFF05
:1035D00001214846FFF752FF01221E21484600F014
:1035E00028F9ADF81470864FADF81080ADF816408C
:1035F000ADF8124004A9384600F040FA0122232118
:10360000384600F02FFAADF80040ADF80260288A85
:10361000ADF80600ADF808406946384600F012F9EA
:103620000021384600F04EF9688AADF80600694678
:10363000384600F04DF90021384600F089F9A88A93
:10364000ADF806006946384600F08CF9002138468E
:1036500000F0C6F9E88AADF806006946384600F081
:10366000C5F90021384600F0F3F901213846FFF78B
:10367000FBFE01213846FFF707FF01213846FFF71F
:10368000FDFE01221E21384600F0D3F840F2DC573F
:10369000ADF81470ADF810404FF08049ADF8164009
:1036A000ADF8124004A9484600F0E8F94FF0600870
:1036B000ADF80080ADF80260288BADF80600ADF8DB
:1036C00008406946484600F0BDF80021484600F031
:1036D000F9F8ADF80260688BADF806006946484617
:1036E00000F0F6F80021484600F032F9ADF802602B
:1036F000A88BADF806006946484600F033F9002172
:10370000484600F06DF9ADF80260E88BADF80600B0
:103710006946484600F06AF90021484600F098F9E9
:1037200001214846FFF7A0FEADF81470354FADF803
:103730001040ADF81640ADF8124004A9384600F02C
:103740009DF9ADF80080ADF80260288CADF8060058
:10375000ADF808406946384600F074F8082138464C
:1037600000F0B0F8ADF80260688CADF8060069466C
:10377000384600F0ADF80821384600F0E9F8ADF819
:103780000260A88CADF806006946384600F0EAF8F9
:103790000821384600F024F9ADF80260E88CADF855
:1037A00006006946384600F021F90821384600F045
:1037B0004FF901213846FFF757FE01214846FFF730
:1037C00063FE01213846FFF75FFE01214846FFF7FF
:1037D00055FE01213846FFF751FE012211464846A9
:1037E00000F027F801221146384600F022F807B011
:1037F000BDE8F083002C01400A00002000040040D6
:10380000000C004000080040808E7047008F704719
:10381000808F7047B0F84000704702460020138A3E
:1038200092890B4202EA010202D0002A00D0012054
:103830007047002A828901D00A4300E08A438281CE
:103840007047000030B5028C22F001020284028C25
:103850008388048B22F0020224F073050C882C4329
:103860000D8915434A882A43114DA8420BD0114DAA
:10387000A84208D0104DA84205D0104DA84202D051
:103880000F4DA8420DD122F008054A8923F4407358
:103890002A4322F004058A882A438D891D43CB8957
:1038A0002B4383800483C9888186028430BD000055
:1038B000002C014000340140004001400044014020
:1038C00000480140028B22F008020A43028370473D
:1038D00070B5028C22F010020284028C8488038B63
:1038E0000D8823F4E6464FF6FF7303EA05253543BA
:1038F0000E8922F0200203EA061616434A8803EADC
:1039000002123243104EB04202D0104EB04215D1D6
:1039100022F080064A8924F4406403EA021232430A
:1039200022F040068A8803EA021232438E8903EAB3
:1039300086062643CC8903EA8404344384800583C5
:10394000C9880187028470BD002C01400034014009
:10395000028B4FF6FF7322F4006203EA0121114348
:103960000183704770B5028C22F480720284028C4D
:103970008488838B0D8823F073031D4322F4007326
:103980000E894FF6FF7202EA06261E434B8802EAB2
:1039900003233343104EB04202D0104EB04215D133
:1039A00023F400664B8924F4405402EA0323334392
:1039B00023F480668B8802EA032333438E8902EA6C
:1039C00006162643CC8902EA041434438480858396
:1039D000C9888187038470BD002C014000340140F8
:1039E000828B22F008020A438283704770B5028CF2
:1039F00022F480520284048C8288838B0D8823F405
:103A0000E6464FF6FF7303EA0525354324F40056D6
:103A10000C8903EA043434434E8803EA063626430D
:103A2000094CA04202D0094CA04205D122F48044A6
:103A30008A8903EA8212224382808583C988A0F89A
:103A40004010068470BD0000002C0140003401408D
:103A5000828B4FF6FF7322F4006203EA01211143C7
:103A60008183704701858282704781867047018714
:103A7000704781877047A0F84010704730B50288C2
:103A80001B4B1C4C98420DD0A0420BD0B0F1804F84
:103A900008D0194DA84205D0184DA84202D0184DA3
:103AA000A84203D122F070054A882A43154DA84246
:103AB00006D0154DA84203D022F44075CA882A4387
:103AC00002808A8882850A88028598420AD0A042AC
:103AD00008D00E4A904205D00D4A904202D00D4ABD
:103AE000904201D1097A01860121818230BD000016
:103AF000002C014000340140000400400008004058
:103B0000000C004000100040001400400040014044
:103B100000440140004801401CB51D4CE08C401C95
:103B2000E084642000F0D2FAE08C012804D03C2824
:103B300009D0782810D011E00021FF20FEF77EFE8A
:103B40000021FF2005E000210846FEF777FE002156
:103B50000846FEF795FE01E00020E084E18C0A2093
:103B6000B1FBF0F200FB121000280FD1B4F91220C3
:103B700008A000F0D3F9E18AB4F91C00CDE90001F6
:103B8000D4E90C32E18C0AA000F0C8F91CBD000099
:103B90004000002025645F436F756E74657250614C
:103BA0006E456E636F6465722D2D3E25640D0A00AF
:103BB000692D3E256420757365722D3E2564204372
:103BC000757272656E742D3E256420706F696E7417
:103BD00065722D3E2564205370656564506F732DAA
:103BE0003E256420200D0A007047000038B50024EF
:103BF000FFF768F84FF47845FFF77CF8042808D001
:103C0000052806D0032803D0022802D0012800D1BD
:103C10000F241F2307A2642108200095FCF742FF10
:103C20000E2CE9D30020FCF789FFBDE83840FCF7F3
:103C30004DBC00005345542054494D45205550205B
:103C40002620444F574E202F204C454654202620F6
:103C50005249474854000000704700001FB54FF418
:103C6000E13000900020ADF80400ADF80600ADF89A
:103C70000800ADF80C000C20054CADF80A006946B0
:103C8000204600F0B5F80121204600F069F81FBD7C
:103C9000003801401FB5134800904FF48050ADF834
:103CA00004000020ADF80600ADF80800ADF80C00E7
:103CB0000C200D4CADF80A006946204600F098F83B
:103CC000012240F22551204600F07AF8012240F20C
:103CD0002771204600F074F80121204600F040F8DA
:103CE0001FBD000090D003000048004070B5194C83
:103CF0002021204600F03EF8E0B1204600F0D2F846
:103D00001549C0F300220023C8804A7062B1012225
:103D10000A70124D8A88A854521C90B28880B0F55F
:103D2000007F07D38B8005E0088118B98B8040F2B3
:103D3000FF10088140F227752946204600F021F83F
:103D4000002806D029462046BDE87040002200F039
:103D500037B870BD0048004000000020B0040020CB
:103D60000029818902D041F4005101E021F4005181
:103D7000818170470246002012880A4200D001204B
:103D8000704730B501F01F0201240025C1F3421332
:103D900004FA02F2012B0FD0022B0FD0838A4FEAD4
:103DA00011210088134204FA01F400EA040001D052
:103DB00000B10125284630BD8389F0E7038AEEE78C
:103DC00010B5C1F3421301F01F040121A140012BE2
:103DD00007D0022B07D01430002A026805D00A430E
:103DE00004E00C30F8E71030F6E78A43026010BDBB
:103DF00030B50446008A85B00D464CF6FF71084088
:103E0000E98801432182A1894EF6F3100140A88878
:103E10002A8910436A890A431043A081A08A4FF679
:103E2000FF410840A9890143A1826846FEF700FFCF
:103E30001B48844201D1039800E00298A18909043B
:103E4000002900EBC00101EB0010296802DA4FEAFB
:103E5000410101E04FEA8101B0FBF1F06422B0FBC7
:103E6000F2F14FEA01114FEA11136FF018056B439D
:103E700000EB8300A3891D044FF0320306D503EB4A
:103E8000C000B0FBF2F000F0070005E003EB00100B
:103E9000B0FBF2F000F00F000843208105B030BD08
:103EA000003801408088C0F308007047C1F3080162
:103EB00081807047F8B5174C4FF6FF761825606A79
:103EC0001F234168207801EB0011E16100960A6828
:103ED00005EB00116088FCF7E5FD2078B8B1401EC5
:103EE0002070606A21784FF61F024068334600EB6D
:103EF0000110E0610092026805EB01116088FCF797
:103F0000D1FD04496278183120788854F8BD606A80
:103F1000007AE4E7F8000020FEE700000FB4054B4C
:103F200010B503A9044A029800F018F810BC5DF817
:103F300014FB000001410008AC04002002E008C8A6
:103F4000121F08C1002AFAD170477047002001E013
:103F500001C1121F002AFBD1704700002DE9FF4F5D
:103F600089B09B460446002597E0252833D10027D9
:103F7000641C4E49B84601222378203B02FA03F024
:103F8000084202D00743641CF6E720782E2819D196
:103F900014F8010F47F004072A280ED06FF02F0203
:103FA0002078A0F1300109290CD808EB880102EB38
:103FB000410100EB0108641CF2E70A98641C50F808
:103FC000048B0A90207800286BD0642808D06928D8
:103FD00006D0752820D05A460B9990476D1C5BE09F
:103FE0000A994FF00A0901C90A91002804DAC0F1C0
:103FF00000004FF02D0102E0390504D52B218DF88A
:104000002010012103E0F90704D02021F7E78A46B8
:1040100008AE0EE00021FAE70A994FF00A0901C93B
:104020000A91F7E74946FCF7B1F801F1300106F8CB
:10403000011D0028F6D1ADEB060000F1200978073C
:1040400001D44FF00108C84502DDA8EB090000E0EB
:1040500000208046002706E008A85A46C05D0B995C
:1040600090476D1C7F1C5745F6DB04E030205A4614
:104070000B9990476D1CB8F10001A8F10108F5DC1F
:1040800005E016F8010B5A460B9990476D1CB9F1E3
:104090000001A9F10109F4DC641C207800287FF4F8
:1040A00064AF0DB02846BDE8F08F0000092801007C
:1040B000002240F2754306E00021491C89B2994272
:1040C000FBD3521C92B28242F6D3704730B50B49F3
:1040D00000234FF4FA64CB8500EB400509E08B85A3
:1040E00000BF8A8D521C92B28A85A242F8D3401C2E
:1040F000C885C88D8542F2D830BD00000A00002076
:1041000070B5074D0446C1B22846FFF7CFFE4021E7
:104110002846FFF72FFE0028F9D0204670BD00008A
:1041200000380140FEF772FDFCF7B0FBFCF7D2FA55
:10413000FFF794FDFFF7AEFDFFF7B0F9FEF750FF74
:10414000FEF7C2FBFCF76AFDFEF716F9FCF7BEF9B5
:10415000FEF794FEFEF7C0FD6420FFF7B7FF0320D3
:10416000FEF7EAF8F6E7509375EC48F2ECF47FF6C8
:1041700090F759F8F4F870F9D7F92DFA77FAB7FAF9
:10418000EFFA21FB4EFB77FB9BFBBDFBDCFBF8FB57
:1041900012FC2AFC41FC56FC6AFC7DFC8FFC9FFC57
:1041A000AFFCBEFCCCFCDAFCE7FCF3FCFFFC0AFD38
:1041B00015FD1FFD29FD32FD3CFD45FD4DFD55FD65
:1041C0005DFD65FD6CFD73FD7AFD81FD88FD8EFD55
:1041D00094FD9AFDA0FDA6FDABFDB1FDB6FDBBFDB6
:1041E000C0FDC5FDC9FDCEFDD2FDD7FDDBFDDFFD68
:1041F000E3FDE7FDEBFDEFFDF3FDF7FDFAFDFEFD51
:1042000001FE05FE08FE0BFE0EFE11FE15FE18FE59
:104210001BFE1DFE20FE23FE26FE29FE2BFE2EFE8B
:1042200031FE33FE36FE38FE3AFE3DFE3FFE41FED5
:1042300044FE46FE48FE4AFE4DFE4FFE51FE53FE32
:1042400055FE57FE59FE5BFE5DFE5FFE60FE62FEA0
:1042500064FE66FE68FE69FE6BFE6DFE6FFE70FE1C
:1042600072FE73FE75FE77FE78FE7AFE7BFE7DFEA3
:104270007EFE80FE81FE83FE84FE85FE87FE88FE34
:104280008AFE8BFE8CFE8EFE8FFE90FE92FE93FECB
:1042900094FE95FE97FE98FE99FE9AFE9BFE9CFE6C
:1042A0009EFE9FFEA0FEA1FEA2FEA3FEA4FEA5FE12
:1042B000A7FEA8FEA9FEAAFEABFEACFEADFEAEFEBA
:1042C000AFFEB0FEB1FEB2FEB3FEB4FEB5FEB6FE6A
:1042D000B6FEB7FEB8FEB9FEBAFEBBFEBCFEBDFE22
:1042E000BEFEBFFEBFFEC0FEC1FEC2FEC3FEC4FED8
:1042F000C4FEC5FEC6FEC7FEC8FEC8FEC9FECAFE95
:10430000CBFECCFECCFECDFECEFECFFECFFED0FE51
:10431000D1FED1FED2FED3FED4FED4FED5FED6FE13
:10432000D6FED7FED8FED8FED9FEDAFEDAFEDBFED8
:10433000DCFEDCFEDDFEDEFEDEFEDFFEE0FEE0FE9D
:10434000E1FEE1FEE2FEE3FEE3FEE4FEE4FEE5FE66
:10435000E6FEE6FEE7FEE7FEE8FEE8FEE9FEEAFE30
:10436000EAFEEBFEEBFEECFEECFEEDFEEDFEEEFEFD
:10437000EFFEEFFEF0FEF0FEF1FEF1FEF2FEF2FEC9
:10438000F3FEF3FEF4FEF4FEF5FEF5FEF6FEF6FE99
:10439000F7FEF7FEF8FEF8FEF9FEF9FEFAFEFAFE69
:1043A000FAFEFBFEFBFEFCFEFCFEFDFEFDFEFEFE3D
:1043B000FEFEFFFEFFFEFFFE00FF00FF01FF01FF0C
:1043C00002FF02FF02FF03FF03FF04FF04FF05FFDC
:1043D00005FF05FF06FF06FF07FF07FF07FF08FFB2
:1043E00008FF09FF09FF09FF0AFF0AFF0BFF0BFF88
:1043F0000BFF0CFF0CFF0CFF0DFF0DFF0EFF0EFF60
:104400000EFF0FFF0FFF0FFF10FF10FF10FF11FF38
:1044100011FF12FF12FF12FF13FF13FF13FF14FF10
:1044200014FF14FF15FF15FF15FF16FF16FF16FFEB
:1044300017FF17FF17FF18FF18FF18FF19FF19FFC5
:1044400019FF1AFF1AFF1AFF1BFF1BFF1BFF1BFFA1
:104450001CFF1CFF1CFF1DFF1DFF1DFF1EFF1EFF7D
:104460001EFF1FFF1FFF1FFF1FFF20FF20FF20FF5A
:1044700021FF21FF21FF21FF22FF22FF22FF23FF37
:1044800023FF23FF23FF24FF24FF24FF25FF25FF15
:1044900025FF25FF26FF26FF26FF26FF27FF27FFF4
:1044A00027FF28FF28FF28FF28FF29FF29FF29FFD2
:1044B00029FF2AFF2AFF2AFF2AFF2BFF2BFF2BFFB2
:1044C0002BFF2CFF2CFF2CFF2CFF2DFF2DFF2DFF92
:1044D0002DFF2EFF2EFF2EFF2EFF2FFF2FFF2FFF72
:1044E0002FFF30FF30FF30FF30FF30FF31FF31FF53
:1044F00031FF31FF32FF32FF32FF32FF33FF33FF34
:1045000033FF33FF33FF34FF34FF34FF34FF35FF15
:1045100035FF35FF35FF35FF36FF36FF36FF36FFF7
:1045200036FF37FF37FF37FF37FF38FF38FF38FFD9
:1045300038FF38FF39FF39FF39FF39FF39FF3AFFBC
:104540003AFF3AFF3AFF3AFF3BFF3BFF3BFF3BFF9F
:104550003BFF3CFF3CFF3CFF3CFF3CFF3DFF3DFF82
:104560003DFF3DFF3DFF3EFF3EFFEE02F702000331
:10457000090312031B0325032E03370340034903DA
:1045800052035C0365036E03770380038903920380
:104590009B03A403AD03B603BE03C703D003D90333
:1045A000E103EA03F303FB0304040D0415041D04F3
:1045B00026042E0436043F0447044F0457045F04C6
:1045C00067046F0477047F0486048E0496049D04B8
:1045D000A504AC04B404BB04C204C904D004D704C9
:1045E000DE04E504EC04F304F904000506050D05FA
:1045F000130519051F0525052B05310537053D0553
:10460000420548054D05530558055D0562056705DA
:104610006C05710575057A057F05830587058B0592
:104620009005930597059B059F05A205A605A9057D
:10463000AD05B005B305B605B805BB05BE05C0059B
:10464000C305C505C705C905CB05CD05CF05D005F3
:10465000D205D305D505D605D705D805D905D90581
:10466000DA05DB05DB05DB05DB05DC05DB05DB054A
:10467000DB05DB05DA05D905D905D805D705D6054B
:10468000D505D305D205D005CF05CD05CB05C90588
:10469000C705C505C305C005BE05BB05B805B605FC
:1046A000B305B005AD05A905A605A2059F059B05A7
:1046B0009705930590058B05870583057F057A058A
:1046C000750571056C05670562055D05580553059F
:1046D0004D05480542053D05370531052B052505E6
:1046E0001F05190513050D0506050005F904F3045A
:1046F000EC04E504DE04D704D004C904C204BB04FE
:10470000B404AC04A5049D0496048E0486047F04BE
:1047100077046F0467045F0457044F0447043F04A1
:1047200036042E0426041D0415040D040404FB03A2
:10473000F303EA03E103D903D003C703BE03B603BF
:10474000AD03A4039B0392038903800377036E03E5
:1047500065035C0352034903400337032E0325031B
:104760001B03120309030003F702EE02E402DB025B
:10477000D202C902C002B602AD02A4029B0292029A
:1047800089027F0276026D0264025B0252024902D4
:10479000400237022E0225021D0214020B02020201
:1047A000FA01F101E801E001D701CE01C601BE0125
:1047B000B501AD01A5019C0194018C0184017C012E
:1047C00074016C0164015C0155014D0145013E011C
:1047D00036012F0127012001190112010B010401EB
:1047E000FD00F600EF00E800E200DB00D500CE009F
:1047F000C800C200BC00B600B000AA00A4009E0021
:10480000990093008E00880083007E007900740078
:104810006F006A00660061005C00580054005000A0
:104820004B004800440040003C0039003500320095
:104830002E002B0028002500230020001D001B0057
:10484000180016001400120010000E000C000B00DF
:104850000900080006000500040003000200020031
:104860000100000000000000000000000000000047
:104870000000000001000200020003000400050027
:104880000600080009000B000C000E0010001200CA
:104890001400160018001B001D0020002300250036
:1048A00028002B002E003200350039003C0040006B
:1048B000440048004B005000540058005C00610068
:1048C00066006A006F00740079007E008300880033
:1048D0008E00930099009E00A400AA00B000B600CC
:1048E000BC00C200C800CE00D500DB00E200E8003A
:1048F000EF00F600FD0004010B0112011901200177
:1049000027012F0136013E0145014D0155015C0192
:1049100064016C0174017C0184018C0194019C018F
:10492000A501AD01B501BE01C601CE01D701E0016F
:10493000E801F101FA0102020B0214021D02250234
:104940002E0237024002490252025B0264026D02EB
:1049500076027F02890292029B02A402AD02B60295
:10496000C002C902D202DB02E402EE02DC05DB0572
:10497000DB05DB05DB05DA05D905D905D805D70543
:10498000D605D505D305D205D005CF05CD05CB0578
:10499000C905C705C505C305C005BE05BB05B805E6
:1049A000B605B305B005AD05A905A605A2059F0589
:1049B0009B059705930590058B05870583057F0566
:1049C0007A05750571056C05670562055D05580575
:1049D00053054D05480542053D05370531052B05B5
:1049E00025051F05190513050D0506050005F90424
:1049F000F304EC04E504DE04D704D004C904C204C3
:104A0000BB04B404AC04A5049D0496048E0486047F
:104A10007F0477046F0467045F0457044F0447045E
:104A20003F0436042E0426041D0415040D0404045A
:104A3000FB03F303EA03E103D903D003C703BE0377
:104A4000B603AD03A4039B0392038903800377039A
:104A50006E0365035C0352034903400337032E03CF
:104A600025031B03120309030003F702EE02E4020D
:104A7000DB02D202C902C002B602AD02A4029B024E
:104A8000920289027F0276026D0264025B02520288
:104A90004902400237022E0225021D0214020B02B7
:104AA0000202FA01F101E801E001D701CE01C601DD
:104AB000BE01B501AD01A5019C0194018C018401E9
:104AC0007C0174016C0164015C0155014D014501DB
:104AD0003E0136012F0127012001190112010B01AE
:104AE0000401FD00F600EF00E800E200DB00D50065
:104AF000CE00C800C200BC00B600B000AA00A400EE
:104B00009E00990093008E00880083007E0079004B
:104B100074006F006A00660061005C005800540079
:104B200050004B004800440040003C003900350074
:104B300032002E002B0028002500230020001D003D
:104B40001B00180016001400120010000E000C00CC
:104B50000B00090008000600050004000300020025
:104B60000200010000000000000000000000000042
:104B70000000000000000100020002000300040029
:104B800005000600080009000B000C000E001000D4
:104B900012001400160018001B001D002000230046
:104BA000250028002B002E003200350039003C0083
:104BB0004000440048004B005000540058005C0086
:104BC000610066006A006F00740079007E00830057
:104BD00088008E00930099009E00A400AA00B000F7
:104BE000B600BC00C200C800CE00D500DB00E20069
:104BF000E800EF00F600FD0004010B0112011901AD
:104C0000200127012F0136013E0145014D015501CB
:104C10005C0164016C0174017C0184018C019401CC
:104C20009C01A501AD01B501BE01C601CE01D701B0
:104C3000E001E801F101FA0102020B0214021D0277
:104C400025022E0237024002490252025B02640230
:104C50006D0276027F02890292029B02A402AD02DB
:104C6000B602C002C902D202DB02E402EE02F7027F
:104C70000003090312031B0325032E03370340031C
:104C8000490352035C0365036E03770380038903C2
:104C900092039B03A403AD03B603BE03C703D00373
:104CA000D903E103EA03F303FB0304040D04150431
:104CB0001D0426042E0436043F0447044F04570401
:104CC0005F0467046F0477047F0486048E049604EF
:104CD0009D04A504AC04B404BB04C204C904D004FC
:104CE000D704DE04E504EC04F304F904000506052A
:104CF0000D05130519051F0525052B05310537057C
:104D00003D05420548054D05530558055D056205FD
:104D100067056C05710575057A057F0583058705AF
:104D20008B059005930597059B059F05A205A60594
:104D3000A905AD05B005B305B605B805BB05BE05AB
:104D4000C005C305C505C705C905CB05CD05CF05FC
:104D5000D005D205D305D505D605D705D805D90583
:104D6000D905DA05DB05DB05DB05DB05DC05000025
:104D70000000000000000000000000000000000033
:104D800000183C3C3C1818001818000000000000F7
:104D900000666666000000000000000000000000E1
:104DA0000036367F3636367F363600000000001873
:104DB000183C666030180C06663C181800000000AD
:104DC00070D8DA760C18306E5B1B0E000000000005
:104DD00000386C6C38606F66663B000000000000B5
:104DE000001818180000000000000000000000007B
:104DF000000C1818303030303018180C000000004B
:104E0000003018180C0C0C0C0C18183000000000A6
:104E1000000000361C7F1C3600000000000000006F
:104E200000000018187E18180000000000000000A4
:104E300000000000000000001C1C0C180000000016
:104E400000000000007E00000000000000000000E4
:104E500000000000000000001C1C0000000000001A
:104E60000006060C0C1818303060600000000000CE
:104E7000001E333737333B3B331E00000000000079
:104E8000000C1C7C0C0C0C0C0C0C00000000000036
:104E9000003C6666060C1830607E000000000000D2
:104EA000003C6666061C0666663C000000000000CA
:104EB000003030363636667F0606000000000000FF
:104EC000007E6060607C06060C7800000000000038
:104ED000001C18307C666666663C0000000000001E
:104EE000007E060C0C181830303000000000000066
:104EF000003C6666763C6E66663C00000000000082
:104F0000003C666666663E0C183800000000000033
:104F10000000001C1C0000001C1C00000000000021
:104F20000000001C1C0000001C1C0C1800000000ED
:104F300000060C18306030180C060000000000005D
:104F4000000000007E007E00000000000000000065
:104F5000006030180C060C183060000000000000E3
:104F6000003C66660C1818001818000000000000CD
:104F7000007EC3C3CFDBDBCFC07F0000000000009A
:104F800000183C6666667E666666000000000000EB
:104F9000007C6666667C6666667C00000000000039
:104FA000003C666660606066663C000000000000D1
:104FB00000786C66666666666C780000000000002B
:104FC000007E6060607C6060607E00000000000029
:104FD000007E6060607C6060606000000000000037
:104FE000003C666660606E66663E00000000000081
:104FF00000666666667E6666666600000000000003
:10500000003C181818181818183C00000000000080
:105010000006060606060666663C00000000000064
:105020000066666C6C786C6C6666000000000000C0
:105030000060606060606060607E000000000000F2
:10504000006363776B6B6B636363000000000000B9
:10505000006363737B6F676363630000000000009D
:10506000003C666666666666663C000000000000FE
:10507000007C6666667C6060606000000000000086
:10508000003C666666666666663C0C0600000000CC
:10509000007C6666667C6C66666600000000000048
:1050A000003C666030180C06663C00000000000002
:1050B000007E1818181818181818000000000000B2
:1050C0000066666666666666663C00000000000074
:1050D00000666666666666663C18000000000000B2
:1050E000006363636B6B6B363636000000000000B4
:1050F0000066663418182C66666600000000000022
:1051000000666666663C181818180000000000006B
:10511000007E06060C183060607E00000000000073
:10512000003C303030303030303030303C00000027
:10513000006060303018180C0C06060000000000FB
:10514000003C0C0C0C0C0C0C0C0C0C0C3C00001857
:105150003C660000000000000000000000000000AD
:10516000000000000000000000000000FF00000040
:1051700000181818000000000000000000000000E7
:105180000000003C06063E66663E0000000000008F
:105190000060607C66666666667C00000000000059
:1051A0000000003C66606060663C0000000000009B
:1051B0000006063E66666666663E00000000000069
:1051C0000000003C66667E60603C0000000000005D
:1051D000001E3030307E30303030000000000000E3
:1051E0000000003E66666666663E06067C000000BD
:1051F0000060607C6666666666660000000000000F
:105200001818007818181818187E00000000000000
:105210000C0C003C0C0C0C0C0C0C0C0C7800000062
:1052200000606066666C786C6666000000000000D6
:105230000078181818181818187E000000000000D0
:105240000000007E6B6B6B6B6B6300000000000066
:105250000000007C6666666666660000000000006E
:105260000000003C66666666663C000000000000C8
:105270000000007C66666666667C60606000000018
:105280000000003E66666666663E06060600000092
:10529000000000666E70606060600000000000004A
:1052A0000000003E60603C06067C0000000000003C
:1052B0000030307E30303030301E00000000000002
:1052C0000000006666666666663E0000000000003C
:1052D00000000066666666663C180000000000007C
:1052E000000000636B6B6B6B363600000000000043
:1052F00000000066663C183C666600000000000086
:105300000000006666666666663C0C18F0000000E9
:105310000000007E060C1830607E000000000000D7
:10532000000C1818183060301818180C0000000015
:10533000001818181818181818181818180000004D
:1053400000301818180C060C18181830000000004F
:105350000071DB8E00000000000000000000202033
:1053600020202020202048656C7020202020202034
:1053700020200020202020202041626F75742055BD
:10538000732020202020200020202020204D616933
:105390006E206D656E7520202020202000202020AA
:1053A0002020202043616C656E64617220202020E3
:1053B000200020202020202054656D7072657475B7
:1053C000726520202020002020202020444D5820DD
:1053D0004164647265737320202020002020202007
:1053E00020204C616D70204F4E2F4F4646202020CC
:1053F000002020202054696D6520616E6420436F79
:105400006C6F6B20200020202020204D6F746F7265
:1054100020436F6E74726F6C2020002020796F6EB5
:10542000796F6E2E74616F62616F2E636F6D2000F5
:105430002020202020202052657475726E202020AC
:10544000202020200020202020457869743A204523
:1054500058544920202020202000202045786974BD
:105460003A2052544320416C61726D20202000206C
:105470002020202053544F50204D6F646520202061
:1054800020202000202020202020202053686F771B
:10549000202020202020202000202020202020202C
:1054A00041646A7573742020202020202000202071
:1054B00020202020202054696D65202020202020DD
:1054C00020200020202020202020204461746520FE
:1054D00020202020202020002020202020202020EC
:1054E000416C61726D20202020202020002020208F
:1054F0002020202041626F75742020202020202051
:1055000020002020202020202041726D6275732011
:10551000202020202020002020202020202020418A
:10552000626F757420202020202020002020202061
:1055300020202053746172742020202020202020FD
:1055400000202020202020202046756E6E7920200B
:1055500020202020200020204C616D704F4E4F46AF
:105560004620202020202020002020202020202035
:1055700050414E20202020202020202020002020CC
:10558000202020202054494C54202020202020205E
:10559000202000202020202020204175746F202012
:1055A00020202020202020002020204D6F746F72AA
:1055B00020436F6E74726F6C20202000202020200A
:1055C00053484F572054656D70726574757265202D
:1055D000002020202054656D7072657475726520FE
:1055E0002020202000202020202020202052657410
:1055F00075726E20202020202000202020202020D6
:105600002053656E642020202020202020200020B0
:1056100020202020202052656365697665202020A7
:1056200020202000202020444D58204164647265D1
:105630007373205345542020000000005C5600087E
:1056400000000020B0040000DC010008E85700085A
:10565000B0040020280400004C3F0008A112C8C874
:1056600009E803F401F401D00702CBEE0202E12ABB
:10567000010262015A0808419A7C0C919A040401C3
:10568000240B104C0460A958092E50D10225081390
:10569000C7534C08050B04138C049B209D101A4023
:1056A000109AB21013F4038C200654101AC8109AE2
:1056B000DC201A7C109AF1101A50109A5E101A24ED
:1056C000109A731013F8029B201B501ACC101A88E2
:1056D000201320013320091A451C4BA5071C411A31
:1056E0005A109AA7101A30108B9D2F101A6F101A8B
:1056F000BC3C32031A990C8BED3B1C1A84100B181E
:10570000593C3C1AAE109AF83CCB81043C9A831069
:10571000E93C1AC3101A34BC693CCB3B023C9A3DAD
:1057200010E93C1AD8105A703C1AED0C0A19412C99
:105730001302551B08AC2C5A022C0A19392C1A17C3
:105740002C5AD82C1A2C0C1A031809162C135E5339
:105750008C0804032C0B1889082C1A41209A302C31
:105760000B1875232C1A56205A5C2C1A690C8B695D
:105770002A1C1A7E108BE93B101A93100A19B9D013
:105780001AA8201A884C32041ABC0C2918290413B0
:10579000EC01EA202C1AD1205AD4781AAE1C692CBC
:1057A0001328029B20C3101A64109AD8101AA01054
:1057B0001AE53CA94C1B9D53084A047829F09AF538
:1057C000C41AFA108BA93010130F560C1808192E92
:1057D000C41A24205A4C4C3C020406142D01020326
:0857E000040445060708090056
:0400000508000131BD
:00000001FF
