:020000040800F2
:1000000058040020D9210008E1210008E32100085C
:10001000E5210008E7210008E921000800000000B0
:10002000000000000000000000000000EB210008BC
:10003000ED21000800000000EF210008F121000878
:10004000F3210008F3210008F3210008F321000840
:10005000F3210008F3210008F3210008F321000830
:10006000F3210008F3210008F3210008F321000820
:10007000F3210008F3210008F3210008F321000810
:10008000F3210008F3210008F3210008F321000800
:10009000F3210008F3210008F3210008F3210008F0
:1000A000F3210008F3210008F3210008F3210008E0
:1000B00027060008F3210008F3210008F3210008B7
:1000C000F3210008F3210008F3210008F3210008C0
:1000D000F3210008F3210008F3210008F3210008B0
:1000E000F3210008F3210008F3210008DFF80CD009
:1000F00002F010FC004800470101000858040020ED
:10010000642000F0DAFA02F0E7F8642000F0D5FA93
:1001100000F064F800F0FCF800F000FA25480068F0
:1001200002F024FB0746244A244B02F0E3F905467B
:1001300002F0FDFA04461F48006802F0DFFA81462B
:10014000214600F0D3FA34E01D4800681D490968D3
:1001500088422ED11748006802F008FB0746164A6D
:10016000164B02F0C7F9054602F0E1FA04461148C1
:10017000006802F0C3FA8146214600F0B7FA12483F
:10018000006812490860124801F024FF824602F01C
:10019000A8FA80464FF066320E4B02F0ABF90646E5
:1001A00000220D4B02F018FA044602F0F2FA06495A
:1001B0000860C9E7100000209A9999999999E93F38
:1001C000240000200800002000000020040000207F
:1001D0000024014066660A4000FEAF4000B587B0CB
:1001E0000121480200F05AFE0121082000F056FECD
:1001F0004FF4004000F0B9FD002002908DF80C0093
:1002000001208DF80D004FF460200490002005902F
:1002100001208DF8180002A9354801F0DCFD02200C
:10022000ADF8040000208DF8070003208DF80600CB
:1002300001A9304800F07CFB0523012209212C484C
:1002400001F061FE01212A4801F0F1FD284801F08A
:1002500010FE00BF264801F011FE0028FAD1244804
:1002600001F016FE00BF224801F017FE0028FAD167
:1002700001211F4801F01BFE07B000BD10B5012190
:100280001B4801F014FE00BF0221194801F080FF55
:100290000028F9D0164801F09DFE044602F00BFA42
:1002A00010BD2DE9F84F1448006802F009FA8046A5
:1002B000124A134B02F01EF904460D46114801681C
:1002C0001148006802F0DAF88146104902F0DCF8C3
:1002D000804602F04BFA064622462B4602F07CF995
:1002E000824602F056FA00900098BDE8F88F0000B0
:1002F00000240140000C0140080000202D431CEBAD
:10030000E2362A3F04000020000000200000904256
:1003100008B50121082000F0C1FD4FF40070ADF8D0
:10032000000003208DF8020010208DF803006946BC
:10033000774800F0FDFA4FF48070ADF8000003201C
:100340008DF8020010208DF803006946704800F017
:10035000EFFA8020ADF8000003208DF80200102095
:100360008DF8030069466A4800F0E2FA4020ADF8D3
:10037000000003208DF8020010208DF8030069466C
:10038000634800F0D5FA0220ADF8000000208DF897
:10039000030003208DF8020069465D4800F0C8FAAA
:1003A00008BD10B55B480068401C5A4908600868E1
:1003B000C11700EB5171C910A0EBC101554A116082
:1003C00000205549086010460068082817D2DFE869
:1003D00000F004172A3D5063768940214C4800F014
:1003E00052FB80214A4800F050FB4FF4807148488E
:1003F00000F04BFB4FF40071454800F046FB84E0F1
:100400008021434800F03FFB4021414800F03BFB86
:100410004FF480713E4800F038FB4FF400713C48C7
:1004200000F033FB71E08021394800F02CFB4FF4E1
:100430008071374800F029FB4021354800F025FB4A
:100440004FF40071324800F020FB5EE04FF4807101
:100450002F4800F018FB80212D4800F014FB4FF4CA
:1004600000712B4800F011FB4021294800F00DFBE2
:100470004BE04FF48071264800F005FB80212448B2
:1004800000F003FB4021224800F0FFFA4FF4007116
:100490001F4800F0FAFA38E04FF480711C4800F071
:1004A000F2FA4FF400711A4800F0EDFA40211848B2
:1004B00000F0EBFA8021164800F0E7FA25E04FF44F
:1004C0000071134800F0DFFA8021114800F0DDFAD6
:1004D00040210F4800F0D9FA4FF480710C4800F029
:1004E000D4FA12E04FF40071094800F0CCFA402130
:1004F000074800F0C8FA4FF48071054800F0C5FACB
:100500008021034800F0C1FA00BF00BF10BD000009
:10051000000C0140200000202400002000B589B01C
:100520000121042000F0BAFC0121084600F0C3FCC0
:100530000121480200F0B2FC0120ADF804000320C4
:100540008DF8060018208DF8070001A9624800F018
:10055000EFF90220ADF8040003208DF80600182002
:100560008DF8070001A95C4800F0E2F91C208DF825
:10057000000000208DF801008DF8020001208DF8A8
:100580000300684600F00BF90120ADF818000020C8
:10059000ADF81A00ADF81E0048F69F40ADF81C00FB
:1005A00006A94FF0804000F0B5FD6020ADF80800CE
:1005B0000120ADF80A000420ADF80C0041F28830AB
:1005C000ADF80E000020ADF810000820ADF81200C4
:1005D0004001ADF814000020ADF8160002A94FF05C
:1005E000804000F0D4FD0821C80601F01FFA02A9DE
:1005F0004FF0804000F00DFE0821C80601F01FFA00
:100600000121880701F0E2F901221146900701F06B
:10061000F8F80121880701F09FFB0121880701F00C
:10062000D5F809B000BD10B50121880701F097FB8E
:1006300058B10121880701F08FFB28480068401C51
:100640002649086001202649086010BD4FF0E021CE
:10065000096921F004014FF0E0221161C21700EB9B
:100660005272C2F3C7021F4B1A701946097801EB88
:100670004102C2EBC1114FF6FF7202EAC1011A4AF0
:10068000118070470146174A12784A434FF0E02321
:100690005A6100229A6101221A6100BF4FF0E022E4
:1006A000106910F0010F02D010F4803FF6D0002244
:1006B0004FF0E0231A619A61704710B5002107E0FE
:1006C00042F63C0200BF1300A2F10102FBD1491C1B
:1006D0008142F5D310BD0000000801402400002035
:1006E0001C000020280000202A00002030B589B01E
:1006F00005460C460121082000F0D0FB0121022014
:1007000000F0D9FB0020ADF81800A8B2ADF81C002D
:100710000020ADF81E00ADF81A0006A91A4800F036
:10072000F9FC6020ADF804000120ADF80600A0B28D
:10073000ADF80A000020ADF80C0001A9124800F045
:10074000B5FD0821104801F087F901210E4801F09C
:100750003DF901210C4801F045F801210A4801F05A
:1007600035F80120ADF8140003208DF8160018208C
:100770008DF8170005A9054800F0DAF800200449B3
:10078000086009B030BD000000040040000C0140CA
:100790002400002031490143314A1160704770B58F
:1007A000002100230F22C4780CB32D4C246804F4DC
:1007B000E064C4F5E064210AC1F10403CA4044784E
:1007C00004FA03F18478144021430901254C06788A
:1007D000A155047804F01F050124AC4005786D1183
:1007E0004FF0E02606EB8505C5F8004109E00478E6
:1007F00004F01F050124AC401B4D0678761145F826
:10080000264070BD194A0A400243154B1B1F1A604F
:10081000704739B1124A121D12680243104B1B1D5A
:100820001A6006E00E4A121D126882430C4B1B1D13
:100830001A607047042808D14FF0E021096941F09F
:1008400004014FF0E022116107E04FF0E021096957
:1008500021F004014FF0E022116170470000FA0519
:100860000CED00E000E400E080E100E080FFFF1F0D
:1008700010B50446CA48844208D10121042000F082
:1008800027FB0021042000F023FB46E0C5488442FA
:1008900008D10121082000F01BFB0021082000F0F6
:1008A00017FB3AE0C048844208D10121102000F033
:1008B0000FFB0021102000F00BFB2EE0BB48844210
:1008C00008D10121202000F003FB0021202000F0AE
:1008D000FFFA22E0B648844208D10121402000F00E
:1008E000F7FA0021402000F0F3FA16E0B148844204
:1008F00008D10121802000F0EBFA0021802000F0D7
:10090000E7FA0AE0AC48844207D10121801500F0E3
:10091000DFFA0021A01500F0DBFA10BD10B50121AF
:10092000084600F0D5FA0021012000F0D1FA10BDF0
:100930002DE9F04102460025002600200023002476
:10094000002791F803C00CF00F0591F803C01CF0CC
:10095000100F03D091F802C04CEA050591F800C0D1
:10096000BCF1000F31D0146800202BE04FF0010CD7
:100970000CFA00F3B1F800C00CEA03069E4220D145
:1009800083004FF00F0C0CFA03F7BC4305FA03FC8D
:100990004CEA040491F803C0BCF1280F06D14FF0D3
:1009A000010C0CFA00FCC2F814C00AE091F803C074
:1009B000BCF1480F05D14FF0010C0CFA00FCC2F855
:1009C00010C0401C0828D1D31460B1F800C0BCF19D
:1009D000FF0F34DD546800202EE000F1080C4FF0CA
:1009E000010808FA0CF3B1F800C00CEA03069E42B5
:1009F00021D183004FF00F0C0CFA03F7BC4305FA2A
:100A000003FC4CEA040491F803C0BCF1280F05D1A3
:100A100000F1080C08FA0CF8C2F8148091F803C031
:100A2000BCF1480F07D100F1080C4FF0010808FA9B
:100A30000CF8C2F81080401C0828CED35460BDE8E2
:100A4000F0814FF6FF710180022181700421C17095
:100A500070470246002093680B4201D0012000E05D
:100A6000002070470146886880B270470246002027
:100A7000D3680B4201D0012000E0002070470146FE
:100A8000C86880B2704701617047416170470AB120
:100A9000016100E041617047C16070474FF48032EE
:100AA0000A4382618161826182698269704702467C
:100AB0000020424B18684FF68073184040EA02103D
:100AC00008433E4B186070473D49C8617047F0B518
:100AD0000A46002300240021002500F00046B6F15C
:100AE000004F02D1354EF16901E0344E7168C0F318
:100AF000034583B200F44016B6F5401F08D121F03B
:100B000070612E4E766826F070662C4F7E6012E083
:100B100000F48016B6F5801F06D1032606FA05F408
:100B2000A14341F0706106E0460D360103FA06F676
:100B3000B14341F0706122B1460D360103FA06F669
:100B4000314300F00046B6F1004F02D11B4EF16177
:100B500001E01A4E7160F0BD30B500228B071C0F0A
:100B60000F2303FA04F2154B08338C1053F824308A
:100B70009343124C08348D1044F8253023468C10D2
:100B800053F824308C07240F00FA04F423430B4C51
:100B900008348D1044F8253030BD0A49086070478C
:100BA00000080140000C0140001001400014014009
:100BB00000180140001C01400020014000000140DD
:100BC00000002042DC002042DD48006840F00100C7
:100BD000DB49086008464068DA490840D84948605F
:100BE00008460068D8490840D549086008460068AA
:100BF00020F4802008600846406820F4FE00486029
:100C00004FF41F0088607047CD49096821F4803196
:100C1000CB4A11601146096821F480211160B0F5BA
:100C2000803F03D0B0F5802F0ED106E0C44909689B
:100C300041F48031C24A116007E0C149096841F4BA
:100C4000A021BF4A116000E000BF00BF704710B58F
:100C500001460022002300204A11012A02D1B84C8B
:100C6000236806E0022A02D1B54C236A01E0B44CA5
:100C7000636A01F01F02012494401C4201D001204C
:100C800000E0002010BD38B50020009000240025B1
:100C900000BF3120FFF7DBFF05460098401C0090A5
:100CA0000098B0F5A06F01D0002DF2D03120FFF7F1
:100CB000CEFF08B1012400E00024204638BD0146E3
:100CC00000209F4A106820F0F80040EAC100106040
:100CD00070479E490860704702460020984B58684C
:100CE00020F47C1042EA01031843954B586070478A
:100CF00096490866704701460020914A506820F0E6
:100D000003000843506070478D48406800F00C00B5
:100D10007047014600208A4A506820F0F0000843DE
:100D20005060704701460020854A506820F4E0601A
:100D300008435060704701460020814A506820F403
:100D4000605040EAC1005060704729B17C4A527A35
:100D500002437B4B5A7204E0794A527A8243784BC1
:100D60005A7270477A490860704701460020744AF9
:100D7000506820F440400843506070470021754A95
:100D800011706F4A82F82010012802D0042808D17F
:100D900003E001216F4A117004E005216D4A1170D2
:100DA00000E000BF00BF70476B49086070476449AE
:100DB000096A0143624A1162704767494439086011
:100DC000704730B500210022002400235C4D6D687F
:100DD00005F00C0121B1042905D0082923D105E033
:100DE0005E4D056022E05D4D05601FE0544D6D686D
:100DF00005F47012524D6D6805F48034022505EB40
:100E000092421CB9564D554305600BE04C4D6D6840
:100E100015F4003F03D0524D5543056002E04F4D9D
:100E20005543056002E04D4D056000BF00BF444DD5
:100E30006D6805F0F00109094A4D6B5C0568DD40FD
:100E400045603F4D6D6805F4E061090A454D6B5CF6
:100E50004568DD4085603A4D6D6805F46051C90A0A
:100E6000404D6B5C4568DD40C560354D6D6805F4EF
:100E70004041890B3C4D6B5CC568B5FBF3F50561E2
:100E800030BD29B12E4A526902432D4B5A6104E00C
:100E90002B4A526982432A4B5A61704729B1284A2A
:100EA00092690243264B9A6104E0254A9269824383
:100EB000234B9A61704729B1214AD2690243204BE2
:100EC000DA6104E01E4AD26982431D4BDA61704741
:100ED00029B11B4AD2680243194BDA6004E0184A70
:100EE000D2688243164BDA60704729B1144A1269FE
:100EF0000243134B1A6104E0114A12698243104BFA
:100F00001A61704714494039086070470F49C86436
:100F100070470B49C87170470948406A40F08070BB
:100F200007494862704701460020054A92680A4214
:100F300001D0012000E0002070470149887270470D
:100F4000001002400000FFF8FFFFF6FE00004242E2
:100F5000D8004242201002408004424200127A002F
:100F600000093D002C0000203C00002010B5044684
:100F7000FE48844208D10121C014FFF7A9FF0021D7
:100F8000E014FFF7A5FFC4E0B4F1804F08D10121C0
:100F90000846FFF7AAFF00210120FFF7A6FFB8E0EF
:100FA000F348844208D101210220FFF79EFF00216F
:100FB0000220FFF79AFFACE0EE48844208D10121FD
:100FC0000420FFF792FF00210420FFF78EFFA0E02E
:100FD000E948844208D101210820FFF786FF00215B
:100FE0000820FFF782FF94E0E448844208D1012101
:100FF0001020FFF77AFF00211020FFF776FF88E02E
:10100000DF48844208D101212020FFF76EFF002134
:101010002020FFF76AFF7CE0DA48844208D10121F2
:101020004014FFF755FF00216014FFF751FF70E0F7
:10103000D548844209D10121C804FFF749FF0021A6
:101040004FF40020FFF744FF63E0D048844209D109
:1010500001210805FFF73CFF00214FF48010FFF746
:1010600037FF56E0CA48844209D101214805FFF7FD
:101070002FFF00214FF40010FFF72AFF49E0C54879
:10108000844208D101214020FFF72FFF002140209A
:10109000FFF72BFF3DE0C048844208D101218020AA
:1010A000FFF723FF00218020FFF71FFF31E0BB483F
:1010B000844208D101218015FFF717FF0021A015F8
:1010C000FFF713FF25E0B648844209D10121080447
:1010D000FFF7FEFE00214FF48030FFF7F9FE18E025
:1010E000B048844209D101214804FFF7F1FE0021F4
:1010F0004FF40030FFF7ECFE0BE0AB48844208D120
:1011000001218804FFF7E4FE00214FF48020FFF75F
:10111000DFFE10BD00220288944B98420ED0994BFE
:1011200098420BD0B0F1804F08D0914B984205D037
:10113000904B984202D0904B984204D14FF68F7357
:101140001A404B881A438D4B984207D08C4B9842DB
:1011500004D04FF6FF431A40CB881A4302808B8895
:1011600083850B880385814B98420BD0854B984231
:1011700008D08B4B984205D08A4B984202D08A4BBC
:10118000984201D10B7A038601238382704770B5A0
:10119000002400220023058C4FF6FE76354005849E
:1011A000028C8388048B4FF68F752C40B51E2C4023
:1011B0000D882C43751E2A400D892A434D882A43E9
:1011C0006A4DA8420BD06F4DA84208D0744DA8427A
:1011D00005D0744DA84202D0734DA84213D14FF6EA
:1011E000F7752A404D892A434FF6FB752A408D88B2
:1011F0002A434FF6FF652B404FF6FF552B408D8954
:101200002B43CD892B4383800483CD88858602843C
:1012100070BD70B5002400220023058C4FF6EF76D8
:1012200035400584028C8388048B48F6FF752C407A
:101230004FF6FF452C400D884FF6FF7606EA052550
:101240002C434FF6DF752A400D8906EA05152A431F
:101250004D8806EA05152A43444DA84202D0494D5F
:10126000A8421DD14FF67F752A404D894FF6FF7673
:1012700006EA05152A434FF6BF752A408D8806EA0F
:1012800005152A434FF6FF352B404FF2FF752B40D3
:101290008D8906EA85052B43CD8906EA85052B4312
:1012A00083800483CD880587028470BD70B50024D7
:1012B00000220023058C4FF6FF6635400584028C22
:1012C0008388848B4FF68F752C404FF6FC752C402D
:1012D0000D882C434FF6FF552A400D894FF6FF76B7
:1012E00006EA05252A434D8806EA05252A431F4DAF
:1012F000A84202D0234DA8421DD14FF2FF752A40CB
:101300004D894FF6FF7606EA05252A434FF6FF354D
:101310002A408D8806EA05252A434EF6FF752B40A4
:101320004DF6FF752B408D8906EA05152B43CD89B7
:1013300006EA05152B4383808483CD888587028444
:1013400070BD70B5002200230024058C4EF6FF7698
:1013500035400584038C8488828B48F6FF752A40CB
:101360004FF6FF452A400D8820E00000002C014088
:101370000004004000080040000C00400010004045
:101380000014004000340140004C01400050014076
:101390000054014000180040001C004000200040A4
:1013A0000040014000440140004801404FF6FF76F4
:1013B00006EA05252A434DF6FF752B400D8906EAFE
:1013C00005352B434D8806EA05352B43FA4DA842D7
:1013D00002D0FA4DA84208D14BF6FF752C408D89FA
:1013E0004FF6FF7606EA85152C4384808283CD88EC
:1013F000A0F84050038470BD828B4FF2FF331A4037
:101400008283828B4FF6FF7303EA01231A438283A0
:101410007047F0B50C461546002200210026078CC7
:101420004EF6FF7C07EA0C070784828B018C4FF68F
:10143000FF7707EA043640F6FF473A404FF6FF775A
:1014400007EA05273A434FF6FF7707EA03373A439F
:10145000D94FB8420ED0D94FB8420BD0B0F1804F1F
:1014600008D0D74FB84205D0D64FB84202D0D64F99
:10147000B84206D14DF6FF77394046F480573943DC
:1014800005E047F6FF57394044F4805739438283DB
:101490000184F0BD828B4FF6F3731A408283828BF6
:1014A0000A4382837047F0B50C461546002200219E
:1014B0000026078C4FF6FF6C07EA0C070784828B27
:1014C000018C4FF6FF7707EA04264FF60C773A4077
:1014D0004FF6FF7707EA03172F433A43B64FB84258
:1014E0000ED0B64FB8420BD0B0F1804F08D0B44FF9
:1014F000B84205D0B34FB84202D0B34FB84206D17C
:101500004FF6FF57394046F48077394305E04FF2F4
:10151000FF57394044F48077394382830184F0BD1A
:10152000028B4FF2FF331A400283028B4FF6FF7398
:1015300003EA01231A4302837047F0B50C461546AF
:10154000002200210026078C4FF6EF7C07EA0C07EB
:101550000784028B018C4FF6FF7707EA041640F6EA
:10156000FF473A404FF6FF7707EA03373A434FF613
:10157000FF7707EA05273A438F4FB8420ED08F4FC7
:10158000B8420BD0B0F1804F08D08D4FB84205D093
:101590008C4FB84202D08C4FB84206D14FF6DF775D
:1015A000394046F01007394305E04FF65F77394080
:1015B00044F01007394302830184F0BD028B4FF6DB
:1015C000F3731A400283028B0A4302837047F0B51B
:1015D0000C46154600220021068C4FF6FE773E4051
:1015E0000684028B018C4FF60C7632407E1C06EA94
:1015F00003162E433243704EB0420ED06F4EB042AF
:101600000BD0B0F1804F08D06D4EB04205D06D4E7A
:10161000B04202D06C4EB04206D14FF6FD7631405A
:1016200044F00106314305E04FF6F576314044F0D1
:101630000106314302830184F0BD70B505460C46B6
:101640005D4885420ED05D4885420BD0B5F1804F94
:1016500008D05B48854205D05A48854202D05A4896
:10166000854200D100E000BF208850B92389A288BC
:1016700061882846FFF7ABFFE1882846FFF79EFF09
:1016800025E0208804280AD12389A2886188284679
:10169000FFF753FFE1882846FFF742FF17E0208855
:1016A00008280AD12389A28861882846FFF7FBFE13
:1016B000E1882846FFF7EEFE09E02389A2886188C9
:1016C0002846FFF7A6FEE1882846FFF795FE70BD85
:1016D0002DE9F04105460C4600260127608808B92F
:1016E000022600E00026A088012801D1022700E0A0
:1016F00001272088A0B92389A28861882846FFF79E
:1017000066FFE1882846FFF759FF23893A463146AC
:101710002846FFF712FFE1882846FFF701FF13E094
:101720002389A28861882846FFF707FFE1882846B9
:10173000FFF7F6FE23893A4631462846FFF747FF72
:10174000E1882846FFF73AFFBDE8F0810A884B8818
:101750001A438B881A43CB881A430B891A434B8947
:101760001A438B891A43A0F8442070474FF6FF7143
:10177000818000210180C180418001727047002179
:10178000018041808180C180018141818181C1814D
:101790007047002101804180012181800021C180AA
:1017A000018170470021018041808180C1800181D9
:1017B0004181818170470000002C014000340140CC
:1017C0000004004000080040000C004021B10288E5
:1017D00042F00102028004E002884FF6FE731A40D4
:1017E0000280704731B1B0F8442042F40042A0F8C2
:1017F000442005E0B0F84420C2F30E02A0F84420D3
:1018000070471AB183890B43838102E083898B433C
:10181000838170478182704741EA0203A0F8483013
:1018200070471AB183890B43838102E083898B431C
:101830008381704701894FF6F8721140018170472A
:101840000A46002101894FF68F7319401143018127
:10185000704730B504460D4629462046FFF7F0FF95
:10186000208940F00700208130BD2DE9F041044679
:101870000D4616461F46602D06D13B4601223146D5
:101880002046FFF75AFE05E03B460122314620463E
:10189000FFF79DFE29462046FFF7D2FF208940F042
:1018A00007002081BDE8F08130B50C460021018998
:1018B000C9B24FF6FF7505EA0325154325432943B1
:1018C000018130BD2DE9F04105460E461746984688
:1018D000002443463A4631462846FFF7E5FF2C8967
:1018E0004FF6F870044044F007044FF68F70044040
:1018F00044F070042C81BDE8F081F0B504460D463B
:1019000016461F463B46324629462046FFF7CCFF87
:10191000208940F480402081F0BD0185828270479B
:101920000A46002101884FF68F7319401143018048
:101930007047F0B50C4615461E46002100220023D4
:101940000189028B038C4FF6F877394021434FF61B
:10195000FC473A4040F201173A434FF6DD773B40EF
:101960004FF6FF7707EA06172F433B4301810283B7
:101970000384F0BD0A460021018B4FF68F73194096
:101980001143018370470A460021018B48F6FF731B
:1019900019404FF6FF7303EA02231943018370478E
:1019A0000A460021818B4FF68F73194011438183C2
:1019B00070470A460021818B48F6FF7319404FF6A5
:1019C000FF7303EA022319438183704721B1028820
:1019D00042F08002028004E002884FF67F731A40D2
:1019E0000280704721B1828842F00402828004E0C4
:1019F00082884FF6FB731A408280704721B182883B
:101A000042F00802828004E082884FF6F7731A40A1
:101A10008280704721B1828842F00102828004E016
:101A200082884FF6FE731A40828070470A46002172
:101A3000018B4FF6F77319401143018370470A4633
:101A40000021018B4FF2FF7319404FF6FF7303EA39
:101A500002231943018370470A460021818B4FF608
:101A6000F77319401143818370470A460021818B27
:101A70004FF2FF7319404FF6FF7303EA0223194335
:101A8000818370470A460021018B4FF6FB73194092
:101A90001143018370470A460021018B4FF6FF3343
:101AA00019404FF6FF7303EA02231943018370477D
:101AB0000A460021818B4FF6FB7319401143818345
:101AC00070470A460021818B4FF6FF3319404FF6CD
:101AD000FF7303EA02231943818370470A460021FA
:101AE000018B4FF67F7319401143018370470A46FB
:101AF0000021018BC1F30E014FF6FF7303EA0223AD
:101B00001943018370470A460021818B4FF67F738A
:101B100019401143818370470A460021818BC1F32C
:101B20000E014FF6FF7303EA0223194381837047C6
:101B30000A460021018C4FF6FD73194011430184C0
:101B400070470A460021018C4FF6F7731940114384
:101B5000018470470A460021018C4FF6DF7319405B
:101B60004FF6FF7303EA02131943018470470A46D4
:101B70000021018C4FF67F7319404FF6FF7303EA83
:101B800002131943018470470A460021018C4FF665
:101B9000FF5319404FF6FF7303EA022319430184F0
:101BA00070470A460021018C4FF2FF7319404FF62F
:101BB000FF7303EA02231943018470470A46002198
:101BC000018C4DF6FF7319404FF6FF7303EA0233A1
:101BD00019430184704730B5002301248C40A3B21F
:101BE000048C9C430484048C02FA01F5ADB22C43AE
:101BF000048430BD30B5002304248C40A3B2048C8F
:101C00009C430484048C02FA01F5ADB22C43048495
:101C100030BD70B503460020002418461830012559
:101C20008D40ACB21D8CA5431D8409B1082909D192
:101C300000EB6100056825F0700505600568154337
:101C400005600EE00D1FC5F34E052844056825F418
:101C5000E045056005684FF6FF7606EA0226354343
:101C6000056070BD21B1028842F00202028004E0EA
:101C700002884FF6FD731A400280704721B1028836
:101C800042F00402028004E002884FF6FB731A401F
:101C90000280704721B1828842F08002828004E095
:101CA00082884FF67F731A408280704702884FF611
:101CB000F7731A40028002880A43028070478288C4
:101CC0004FF68F731A40828082880A438280704761
:101CD00002894FF6F8731A40028102890A43028191
:101CE000704702894FF67F731A40028102890A43C6
:101CF0000281704781847047818570478186704773
:101D00000187704781877047A0F8401070470288AC
:101D10004FF6FF431A40028002880A430280704750
:101D20000146888E70470146088F70470146888FAC
:101D300070470146B1F8400070470146888C7047F3
:101D40000146088D704702460020138A0B4201D0DD
:101D5000012000E000207047CA430282704730B57E
:101D60000246002000230024158A05EA0103958914
:101D700005EA010413B10CB1012000E0002030BDE0
:101D8000CA4302827047000010B50446FA488442F4
:101D900008D101214015FFF79BF800216015FFF7DE
:101DA00097F817E0F548844208D101210015FFF7A4
:101DB0008FF800212015FFF78BF80BE0F0488442E4
:101DC00008D10121C803FFF783F800214FF4004038
:101DD000FFF77EF810BD30B50246002000235068A2
:101DE000E84C20400D790C6844EA052420435060FB
:101DF0009068E54C2040D1E902542C434D7944EAE7
:101E0000450420439060D06A20F470000C7C641E6E
:101E1000E4B2234340EA0350D06230BD00210160A8
:101E2000017141718160C16001210174704721B16C
:101E3000826842F00102826003E0826822F00102BF
:101E40008260704721B1826842F48072826003E050
:101E5000826822F480728260704710B50023CBB292
:101E60001AB144681C43446002E044689C434460E7
:101E700010BD816841F00801816070470146002073
:101E80008A6812F0080F01D0012000E0002070479E
:101E9000816841F0040181607047014600208A6832
:101EA00012F0040F01D0012000E00020704721B1A2
:101EB000826842F4A002826003E0826822F4A002F9
:101EC00082607047014600208A6812F4800F01D0BA
:101ED000012000E00020704710B50A4600210023D1
:101EE000416821F46041531E41EA4331416010BD15
:101EF00021B1426842F40062426003E0426822F489
:101F0000006242607047F0B504460D460020002193
:101F1000092D11DDE068A5F10A0606EB4607072644
:101F200006FA07F18843A5F10A0606EB460603FA0E
:101F300006F10843E0600CE0206905EB4507072641
:101F400006FA07F1884305EB450603FA06F1084354
:101F50002061072A0FDA606B561E06EB86071F26E4
:101F600006FA07F18843561E06EB860605FA06F1C7
:101F70000843606322E00D2A0FDA206BD61F06EBC0
:101F800086071F2606FA07F18843D61F06EB86064A
:101F900005FA06F10843206310E0E06AA2F10D069D
:101FA00006EB86071F2606FA07F18843A2F10D0605
:101FB00006EB860605FA06F10843E062F0BD21B1A2
:101FC000826842F48012826003E0826822F4801208
:101FD000826070470146C86C80B2704766484C30DA
:101FE0000068704721B1426842F48062426003E0B9
:101FF000426822F480624260704721B1426842F434
:102000008052426003E0426822F48052426070478E
:102010000A460021816821F4E04111438160704744
:1020200021B1826842F40042826003E0826822F4B7
:1020300000428260704721B1826842F402128260DD
:1020400003E0826822F40212826070470146002099
:102050008A6812F4001F01D0012000E000207047C0
:10206000F0B504461546002000220026092911DD9E
:10207000E068A1F10A0707EB470C072707FA0CF203
:102080009043A1F10A0707EB470703FA07F2104351
:10209000E0600CE0206901EB410C072707FA0CF225
:1020A000904301EB410703FA07F210432061A06B54
:1020B000C0F30156EF1C06F1010CA7EB0C0707EB70
:1020C000870C1F2707FA0CF29043EF1C06F1010C56
:1020D000A7EB0C0707EB870701FA07F21043A06391
:1020E000F0BD10B50A4600210023816B21F4401198
:1020F000531E41EA0351816310BD08B500230093CC
:102100000090009B0B440093009B1A6008BD08B52B
:10211000024600200090009201F12800009B184424
:1021200000900098006880B208BD0A46002141680E
:10213000164B1940114341607047416282627047FB
:102140000A460021416821F01F0111434160704798
:1021500040B109490831096841F40001064A0832D2
:10216000116007E004490831096821F40001024ABE
:10217000083211607047000000240140002801402F
:10218000003C0140FFFEF0FFFDF7F1FFFFFD3FFFC8
:102190000246002013680B4201D0012000E000201D
:1021A0007047CA430260704770B5024600200023A2
:1021B00000240B125568CEB205EA060415681D42CC
:1021C00002D00CB1012000E0002070BD00220A12F4
:1021D000D343036070470000064880470648004725
:1021E000FEE7FEE7FEE7FEE7FEE7FEE7FEE7FEE7C7
:1021F000FEE7FEE7D9220008ED0000080CB500203C
:10220000019000906B48006840F480306949086094
:1022100000BF6848006800F4003000900198401C3E
:102220000190009818B90198B0F5A06FF1D16148FC
:10223000006810F4003F02D00120009001E000206F
:1022400000900098012842D15B48006840F01000DF
:10225000594908600846006820F0030008600846F5
:10226000006840F0020008605248406851494860E8
:102270000846406848600846406840F4806048600E
:102280000846406820F47C1048600846406840F4E6
:10229000E81048600846006840F08070086000BFA1
:1022A0004448006810F0007FFAD04248406820F0AF
:1022B0000300404948600846406840F0020048601A
:1022C00000BF3C48406800F00C000828F9D10CBD64
:1022D00010B5FFF793FF10BD10B53648006840F009
:1022E00001003449086008464068344908403149D3
:1022F000486008460068324908402E490860084690
:10230000006820F4802008600846406820F4FE0041
:1023100048604FF41F008860FFF7DAFF4FF000605D
:102320002849086010BD10B5002100200022214B73
:102330005B6803F00C0121B1042906D0082928D1DB
:1023400007E0214B214C236027E01F4B1F4C2360EB
:1023500023E0184B5B6803F47010164B5B6803F4C2
:102360008032022303EB904022B9194B4343174CB0
:1023700023600DE00F4B5B6813F4003F04D0144B57
:102380004343124C236003E00F4B43430F4C236045
:1023900003E00D4B0D4C236000BF00BF054B5B6895
:1023A000C3F303130B4CE15C084B1B68CB40074C99
:1023B000236010BD00100240002002400000FFF822
:1023C000FFFFF6FE08ED00E000127A00400000205A
:1023D00000093D0044000020F0B480EA0102D40F5F
:1023E0004200B2EB410F02D20246084611464A00B3
:1023F00042D0C30DDDB2C1F3C752AD1A202D35DA7C
:10240000C1F3160141F4000204B15242C5F12006A5
:1024100002FA06F12A411044B3EBD05F23D0C4B1D5
:10242000012DA0EBC35009DCF0BC4FF0004202EAE2
:10243000C35200F50000DBB200F0E0B9400000F14B
:10244000807000EBC350A0F1807040EAD170490069
:1024500009E0490841EAC071A0EBC35000F5000053
:10246000400800EBC350F0BC00F0BFB9614201224C
:1024700002EB4101001BF6E7F0BC704781F0004120
:10248000AAE780F00040A7E780EA010210B502F059
:102490000043400026D04A0023D04FEA106101EBF0
:1024A0001261C0F35600C2F3560240F4000042F439
:1024B0000002A0FB0220A1F17F014FEA00401404BA
:1024C00001D000F1010050EA124001D44000491E41
:1024D000C2B20C0604EBD010401C4008802A02D087
:1024E00003E0002010BD20F00100002900DA0020E8
:1024F000184310BD2DE9FE4F81EA030404F00044A7
:1025000021F0004100944FF0000B23F0004350EA0B
:10251000010402D052EA030404D10020014603B0B2
:10252000BDE8F08FC3F30A54C1F30A552C44A4F25A
:10253000F3340194A0FB0254C1F3130141F4801160
:10254000C3F3130343F4801301FB024400FB034E67
:10255000840A970A44EA815447EA8357A4FB076830
:1025600002958D0A05FB07854FEA932C04FB0C545A
:102570002705029D4FEA065847EA1637B5EB0805CE
:102580006EEB070C870E920E47EA811742EA831220
:10259000A7FB0201B6EB0B0164EB00042B0D43EA31
:1025A0000C335E1844EB1C50DA465146E7FB02013F
:1025B000C5F313044FEA0B3343EA14534FEA0432D2
:1025C000019C43EA0603A4F10C040294009CCDE9AB
:1025D00000B400F04DF9A2E72DE9F04D81EA0304C3
:1025E00004F0004B21F0004514464FF0000A23F0A0
:1025F000004150EA050220D054EA01021DD0C5F383
:102600000A570246C5F31303C1F31300C1F30A5678
:1026100040F4801543F48013A7EB0608101BD64640
:1026200008F2FD3873EB050002D308F1010801E060
:1026300092185B41B8F1000F03DA00200146BDE8B3
:10264000F08D00204FF48011064684460EE0171BE3
:1026500073EB050705D3121B63EB050306434CEA36
:10266000010C49084FEA300092185B4150EA01071B
:10267000EDD152EA030012D082EA040083EA050198
:10268000084303D100224FF0004308E0101BAB4188
:1026900002D20122002302E06FF0010253101AEB74
:1026A00006004CEB085110EB0A0041EB0B01BDE8B2
:1026B000F04D00F0D0B896230022114600F09EB8ED
:1026C0000EB5C10F80EAE0700844CA07002140F24D
:1026D00033438DE80E000A460B4600F0C9F803B0FC
:1026E00000BD0EB540F2334102910021CDE9001149
:1026F0000A460B4600F0BCF803B000BD00F00042F3
:1027000020F00040C10DC0F3160040F400007F2906
:1027100001DA00207047962903DCC1F19601C84018
:1027200001E096398840002AF4D04042704770B5E5
:10273000C1F30A5201F000450024C1F3130140F235
:10274000FF3341F480119A4201DA002070BD40F25B
:1027500033439A42A2F2334203DC524200F035F88E
:1027600000E090402C43F1D0404270BD00F00042A8
:1027700030F000400AD0C10D01F56071C0F31600C1
:1027800042EA0151C2084007114370470020014648
:10279000704701F0004330B421F0004150EA0102DB
:1027A00006D00A0DA2F56072C1F31301002A02DC03
:1027B00030BC00207047440F44EAC104C100E01857
:1027C00030BC00EBC25000F010B8202A04DB203AE5
:1027D00021FA02F00021704721FA02F3D040C2F141
:1027E000200291400843194670470029A8BF70474E
:1027F000401C490008BF20F00100704710B4B0FA37
:1028000080FC00FA0CF050EA010404BF10BC7047D1
:1028100049B1CCF1200421FA04F411FA0CF118BFEB
:10282000012121430843A3EB0C01CB1D0106000A43
:10283000002BBEBF002010BC704700EBC3501044FB
:102840000029A4BF10BC7047401C490008BF20F0FD
:10285000010010BC704710B5002B08DA401C41F194
:10286000000192185B411A4301D120F0010010BD14
:102870002DE9F04D92469B4611B1B1FA81F202E08A
:10288000B0FA80F22032904600F056F804460F4627
:1028900040EA0A0041EA0B0153465A46084303D175
:1028A00020463946BDE8F08D114653EA010015D0A7
:1028B000C8F140025046FFF788FF05460E465046D5
:1028C0005946424600F038F8084301D0012000E0A4
:1028D0000020054346EAE0762C4337430A984FEA46
:1028E0004453A0EB08004FEAD4240A304FF0000212
:1028F00044EA47544FEAD72502D500200146D1E7E4
:10290000010510196941DDE9084500196941BDE873
:10291000F04DA0E7064C074D06E0E06840F00103EB
:1029200094E8070098471034AC42F6D3FDF7E2FB79
:102930007429000894290008202A04DB203A00FAB0
:1029400002F1002070479140C2F1200320FA03F306
:1029500019439040704702E008C8121F08C1002ABE
:10296000FAD170477047002001E001C1121F002A10
:10297000FBD170479429000800000020540000009B
:1029800056290008E829000854000020040400002B
:10299000662900080000000000000000140000008C
:1029A0000000000000409C46000000000000000005
:1029B0000000000000000000000000000000000017
:1029C00000000000010203040102030406070809D5
:1029D0000204060800A24A040000000000000000F3
:0829E0000102030406070809C7
:04000005080000ED02
:00000001FF
