:020000040800F2
:10000000500800201D2B0008252B0008272B000876
:10001000292B00082B2B00082D2B000800000000C6
:100020000000000000000000000000002F2B00086E
:10003000312B000800000000332B0008352B00088E
:10004000372B0008372B0008372B0008372B000808
:10005000372B0008372B0008372B0008372B0008F8
:10006000372B0008372B0008372B0008372B0008E8
:100070003D300008372B0008372B0008372B0008CD
:10008000372B0008372B0008372B0008372B0008C8
:10009000372B0008372B0008372B0008372B0008B8
:1000A000372B000885050008372B0008372B000880
:1000B000372B0008372B0008372B0008372B000898
:1000C000372B0008372B0008372B0008372B000888
:1000D000372B0008372B0008372B0008E92E0008C3
:1000E000372B0008372B0008372B0008DFF80CD01F
:1000F00004F0C6FE004800471D010008500800201B
:1001000010B5002402E000F005F9641CB4F5FA6FA4
:10011000F9DB2C4800682C49086010BD02F07EFD18
:1001200003F016F803F036F900F060F800F02CF94F
:1001300000F090F900F0F1F902F0F0FDFFF7E0FFB8
:1001400000F082FA00F06CFC0EE02049486804F0F0
:1001500038FC04B200231A461946204602F0BDFFBF
:1001600000F0D8F800F068FAEFE710B503F0C7FA2E
:10017000174A1168154A106804F004FA1349086018
:10018000134A5168114A506804F0FCF90F4948605D
:10019000104801681048006804F0F4F90E4908603E
:1001A0000E4801680E48006804F0ECF90C4908603C
:1001B0000C4801680C48006804F0E4F90A4908603A
:1001C00010BD0000100000200400002018040020D2
:1001D00024040020E4000020D8000020E8000020D3
:1001E000DC000020EC000020E000002000B587B01B
:1001F0000121480200F0C8FF0121082000F0C4FFDF
:100200004FF4004000F027FF002002908DF80C0012
:1002100001208DF80D004FF460200490002005901F
:1002200001208DF8180002A94C4802F04EF9022076
:10023000ADF8040000208DF8070003208DF80600BB
:1002400001A9474800F0EAFC05230122092143489F
:1002500002F0D3F90121414802F063F93F4802F06E
:1002600082F900BF3D4802F083F90028FAD13B48EB
:1002700002F088F900BF394802F089F90028FAD164
:100280000121364802F08DF907B000BD10B50121FB
:10029000324802F086F900BF0221304802F0F2FA3B
:1002A0000028F9D02D4802F00FFA044604F077FB3D
:1002B00010BD70B52B4800682B4908602B480168B9
:1002C0002948006804F05EF9064604F0B2FB0446D3
:1002D000274A284B04F0D4FB0ED323480168234857
:1002E000006804F04FF9064604F0A3FB0446204AD8
:1002F000204B04F0C5FB04D21C4800681949086073
:1003000003E0194800681749086017480068174952
:10031000086070BD2DE9F047104802F0D5F982461B
:1003200004F042FB06464FF06632134B04F04DFAE0
:1003300004460022114B04F0BAFA804604F0B4FBE4
:100340000F4908600F490E48006804F021F905497B
:100350000860FFF7AEFFBDE8F08700000024014011
:10036000000C0140100000201800002014000020A4
:100370009A9999999999A93F66660A400000B040F8
:100380000800002000008A4208B50121042000F086
:10039000FBFE1820ADF8000003208DF802001020AD
:1003A0008DF8030069462A4800F038FC08212848E7
:1003B00000F0DFFC1021264800F0DBFC08BD70B522
:1003C00005460C46002C01DD204600E06042044654
:1003D000002D0CDA08211E4800F0CDFC10211C482D
:1003E00000F0C7FC604285420CDA65420AE0082151
:1003F000174800F0BEFC1021154800F0BCFCA542D7
:1004000000DD2546002D01DD284600E068424FF062
:100410008041888670BD10B500204FF080418886ED
:1004200008210B4800F0A7FC1021094800F0A3FCAC
:1004300010BD10B54FF47A60410688860821044843
:1004400000F099FC1021024800F095FC10BD00005E
:100450000008014000B589B00121042000F094FE9D
:100460000121084600F09DFE0120ADF804000320A4
:100470008DF8060018208DF8070001A91E4800F02D
:10048000CDFB4720ADF818000020ADF81A00ADF8FC
:100490001E0040F69F70ADF81C0006A94FF080408A
:1004A00000F0AEFF6020ADF808000120ADF80A00B2
:1004B0000420ADF80C000020ADF80E00ADF81000DF
:1004C0000820ADF812004001ADF814000020ADF88E
:1004D000160002A94FF0804000F0CFFF0821C806A7
:1004E00001F01AFC0121880701F0E6FA01218807D2
:1004F00001F0E2FB09B000BD0008014010B5012287
:100500001146464801F0F3FA0121444801F09AFDF2
:100510000121424801F0D0FA10BD1FB50121C802E7
:1005200000F032FE19208DF8000000208DF8010047
:1005300001208DF802008DF80300684600F0A5FA4E
:100540000120ADF804000020ADF80600ADF80A0067
:1005500040F28F10ADF8080001A9304800F050FFBC
:10056000FFF7CCFF1FBD10B500212C4801F0A4FA05
:1005700000220121294801F0BAFA0121274801F09F
:1005800061FD10BD2DE9FC410121244801F05DFD14
:10059000002841D000240121204801F053FD00F043
:1005A00076F8044640F2EE2060431D49096890FB4E
:1005B000F1F5284604F0EAF91A49086000F067F8F6
:1005C000064604F0E3F9054617480168284603F09B
:1005D00087FF154908601548006804F02AFA0546A7
:1005E0000E461048006804F024FA07463A460B46C7
:1005F0000F48CDE9005600F08BF80D48D0E91021E6
:10060000104604F0F7F90B4908604FF47A61094885
:100610000068FFF7D4FE00BFBDE8FC81002C01405C
:100620001C000020200000202C00002024000020BE
:10063000F8000020280000200148024908607047A7
:100640000000E4422400002008B50121042000F04D
:100650009BFD0121022000F0A4FDC020ADF80000A8
:1006600004208DF803006946134800F0D7FA0223EE
:100670001A460321114801F0D2FA01210F4801F076
:100680001BFA47F6FF700D492431088008BD002190
:100690000B48007820B90120094A107000207047EB
:1006A00006482430008847F6FF72111A1046034AA4
:1006B000243210800846F2E70008014000040040A0
:1006C0003400002010B50446A821204603F0FDFEAA
:1006D00010BD2DE9F04F09AC94E8F04FC0E90023BC
:1006E000C0E90245C0E90467C0E90689C0E908AB72
:1006F000C0F828E0DDE9131CC0E9261CDDE9151C63
:10070000C0E9241CDDE9171CC0E9281CBDE8F08FF6
:100710002DE9F04F8DB0824616461F4600BF00BF40
:1007200000BF00BF00BFDDE91610CAE9161032464F
:100730003B46DDE9160104F042F8CAE91C010AF162
:100740007800C0E90467DAE91AB3DAE91C015A460D
:10075000CDE9020104F033F8CDE90401DAE900B390
:100760005A4604F032F8CDE90A0100221346DAE9CC
:1007700028B1584604F070F934D0DAE928B3DAE940
:100780001A015A46CDE9040104F07AF90FD2002289
:100790001346DAE91CB1584604F072F902D200207F
:1007A000014601E0DAE91C01CAE91C011AE0DAE9B4
:1007B000280181F00041CDE90401DAE91AB35A4673
:1007C00004F05EF90ED200221346DAE91CB1584655
:1007D00004F056F902D2DAE91C0101E000200146DA
:1007E000CAE91C0100221346DAE906B1584604F0B2
:1007F00033F90BD1DAE91CB3DAE902015A46CDE943
:10080000040103F0E2FF04460D4623E0DAE906B3F3
:10081000DAE91C015A46CDE9040104F01DF917D8A4
:10082000DAE9060181F00041CDE90401DAE91CB3FF
:100830005A4604F011F90BD8DAE91CB3DAE90201DF
:100840005A46CDE9040103F0C0FF04460D4601E01D
:1008500000242546DAF82800F8B1DAE920B35A4630
:1008600000204FF0804103F0B0FFCDE90001DAE94C
:1008700022B35A4603F0A6FFCDE90201DAE91EB31E
:100880005A4603F0FBFECDE90401DAE904B35A4607
:1008900003F09BFF804689461EE0DAE91AB35A4608
:1008A00000204FF0804103F090FFCDE90001DAE92C
:1008B0001CB35A4603F086FFCDE90201DAE918B30A
:1008C0005A4603F0DBFECDE90401DAE904B35A46E7
:1008D00003F07BFF80468946DAE914B3DAE91601B2
:1008E0005A46CDE9020103F06AFFCDE90401DAE9D5
:1008F00024B35A4603F069FFCDE90601DAE914B3DF
:100900005A4600204FF0804103F05FFFCDE900011F
:10091000DAE916B35A4603F055FFCDE90201DAE9E8
:1009200012B35A4603F0AAFECDE90401DAE926B370
:100930005A4603F04AFFCDE9080122462B46DDE97D
:100940000A0103F09BFE42464B46CDE9000103F04D
:1009500095FECDE90201DDE9062303F08FFECDE926
:100960000401DDE9082303F089FECAE90E01DAE992
:100970000EB3DAE90C015A46CDE9040103F07EFE1C
:10098000CAE9100100221346DAE908B1584604F01A
:1009900063F820D0DAE908B3DAE910015A46CDE964
:1009A000040104F06DF804D2DAE90801CAE9100183
:1009B00011E0DAE9080181F00041CDE90401DAE94A
:1009C00010B35A4604F05CF805D2DAE9080181F068
:1009D0000041CAE91001DAE91001CAE90C01DAE9BB
:1009E0001401CAE91201DAE91610CAE91410DAE9A9
:1009F0001A01CAE91801DAE91C01CAE91A010AF167
:100A00007801D1E90201CAE91E010AF17801D1E9B0
:100A100004010AF17802C2E902010DB0BDE8F08FCD
:100A200000B591B01048FFF74DFE00210F48CDE909
:100A30000E100C910D910A910B91084608910C49EA
:100A4000CDE9060100210A48CDE904100291039185
:100A5000084909480022094BCDE900100248FFF778
:100A600038FE11B000BD0000F80000200094B14035
:100A70000040AF409A9999999999A93F0000244064
:100A800031490143314A1160704770B5002100239C
:100A90000F22C4780CB32D4C246804F4E064C4F530
:100AA000E064210AC1F10403CA40447804FA03F166
:100AB0008478144021430901254C0678A155047817
:100AC00004F01F050124AC4005786D114FF0E026BD
:100AD00006EB8505C5F8004109E0047804F01F0520
:100AE0000124AC401B4D0678761145F8264070BDB8
:100AF000194A0A400243154B1B1F1A60704739B14F
:100B0000124A121D12680243104B1B1D1A6006E0A8
:100B10000E4A121D126882430C4B1B1D1A6070474F
:100B2000042808D14FF0E021096941F004014FF099
:100B3000E022116107E04FF0E021096921F0040192
:100B40004FF0E022116170470000FA050CED00E063
:100B500000E400E080E100E080FFFF1F10B50446E4
:100B6000CA48844208D10121042000F027FB00215B
:100B7000042000F023FB46E0C548844208D101214F
:100B8000082000F01BFB0021082000F017FB3AE0D2
:100B9000C048844208D10121102000F00FFB002141
:100BA000102000F00BFB2EE0BB48844208D101214D
:100BB000202000F003FB0021202000F0FFFA22E0BB
:100BC000B648844208D10121402000F0F7FA002104
:100BD000402000F0F3FA16E0B148844208D1012128
:100BE000802000F0EBFA0021802000F0E7FA0AE014
:100BF000AC48844207D10121801500F0DFFA0021C2
:100C0000A01500F0DBFA10BD10B50121084600F078
:100C1000D5FA0021012000F0D1FA10BD2DE9F041F4
:100C2000024600250026002000230024002791F81A
:100C300003C00CF00F0591F803C01CF0100F03D097
:100C400091F802C04CEA050591F800C0BCF1000F14
:100C500031D0146800202BE04FF0010C0CFA00F3A7
:100C6000B1F800C00CEA03069E4220D183004FF089
:100C70000F0C0CFA03F7BC4305FA03FC4CEA04041E
:100C800091F803C0BCF1280F06D14FF0010C0CFA0B
:100C900000FCC2F814C00AE091F803C0BCF1480F90
:100CA00005D14FF0010C0CFA00FCC2F810C0401C3A
:100CB0000828D1D31460B1F800C0BCF1FF0F34DDB7
:100CC000546800202EE000F1080C4FF0010808FAEB
:100CD0000CF3B1F800C00CEA03069E4221D1830058
:100CE0004FF00F0C0CFA03F7BC4305FA03FC4CEA77
:100CF000040491F803C0BCF1280F05D100F1080CE1
:100D000008FA0CF8C2F8148091F803C0BCF1480F3F
:100D100007D100F1080C4FF0010808FA0CF8C2F8EE
:100D20001080401C0828CED35460BDE8F0814FF6F7
:100D3000FF710180022181700421C1707047024659
:100D4000002093680B4201D0012000E00020704792
:100D50000146886880B2704702460020D3680B4283
:100D600001D0012000E0002070470146C86880B231
:100D7000704701617047416170470AB1016100E04D
:100D800041617047C16070474FF480320A4382610D
:100D90008161826182698269704702460020424B0C
:100DA00018684FF68073184040EA021008433E4B23
:100DB000186070473D49C8617047F0B50A46002386
:100DC00000240021002500F00046B6F1004F02D1BA
:100DD000354EF16901E0344E7168C0F3034583B2CA
:100DE00000F44016B6F5401F08D121F070612E4E78
:100DF000766826F070662C4F7E6012E000F4801654
:100E0000B6F5801F06D1032606FA05F4A14341F08A
:100E1000706106E0460D360103FA06F6B14341F073
:100E2000706122B1460D360103FA06F6314300F037
:100E30000046B6F1004F02D11B4EF16101E01A4E9F
:100E40007160F0BD30B500228B071C0F0F2303FA31
:100E500004F2154B08338C1053F824309343124C92
:100E600008348D1044F8253023468C1053F8243074
:100E70008C07240F00FA04F423430B4C08348D1024
:100E800044F8253030BD0A49086070470008014029
:100E9000000C014000100140001401400018014006
:100EA000001C0140002001400000014000002042E1
:100EB000DC002042DD48006840F00100DB490860AA
:100EC00008464068DA490840D84948600846006842
:100ED000D8490840D54908600846006820F48020B9
:100EE00008600846406820F4FE0048604FF41F0088
:100EF00088607047CD49096821F48031CB4A116080
:100F00001146096821F480211160B0F5803F03D0BB
:100F1000B0F5802F0ED106E0C449096841F4803154
:100F2000C24A116007E0C149096841F4A021BF4AE3
:100F3000116000E000BF00BF704710B501460022FD
:100F4000002300204A11012A02D1B84C236806E090
:100F5000022A02D1B54C236A01E0B44C636A01F065
:100F60001F02012494401C4201D0012000E0002017
:100F700010BD38B5002000900024002500BF3120AE
:100F8000FFF7DBFF05460098401C00900098B0F585
:100F9000A06F01D0002DF2D03120FFF7CEFF08B1B5
:100FA000012400E00024204638BD014600209F4A6D
:100FB000106820F0F80040EAC100106070479E49B8
:100FC0000860704702460020984B586820F47C1057
:100FD00042EA01031843954B5860704796490866EA
:100FE000704701460020914A506820F003000843F2
:100FF000506070478D48406800F00C007047014613
:1010000000208A4A506820F0F00008435060704782
:1010100001460020854A506820F4E0600843506093
:10102000704701460020814A506820F4605040EA31
:10103000C1005060704729B17C4A527A02437B4B11
:101040005A7204E0794A527A8243784B5A72704756
:101050007A490860704701460020744A506820F4BD
:1010600040400843506070470021754A11706F4A34
:1010700082F82010012802D0042808D103E00121C1
:101080006F4A117004E005216D4A117000E000BF45
:1010900000BF70476B49086070476449096A0143A3
:1010A000624A11627047674944390860704730B539
:1010B00000210022002400235C4D6D6805F00C0126
:1010C00021B1042905D0082923D105E05E4D056032
:1010D00022E05D4D05601FE0544D6D6805F470120F
:1010E000524D6D6805F48034022505EB92421CB91F
:1010F000564D554305600BE04C4D6D6815F4003FAF
:1011000003D0524D5543056002E04F4D55430560F5
:1011100002E04D4D056000BF00BF444D6D6805F015
:10112000F00109094A4D6B5C0568DD4045603F4DA3
:101130006D6805F4E061090A454D6B5C4568DD406A
:1011400085603A4D6D6805F46051C90A404D6B5C8D
:101150004568DD40C560354D6D6805F44041890B3B
:101160003C4D6B5CC568B5FBF3F5056130BD29B13D
:101170002E4A526902432D4B5A6104E02B4A5269B0
:1011800082432A4B5A61704729B1284A9269024327
:10119000264B9A6104E0254A92698243234B9A6167
:1011A000704729B1214AD2690243204BDA6104E039
:1011B0001E4AD26982431D4BDA61704729B11B4A2E
:1011C000D2680243194BDA6004E0184AD2688243BD
:1011D000164BDA60704729B1144A12690243134B67
:1011E0001A6104E0114A12698243104B1A61704778
:1011F00014494039086070470F49C86470470B496B
:10120000C87170470948406A40F0807007494862D9
:10121000704701460020054A92680A4201D0012029
:1012200000E00020704701498872704700100240BA
:101230000000FFF8FFFFF6FE00004242D8004242E5
:10124000201002408004424200127A0000093D0052
:10125000350000204500002010B50446FE488442B9
:1012600008D10121C014FFF7A9FF0021E014FFF706
:10127000A5FFC4E0B4F1804F08D101210846FFF773
:10128000AAFF00210120FFF7A6FFB8E0F34884423F
:1012900008D101210220FFF79EFF00210220FFF765
:1012A0009AFFACE0EE48844208D101210420FFF708
:1012B00092FF00210420FFF78EFFA0E0E94884425E
:1012C00008D101210820FFF786FF00210820FFF741
:1012D00082FF94E0E448844208D101211020FFF706
:1012E0007AFF00211020FFF776FF88E0DF48844274
:1012F00008D101212020FFF76EFF00212020FFF7F9
:101300006AFF7CE0DA48844208D101214014FFF7EB
:1013100055FF00216014FFF751FF70E0D54884426B
:1013200009D10121C804FFF749FF00214FF4002033
:10133000FFF744FF63E0D048844209D1012108054A
:10134000FFF73CFF00214FF48010FFF737FF56E016
:10135000CA48844209D101214805FFF72FFF002127
:101360004FF40010FFF72AFF49E0C548844208D136
:1013700001214020FFF72FFF00214020FFF72BFF26
:101380003DE0C048844208D101218020FFF723FFBF
:1013900000218020FFF71FFF31E0BB48844208D1C5
:1013A00001218015FFF717FF0021A015FFF713FF9C
:1013B00025E0B648844209D101210804FFF7FEFE6A
:1013C00000214FF48030FFF7F9FE18E0B048844266
:1013D00009D101214804FFF7F1FE00214FF400304C
:1013E000FFF7ECFE0BE0AB48844208D101218804F2
:1013F000FFF7E4FE00214FF48020FFF7DFFE10BD71
:1014000000220288944B98420ED0994B98420BD000
:10141000B0F1804F08D0914B984205D0904B984244
:1014200002D0904B984204D14FF68F731A404B88EC
:101430001A438D4B984207D08C4B984204D04FF6FC
:10144000FF431A40CB881A4302808B8883850B8820
:101450000385814B98420BD0854B984208D08B4B2B
:10146000984205D08A4B984202D08A4B984201D1CB
:101470000B7A038601238382704770B50024002213
:101480000023058C4FF6FE7635400584028C838858
:10149000048B4FF68F752C40B51E2C400D882C43C5
:1014A000751E2A400D892A434D882A436A4DA84259
:1014B0000BD06F4DA84208D0744DA84205D0744D92
:1014C000A84202D0734DA84213D14FF6F7752A40B7
:1014D0004D892A434FF6FB752A408D882A434FF6E3
:1014E000FF652B404FF6FF552B408D892B43CD894F
:1014F0002B4383800483CD888586028470BD70B5BC
:10150000002400220023058C4FF6EF763540058439
:10151000028C8388048B48F6FF752C404FF6FF45FC
:101520002C400D884FF6FF7606EA05252C434FF632
:10153000DF752A400D8906EA05152A434D8806EA1B
:1015400005152A43444DA84202D0494DA8421DD159
:101550004FF67F752A404D894FF6FF7606EA05154E
:101560002A434FF6BF752A408D8806EA05152A439F
:101570004FF6FF352B404FF2FF752B408D8906EA61
:1015800085052B43CD8906EA85052B43838004839B
:10159000CD880587028470BD70B500240022002329
:1015A000058C4FF6FF6635400584028C8388848B5A
:1015B0004FF68F752C404FF6FC752C400D882C4350
:1015C0004FF6FF552A400D894FF6FF7606EA0525AE
:1015D0002A434D8806EA05252A431F4DA84202D01A
:1015E000234DA8421DD14FF2FF752A404D894FF679
:1015F000FF7606EA05252A434FF6FF352A408D88F7
:1016000006EA05252A434EF6FF752B404DF6FF7579
:101610002B408D8906EA05152B43CD8906EA051571
:101620002B4383808483CD888587028470BD70B509
:10163000002200230024058C4EF6FF7635400584F9
:10164000038C8488828B48F6FF752A404FF6FF454D
:101650002A400D8820E00000002C014000040040DA
:1016600000080040000C0040001000400014004042
:1016700000340140004C0140005001400054014042
:1016800000180040001C00400020004000400140C5
:1016900000440140004801404FF6FF7606EA052568
:1016A0002A434DF6FF752B400D8906EA05352B437D
:1016B0004D8806EA05352B43FA4DA84202D0FA4D73
:1016C000A84208D14BF6FF752C408D894FF6FF7666
:1016D00006EA85152C4384808283CD88A0F840508B
:1016E000038470BD828B4FF2FF331A408283828B5A
:1016F0004FF6FF7303EA01231A4382837047F0B564
:101700000C461546002200210026078C4EF6FF7C71
:1017100007EA0C070784828B018C4FF6FF7707EAF4
:10172000043640F6FF473A404FF6FF7707EA0527B1
:101730003A434FF6FF7707EA03373A43D94FB842A7
:101740000ED0D94FB8420BD0B0F1804F08D0D74F50
:10175000B84205D0D64FB84202D0D64FB84206D1D3
:101760004DF6FF77394046F48057394305E047F698
:10177000FF57394044F48057394382830184F0BDD8
:10178000828B4FF6F3731A408283828B0A438283E3
:101790007047F0B50C461546002200210026078C44
:1017A0004FF6FF6C07EA0C070784828B018C4FF61B
:1017B000FF7707EA04264FF60C773A404FF6FF779B
:1017C00007EA03172F433A43B64FB8420ED0B64F3D
:1017D000B8420BD0B0F1804F08D0B44FB84205D01A
:1017E000B34FB84202D0B34FB84206D14FF6FF57BD
:1017F000394046F48077394305E04FF2FF573940CE
:1018000044F48077394382830184F0BD028B4FF228
:10181000FF331A400283028B4FF6FF7303EA012362
:101820001A4302837047F0B50C461546002200218A
:101830000026078C4FF6EF7C07EA0C070784028B23
:10184000018C4FF6FF7707EA041640F6FF473A404F
:101850004FF6FF7707EA03373A434FF6FF7707EA79
:1018600005273A438F4FB8420ED08F4FB8420BD066
:10187000B0F1804F08D08D4FB84205D08C4FB842A0
:1018800002D08C4FB84206D14FF6DF77394046F090
:101890001007394305E04FF65F77394044F01007F1
:1018A000394302830184F0BD028B4FF6F3731A4073
:1018B0000283028B0A4302837047F0B50C4615463B
:1018C00000220021068C4FF6FE773E400684028BF4
:1018D000018C4FF60C7632407E1C06EA03162E432E
:1018E0003243704EB0420ED06F4EB0420BD0B0F1CA
:1018F000804F08D06D4EB04205D06D4EB04202D040
:101900006C4EB04206D14FF6FD76314044F00106F0
:10191000314305E04FF6F576314044F0010631439E
:1019200002830184F0BD70B505460C465D488542D2
:101930000ED05D4885420BD0B5F1804F08D05B4892
:10194000854205D05A48854202D05A48854200D186
:1019500000E000BF208850B92389A288618828460A
:10196000FFF7ABFFE1882846FFF79EFF25E02088C0
:1019700004280AD12389A28861882846FFF753FFEB
:10198000E1882846FFF742FF17E0208808280AD19F
:101990002389A28861882846FFF7FBFEE188284654
:1019A000FFF7EEFE09E02389A28861882846FFF749
:1019B000A6FEE1882846FFF795FE70BD2DE9F041AF
:1019C00005460C4600260127608808B9022600E07B
:1019D0000026A088012801D1022700E001272088E5
:1019E000A0B92389A28861882846FFF766FFE188AD
:1019F0002846FFF759FF23893A4631462846FFF724
:101A000012FFE1882846FFF701FF13E02389A2882F
:101A100061882846FFF707FFE1882846FFF7F6FEB2
:101A200023893A4631462846FFF747FFE188284692
:101A3000FFF73AFFBDE8F0810A884B881A438B888C
:101A40001A43CB881A430B891A434B891A438B8953
:101A50001A43A0F8442070474FF6FF71818000219F
:101A60000180C18041800172704700210180418066
:101A70008180C180018141818181C18170470021C4
:101A800001804180012181800021C1800181704756
:101A90000021018041808180C1800181418181815B
:101AA00070470000002C0140003401400004004059
:101AB00000080040000C004021B1028842F0010201
:101AC000028004E002884FF6FE731A4002807047DD
:101AD00031B1B0F8442042F40042A0F8442005E0BF
:101AE000B0F84420C2F30E02A0F8442070471AB1A7
:101AF00083890B43838102E083898B438381704711
:101B00008182704741EA0203A0F8483070471AB159
:101B100083890B43838102E083898B4383817047F0
:101B200001894FF6F8721140018170470A46002181
:101B300001894FF68F73194011430181704730B509
:101B400004460D4629462046FFF7F0FF208940F065
:101B50000700208130BD2DE9F04104460D461646B0
:101B60001F46602D06D13B46012231462046FFF735
:101B70005AFE05E03B46012231462046FFF79DFE16
:101B800029462046FFF7D2FF208940F00700208138
:101B9000BDE8F08130B50C4600210189C9B24FF68D
:101BA000FF7505EA0325154325432943018130BD0F
:101BB0002DE9F04105460E46174698460024434657
:101BC0003A4631462846FFF7E5FF2C894FF6F87074
:101BD000044044F007044FF68F70044044F0700452
:101BE0002C81BDE8F081F0B504460D4616461F462F
:101BF0003B46324629462046FFF7CCFF208940F479
:101C000080402081F0BD0185828270470A46002114
:101C100001884FF68F731940114301807047F0B56A
:101C20000C4615461E460021002200230189028B26
:101C3000038C4FF6F877394021434FF6FC473A4082
:101C400040F201173A434FF6DD773B404FF6FF77FE
:101C500007EA06172F433B43018102830384F0BD4B
:101C60000A460021018B4FF68F73194011430183FF
:101C700070470A460021018B48F6FF7319404FF662
:101C8000FF7303EA02231943018370470A460021C8
:101C9000818B4FF68F7319401143818370470A4639
:101CA0000021818B48F6FF7319404FF6FF7303EA5A
:101CB000022319438183704721B1028842F08002D8
:101CC000028004E002884FF67F731A40028070475A
:101CD00021B1828842F00402828004E082884FF6BB
:101CE000FB731A408280704721B1828842F008025B
:101CF000828004E082884FF6F7731A408280704732
:101D000021B1828842F00102828004E082884FF68D
:101D1000FE731A40828070470A460021018B4FF6FD
:101D2000F77319401143018370470A460021018B64
:101D30004FF2FF7319404FF6FF7303EA0223194372
:101D4000018370470A460021818B4FF6F7731940D3
:101D50001143818370470A460021818B4FF2FF7344
:101D600019404FF6FF7303EA02231943818370473A
:101D70000A460021018B4FF6FB7319401143018382
:101D800070470A460021018B4FF6FF3319404FF68A
:101D9000FF7303EA02231943018370470A460021B7
:101DA000818B4FF6FB7319401143818370470A46BC
:101DB0000021818B4FF6FF3319404FF6FF7303EA82
:101DC00002231943818370470A460021018B4FF695
:101DD0007F7319401143018370470A460021018B2C
:101DE000C1F30E014FF6FF7303EA02231943018387
:101DF00070470A460021818B4FF67F7319401143CB
:101E0000818370470A460021818BC1F30E014FF692
:101E1000FF7303EA02231943818370470A460021B6
:101E2000018C4FF6FD7319401143018470470A4637
:101E30000021018C4FF6F77319401143018470475C
:101E40000A460021018C4FF6DF7319404FF6FF73ED
:101E500003EA02131943018470470A460021018CEA
:101E60004FF67F7319404FF6FF7303EA02131943CD
:101E7000018470470A460021018C4FF6FF53194038
:101E80004FF6FF7303EA02231943018470470A46A1
:101E90000021018C4FF2FF7319404FF6FF7303EAE4
:101EA00002231943018470470A460021018C4DF634
:101EB000FF7319404FF6FF7303EA0233194301849D
:101EC000704730B5002301248C40A3B2048C9C439E
:101ED0000484048C02FA01F5ADB22C43048430BDB5
:101EE00030B5002304248C40A3B2048C9C430484AA
:101EF000048C02FA01F5ADB22C43048430BD70B5F8
:101F00000346002000241846183001258D40ACB24D
:101F10001D8CA5431D8409B1082909D100EB61007E
:101F2000056825F0700505600568154305600EE03D
:101F30000D1FC5F34E052844056825F4E0450560EE
:101F400005684FF6FF7606EA02263543056070BD48
:101F500021B1028842F00202028004E002884FF6BA
:101F6000FD731A400280704721B1028842F00402DA
:101F7000028004E002884FF6FB731A40028070472B
:101F800021B1828842F08002828004E082884FF68C
:101F90007F731A408280704702884FF6F7731A40A9
:101FA000028002880A430280704782884FF68F734E
:101FB0001A40828082880A438280704702894FF6E5
:101FC000F8731A40028102890A430281704702892C
:101FD0004FF67F731A40028102890A4302817047DB
:101FE000818470478185704781867047018770477B
:101FF00081877047A0F84010704702884FF6FF4372
:102000001A40028002880A43028070470146888E87
:1020100070470146088F70470146888F7047014618
:10202000B1F8400070470146888C70470146088D22
:10203000704702460020138A0B4201D0012000E0C5
:1020400000207047CA430282704730B50246002024
:1020500000230024158A05EA0103958905EA010495
:1020600013B10CB1012000E0002030BDCA43028250
:102070007047000010B50446FB48844209D1012195
:102080008803FFF79BF800214FF48040FFF796F894
:1020900032E0F648844209D101214804FFF79BF859
:1020A00000214FF40030FFF796F825E0F048844215
:1020B00009D101218804FFF78EF800214FF4802018
:1020C000FFF789F818E0EB48844209D10121C804E0
:1020D000FFF781F800214FF40020FFF77CF80BE0B8
:1020E000E548844208D101210805FFF774F8002172
:1020F0004FF48010FFF76FF810BD2DE9F04786B060
:1021000005460E460024A24600BFA1460027B0891E
:1021100000B100BF2F462C8A4CF6FF700440F088B7
:1021200004432C82AC894EF6F3100440B088318908
:102130000843718908430443AC81AC8A4FF6FF40E1
:102140000440B0890443AC8201A8FEF7B0FFC64842
:10215000874202D1DDF810A001E0DDF80CA0A889CB
:1021600010F4004F08D00AEBCA0000EB0A103168E7
:102170004900B0FBF1F807E00AEBCA0000EB0A10D7
:1021800031688900B0FBF1F86420B8FBF0F004017D
:102190002009642101FB1089A88910F4004F08D0A0
:1021A000322000EBC900B0FBF1F000F0070004435F
:1021B00008E0322000EB09106421B0FBF1F000F0E0
:1021C0000F0004432C8106B0BDE8F0874FF4165190
:1021D000016000218180C18001810C2141810021A9
:1021E0008181704710B502460020108A4FF2FF032C
:1021F00018400B884C8823438C882343CC88234386
:102200001843108210BD0021018041808180C1806F
:10221000704721B1828942F40052828104E08289B0
:102220004DF6FF731A4082817047F0B503460024D3
:10223000002600250020A1F510676A3F00D100BFED
:102240001846C1F3421401F01F06012707FA06F5EC
:10225000012C01D10C3004E0022C01D1103000E03F
:1022600014301AB107682F43076002E00768AF43D4
:102270000760F0BD1AB1838A0B43838202E0838A30
:102280008B4383827047028A4FF6F0731A400282B2
:10229000028A0A430282704782894FF2FF731A4012
:1022A000828182890A438281704721B1828942F00A
:1022B0000202828104E082894FF6FD731A40828116
:1022C0007047028A4FF6DF731A400282028A0A437D
:1022D0000282704721B1028A42F48042028204E005
:1022E000028A4BF6FF731A4002827047C1F308025C
:1022F0008280704701468888C0F308007047818952
:1023000041F0010181817047028BD2B20283028BBE
:1023100042EA012202837047028B02F47F42028369
:10232000028B0A430283704721B1828A42F0200265
:10233000828204E0828A4FF6DF731A4082827047FD
:1023400021B1828A42F01002828204E0828A4FF632
:10235000EF731A408282704721B1828A42F00802EC
:10236000828204E0828A4FF6F7731A4082827047B5
:1023700021B1828942F40042828103E08289C2F362
:102380000E028281704721B1828A42F40062828209
:1023900004E0828A4FF2FF731A4082827047828A79
:1023A0004FF6FB731A408282828A0A438282704708
:1023B00021B1828A42F00202828204E0828A4FF6D0
:1023C000FD731A408282704702460020B1F5007FFB
:1023D00000D100BF13880B4201D0012000E0002093
:1023E000704701F40072B2F5007F00D100BFCA430C
:1023F0000280704770B502460024002300250020AB
:10240000A1F510666A3E00D100BFC1F3421501F08C
:102410001F03012606FA03F3012D02D196893340EA
:1024200006E0022D02D1168A334001E0968A33403D
:102430000C12012606FA04F41688344013B10CB1CC
:10244000012000E0002070BD10B500220023A1F59E
:1024500010646A3C00D100BF0A1201249440A3B268
:10246000DC43048010BD00000038014000440040FF
:1024700000480040004C00400050004010B50446A9
:10248000FA48844208D101214015FEF797FE002149
:102490006015FEF793FE17E0F548844208D101214C
:1024A0000015FEF78BFE00212015FEF787FE0BE0DE
:1024B000F048844208D10121C803FEF77FFE0021C5
:1024C0004FF40040FEF77AFE10BD30B50246002002
:1024D00000235068E84C20400D790C6844EA05243C
:1024E000204350609068E54C2040D1E902542C43D1
:1024F0004D7944EA450420439060D06A20F470008E
:102500000C7C641EE4B2234340EA0350D06230BD29
:1025100000210160017141718160C160012101747C
:10252000704721B1826842F00102826003E0826854
:1025300022F001028260704721B1826842F4807209
:10254000826003E0826822F480728260704710B576
:102550000023CBB21AB144681C43446002E04468D3
:102560009C43446010BD816841F008018160704760
:10257000014600208A6812F0080F01D0012000E017
:1025800000207047816841F0040181607047014676
:1025900000208A6812F0040F01D0012000E0002022
:1025A000704721B1826842F4A002826003E0826831
:1025B00022F4A00282607047014600208A6812F46B
:1025C000800F01D0012000E00020704710B50A46BE
:1025D00000210023416821F46041531E41EA433148
:1025E000416010BD21B1426842F40062426003E0E4
:1025F000426822F4006242607047F0B504460D461E
:1026000000200021092D11DDE068A5F10A0606EB86
:102610004607072606FA07F18843A5F10A0606EBE6
:10262000460603FA06F10843E0600CE0206905EB7A
:102630004507072606FA07F1884305EB450603FA26
:1026400006F108432061072A0FDA606B561E06EB7D
:1026500086071F2606FA07F18843561E06EB8606F4
:1026600005FA06F10843606322E00D2A0FDA206BB9
:10267000D61F06EB86071F2606FA07F18843D61FEA
:1026800006EB860605FA06F10843206310E0E06ACF
:10269000A2F10D0606EB86071F2606FA07F188430E
:1026A000A2F10D0606EB860605FA06F10843E06284
:1026B000F0BD21B1826842F48012826003E082683A
:1026C00022F48012826070470146C86C80B2704765
:1026D00066484C300068704721B1426842F480621D
:1026E000426003E0426822F480624260704721B198
:1026F000426842F48052426003E0426822F4805211
:10270000426070470A460021816821F4E04111438C
:102710008160704721B1826842F40042826003E028
:10272000826822F400428260704721B1826842F4DC
:102730000212826003E0826822F402128260704713
:10274000014600208A6812F4001F01D0012000E039
:1027500000207047F0B504461546002000220026F0
:10276000092911DDE068A1F10A0707EB470C0727EB
:1027700007FA0CF29043A1F10A0707EB470703FAA7
:1027800007F21043E0600CE0206901EB410C0727E1
:1027900007FA0CF2904301EB410703FA07F21043EA
:1027A0002061A06BC0F30156EF1C06F1010CA7EBF2
:1027B0000C0707EB870C1F2707FA0CF29043EF1C5E
:1027C00006F1010CA7EB0C0707EB870701FA07F2EC
:1027D0001043A063F0BD10B50A4600210023816BB1
:1027E00021F44011531E41EA0351816310BD08B525
:1027F000002300930090009B0B440093009B1A6001
:1028000008BD08B5024600200090009201F12800A2
:10281000009B184400900098006880B208BD0A46EA
:1028200000214168164B19401143416070474162D5
:10283000826270470A460021416821F01F0111435E
:102840004160704740B109490831096841F400010D
:10285000064A0832116007E004490831096821F48A
:102860000001024A08321160704700000024014054
:1028700000280140003C0140FFFEF0FFFDF7F1FFA2
:10288000FFFD3FFF0246002013680B4201D00120EC
:1028900000E000207047CA430260704770B50246EE
:1028A0000020002300240B125568CEB205EA06046E
:1028B00015681D4202D00CB1012000E0002070BD5F
:1028C00000220A12D34303607047000001684FF6EC
:1028D000FE72114001600021016041608160C160B1
:1028E0008C49884208D18B490839496841F00F0169
:1028F000884A083A51608AE086491431884208D1F2
:1029000084490839496841F0F001824A083A516027
:102910007DE080492831884208D17E4908394968DC
:1029200041F470617B4A083A516070E079493C316A
:10293000884208D177490839496841F47041754A9D
:10294000083A516063E073495031884208D17149B7
:102950000839496841F470216E4A083A516056E0DE
:102960006C496431884208D16A490839496841F4A0
:102970007001684A083A516049E0664978318842F6
:1029800008D164490839496841F07061614A083AE0
:1029900051603CE06049884206D1011F096841F05E
:1029A0000F01021F116032E05B491431884208D1E7
:1029B0005949091F096841F0F001574A121F116077
:1029C00025E055492831884208D15349091F096833
:1029D00041F47061504A121F116018E04E493C31B9
:1029E000884208D14C49091F096841F470414A4A9C
:1029F000121F11600BE048495031884207D1464907
:102A0000091F096841F47021434A121F1160704781
:102A100010B50022026847F6F0739A430C6A8B687F
:102A200023430C6923434C6923438C692343CC69BA
:102A300023434C6A23438C6A23431A430260CB68C6
:102A400043600B6883604B68C36010BD0021016068
:102A500041608160C160016141618161C161016268
:102A600041628162704721B1026842F00102026056
:102A700004E002684FF6FE731A40026070471AB114
:102A800003680B43036002E003688B4303607047F5
:102A9000416070470146486880B270470146002097
:102AA000002211F0805F03D01B4B083B1A6802E044
:102AB000184B083B1A680A4201D0012000E00020B0
:102AC000704710F0805F03D01349091F086002E0CF
:102AD000104908394860704701460020002211F073
:102AE000805F03D00C4B083B1A6802E0094B083B9F
:102AF0001A680A4201D0012000E00020704710F05F
:102B0000805F03D00449091F086002E001490839C9
:102B100048607047080002400804024006488047A9
:102B200006480047FEE7FEE7FEE7FEE7FEE7FEE7B2
:102B3000FEE7FEE7FEE7FEE71D2C0008ED000008BB
:102B40000CB50020019000906B48006840F4803084
:102B50006949086000BF6848006800F400300090D0
:102B60000198401C0190009818B90198B0F5A06F29
:102B7000F1D16148006810F4003F02D001200090BC
:102B800001E0002000900098012842D15B480068D5
:102B900040F01000594908600846006820F0030022
:102BA00008600846006840F002000860524840682B
:102BB000514948600846406848600846406840F40B
:102BC000806048600846406820F47C1048600846F1
:102BD000406840F4E81048600846006840F08070A3
:102BE000086000BF4448006810F0007FFAD04248F7
:102BF000406820F00300404948600846406840F0C3
:102C00000200486000BF3C48406800F00C00082803
:102C1000F9D10CBD10B5FFF793FF10BD10B53648C4
:102C2000006840F0010034490860084640683449B3
:102C300008403149486008460068324908402E493A
:102C400008600846006820F4802008600846406854
:102C500020F4FE0048604FF41F008860FFF7DAFFA1
:102C60004FF000602849086010BD10B50021002019
:102C70000022214B5B6803F00C0121B1042906D02E
:102C8000082928D107E0214B214C236027E01F4B66
:102C90001F4C236023E0184B5B6803F47010164B45
:102CA0005B6803F48032022303EB904022B9194B96
:102CB0004343174C23600DE00F4B5B6813F4003F58
:102CC00004D0144B4343124C236003E00F4B4343A7
:102CD0000F4C236003E00D4B0D4C236000BF00BF81
:102CE000054B5B68C3F303130B4CE15C084B1B689B
:102CF000CB40074C236010BD001002400020024072
:102D00000000FFF8FFFFF6FE08ED00E000127A0079
:102D10004C00002000093D005000002000B591B09B
:102D200001210820FEF730FA01218804FEF739FA64
:102D300001210846FEF71BFA4FF48060ADF8400011
:102D400018208DF8430003208DF8420010A93D485B
:102D5000FDF764FF4FF40060ADF8400004208DF8EB
:102D6000430010A93748FDF759FF3748FFF782F9AC
:102D70004FF416500C900020ADF83C000C20ADF83C
:102D80003A000020ADF83800ADF83600ADF8340058
:102D90000CA92D48FFF7B1F940F225512A48FFF759
:102DA00020FB40F225512848FFF74EFB012240F25C
:102DB00025512548FFF739FA2448FFF787FD2248B7
:102DC000001D0090224801901020029000200390E6
:102DD00004908020059000200690079008900990AC
:102DE0000A9069461948FFF713FE0122022117488D
:102DF000FFF745FE012280211348FFF73BFA272009
:102E00008DF82C0003208DF82D0001208DF82E0068
:102E10008DF82F000BA8FDF738FE0C208DF82C0044
:102E200003208DF82D0004208DF82E0001208DF850
:102E30002F000BA8FDF729FE01210348FFF7E9F950
:102E400011B000BD000C0140004800401C000240D1
:102E5000F0020020002101604160704710B5426817
:102E6000521CC92392FBF3F403FB142203689A4219
:102E700000D110BD00F108024368D1544268521CD1
:102E8000C92392FBF3F403FB1422426000BFF0E776
:102E900010B5D0E900239A4200D110BD00F108021C
:102EA00003689A5C0A700268521CC92392FBF3F40F
:102EB00003FB1422026000BFEFE70146D1E90020C6
:102EC000904204DD08790A78801AC0B27047D1E9CF
:102ED0000020904206DAD1E90002801AC0F1C90050
:102EE000C0B2F3E70020F1E710B540F225511E48CB
:102EF000FFF780FA012835D140F225511A48FFF733
:102F000070FA40F225511848FFF79EFA1648FFF76D
:102F1000F1F916490870084600781549154A1278E3
:102F2000885414480078401C1249087008460078FC
:102F3000062809D100200E4948710871C8708870B0
:102F4000487008700B49087008480078302802D192
:102F500001200949087005480078312802D1012074
:102F60000649087010BD00000048004064000020C1
:102F7000F8030020600000206500002066000020AB
:102F8000F8B506460F460024002500BF05E0315D78
:102F90004048FFF763FF601CC4B2BC42F7DB3E4809
:102FA000FFF778FD00BB3B48FFF787FF0546322D52
:102FB00000DD3225002409E069463648FFF768FF46
:102FC0009DF8000035490855601CC4B2AC42F3DBE3
:102FD00000213148FFF747FD29462F48FFF758FDEC
:102FE00001212D48FFF73FFDF8BD38B5002500242D
:102FF0002848FFF762FF0446142C01DD142401E089
:1030000004B938BD002509E069462248FFF740FFB2
:103010009DF8000021494855681CC5B2A542F3DB64
:1030200000211D48FFF71FFD21461B48FFF730FD1B
:1030300001211948FFF717FD00BFE2E710B5202076
:10304000FFF74AFD38B12020FFF73BFD2020FFF7B6
:1030500056FDFFF7CAFF10BD0FB410B5A2B025A8EA
:10306000219001A8219A249901F02EFF84B200201A
:10307000219000BF0748FFF720FFC0F13200A042B7
:10308000F8DDE1B201A8FFF77BFF22B010BC5DF8CC
:1030900014FB0000240300201C000240F00200206A
:1030A00030B502460B464FF6FF70002112E0555C2A
:1030B000684000240AE010F0010F04D04AF2010534
:1030C00085EA600000E04010651CECB2082CF2DBE1
:1030D0004D1CE9B29942EADB30BD2DE9FE430546BD
:1030E0000E4617469846280A8DF80100E8B28DF87A
:1030F0000000300A8DF80300F0B28DF80200380AA3
:103100008DF80500F8B28DF804004FEA18208DF80C
:10311000070008F0FF008DF8060008216846FFF759
:10312000BFFF04462046E11704EB11610912A4EB2E
:103130000121C9B28DF80810E11704EB1161090AE9
:103140008DF809100A216846FFF71AFFBDE8FE83D3
:1031500008B501210420FEF717F83020ADF8000073
:1031600014208DF8030003208DF80200694688487A
:10317000FDF754FD08BD08B52020ADF8000014206F
:103180008DF8030003208DF8020069468048FDF7A2
:1031900045FD08BD08B52020ADF8000004208DF8DD
:1031A000030069467A48FDF739FD08BD08B50120DE
:1031B000009002E00098401E009000980028F9D18D
:1031C00008BD10B510217248FDF7D5FDFFF7EEFFE1
:1031D00020216F48FDF7CDFDFFF7E8FF10216C4877
:1031E000FDF7C7FDFFF7E2FF20216948FDF7C3FDAA
:1031F000FFF7DCFF10BD10B510216548FDF7BBFDE2
:10320000FFF7D4FF20216248FDF7B5FDFFF7CEFFA1
:1032100010215F48FDF7ADFDFFF7C8FF20215C4896
:10322000FDF7A7FDFFF7C2FF10BD10B510215848EC
:10323000FDF7A1FDFFF7BAFF20215548FDF799FDE5
:10324000FFF7A8FFFFF7B2FF10215148FDF791FDEE
:10325000FFF7ACFF20214E48FDF771FD38B1FFF7B5
:103260008AFF10214A48FDF786FD002010BD10217D
:103270004748FDF780FDFFF77EFFFFF797FF01202E
:10328000F4E770B5044600251BE010214048FDF727
:1032900072FD14F0800F04D020213D48FDF769FD38
:1032A00003E020213A48FDF766FD6006040EFFF7B3
:1032B0007DFF10213648FDF75CFDFFF777FF681CA6
:1032C000C5B2082DE1DB10213148FDF754FDFFF7B1
:1032D000ACFF00B970BD00BFFCE770B50024FFF77C
:1032E00059FF002519E06006040E10212848FDF75B
:1032F00040FDFFF75BFF20212548FDF720FD012859
:1033000001D144F00104FFF751FF10212048FDF7DF
:1033100032FDFFF74BFF681CC5B2082DE3DB2046EA
:1033200070BD70B505460C46FFF74BFFD020FFF788
:10333000A8FF2846FFF7A5FF2046FFF7A2FFFFF7EB
:103340005AFF70BD70B50446FFF73BFFD020FFF772
:1033500098FF2046FFF795FFFFF733FFD120FFF7D7
:1033600090FFFFF7BAFF0546FFF75FFFFFF743FF48
:10337000284670BD70B504462046FFF7E3FF0546BA
:10338000611CC8B2FFF7DEFF064606EB052070BDE4
:103390000008014010B500216B20FFF7C2FF082193
:1033A0001920FFF7BEFF04211A20FFF7BAFF1821EA
:1033B0001B20FFF7B6FF10211C20FFF7B2FF10BD46
:1033C00010B53B20FFF7D6FF044601F0DFFA3B497A
:1033D00008603D20FFF7CEFF044601F0D7FA3849D8
:1033E00008603F20FFF7C6FF044601F0CFFA3549D9
:1033F00008604320FFF7BEFF044601F0C7FA3249D8
:1034000008604520FFF7B6FF044601F0BFFA2F49D8
:1034100008604720FFF7AEFF044601F0B7FA2C49D9
:10342000086010BD2DE9F04706460C4615462F46AC
:10343000A046284800682849086041462748006897
:1034400001F04EF82649086039462548006801F029
:1034500047F8814649462248006801F0CFF82149E3
:1034600008601D480168304601F08CF882461D480E
:103470000168504601F08CF88146174801684846BB
:1034800001F02EF818490860164801684FF07E5088
:1034900001F078F8814612480168484601F078F852
:1034A00012490860084600680C4908600E48006828
:1034B000084908600C480068BDE8F08768000020F3
:1034C0006C000020700000207400002078000020B4
:1034D0007C00002094000020800000209800002044
:1034E0008800002090000020840000208C00002034
:1034F0002DE9F0410446204601F048FA0746FE490E
:1035000001F046F80646FD4901F078F805462846E0
:10351000BDE8F0812DE9F0470446204601F036FA77
:10352000824601F086FA0746F54AF64B01F04DF95E
:10353000054601F0B9FA81464846BDE8F0872DE915
:10354000F0410446204601F021FA07464FF0804141
:1035500001F01EF80646E94901F050F805462846F4
:10356000BDE8F0812DE9F04F89B081460D46144643
:103570009A46DDF848B005FB05F104FB041001F0A4
:1035800005FA074603F02CF80646304601F051FADA
:10359000CDE90201484601F0F9F9019001F049FA3C
:1035A0000746DDE9022302F087FED74AD74BCDE973
:1035B000040101F00AF9CDE9060101F075FA0646A9
:1035C000CBF8006009FB09F104FB041001F0DEF9FF
:1035D000074603F005F80646304601F02AFACDE921
:1035E0000201284601F0D2F9019001F022FA0746C3
:1035F000DDE9022302F060FEC34AC44BCDE90401B9
:1036000001F0E3F8CDE9060101F04EFA0646CAF8EA
:10361000006009B0BDE8F08F2DE9FF5F06460F4658
:1036200090461C46002515E0C5F10200B84951F846
:103630002000C5F10301B64A42F82100C5F102009D
:10364000B44951F82000C5F10301B24A42F8210003
:10365000681CC5B2032DE7DBAD480660AD480760C6
:10366000AB48C168AC4800F093FF0390A84881685C
:10367000AA4800F08DFF0290A5484168A84800F0D4
:1036800087FF0190A2480168A64800F081FF0090E2
:10369000019900F025FF8346029900F021FF824640
:1036A000039900F01DFF81469F4900F0A7FFC8F86D
:1036B00000009948E16800F06BFF03909748A1680B
:1036C00000F066FF02909648616800F061FF01908B
:1036D0009448216800F05CFF0090019900F000FF21
:1036E0008346029900F0FCFE8246039900F0F8FE42
:1036F00081468D4900F082FF2060BDE8FF9F2DE9E3
:10370000F843FFF75DFE4FF08E418848006801F0F6
:10371000E7F910D28548006801F08BF906464FF0B2
:103720006632834B01F0C3F881F00041044601F09A
:10373000BBF97E4908604FF08E417C48006801F07B
:10374000D9F912D2794801687A4800F01BFF804607
:1037500001F06FF906464FF06632754B01F0A7F89D
:10376000044601F0A1F9714908606F496F4800688B
:1037700001F0C0F905D970496C48006801F0B0F952
:1037800002D80020694908606848006801F019F90A
:1037900004B22046FFF7ACFE684908604FF08E4146
:1037A0006748006801F09CF910D26548006801F094
:1037B00040F906464FF066325D4B01F078F881F033
:1037C0000041044601F070F95D4908604FF08E41F8
:1037D0005B48006801F08EF912D2594801685548DB
:1037E00000F0D0FE804601F024F906464FF0663224
:1037F0004F4B01F05CF8044601F056F9504908605F
:1038000049494F48006801F075F905D94A494C48C3
:10381000006801F065F902D800204949086048486D
:10382000006801F0CEF804B22046FFF761FE45497A
:1038300008604FF08E414448006801F051F910D201
:103840004148006801F0F5F806464FF06632384B03
:1038500001F02DF881F00041044601F025F93A49C4
:1038600008604FF08E413848006801F043F912D2E9
:10387000354801682F4800F085FE804601F0D9F8F0
:1038800006464FF066322A4B01F011F8044601F06B
:103890000BF92D49086024492B48006801F02AF9EA
:1038A00005D925492848006801F01AF902D80020F6
:1038B000254908602448006801F083F804B22046D6
:1038C000FFF716FE214908602148006801F079F8E9
:1038D00004B22048006801F074F805B21E48006880
:1038E00001F06FF806B21D481D4B22462946009094
:1038F0003046FFF737FE35E00000FA4400FEFF4691
:103900002877442A3174513F775AF01ADCA54C408D
:1039100030040020400400200000A04000002041AE
:103920000000A041000082420000C8427400002054
:103930006666304000FF7F470000C8C2D800002004
:1039400078000020DC0000207C000020E000002047
:10395000700000206C00002068000020D4000020CF
:10396000D0000020FE480068FE494860FE4800681C
:103970000860FE4A48684FF07E51FFF753FDF94951
:103980004860FA4A08684FF07E51FFF74BFDF54951
:103990000860BDE8F8830FB59DB0F5480168006880
:1039A00000F0F6FD1590F3480168F148006800F05A
:1039B000EFFD1490F0480168ED48006800F0E8FD64
:1039C0001390EC480168006800F0E2FD1290EB48AB
:1039D0000168E848006800F0DBFD1190E6480168E6
:1039E000006800F0D5FD1090E4480168E2480068E6
:1039F00000F0CEFD0F90E1480168006800F0C8FDBE
:103A00000E902299209800F0C3FD0C90239900F0AD
:103A1000BFFD00210D9001F063F801D121B000BD80
:103A20002399084600F0B4FD08902299084600F05A
:103A3000AFFD06902099084600F0AAFD0590069972
:103A400000F04EFD0790089900F04AFD099000F043
:103A5000F0FFCDE90A0102F09DFDCDE90C0101F076
:103A600023F81C901C99209800F0C8FD20901C9908
:103A7000229800F0C3FD22901C99239800F0BEFD0F
:103A800023901399119800F07DFD4FF080410D9027
:103A900000F07EFD1B900F99149800F021FD4FF06F
:103AA00080410D9000F074FD1A901299159800F065
:103AB00069FD0C90109900F065FD0D900E9900F0D5
:103AC0000FFD19901A99239800F062FD0D90199935
:103AD000229800F05DFD0C900D9900F053FD1890B8
:103AE0001999209800F054FD0D901B99239800F02F
:103AF0004FFD0C900D9900F045FD17901B992298F1
:103B000000F046FD0D901A99209800F041FD0C90B0
:103B10000D9900F037FD16909949189800F038FD7E
:103B20000D90984801680D9800F0DAFC95490860FE
:103B30009349179800F02CFD0D90934801680D985B
:103B400000F0CEFC904908608D49169800F020FDE9
:103B50000D908E4801680D9800F0C2FC8B490860FA
:103B60008B48189900F014FD0C901D9900F0B8FCDA
:103B70000D90844801680D9800F0B2FC1D908448B7
:103B8000179900F005FD0C901E9900F0A9FC0D900E
:103B90007D4801680D9800F0A3FC1E9077481F999E
:103BA000006800F0F5FC0B9073481E99006800F067
:103BB000EFFC09906F48006880F0004007901D9965
:103BC00000F0E6FC0890099900F0DCFC0A900B99E3
:103BD00000F0D8FC65490C9000F0DAFC0D906448C8
:103BE00001680D9800F07CFC6149086063481E99EB
:103BF000006800F0CDFC0B905F481F99006800F052
:103C0000C7FC09905A4801681D9800F0C1FC089053
:103C1000099900F065FC0A900B9900F0B3FC534938
:103C20000C9000F0B5FC0D90524801680D9800F022
:103C300057FC50490860514801681D9800F0A8FCE5
:103C40000B904C481F99006800F0A2FC099048486E
:103C50001E99006800F09CFC0890099900F092FC05
:103C60000A900B9900F03CFC40490C9000F090FC4D
:103C70000D90414801680D9800F032FC3E49086003
:103C8000084601681D9800F083FC0B9039481E9986
:103C9000006800F07DFC099035481F99006800F02D
:103CA00077FC0890099900F01BFC0A900B9900F032
:103CB00069FC2E490C9000F06BFC0D902F480168B8
:103CC0000D9800F00DFC2D49086008460168006859
:103CD00000F05EFC089028480168006800F058FC7D
:103CE000069024480168006800F052FC04902048C7
:103CF0000168006800F04CFC0390049900F0F0FBB0
:103D00000590069900F0ECFB0790089900F0E8FB9D
:103D1000099000F08EFECDE90A0102F03BFCCDE9EE
:103D20000C0100F0C1FE1C9011481C99006800F0C5
:103D300065FC0F4908600F481C99006800F05EFCA4
:103D40000C4908600C481C99006800F057FC0A49AF
:103D500008600A481C99006800F050FC074919E007
:103D6000D400002018040020D00000206F12833AF5
:103D70009C000020A0000020A4000020A80000203B
:103D80006F12033CAC000020B0000020B400002003
:103D9000000020410860084601684FF0804000F0B4
:103DA000F7FB0190FE480168019800F0F1FB0390D9
:103DB000FC4801684FF0404000F0EAFB0190F948F0
:103DC0000168019800F0E4FB0290039900F0DAFB2F
:103DD0004FF07E51049000F083FB059000F029FE27
:103DE000CDE90801F04801684FF0804000F0D0FBB9
:103DF0000290EB480168029800F0CAFB0490EB487F
:103E000001684FF0804000F0C3FB0290E548016874
:103E1000029800F0BDFB0390049900F061FB05904F
:103E200000F007FECDE90601DDE9082302F044FABF
:103E30004FF06632DE4BCDE90A0100F0C6FCCDE959
:103E40000C0100F031FEDB498860D74801684FF073
:103E5000804000F09DFB0490D2480168049800F077
:103E600097FB0690D14801684FF0404000F090FB6E
:103E70000490CB480168049800F08AFB05900699ED
:103E800000F02EFB079000F0D4FDCDE9080101F011
:103E9000C3FF4FF06632C64BCDE90A0100F095FC36
:103EA000CDE90C0100F000FEC2494860BD48016840
:103EB0004FF0804000F06CFB0190BA480168019817
:103EC00000F066FB0390B94801684FF0404000F0F5
:103ED0005FFB0190B5480168019800F059FB029022
:103EE000039900F04FFB4FF07E51049000F0F8FA78
:103EF000059000F09EFDCDE90801AB4801684FF048
:103F0000804000F045FB0290A8480168029800F04C
:103F10003FFB0490A34801684FF0804000F038FB5D
:103F200002909F480168029800F032FB03900499C8
:103F300000F0D6FA059000F07CFDCDE90601DDE940
:103F4000082302F0B9F94FF06632994BCDE90A0126
:103F500000F03BFCCDE90C0100F0A6FD954908609E
:103F600000BF5BE50FB597B0924800689249089092
:103F700000F044FB099000F05CFDCDE90A0102F07D
:103F80005BFACDE90C0100F08FFD1590894840687F
:103F90008949089000F032FB099000F04AFDCDE914
:103FA0000A0102F049FACDE90C0100F07DFD149000
:103FB000804880688049089000F020FB099000F05C
:103FC00038FDCDE90A0102F037FACDE90C0100F025
:103FD0006BFD1390774800687749089000F00EFB5E
:103FE000099000F026FDCDE90A0102F07BFACDE947
:103FF0000C0100F059FD12906E4840686E4908901F
:1040000000F0FCFA099000F014FDCDE90A0102F07D
:1040100069FACDE90C0100F047FD11906548806810
:104020006549089000F0EAFA099000F002FDCDE938
:104030000A0102F057FACDE90C0100F035FD1090AD
:10404000DDE9131000F0A4FA0F90DDE9101000F084
:104050009FFA0E900E99129800F09AFA0D900F990F
:10406000159800F095FA0C900D9900F039FA4E4928
:1040700008600E99159800F08BFA0D900F99129820
:1040800000F086FA0C900D9900F07CFA4749086020
:104090001499129800F07CFA0B90109900F078FABD
:1040A0000D901199159800F073FA0B90139900F088
:1040B0006FFA0C900D9900F013FA3A490860DDE9A7
:1040C000111000F065FA0B90139900F061FA0D9051
:1040D000DDE9141000F05CFA0B90109900F058FA2A
:1040E0000C900D9900F04EFA2D4908602C48199952
:1040F000006800F04DFA0B902A481899006800F00B
:1041000047FA09902948006880F000400790179905
:1041100000F03EFA0890099900F034FA0A900B99E1
:1041200000F030FA25490C9000F032FA0D901E484C
:1041300001680D9800F0D4F91B49086018481899D7
:10414000006800F025FA0B9016481999006800F0F5
:104150001FFA099014480168179800F019FA08909E
:10416000099900F0BDF90A900B9900F00BFA134978
:104170000C9000F00DFA0D900C4801680D9800F0BD
:10418000AFF90A49086006480168179800F000FA7C
:104190000B9006481999006800F0FAF909900FE0B1
:1041A000A8000020A40000209C000020A000002007
:1041B00066A64C40180400203333E5426F12833A60
:1041C000B7481899006800F0E3F90890099900F0E1
:1041D000D9F90A900B9900F083F9B2490C9000F0DC
:1041E000D7F90D90B04801680D9800F079F9AE4903
:1041F000086008460168179800F0CAF90B90AB48B0
:104200001899006800F0C4F90990A5481999006848
:1042100000F0BEF90890099900F062F90A900B9934
:1042200000F0B0F99F490C9000F0B2F90D90A04851
:1042300001680D9800F054F99D490860084601682E
:10424000006800F0A5F9089097480168006800F040
:104250009FF9069095480168006800F099F904906C
:104260008F480168006800F093F90390049900F00A
:1042700037F90590069900F033F90790089900F096
:104280002FF9099000F0D5FBCDE90A0102F082F97F
:10429000CDE90C0100F008FC1690814816990068E1
:1042A00000F0ACF97E49086080481699006800F07B
:1042B000A5F97E4908607C481699006800F09EF9CF
:1042C000794908607A481699006800F097F97849AA
:1042D0000860084601684FF0804000F059F90190ED
:1042E00073480168019800F053F903906E48016823
:1042F0004FF0404000F04CF901906B480168019884
:1043000000F046F90290039900F03CF94FF07E511D
:10431000049000F0E5F8059000F08BFBCDE9080172
:104320005F4801684FF0804000F032F90290604829
:104330000168029800F02CF904905C4801684FF085
:10434000804000F025F9029057480168029800F07B
:104350001FF90390049900F0C3F8059000F069FB81
:10436000CDE90601DDE9082301F0A6FF4FF0663232
:10437000504BCDE90A0100F028FACDE90C0100F01C
:1043800093FB4D498860464801684FF0804000F03B
:10439000FFF8049044480168049800F0F9F806908A
:1043A000424801684FF0404000F0F2F80490404865
:1043B0000168049800F0ECF80590069900F090F878
:1043C000079000F036FBCDE9080101F025FD4FF024
:1043D0006632384BCDE90A0100F0F7F9CDE90C015E
:1043E00000F062FB344948602F4801684FF080407C
:1043F00000F0CEF801902C480168019800F0C8F850
:1044000003902A4801684FF0404000F0C1F8019045
:1044100026480168019800F0BBF80290039900F06B
:10442000B1F84FF07E51049000F05AF8059000F07A
:1044300000FBCDE908011A4801684FF0804000F008
:10444000A7F8029019480168029800F0A1F80490BA
:10445000154801684FF0804000F09AF80290144827
:104460000168029800F094F80390049900F038F87D
:10447000059000F0DEFACDE90601DDE9082301F040
:104480001BFF4FF066320B4BCDE90A0100F09DF99E
:10449000CDE90C0100F008FB074908601BB000BD26
:1044A0009C0000206F12833AA4000020A00000208E
:1044B000A800002066A64C4018040020D2B201E0FB
:1044C00000F8012B491EFBD270470022F6E710B519
:1044D00013460A4604461946FFF7F0FF204610BD72
:1044E000F0B480EA0102D40F4200B2EB410F02D2D5
:1044F0000246084611464A0042D0C30DDDB2C1F360
:10450000C752AD1A202D35DAC1F3160141F400026D
:1045100004B15242C5F1200602FA06F12A411044C4
:10452000B3EBD05F23D0C4B1012DA0EBC35009DCA5
:10453000F0BC4FF0004202EAC35200F50000DBB2CB
:1045400000F063BB400000F1807000EBC350A0F1AD
:10455000807040EAD170490009E0490841EAC07121
:10456000A0EBC35000F50000400800EBC350F0BCC6
:1045700000F042BB6142012202EB4101001BF6E761
:10458000F0BC704781F00041AAE780F00040A7E747
:1045900080EA010210B502F00043400026D04A0034
:1045A00023D04FEA106101EB1261C0F35600C2F351
:1045B000560240F4000042F40002A0FB0220A1F1E8
:1045C0007F014FEA0040140401D000F1010050EADD
:1045D000124001D44000491EC2B20C0604EBD010B8
:1045E000401C4008802A02D003E0002010BD20F0CB
:1045F0000100002900DA0020184310BD30B480EA21
:10460000010202F0004530F0004221F0004015D0D8
:10461000A0B1C0F3C753C2F3C754C2F31601C0F32D
:104620001600E41A41F4000140F400027D34914286
:1046300001D3641C00E04900002C02DA30BC0020E9
:1046400070474FF400000023914201D3891A0343BD
:1046500040084FEA4101F7D151B1914202D14FF0E8
:10466000004105E002D24FF0010101E06FF00101CD
:1046700003EBC450284430BC00F0BEBA2DE9FE4F15
:10468000804681EA0300C00F0C46009021F00041F3
:1046900023F00045B8EB0200A94105D2404621466F
:1046A00090461C460B46024623F00040104304D1BE
:1046B0004046214603B0BDE8F08F270DC7F30A003E
:1046C000C3F30A510290401A0190402866DAC3F3FE
:1046D000130040F4801B0098924620B10023D2EBD7
:1046E000030A63EB0B0B01985946C0F14002504698
:1046F00000F051FA06460D4650465946019A00F020
:1047000069FA10EB08006141002487EA115284EA3B
:10471000E7731A433BD0009A3AB3019A012A4FEA51
:10472000075210DC001B61EB02014FF0004202EA6D
:104730000752CDE90042001C41F5801132462B465C
:1047400000F0CCFAB6E7001B61EB0201001C41F55A
:10475000801300185B412018A2F5001747EB0301F6
:1047600040EAD570B6196D4111E06D084FEA360682
:1047700045EAC0754FEA0752001B61EB0201001CBD
:1047800041F5801149084FEA300000195141324685
:104790002B4603B0BDE8F04F00F093BA0098012219
:1047A00040000023D0EB020263EBE0730098214647
:1047B0004FEAE074B8EB000061EB0401E9E783F035
:1047C00000435BE781F0004158E72DE9FE4F81EAA5
:1047D000030404F0004421F0004100944FF0000B6A
:1047E00023F0004350EA010402D052EA030404D14A
:1047F0000020014603B0BDE8F08FC3F30A54C1F3B3
:104800000A552C44A4F2F3340194A0FB0254C1F3E2
:10481000130141F48011C3F3130343F4801301FB2C
:10482000024400FB034E840A970A44EA815447EA93
:104830008357A4FB076802958D0A05FB07854FEA9D
:10484000932C04FB0C542705029D4FEA065847EAB7
:104850001637B5EB08056EEB070C870E920E47EA8C
:10486000811742EA8312A7FB0201B6EB0B0164EB4E
:1048700000042B0D43EA0C335E1844EB1C50DA465F
:104880005146E7FB0201C5F313044FEA0B3343EA39
:1048900014534FEA0432019C43EA0603A4F10C04CA
:1048A0000294009CCDE900B400F018FAA2E72DE9CB
:1048B000F04D81EA030404F0004B21F0004514465A
:1048C0004FF0000A23F0004150EA050220D054EADC
:1048D00001021DD0C5F30A570246C5F31303C1F305
:1048E0001300C1F30A5640F4801543F48013A7EB7C
:1048F0000608101BD64608F2FD3873EB050002D3FC
:1049000008F1010801E092185B41B8F1000F03DAE9
:1049100000200146BDE8F08D00204FF480110646CE
:1049200084460EE0171B73EB050705D3121B63EBE0
:10493000050306434CEA010C49084FEA300092187F
:104940005B4150EA0107EDD152EA030012D082EA3E
:10495000040083EA0501084303D100224FF000431D
:1049600008E0101BAB4102D20122002302E06FF0ED
:10497000010253101AEB06004CEB085110EB0A0031
:1049800041EB0B01BDE8F04D00F09BB9C10F80EA8F
:10499000E0700844CA079623002100F036B9962338
:1049A0000022114600F031B90EB540F233410291B8
:1049B0000021CDE900110A460B4600F08FF903B043
:1049C00000BD00F0004220F00040C10DC0F3160011
:1049D00040F400007F2901DA00207047962903DCAB
:1049E000C1F19601C84001E096398840002AF4D010
:1049F0004042704770B5C1F30A5201F000450024EF
:104A0000C1F3130140F2FF3341F480119A4201DAFD
:104A1000002070BD40F233439A42A2F2334203DCDD
:104A2000524200F0C7F800E090402C43F1D04042E1
:104A300070BD00F0004230F000400AD0C10D01F519
:104A40006071C0F3160042EA0151C20840071143E9
:104A5000704700200146704730B5002904DB4FF055
:104A60000044404264EB0101002B04DB4FF00044A2
:104A7000524264EB03038B4208BF824230BD000008
:104A800030B5002904DB4FF00044404264EB0101E3
:104A9000002B04DB4FF00044524264EB03039942C5
:104AA00008BF904230BD000001F0004330B421F057
:104AB000004150EA010206D00A0DA2F56072C1F36E
:104AC0001301002A02DC30BC00207047440F44EA86
:104AD000C104C100E01830BC00EBC25000F08CB83B
:104AE000002801DBC0F10040002901DBC1F10041D9
:104AF00081427047002801DBC0F10040002901DB42
:104B0000C1F100418842704730B50B460146002094
:104B10002022012409E021FA02F59D4205D303FA7F
:104B200002F5491B04FA02F52844151EA2F1010200
:104B3000F1DC30BD2DE9F05F0546002092469B4632
:104B400088460646814640241BE0284641464746A3
:104B5000224600F02FF853465A46C01A914110D30E
:104B600011461846224600F016F82D1A67EB010888
:104B70004F4622460120002100F00DF817EB0009F6
:104B80004E41201EA4F10104DFDC484631462A468E
:104B90004346BDE8F09F202A04DB203A00FA02F1E8
:104BA000002070479140C2F1200320FA03F319431B
:104BB00090407047202A04DB203A21FA02F00021BD
:104BC000704721FA02F3D040C2F12002914008431D
:104BD00019467047202A06DBCB17203A41FA02F02B
:104BE00043EAE07306E041FA02F3D040C2F120024A
:104BF00091400843194670470029A8BF7047401CE0
:104C0000490008BF20F00100704710B4B0FA80FCE2
:104C100000FA0CF050EA010404BF10BC704749B11F
:104C2000CCF1200421FA04F411FA0CF118BF01218F
:104C300021430843A3EB0C01CB1D0106000A002B06
:104C4000BEBF002010BC704700EBC35010440029C9
:104C5000A4BF10BC7047401C490008BF20F00100F1
:104C600010BC7047F0B4002802DCF0BC0020704794
:104C7000C0F3C751C0F3160040F40000CA0701D1C9
:104C80004000491E3F2202EB6105002211464FF40D
:104C9000000626FA01F31344D418844201D8001BFD
:104CA0001A464000491C1729F3DD5100814202D207
:104CB0004FF0FF3100E0002102EBC550F0BCFFF7E0
:104CC0009BBF10B5002B08DA401C41F1000192187F
:104CD0005B411A4301D120F0010010BD2DE9F04DD8
:104CE00092469B4611B1B1FA81F202E0B0FA80F22D
:104CF00020329046FFF74FFF04460F4640EA0A0075
:104D000041EA0B0153465A46084303D1204639462F
:104D1000BDE8F08D114653EA010015D0C8F14002FC
:104D20005046FFF747FF05460E4650465946424655
:104D3000FFF731FF084301D0012000E000200543C8
:104D400046EAE0762C4337430A984FEA4453A0EBF7
:104D500008004FEAD4240A304FF0000244EA4754D6
:104D60004FEAD72502D500200146D1E701051019E9
:104D70006941DDE9084500196941BDE8F04DA0E74A
:104D800070B521F0004303430CD0C1F30A55002451
:104D9000D5EB040564EB0403D617AD1AB34102DB6F
:104DA0000020014670BD201841EB025170BD2DE975
:104DB000F04D00231A461B1A8A4103DB00200146EE
:104DC000BDE8F08DC1F30A52C1F3130141F480151F
:104DD0004FF0000BD10702D100186D41521E002781
:104DE000044640F2FF11384601EB620A3E46804617
:104DF000024600204FF48011FFF7DCFEC21971411A
:104E0000BB1846EB0100B4EB030C75EB000C04D3AC
:104E1000E41A65EB000517460E46241908F1010057
:104E20006D4180463428E3DDF91946EB0600091B85
:104E3000A84103D24FF0FF32134601E0002213468F
:104E40001BEB070046EB0A51BDE8F04DFFF739BFF9
:104E5000C1F30A52C1F3130140F2FF3341F4801150
:104E60009A4202DA00200146704740F233439A42E8
:104E7000A2F2334202DC5242FFF79CBEFFF78BBE28
:104E8000064C074D06E0E06840F0010394E8070097
:104E900098471034AC42F6D3FBF72CF92068000891
:104EA000406800080EB5C10F80EAE0700844CA07E8
:104EB000002140F233438DE80E000A460B46FFF70F
:104EC0000DFF03B000BD000037B514460846064B81
:104ED0006A46214600F0F8FB04466946002000F0CF
:104EE00096FF20463EBD00000F5E0008490050EAD4
:104EF000C12018BF04204A0D18BF40F0010040F245
:104F0000FF72B2EB515F08BF40F00200012808BFFA
:104F1000052070472DE9F74F144696B00021C4E9EB
:104F200002111799089121F00045CA498D4206DC0B
:104F30001799C4E9000119B00020BDE8F08FC649F7
:104F4000DFF818A3A9423CDD0899C54E0029C54FDA
:104F5000C54A1799534619DDFFF731FC554506D070
:104F6000C24AC34BFFF72BFCC4E900010AE04FF033
:104F7000D352BF4BFFF723FC32463B46FFF71FFCE3
:104F8000C4E9000119B00120BDE8F08FFFF776FBFE
:104F9000554506D0B54AB64BFFF770FBC4E9000192
:104FA0000AE04FF0D352B24BFFF768FB32463B4664
:104FB000FFF764FBC4E9000119B04FF0FF30BDE812
:104FC000F08FAC49A942179978DB21F0004883465D
:104FD000A94AAA4B4146FFF7F8FB0022A84BFFF76E
:104FE0004DFBFFF707FD0990FFF75CFF06460F46F4
:104FF0009D4A5346FFF7E9FB5A464346FFF7E2FB5B
:1050000080468A46994A9A4B30463946FFF7DDFB7F
:105010002A0D01250B9242465346FFF7D3FB032D81
:10502000C4E9000139D00B98C1F30A51401A05EBCD
:1050300045111139814230DA9248C346784400EB79
:105040000510CDF81CA00C90D0E90023304639465D
:10505000FFF7BBFBCDE9020102460B465846079914
:10506000FFF7ADFB80468A4602460B465846079935
:10507000FFF7A5FBDDE90223FFF7A1FB83460C98B0
:1050800003913946D0E902233046FFF79EFB5A468A
:10509000039BFFF794FB6D1CBDE708980028A2BF97
:1050A000099819B0BDE8F08F616881F00041616036
:1050B000099819B04042BDE8F08FFFE7C1F3130132
:1050C00041F480110E911799C1F30A51A1F2F53202
:1050D000511102F01F08C8F12002129200220C9216
:1050E0000D92694A7A4402EB810101F1140C0DA979
:1050F0005FF00607DCF80020DCF8045002FA08F341
:10510000129AD1F800A025FA02F21A430E9BA2FBD4
:105110000356A2FB00329A4415449A4534BF4FF01F
:10512000010B4FF0000B51F8043C05EB0B0E7344E0
:10513000954234BF012200221644BBF1000F02D079
:10514000AB4202D903E0AB4201D2012200E00022CF
:105150003244C1F800A041E90223091FACF1040C5C
:105160007F1EC7D10898DDE90A6500F10050800F65
:1051700011900898099F8000FFF794FE80468A46A8
:105180003846FFF711FC6FF01D02FFF7F9FD0746E7
:1051900030460591FFF708FC6FF03D02FFF7F0FD88
:1051A000CDE903102846FFF7FFFB6FF05D02FFF724
:1051B000E7FD064602460B460191DDE90310FFF7C5
:1051C0005DFA3A46059BFFF759FA42465346FFF708
:1051D00055FA00200D46834642465346FFF7EFFA44
:1051E0003A46059BFFF7EBFADDE90332FFF7E7FAF2
:1051F0003246019BFFF7E6FADFF89480234A4346E4
:10520000FFF7E3FA06460F46224A234B5846294643
:10521000FFF7DBFA32463B46FFF730FA0F46064609
:105220004FF0A842434658462946FFF7CEFA324689
:105230003B46FFF723FA179A12F0004F04D0119A59
:1052400081F0004152421192C4E90001119819B055
:10525000BDE8F08FFB21E93F7CD90240FB21F93FFB
:105260007370032E8A19A33B000040543163621A05
:1052700061B4D03DFB21394183C8C96D305FE43F43
:105280000000E03FF016000078160000182D44548E
:10529000FB21F93D3326A611460B113C2DE9FF4DAC
:1052A00021F0004807460C46B8F1795F08DAFFF7AD
:1052B000A1FB002801BF0020324904B0BDE8F08DF9
:1052C0003A46234610461946FFF77FFA054602463E
:1052D0002D480E460B460621784400F05DF82A461C
:1052E0003346FFF772FADDE9022382468B463846E1
:1052F0002146FFF76AFA04460F4652465B462846A7
:105300003146FFF762FA22463B46FFF758FA074656
:105310008A464FF0FF3228463146FFF731FD1B4ADF
:1053200090450ADA3A465346FFF749FA04B000229C
:10533000BDE8F04D134BFFF745BA154A4245A8BFEB
:10534000A8F500154FF00004B8BF124D22462B46B9
:10535000FFF735FA0646884622462B4600200949C3
:10536000FFF72DFA04460D463A465346304641466D
:10537000FFF725FA04B022462B46BDE8F04DFFF7B3
:1053800021BA00000000F03F1C1400003333D33F6B
:105390000000E93F0000D23F2DE9F0414F1E00EB35
:1053A000C7010446D1E9000115461E4637F0060242
:1053B0000DD02A463346FFF708FA7F1E04EBC703D9
:1053C000D3E90023FFF75AF937F00602F1D1022F93
:1053D00025D0042F13D0062F18BFBDE8F0812A4630
:1053E0003346FFF7F2F9D4E90A23FFF747F92A46D3
:1053F0003346FFF7EAF9D4E90823FFF73FF92A46D5
:105400003346FFF7E2F9D4E90623FFF737F92A46D6
:105410003346FFF7DAF9D4E90423FFF72FF92A46D8
:105420003346FFF7D2F9D4E90223FFF727F92A46DA
:105430003346FFF7CAF9D4E90023BDE8F041FFF78E
:105440001DB900002DE9FF4D054621F0004084B054
:105450000C46B0F1795F0BDA2846FFF747FD0428C8
:1054600008BF00F065F8284608B02146BDE8F08D79
:105470002A460B461046FFF7A8F906460F462A466D
:105480002346FFF7A2F9804626488A4632463B4625
:1054900005217844FFF780FF83461098029160B39E
:1054A000214A224B40465146FFF78FF9CDE90001D2
:1054B0005A4640465146029BFFF787F98246884686
:1054C000DDE906014FF0FF32FFF75AFC5246434632
:1054D000FFF775F932463B46FFF777F9DDE906231A
:1054E000FFF76DF9DDE90023FFF769F908B02A46F7
:1054F0002346BDE8F04DFFF765B90B465A463046E6
:105500003946FFF762F9084A084BFFF7B7F84246F9
:105510005346FFF75AF908B02A462346BDE8F04D36
:10552000FFF7ACB862130000495555555555C5BF36
:10553000024A00201107FFF723BC000001FDFFFF16
:1055400002E008C8121F08C1002AFAD1704770474C
:10555000002001E001C1121F002AFBD170470000AA
:105560000149086070470000F00000202DE9FF5F4E
:10557000DDE90220010DDDF838B0024310D10F98AB
:1055800001244CA2012808D0002100980F9BC0E9FB
:105590000021C0E90243BDE8FF9F6FEA0B01F4E779
:1055A000A1F2FF3144F6105041430D140F98012829
:1055B0000ED0A5EB0B00401C4FF000043E4EDFF870
:1055C000FC90B0F1000AA04605DACAF1000717E026
:1055D000CBF10000F0E7074612E0F80707D02246BB
:1055E000334640464946FFF7F0F880468946224652
:1055F000334610461946FFF7E8F804460E467F107A
:10560000002FEAD1DDE90201BAF1000F42464B4614
:1056100002DAFFF7DAF801E0FFF749F904460E462F
:105620000022274BFFF72CFA03D84FF0FF3001463A
:1056300007E00022234B20463146FFF71FF8FFF713
:1056400007FC102409E0002C0ADB0A220023FFF7E4
:1056500071FA019B30321A55641E50EA0102F2D1F0
:10566000641C019AC4F1110314440F9A012A09D051
:105670000122084301D15B450FDD4FF0000205F127
:1056800001050DE0084303D1A3EB0B056D1E09E0F6
:1056900000204FF0110B0F9088E701DA00226D1EF9
:1056A000002A83D000980F99C0E90231C0E9004573
:1056B00071E7000030000000000024400000F03FCF
:1056C0000000F0430000E03F2DE9FF4F95B09B46FE
:1056D00089460646002512E2252878D10024761C4A
:1056E000F94A2746012105943378203B01FA03F05B
:1056F000104202D00443761CF6E730782A2811D0F5
:105700006FF02F033078A0F13002092A16D8059ADD
:1057100044F0020402EB820203EB42021044761CC6
:105720000590EFE759F8042B0592002A03DA50425E
:1057300044F40054059044F00204761C30782E287E
:1057400016D116F8010F44F004042A280DD06FF08A
:105750002F023078A0F13003092B09D807EB87031B
:1057600002EB4303C718761CF3E759F8047B761C59
:1057700030786C280FD006DC4C2817D068280DD064
:105780006A2814D104E0742810D07A280FD10DE0D3
:1057900044F400140AE044F4801401E044F440149A
:1057A0007278824202D1761C04F58014761C30781F
:1057B00066280BD013DC582877D009DC002875D078
:1057C0004528F6D04628F4D047281AD19FE118E0A2
:1057D000632835D0642879D0652812D197E17028E4
:1057E00073D008DC6728F1D069286FD06E280DD0FF
:1057F0006F2806D1B5E073282CD0752875D078288D
:1058000074D05A46179990476D1C76E1C4F3025044
:10581000022809D003280DD0D9F8001004280DD093
:105820000D6009F1040968E1D9F80010EA17C1E92F
:105830000052F6E7D9F800100D80F2E70D70F0E79E
:1058400019F8041B8DF8001000208DF80100EA46BD
:10585000012003E059F804AB4FF0FF3061074FF02F
:10586000000102D40DE008F101018846B9420FDAC7
:105870008045F8DB1AF808100029F4D108E008F197
:10588000010188468142FADB1AF808100029F6D196
:1058900005985B46A0EB080721463846179A00F0AA
:1058A0009EFA284400EB080507E04DE02BE10DE0EF
:1058B0001AF8010B5A4617999047B8F10108F7D228
:1058C0005B4621463846179A14E142E00A220092CC
:1058D000C4F302524FF0000A022A08D059F804CB50
:1058E000032A4FEAEC710AD00DE029E02AE009F121
:1058F000070121F00702F2E802C1914609E00FFA20
:105900008CFC4FEAEC71042A03D14FFA8CFC4FEA6D
:10591000EC71002907DA0A460021DCF1000C61EB8A
:1059200002012D2202E0220504D52B228DF804204D
:10593000012203E0E20701D02022F7E7904653E07E
:105940000A2102E010220DE010214FF0000A009120
:105950000BE010224FF0000A44F0040408270092E4
:1059600003E008224FF0000A0092C4F30252022A18
:1059700005D059F804CB0021032A08D009E009F129
:10598000070121F00702F2E802C1914605E01FFA83
:105990008CFC042A01D10CF0FF0C4FF00008220708
:1059A00022D5702827D0009B83F0100353EA0A0306
:1059B00009D15CEA010206D030228DF804208DF86E
:1059C000050002229046009B83F0080353EA0A0375
:1059D0000AD15CEA010201D1620705D530228DF8B7
:1059E00004204FF001087F1E582809D037A00390EB
:1059F0000EA8029013E040228DF804200122E1E776
:105A000037A0F4E753466046009AFFF793F88446C0
:105A10000398825C0298A0F10100029002705CEA97
:105A20000100EFD1029806A9A1EB000000F1200AC5
:105A3000600702D524F4803400E00127574502DDD9
:105A4000A7EB0A0000E0002000EB0A010090059897
:105A50004144A0EB01000590E00306D45B462146DB
:105A6000179A059800F0BBF90544002706E001A845
:105A70005A46C05D179990476D1C7F1C4745F6DB61
:105A8000E0030CD55B462146179A059800F0A7F96C
:105A9000054404E030205A46179990476D1C009940
:105AA000481E00900029F5DC08E0029802995A4649
:105AB0000078491C0291179990476D1CBAF10001BA
:105AC000AAF1010AF1DC6BE109280100303132331F
:105AD000343536373839616263646566000000002A
